:100000000C9443010C94290B0C94020B0C94DB0A06
:100010000C94B40A0C946B010C946B010C948D0A33
:100020000C946B010C946B010C94BD200C942F214B
:100030000C946B010C946B010C946B010C946B0190
:100040000C946B010C9445140C946B010C946B0193
:100050000C946B010C946B010C946B010C94240AAE
:100060000C946B010C946B010C946B010C946B0160
:100070000C946B010C946B010C946B010C946B0150
:100080000C946B010C946B010C946B010C946B0140
:100090000C946B010C946B010C946B010C946B0130
:1000A0000C946B010C946B010C946B01EB07EE0745
:1000B000DD07E107E7070F080F080F08F207F6074B
:1000C000FA07000804080F080A08000000002500CD
:1000D00028002B002E003100000000002300260025
:1000E00029002C002F000000000200090F0000036F
:1000F0000401000C000000000000000000000000EF
:10010000000000000000000000240027002A002D4D
:100110000030000408020110408040102040804060
:10012000800802040180402010020110801020404D
:100130004020040404040403040502020202040330
:100140000202020206060606060604040202020471
:1001500004436F756C646E277420626567696E284E
:10016000292120436865636B20796F757220776958
:1001700072696E673F000A444E53736572763A2087
:10018000000A444843507372763A20000A4761746B
:10019000657761793A20000A4E65746D61736B3A38
:1001A00020000A495020416464723A2000556E6173
:1001B000626C6520746F2072657472696576652063
:1001C0007468652049502041646472657373210D21
:1001D0000A005265717565737420444843500043AA
:1001E0006F6E6E656374656421004661696C656459
:1001F00021000A417474656D7074696E6720746FB4
:1002000020636F6E6E65637420746F2000080B00AE
:10021000020202010009040000010202000005249C
:100220000010010524010101042402060524060032
:10023000010705810310004009040100020A0000C3
:100240000007050202400000070583024000000489
:1002500003090412010002EF02014041233680002D
:10026000010102030141726475696E6F204C4C43B9
:100270000041726475696E6F204C656F6E617264C7
:100280006F00C4231E2A11241FBECFEFDAE0DEBFA9
:10029000CDBF13E0A0E0B1E0E6EEFBE502C00590C3
:1002A0000D92A634B107D9F727E0A6E4B3E001C068
:1002B0001D92AC36B207E1F711E0C2E4D1E004C010
:1002C0002197FE010E94F22CC134D107C9F70E9488
:1002D000BB240C94E62D0C94000063E172E08DEADF
:1002E00094E00C946623CF92DF92EF92FF926B0121
:1002F0007C018091190590911A05009709F442C07C
:100300004F2D5527662777272AE00E947B236EE230
:100310008091190590911A050E945F234E2D50E09F
:1003200060E070E02AE08091190590911A050E9422
:100330007B236EE28091190590911A050E945F233C
:100340004D2D50E060E070E02AE080911905909119
:100350001A050E947B236EE28091190590911A057F
:100360000E945F23B701A6015527662777272AE059
:100370008091190590911A05FF90EF90DF90CF9032
:100380000C947B23FF90EF90DF90CF9008950F9314
:100390001F93CF93DF938C01C0E0D0E0F801EC0F06
:1003A000FD1F6491662371F0E091AD04F091AE04FD
:1003B0000190F081E02D8DEA94E00995892B11F0F0
:1003C0002196ECCFCE01DF91CF911F910F9108952F
:1003D000CF93DF930E94C701EC010E946D018C0F47
:1003E0009D1FDF91CF910895E82FF0E0EE0FFF1FE2
:1003F000E050FF4F20E038E1318320838230D9F094
:1004000028F4882341F0813071F008958330D9F0C9
:10041000843009F10895809169008C7F8260809317
:100420006900E89A089580916900837F88608093CD
:100430006900E99A0895809169008F7C80628093B9
:100440006900EA9A0895809169008F7380688093AB
:100450006900EB9A089580916A008F7C8062809396
:100460006A00EE9A08956F927F928F929F92AF9258
:10047000BF92CF92DF92EF92FF920F931F93CF9391
:10048000DF9300D000D0CDB7DEB78C01E12CF12C8A
:1004900080E1B82E96E2A92E0E94700F8091480349
:1004A00090914903892BC1F3C0904A03D0904B032C
:1004B000F6018081843009F02AC261E070E0C60153
:1004C0000E94770D7C01C6010E94830D672B682B6B
:1004D000692B09F010C23601F5E06F0E711C48E07F
:1004E000E41640E1F40608F076C086E0E81680E104
:1004F000F80608F002C1E2E0EE16FE0609F4FDC0BF
:1005000000F54DE0E416F10480F488E0E816F1040B
:1005100008F0F3C0E1E0EE16F10408F4ECC1F7E0F6
:10052000EF16F10408F06CC1E8C04DE0E416F104E8
:1005300009F4DEC081E0E81682E0F80609F4D8C0CC
:10054000DAC1E3E0EE16E0E1FE0610F5F1E0EF16A9
:10055000F0E1FF0608F0D1C045E0E41642E0F40601
:1005600008F4C6C087E0E81682E0F80609F0C3C1C7
:10057000F6018481F80181938F0160E070E0C3018E
:100580000E94460DAB01BC01C8010E94500BB3C1D3
:10059000E4E0EE16E0E1FE0609F4D9C008F40AC171
:1005A00060E070E0C3010E94460DF8016083718332
:1005B0008283938364E070E0C3010E94460DF801DA
:1005C0006483758386839783085F1F4FF6013D968A
:1005D000D8018B2D47C141E1E41640E1F40609F44E
:1005E00087C008F04BC0EBE0EE16E0E1FE0609F430
:1005F00084C0A8F549E0E41640E1F40609F47DC0A2
:1006000008F0EFC060E070E0C3010E94460DF80101
:10061000608371838283938364E070E0C3010E94EE
:10062000460DF801648375838683978368E070E0E4
:10063000C3010E94460DF801608771878287938706
:100640004801FCE08F0E911C6CE070E0C3010E9439
:10065000460DF80164877587868797874BC1EFE061
:10066000EE16E0E1FE0609F4A5C008F051C04DE029
:10067000E41640E1F40609F46AC03DC185E0E816DD
:1006800080E2F80609F4F3C060F4F2E1EF16F0E15D
:10069000FF0609F453C041E0E41640E2F40640F5D9
:1006A0002AC18AE0E81680E2F80658F4E8E0EE167F
:1006B000E0E2FE06E8F4F6E0EF16F0E2FF06C1F035
:1006C0001AC14BE0E41640E4F40609F014C1F60147
:1006D000858190E0909363038093620361E070E012
:1006E000C3010E94770D909365038093640303C157
:1006F000F6018481F8018083FEC060E070E0C301F0
:100700000E94460DF8016083718382839383F3C056
:1007100060E070E0C3010E94460DF801619371939F
:10072000819391934F0164E070E0C3010E94460DF4
:10073000F8016483758386839783DCC060E070E092
:10074000C3010E94770DF80191838083D4C060E0DB
:1007500070E0C3010E94460DF801608371838283BB
:10076000938364E070E0C3010E94460DF801648346
:100770007583868397834801F8E08F0E911C68E0AB
:1007800070E0C3010E94460DF8016087718782877F
:1007900093870485158526853785073C1F4F2F4F86
:1007A0003F4F09F0A7C021E030E040E050E00E9458
:1007B000AF0CA0C060E070E0C3010E94460DF801DC
:1007C000608371838283938364E070E0C3010E943D
:1007D000460DF8016483758386839783085F1F4FF6
:1007E0008AC0F6018481F8018483F60185819681AF
:1007F000A781B085F80180839183A283B3837BC0F6
:1008000060E070E0C3010E94460DF80160837183CF
:100810008283938364E070E0C3010E94460DF80177
:10082000648375838683978368E070E0C3010E94C8
:10083000770DA0E0B0E0F80180879187A287B387A9
:100840006AE070E0C3010E94770DA0E0B0E0F8011B
:1008500082879387A487B587045F1F4FF60171963F
:10086000D8018A2D01900D928A95E1F744C0C80104
:10087000D8011496F30121913F01FC012193CF018E
:10088000EA17FB07B9F7F6013996C6010D962191D3
:100890002D93E817F907D9F7D8011896C6014196A4
:1008A00021912D93E817F907D9F7D8011C96C601B5
:1008B000459621912D93E817F907D9F7D80150965D
:1008C000C601499621912D93E817F907D9F7D80168
:1008D0005496C6014F9621912D93E817F907D9F741
:1008E000D8015A96C601CF9621912D93E817F907A2
:1008F000D9F701C084018091460390914703E8161F
:10090000F906D9F4109247031092460316C063E02B
:1009100070E0C6010E94770DF601628170E0AC01C3
:10092000461B570B6B5F7F4F6C0D7D1DC8010E94EE
:10093000C72D109269031092680310924903109218
:1009400048030E945A1AF6018081843009F077C06A
:10095000E114F0E1FF0609F072C019821A821B82CD
:100960001C82F6018581823039F1833009F445C05B
:10097000813009F064C08091500390915103892B1C
:1009800089F0E0915003F0915103CE010196099551
:10099000009741F060914C0370914D0329813A8199
:1009A000AC0108C060914C0370914D0320E030E031
:1009B00040E050E081E041C080914E0390914F03B0
:1009C000892B89F0E0914E03F0914F03CE010196FF
:1009D0000995009741F060914C0370914D03298176
:1009E0003A81AC0108C060914C0370914D0320E046
:1009F00030E040E050E082E020C0809152039091CE
:100A00005303892B89F0E0915203F0915303CE01F7
:100A100001960995009741F060914C0370914D0348
:100A200029813A81AC0108C060914C0370914D035B
:100A300020E030E040E050E083E00E94800F8091B1
:100A4000460390914703892B09F026CD80916803D6
:100A500090916903892B09F01FCD80E090E00F9001
:100A60000F900F900F90DF91CF911F910F91FF90FA
:100A7000EF90DF90CF90BF90AF909F908F907F903E
:100A80006F900895EF92FF920F931F93CF93DF9390
:100A9000CDB7DEB7C454D1090FB6F894DEBF0FBE90
:100AA000CDBF20E4E8E2F1E0DE01119601900D9265
:100AB0002A95E1F72091FD04222309F464C0AB01DB
:100AC000BC01E0904C03F0904D0384E2D7011996ED
:100AD0008C9319971A961C921A971B961C921B9727
:100AE0001C961C92C7010D960E94500BFC0184E1DC
:100AF000808311821282138284E684831582168297
:100B0000178285E080871186128613868FEF84878F
:100B10008FE185871686178648E85FEF6FEF7FEFD6
:100B2000CF0140960E94500BFC011082118212826C
:100B300013828CE2848381E08583168217828E0182
:100B40000F5F1F4F3896CE018F5B9F4FD8012D91BD
:100B50008D012193A817B907C9F744E6B70183E0CF
:100B600090E00E94570BB80183E090E00E94670B71
:100B7000F801408151816281738121E0452B462B30
:100B8000472B09F020E0822FCC5BDF4F0FB6F894A3
:100B9000DEBF0FBECDBFDF91CF911F910F91FF90B0
:100BA000EF9008952F923F924F925F926F927F92B3
:100BB0008F929F92AF92BF92CF92DF92EF92FF926D
:100BC0000F931F93CF93DF93CDB7DEB72E970FB65A
:100BD000F894DEBF0FBECDBF6B877C878D879E8765
:100BE0004A0128013901CE0101961C0186E0F1017C
:100BF00011928A95E9F78FEF9FEFDC018F83988739
:100C0000A987BA8700914C0310914D038CE1F8013C
:100C10008187128613861486B301A201C8010D963E
:100C20000E94500B4B855C856D857E850E94500B24
:100C3000B301A201405F5F4F6F4F7F4F0E94500B87
:100C4000B601A5010E94500BFC0110821182F10136
:100C5000DC0112961E0127E0220E311C21912D93FA
:100C6000E215F305D9F7FC013896D401AD01481916
:100C7000590960E070E044155505660577051CF4D8
:100C80008D918193F3CFA114B104C104D10479F5FE
:100C90008CE18A0D482F440DB80181E090E00E945C
:100CA000570BB10181E090E00E94670B6F8178855E
:100CB00089859A8570936707609366072E960FB6AD
:100CC000F894DEBF0FBECDBFDF91CF911F910F9182
:100CD000FF90EF90DF90CF90BF90AF909F908F905C
:100CE0007F906F905F904F903F902F900895E11408
:100CF000F10471F2D701AD014E195F0960E070E0B7
:100D00004A155B056C057D051CF68D918193F3CF2B
:100D10000F931F93CF93DF9300D000D0CDB7DEB7F2
:100D2000AB01BC018FEF9FEFDC0189839A83AB831A
:100D3000BC8300914C0310914D03F801118612867B
:100D400013861486158616861786108AC801419662
:100D50000E94500B4CE0B80184E090E00E94570BD9
:100D6000BE016F5F7F4F84E090E00E94670B698156
:100D70007A818B819C810F900F900F900F90DF9163
:100D8000CF911F910F9108950F931F93CF93DF93EE
:100D900041155105E9F061157105D1F0FC0124817F
:100DA00035812115310519F4FB01108211C0EA01CA
:100DB00021972C173D0708F4E9018B01FC016081A4
:100DC0007181AE01C8010E94D72DC00FD11F1882BA
:100DD000DF91CF911F910F910895CF93DF93BC01C5
:100DE0008DEA94E00E946623EC010E946D018C0F55
:100DF0009D1FDF91CF910895CF93DF93482F50E04F
:100E000060E070E02AE08DEA94E00E947B23EC0130
:100E10000E946D018C0F9D1FDF91CF910895BC0141
:100E20008DEA94E00C946623CF92DF92EF92FF92CA
:100E3000DC01A03282E0B8070CF03EC0B7FD06C06E
:100E4000A53BB1052CF0A4EBB0E002C0A0E0B0E0FF
:100E50008091FF0428E830E06901C81AD10887FDB5
:100E6000D394CC0CDD1CCC0CDD1C0D2C000CEE083E
:100E7000FF088091000528E532E0281B310987FD35
:100E80003395220F331F220F331FA901330F660B37
:100E9000770B9A01AB012C193D094E095F090E949D
:100EA000762C24EB30E040E050E00E944C2CC20E47
:100EB000D31EE41EF51ED6019091FE049C3098F5D9
:100EC0008091FF0448E850E0481B510987FD539585
:100ED000440F551F440F551FA417B5078CF0809180
:100EE000000528E532E0281B310987FD3395220FE4
:100EF000331F220F331FAD012A173B070CF4A90142
:100F000042505109440F551F2FB7F894892F90E094
:100F1000FC01EE0FFF1F8E0F9F1FFC01E758FC4FD7
:100F2000528341832FBFFF90EF90DF90CF900895C1
:100F3000CF93DF931F92CDB7DEB76983DC01ED91CC
:100F4000FC910280F381E02D41E050E0BE016F5F33
:100F50007F4F09950F90DF91CF91089583E08093A3
:100F6000E9008091F200882319F08AE38093E80079
:100F70000895FC018485958597FD0BC09FB7F89473
:100F800082E08093E9008091F2009FBF90E001969B
:100F900008959FB7F89482E08093E9008091F20071
:100FA0009FBF90E0089590E0FC013197EF30F1058C
:100FB000B0F5EA5AFF4F0C94F22C809180008F77A5
:100FC00003C0809180008F7D809380000895809180
:100FD0008000877FF9CF84B58F7702C084B58F7D7D
:100FE00084BD0895809190008F7707C08091900014
:100FF0008F7D03C080919000877F8093900008953B
:101000008091C0008F7703C08091C0008F7D809356
:10101000C00008958091C200877F8093C200089528
:101020003FB7F8948091280690912906A0912A064E
:10103000B0912B0626B5A89B05C02F3F19F001964D
:10104000A11DB11D3FBFBA2FA92F982F8827820F4E
:10105000911DA11DB11DBC01CD0142E0660F771F9E
:10106000881F991F4A95D1F7089508958F929F92EE
:10107000AF92BF92CF92DF92EF92FF920F931F93A6
:10108000CF93DF937C018B016C0182E0C80ED11CF1
:101090004701E5E08E0E911CC0E0D0E0F6014191E1
:1010A0006F0150E060E070E02AE0C8010E947B23FD
:1010B0005C016EE2C8010E945F238A0D9B1DC80F70
:1010C000D91FC814D90451F7F701458150E060E0F9
:1010D00070E02AE0C8010E947B238C0F9D1FDF91E6
:1010E000CF911F910F91FF90EF90DF90CF90BF9025
:1010F000AF909F908F9008950E94531F90E00895A5
:101100000F931F93CF93DF931F92CDB7DEB78C0160
:10111000FC018485958597FF0EC0CE0101960E9443
:10112000291F019719F4298130E002C02FEF3FEF0A
:10113000F80135872487F801848595850F90DF9124
:10114000CF911F910F910895CF93DF931F92CDB749
:10115000DEB7FC018485958597FD05C02FEF3FEF35
:10116000358724870BC0CE0101960E94291F019765
:1011700019F4898190E002C08FEF9FEF0F90DF910B
:10118000CF9108950E94C22DCF93DF93282F30E096
:10119000F901EA51FF4F8491F901ED5EFE4FD491C0
:1011A000F901EE5CFE4FC491CC2391F081110E94B5
:1011B000D307EC2FF0E0EE0FFF1FE852FF4FA59191
:1011C000B491EC91ED2381E090E021F480E002C045
:1011D00080E090E0DF91CF9108951F93CF93DF934C
:1011E000282F30E0F901EA51FF4F8491F901ED5EBB
:1011F000FE4FD491F901EE5CFE4FC491CC23C9F0AF
:10120000162F81110E94D307EC2FF0E0EE0FFF1F85
:10121000E653FF4FA591B4918FB7F894111105C013
:101220009C91ED2FE095E92302C0EC91ED2BEC931E
:101230008FBFDF91CF911F910895CF93DF9390E0FF
:10124000FC01ED5EFE4F2491FC01EE5CFE4F8491AB
:10125000882361F190E0880F991FFC01EB5FFE4F3E
:10126000C591D491FC01E653FF4FA591B491611152
:1012700009C09FB7F8948881209582238883EC91D8
:101280002E230BC0623061F49FB7F8943881822F0F
:10129000809583238883EC912E2B2C939FBF06C0CF
:1012A0008FB7F894E8812E2B28838FBFDF91CF91E1
:1012B00008958F929F92AF92BF92CF92DF92EF925A
:1012C000FF926B017C010E9410084B015C01C1146C
:1012D000D104E104F104F1F00E941008DC01CB011B
:1012E00088199909AA09BB09883E9340A105B1054F
:1012F00070F321E0C21AD108E108F10888EE880EE7
:1013000083E0981EA11CB11CC114D104E104F104B6
:1013100019F7DDCFFF90EF90DF90CF90BF90AF90A7
:101320009F908F9008958F929F92AF92BF92CF928D
:10133000DF92EF92FF920F931F93CF93DF935C01A5
:101340006B017A0180911901882309F45BC08091B7
:101350005107882309F456C08091600780FF05C0BB
:101360008091E00082608093E000E70110E00AEFE6
:1013700083E0882E9AE3992E2097D9F10E94531F7B
:1013800081110AC0015009F43DC061E070E080E0C5
:1013900090E00E945909F0CF282F30E0C217D30700
:1013A0000CF48C2F4FB7F8948092E9009091E800EC
:1013B00095FF1DC0282F30E0C21BD30BF601982FDC
:1013C000915020F081918093F100FACFC20ED31E8C
:1013D000112319F09092E80009C08091E80085FD82
:1013E00006C09092E80011E0209709F010E04FBF8E
:1013F000C3CF1111C3CF5D9884E6809361071E149B
:101400001F0444F081E090E0F5019383828380E043
:1014100090E001C0C701DF91CF911F910F91FF9024
:10142000EF90DF90CF90BF90AF909F908F900895F6
:101430002FB7F894609124067091250680912606B6
:10144000909127062FBF08951F920F920FB60F920B
:1014500011242F933F938F939F93AF93BF938091CA
:10146000240690912506A0912606B091270630917A
:10147000230623E0230F2D3720F40196A11DB11D73
:1014800005C026E8230F0296A11DB11D2093230657
:101490008093240690932506A0932606B0932706F2
:1014A0008091280690912906A0912A06B0912B06DA
:1014B0000196A11DB11D8093280690932906A09343
:1014C0002A06B0932B06BF91AF919F918F913F91C8
:1014D0002F910F900FBE0F901F901895823079F0CA
:1014E00030F4882351F0813069F4E9980BC08330DF
:1014F00041F0843039F4EE9805C0E89803C0EA98CA
:1015000001C0EB98E82FF0E0EE0FFF1FE050FF4F17
:1015100085E398E09183808308951F920F920FB620
:101520000F9211242F933F934F935F936F937F9369
:101530008F939F93AF93BF93EF93FF93E091080135
:10154000F09109010995FF91EF91BF91AF919F91A2
:101550008F917F916F915F914F913F912F910F905C
:101560000FBE0F901F9018951F920F920FB60F92FB
:1015700011242F933F934F935F936F937F938F9398
:101580009F93AF93BF93EF93FF93E0910601F09188
:1015900007010995FF91EF91BF91AF919F918F91B5
:1015A0007F916F915F914F913F912F910F900FBE5F
:1015B0000F901F9018951F920F920FB60F92112443
:1015C0002F933F934F935F936F937F938F939F934B
:1015D000AF93BF93EF93FF93E0910401F091050166
:1015E0000995FF91EF91BF91AF919F918F917F915D
:1015F0006F915F914F913F912F910F900FBE0F9080
:101600001F9018951F920F920FB60F9211242F93CF
:101610003F934F935F936F937F938F939F93AF937A
:10162000BF93EF93FF93E0910201F09103010995BD
:10163000FF91EF91BF91AF919F918F917F916F91AA
:101640005F914F913F912F910F900FBE0F901F9080
:1016500018951F920F920FB60F9211242F933F935C
:101660004F935F936F937F938F939F93AF93BF93AA
:10167000EF93FF93E0910001F09101010995FF9133
:10168000EF91BF91AF919F918F917F916F915F91FA
:101690004F913F912F910F900FBE0F901F90189573
:1016A000FC01408351836283738304960895FB0198
:1016B00021E0258386839783408750E0BA016C5FE1
:1016C0007F4FCF010E94641A80E090E008959093CC
:1016D000470380934603CB010C943302CF92DF92F1
:1016E000EF92FF92CF93DF93EC0110926A03109276
:1016F0006B0310926C0310926D0310926E031092A4
:101700006F031092700310927103109247031092AE
:1017100046031092630310926203109265031092C5
:10172000640310926703109266031092690310928B
:10173000680310925E0310925F0310926003109290
:101740006103109249031092480310924B031092C8
:101750004A03ADE1B5E0B0934D03A0934C03109262
:1017600038061092390610923A0610923B0620EA8B
:1017700035E093E8F901892F11928A95E9F7FD0187
:1017800011929A95E9F78AE49FE09093330680934B
:101790003206109235061092340610923D061092D1
:1017A0003C0630933F0620933E0610923706109277
:1017B00036069EED9093220690939F05E091580384
:1017C000F09159030995E0915603F091570309955B
:1017D0006B017C01E0915C03F0915D0381E0099570
:1017E000CD28CE28CF2889F0E0915603F0915703F9
:1017F0000995672B682B692BB9F760914C037091A1
:101800004D03CD2BA9F480E014C0E0915603F09174
:1018100057030995672B682B692BB9F3E0915603A1
:10182000F09157030995672B682B692BB9F7E5CF22
:1018300082E0FB01818741E080E090E40E94570B49
:1018400060E070E080E090E40E94670B60914C03E0
:1018500070914D0340E08BE090E40E94570B60E0F4
:1018600070E08BE090E4DF91CF91FF90EF90DF90FC
:10187000CF900C94670BAF92BF92CF92DF92EF9212
:10188000FF920F931F93CF93DF93CDB7DEB72897C7
:101890000FB6F894DEBF0FBECDBF5C017B016A01BD
:1018A0008FEF9FEF9093670780936607673E710500
:1018B00008F042C000914C0310914D0388E0D8011C
:1018C00019968C9319971A961C921A971B961C922C
:1018D0001B971C961C92AB0160E070E0C8010D964E
:1018E0000E94500BF50195012E0D3F1DE217F307E5
:1018F00029F04191DC014D93CD01F8CF48E04E0D28
:10190000B80180E190E10E94570BBE016F5F7F4FED
:1019100080E190E10E94670B89819A81909367072B
:10192000809366074D815E816F817885F6014083E3
:1019300051836283738302C08FEF9FEF28960FB6A7
:10194000F894DEBF0FBECDBFDF91CF911F910F91F5
:10195000FF90EF90DF90CF90BF90AF9008958F925F
:101960009F92AF92BF92CF92DF92EF92FF92683038
:10197000710581059105B0F522303105410551050C
:1019800088F5E1E0F0E0062E02C0EE0FFF1F0A949A
:10199000E2F7E095F0956F01FF0FEE08FF088090E9
:1019A0000A0190900B01A0900C01B0900D01C8208D
:1019B000D920EA20FB2049015A0104C0880C991C57
:1019C000AA1CBB1C6A95D2F7D701C60188299929A0
:1019D000AA29BB2980930A0190930B01A0930C01C3
:1019E000B0930D01FF90EF90DF90CF90BF90AF903C
:1019F0009F908F900895CF92DF92EF92FF920F9376
:101A00001F93CF93DF9300D000D0CDB7DEB76B012B
:101A10007C018FEF9FEFDC0189839A83AB83BC83CA
:101A200000914C0310914D03B701A601C80109961E
:101A30000E94500B44E0B8018BE090E10E94570BEC
:101A4000BE016F5F7F4F8BE090E10E94670B898141
:101A50009A81909367078093660721E030E040E029
:101A600050E0C701B6010E94AF0C69817A818B8179
:101A70009C810F900F900F900F90DF91CF911F914D
:101A80000F91FF90EF90DF90CF9008950F931F93E9
:101A9000FC01E60FF71F438150E060E070E0342F57
:101AA0002227112700279281492F50E060E070E043
:101AB000BA0155274427400F511F621F731F8081B1
:101AC000480F511D611D711D818190E0A0E0B0E0C3
:101AD000BA2FA92F982F88278A019B01080F191F59
:101AE0002A1F3B1FC901B8011F910F910895FC01E6
:101AF000E60FF71F9181892F90E0982F882720818A
:101B0000820F911D08958F929F92AF92BF92CF92B4
:101B1000DF92EF92FF920F931F93CF93DF93CDB796
:101B2000DEB765970FB6F894DEBF0FBECDBF8C0150
:101B300061E070E00E94770D6C01E12CF12C96FFC2
:101B400069C0811521E4920709F064C065E070E086
:101B5000C8010E94770D4C01095F1F4FA12CB12CC9
:101B6000C12CD12C7601A814B90479F062E070E0A0
:101B7000C8010E94770DC80ED91EE11CF11C0C5F34
:101B80001F4F8FEFA81AB80AEECF80916203909191
:101B900063038C0D9D1D909363038093620380917A
:101BA0006E0390916F03A0917003B0917103C80E02
:101BB000D91EEA1EFB1EC0926E03D0926F03E09204
:101BC0007003F092710340916E0350916F03609126
:101BD00070037091710380916A0390916B03A091DF
:101BE0006C03B0916D03481759076A077B0709F02A
:101BF00025C180917203882309F420C1E091540328
:101C0000F091550320E040E050E069E970E080E0A9
:101C100090E0D3C097FFD3C08034E0E89E0709F47A
:101C20006DC0C0F4843020E8920709F4B6C030F4E7
:101C300081509048029708F017C1AFC0803190489A
:101C400009F012C1D8011596FE013196CE01059614
:101C5000AF011AC0811524E8920709F49EC050F420
:101C60008038F0E89F0709F498C08115924809F47C
:101C700094C0FAC08115E8E89E0709F47EC081157A
:101C8000994809F48AC0F0C02D912193E817F9070B
:101C9000D9F7F80181858D8382858E8383858F8333
:101CA000848588873D96DE011996C8014196219169
:101CB0002D93E817F907D9F7DE011D96C80145965F
:101CC00021912D93E817F907D9F7DE015196C80144
:101CD000499621912D93E817F907D9F7F8018481E6
:101CE0008D8B8091540390915503892B09F4A6C0E4
:101CF000E0915403F091550325E15DC00B5F1F4F48
:101D000060E070E0C8010E94460D69837A838B838E
:101D10009C8364E070E0C8010E94460D6D837E8361
:101D20008F83988768E070E0C8010E94460D69873C
:101D30007A878B879C876CE070E0C8010E94460D13
:101D40006D877E878F87988B60E170E0C8010E9465
:101D5000460D698B7A8B8B8B9C8B80915403909171
:101D60005503892B09F46AC0E0915403F09155039F
:101D700024E1AE014F5F5F4F1EC0809154039091EC
:101D80005503892B09F45AC0E0915403F09155038F
:101D9000A8014B5F5F4F21E00EC0809154039091EA
:101DA0005503892B09F44AC0E0915403F09155037F
:101DB00020E040E050E0C701B60109953FC0F3E0E4
:101DC000CF16F0E1DF06E104F10421F08E509041DE
:101DD0000297C8F5780125E0E20EF11C64E070E09E
:101DE000C7010E94460D673C7F4F8F4F9F4FE1F523
:101DF000F801848190E0A0E0B0E080935E039093CE
:101E00005F03A0936003B093610360E070E0C701DB
:101E10000E94460D4B015C0164E070E0C7010E9426
:101E2000460D673C7F4F8F4F9F4F41F421E030E0DC
:101E300040E050E0C501B4010E94AF0C61E070E0E9
:101E400080E090E014C08091460390914703A0E0A9
:101E5000B0E0C816D906EA06FB0631F0C11420E14D
:101E6000D206E104F10451F760E070E0CB01659621
:101E70000FB6F894DEBF0FBECDBFDF91CF911F919B
:101E80000F91FF90EF90DF90CF90BF90AF909F9019
:101E90008F90089521E030E0309349032093480368
:101EA00090934B0380934A03809148039091490398
:101EB000892BA9F080914A0390914B03FC0120816A
:101EC000243069F40E94830D61307105810591050C
:101ED00031F410924903109248030C945A1A089551
:101EE000809177030E94C408892B49F480911C05D6
:101EF000811105C080911B0581110C940018089573
:101F00008F929F92AF92BF92CF92DF92EF92FF9209
:101F10000F931F93CF93DF938B01BA01E90123E065
:101F2000F80125838683CE01029687839087C801B6
:101F30000B96C93EF3E0DF07C0F4F801C187D287F2
:101F4000AE010E94C72DBE016A5F7F4FC801DF91BD
:101F5000CF911F910F91FF90EF90DF90CF90BF90A6
:101F6000AF909F908F900C94641A38EEF8013187EF
:101F7000228728EE33E0FA01DC0101900D92215016
:101F80003040D9F7C85ED3406A01F8E1CF1AFCEFC0
:101F9000DF0A6EEE73E0C8010E94641A480127E070
:101FA000820E911C580135E0A30EB11C0E94700FE7
:101FB000C93E83E0D80738F0C85ED34088EEE82EEB
:101FC00083E0F82E03C07E01C0E0D0E0F801F68285
:101FD000E582A701B601C4010E94C72DCE0CDF1C0B
:101FE000B7016E5F7F4FC5010E94641A2097F1F61A
:101FF000DF91CF911F910F91FF90EF90DF90CF90E5
:10200000BF90AF909F908F900895DC011C968D91AA
:102010009C911D97009739F0DC01ED91FC910280B5
:10202000F381E02D099480E090E00895DC011C9696
:102030008D919C911D97009739F0DC01ED91FC91F9
:102040000288F389E02D099480E090E00895DC0196
:102050001C968D919C911D97009739F0DC01ED91B4
:10206000FC910084F185E02D099480E090E00895D2
:10207000DC011C968D919C911D97009739F0DC0135
:10208000ED91FC910284F385E02D099480E090E0CD
:102090000895DC011C968D919C911D97009739F055
:1020A000DC01ED91FC910190F081E02D099480E03C
:1020B00090E00895DC011C968D919C911D970097EE
:1020C00039F0DC01ED91FC910688F789E02D099447
:1020D00080E00895DC011C968D919C911D970097DE
:1020E00039F0DC01ED91FC910088F189E02D099433
:1020F00080E090E00895EF92FF920F931F93CF93AB
:10210000DF9300D000D000D0CDB7DEB7FC018485CE
:1021100095850097D9F0DB01FC0120813181F9011F
:10212000E684F78426EE31E03A83298312960D91F6
:102130001D912D913C9115970B831C832D833E831C
:10214000BE016F5F7F4FF701099502C080E090E00C
:1021500026960FB6F894DEBF0FBECDBFDF91CF91AC
:102160001F910F91FF90EF900895DC01ED91FC918C
:102170000688F789E02D099591E0811101C090E072
:10218000892F08950895DC01ED91FC910688F78967
:10219000E02D099591E0811101C090E0892F08950B
:1021A000089580E090E00895CF93DF93EC01C15B48
:1021B000DF4F688179818A819B810E94FB0C8FEFC0
:1021C0009FEFDC0188839983AA83BB83DF91CF9142
:1021D0000895CF93DF93EC01C15BDF4F48815981B4
:1021E0006A817B8177FD23C0DC01ED91FC91008445
:1021F000F185E02D0995892B51F4688179818A81D7
:102200009B81FB01E15DF84F2081211102C081E03B
:102210000FC00E94FB0CE881F981E15DF84F10824C
:102220008FEF9FEFDC0188839983AA83BB8380E0D3
:10223000DF91CF9108954F925F926F927F928F922C
:102240009F92AF92BF92CF92DF92EF92FF920F9345
:102250001F93CF93DF93EC013C012DE4620E711CC0
:102260005C018CE4A80EB11C2E01ECE04E0E511C5A
:102270004E01FFE48F0E911CF30140815181141631
:1022800015065CF10E94700FF401608171818281FA
:102290009381C12CD12C760100E410E020E030E0E5
:1022A000A2010E94C41EF30191838083C99691F418
:1022B000F40160817181828193810E94FB0C8FEF18
:1022C0009FEFDC01F40180839183A283B38380E0DC
:1022D00090E010C0F5011082CFCFF5019081292F39
:1022E00030E04217530771F2C20FD31F8C859F5FF6
:1022F000908390E0DF91CF911F910F91FF90EF902D
:10230000DF90CF90BF90AF909F908F907F906F9015
:102310005F904F9008954F925F926F927F928F924D
:102320009F92AF92BF92CF92DF92EF92FF920F9364
:102330001F93CF93DF93EC013C012DE4620E711CDF
:102340004C018CE4880E911C2E01ECE04E0E511CC9
:102350005E01FFE4AF0EB11CF30120813181121642
:1023600013065CF10E94700FF5016081718182811A
:102370009381C12CD12C760100E410E020E030E004
:10238000A2010E94C41EF30191838083C99691F437
:10239000F50160817181828193810E94FB0C8FEF36
:1023A0009FEFDC01F50180839183A283B38380E0FA
:1023B00090E00DC0F4011082CFCFF401808190E055
:1023C0002817390779F2C80FD91F8C8590E0DF9163
:1023D000CF911F910F91FF90EF90DF90CF90BF9022
:1023E000AF909F908F907F906F905F904F900895E7
:1023F000CF92DF92EF92FF920F931F93FB018A011E
:1024000020E030E0DC01A15BBF4F6D917D918D91AB
:102410009C91C12CD12C7601AF010E94C41E1F914A
:102420000F91FF90EF90DF90CF9008958F929F9241
:10243000AF92BF92CF92DF92EF92FF920F931F93D2
:10244000CF93DF93CDB7DEB72C970FB6F894DEBFEE
:102450000FBECDBFFC01E15BFF4F80819181A28166
:10246000B381B7FD5FC03297208131811216130608
:1024700054F43197408150E04217530724F4C901C6
:10248000841B950B51C019861A861B861C868C01ED
:102490009D0145E035952795179507954A95D1F704
:1024A000000F111F000F111FE1E0F0E0EC0FFD1F06
:1024B000E00FF11F4C015D012FE182229924AA2433
:1024C000BB24C12CD12C7601C39404C0CC0CDD1CE0
:1024D000EE1CFF1C8A94D2F7C086D186E286F38672
:1024E00019821A821B821C8208E813E120E030E086
:1024F0000D831E832F833887BC01CD016F5F7F4F13
:102500008F4F9F4F9E012F5F3F4FAE01475F5F4F41
:102510000E948C1C31E020E0019709F030E0832F0D
:10252000922F02C080E090E02C960FB6F894DEBFA8
:102530000FBECDBFDF91CF911F910F91FF90EF9014
:10254000DF90CF90BF90AF909F908F900895CF92E3
:10255000DF92EF92FF920F931F93CF93DF931F921F
:10256000CDB7DEB76983FC01E15BFF4F608171810C
:1025700082819381C12CD12C760101E010E020E012
:1025800030E0AE014F5F5F4F0E94491D97FF02C0D0
:1025900080E090E00F90DF91CF911F910F91FF901D
:1025A000EF90DF90CF900895CF92DF92EF92FF925D
:1025B0000F931F93FB018A0120E030E0DC01A15B57
:1025C000BF4F6D917D918D919C91C12CD12C760145
:1025D000AF010E94491D1F910F91FF90EF90DF9076
:1025E000CF9008958F929F92AF92BF92CF92DF9239
:1025F000EF92FF920F931F93CF93DF93CDB7DEB788
:1026000066970FB6F894DEBF0FBECDBF7C016B019D
:10261000FC01E35BFF4F11821082319710824D8BDA
:102620005E8B0E947A1B4B015C014D895E896F3F76
:102630002FEF72078207920709F469C0FB01E15D81
:10264000F84F10828E010F5F1F4F80E1F801119249
:102650008A95E9F782E090E09A8389835B834C83D3
:10266000F60182819381248135813D832E839F836E
:1026700088878FEF9FEFDC01898B9A8BAB8BBC8BAC
:10268000C0904C03D0904D03B501A401C60109963A
:102690000E94500BFC0188E0808311821282138219
:1026A0008483158216821782D8013896CE01099646
:1026B000A817B90719F02D912193FACF44E1B6017B
:1026C00087E090E10E94570BBE016F5E7F4F87E06D
:1026D00090E10E94670B89899A89AB89BC899093A4
:1026E0006707809366078F3F9F4FAF4FBF4F29F417
:1026F000C501B4010E94FB0C0AC0F701E15BFF4F6A
:1027000080829182A282B38281E090E002C080E068
:1027100090E066960FB6F894DEBF0FBECDBFDF9196
:10272000CF911F910F91FF90EF90DF90CF90BF90CE
:10273000AF909F908F900895EF92FF920F931F9309
:10274000CF93DF93CDB7DEB72A970FB6F894DEBFED
:102750000FBECDBF8C01CB017A011F82188619866E
:102760001A86FB0101900020E9F73197BF01681B31
:10277000790BAE01495F5F4F0E943B0C4F8158853A
:1027800069857A854115510561057105B9F0892B77
:10279000A9F0D801ED91FC910684F785E02D86EE35
:1027A00091E09A8389834B835C836D837E83A70149
:1027B000BE016F5F7F4FC801099502C080E090E0C5
:1027C0002A960FB6F894DEBF0FBECDBFDF91CF9132
:1027D0001F910F91FF90EF900895FA01603830E853
:1027E00073078105910521F430917303316009C0AD
:1027F000613030E873078105910531F4309173033E
:1028000032603093730321C0623030E87307810572
:10281000910531F420917303297F2093730327C01E
:10282000603130E873078105910521F480917303CD
:10283000846008C0693971058105910531F4809182
:1028400073038860809373030895603430E87307DE
:102850008105910561F480912E078F5F80932E078B
:10286000422F50E0BF018AE197E00C94C72D61151B
:1028700078488105910541F4E081E03228F4F0E0E8
:10288000E15DF84F81E0808308951F920F920FB6AB
:102890000F9211242F933F934F935F936F937F93E6
:1028A0008F939F93AF93BF93EF93FF9380911907FB
:1028B00087FF05C010928500109284001BC02091F4
:1028C0001907022E000C330B80919D0390E028170E
:1028D000390784F480911907082E000C990BFC012C
:1028E000EE0FFF1F8E0F9F1FFC01E758FC4F8081EA
:1028F00086FD15C0809119078F5F8093190720917D
:102900001907022E000C330B80919D0390E02817CD
:102910003907C4F4809119078C3064F113C0809199
:102920001907082E000C990BFC01EE0FFF1F8E0FEC
:102930009F1FFC01E758FC4F808160E08F730E946D
:10294000ED08D8CF80918400909185000496803462
:102950009C4918F480E49CE905C080918400909122
:102960008500049690938900809388008FEF809370
:1029700019073BC020918400309185008091190790
:10298000082E000C990BFC01EE0FFF1F8E0F9F1FEE
:10299000FC01E758FC4F81819281820F931F909335
:1029A00089008093880080911907082E000C990BEC
:1029B000FC01EE0FFF1F8E0F9F1FFC01E758FC4F1D
:1029C000808186FF12C080911907082E000C990B98
:1029D000FC01EE0FFF1F8E0F9F1FFC01E758FC4FFD
:1029E000808161E08F730E94ED08FF91EF91BF91AC
:1029F000AF919F918F917F916F915F914F913F9197
:102A00002F910F900FBE0F901F9018950F931F934B
:102A1000CF93DF93EC0180916206809340068AE1B8
:102A20008C1B80936306C09361068093410602E489
:102A300016E0A801405456408091630690E001964C
:102A40008417950734F00E94E02BF80181938F01E1
:102A5000F0CF20E030E02496C217D30774F0F901DC
:102A6000E40FF51FE05CF94FD901AF59B94F149647
:102A70008C9181832F5F3F4FEFCFDF91CF911F91DB
:102A80000F9108952F923F924F925F926F927F9293
:102A90008F929F92AF92BF92CF92DF92EF92FF926E
:102AA0000F931F93CF93DF93CDB7DEB7C254D109F5
:102AB0000FB6F894DEBF0FBECDBF82EF91E00E944B
:102AC000C701E091AD04F091AE044091A80350918C
:102AD000A9036091A4037091A5030280F381E02D06
:102AE0008DEA94E009950E946D010091A803109170
:102AF000A903C8010E94672A1C018091A20390913A
:102B0000A3030E94672A4C01A8014F5F5F4FB101E8
:102B100084EA93E00E94C4064091A2035091A3036B
:102B20004F5F5F4FB4018EE993E00E94C40610919D
:102B3000FD04112309F44DC10E94700F60EA7FE08B
:102B400080E090E00E94420564E971E180E090E05D
:102B50000E94590960E070E0CB010E944205D40157
:102B60009C918091FD04911130C0882309F47CC0B0
:102B700060E070E0CB010E948806672B682B692B10
:102B800009F072C064EF71E080E090E00E945909A2
:102B9000F10101900020E9F731978F010219130923
:102BA00020E030E0A12CB12C6501E12CF12CA10139
:102BB00060E070E0CB010E94D205672B682B692B87
:102BC00009F052C008EE13E04BC0882309F44CC052
:102BD000F10101900020E9F73197E219F309B1976B
:102BE00008F042C0F40101900020E9F73197E8199C
:102BF000F909B197C8F560E070E0CB010E94880642
:102C0000672B682B692B81F564EF71E080E090E021
:102C10000E945909F40101900020E9F731975F0102
:102C2000A818B908F10101900020E9F731978F0148
:102C300002191309C12CD12C20E030E07401A1014C
:102C400063E070E080E090E0B6CF0E94700F6AE031
:102C500070E080E090E00E9459090150110921F0D4
:102C60008091730381FFF1CF8091730381FF64CF63
:102C70008FED91E00E94E80182ED91E00E94E80171
:102C80008091730382FF09C0AE014F5F5F4F69E01F
:102C900070E08CE393E00E943B0C8091730382FD13
:102CA00015C064E670E080E090E00E945909E8CF2A
:102CB0008091730381FD0FC08DEA91E00E94E801CD
:102CC00068EE73E080E090E00E9459091091FD04E5
:102CD0001111EECFF1CF8091730382FFEDCF6091A0
:102CE0004C0370914D0340E085E090E20E94570B49
:102CF000BE016F5F7F4F85E090E20E94670B8C8181
:102D00008823D1F289819A81AB81BC818093150798
:102D100090931607A0931707B09318078D819E8193
:102D2000AF81B8858BAF9CAFADAFBEAF49845A843D
:102D30006B847C848D859E85AF85B88923968CAF06
:102D40009DAFAEAFBFAF2397C988DA88EB88FC8808
:102D500082EA91E00E94C701609115077091160701
:102D600080911707909118070E94730187E991E0FD
:102D70000E94C7016BAD7CAD8DAD9EAD0E9473010D
:102D80008CE891E00E94C701C301B2010E94730167
:102D900081E891E00E94C70123966CAD7DAD8EADB8
:102DA0009FAD23970E94730186E791E00E94C701BF
:102DB000C701B6010E9473010E946D0161E08DE0C0
:102DC0000E94ED08C1010E94FC2AC4010E94FC2A55
:102DD00004C08AEE91E00E94E801812FCE5BDF4FB4
:102DE0000FB6F894DEBF0FBECDBFDF91CF911F911C
:102DF0000F91FF90EF90DF90CF90BF90AF909F909A
:102E00008F907F906F905F904F903F902F9008959C
:102E1000FC01108211821282138280E090E00895FA
:102E2000FC01108211821282138280E090E00895EA
:102E3000FC01108211821282138280E090E00895DA
:102E40002CB5237F24602CBD680F791F23E08617E3
:102E5000970751F02EBD00000DB407FEFDCF3EB523
:102E6000FC013193CF01F3CF0895680F791F8617C6
:102E7000970751F0FC012191CF012EBD00000DB448
:102E800007FEFDCF2EB5F3CF089580912D06882340
:102E900061F09FB7F89420912D0680914F07213063
:102EA00019F48DBB9FBF08958FBF089520912D0603
:102EB000222399F04FB7F89420912D06213059F430
:102EC0002DB320934F073DB320912C06209523234B
:102ED0002DBB4FBF02C040934F078CBD9DBD0895D1
:102EE000CF93DF931F92CDB7DEB76983DC01ED91FD
:102EF000FC910280F381E02D41E050E0BE016F5F64
:102F00007F4F09950F90DF91CF910895AF92BF92B7
:102F1000CF92DF92EF92FF920F931F93CF93DF93A5
:102F20006B015A01EC0124967C012DEFE20EF11C9D
:102F300000E010E0E881F9810688F789E02DCE01F4
:102F40000995882359F0E881F9810280F381E02D09
:102F5000A501B601CE010995080F191FCD5ADF4F03
:102F6000CE15DF0539F7C801DF91CF911F910F9181
:102F7000FF90EF90DF90CF90BF90AF900895DC016D
:102F80001C968D919C911D97009739F0DC01ED9175
:102F9000FC910488F589E02D09940895DC011C96C4
:102FA0008D919C911D97009739F0DC01ED91FC917A
:102FB0000680F781E02D09940895DC011C968D911F
:102FC0009C911D97009739F0DC01ED91FC910484F0
:102FD000F585E02D099480E090E00895882311F0B4
:102FE00061E001C060E0809176030C94ED081092DE
:102FF0001B0580917503853010F40C946E0A0895BA
:103000000F931F93CF93DF9381E080931C058091F2
:10301000380690913906A0913A06B0913B06009788
:10302000A105B10569F481E090E0A0E0B0E08093F3
:10303000380690933906A0933A06B0933B06F3C046
:1030400082309105A105B10509F0BFC086E090E08E
:10305000A0E0B0E08093380690933906A0933A063A
:10306000B0933B068CB5809331068DB5817080930B
:10307000300680912F068CBD80912E06882319F092
:103080008DB5816002C08DB58E7F8DBD84E591E0E8
:103090000E94561760E0809178030E94ED086AE074
:1030A00070E080913E0690913F060E94201788E0D4
:1030B00090E0A0E0B0E08093380690933906A093AA
:1030C0003A06B0933B06C0913E06D0913F068D81F3
:1030D000823019F08430E1F03EC063E070E0CE0150
:1030E00005960E94770D9C01BC0180E090E020FDD8
:1030F00005C06F5F7F4F8F4F9F4F05C061157105F2
:103100008105910541F1CE010A960E94201723C046
:10311000088510E020E030E0C901B8016150710974
:103120008109910960FF02C0C901B80161157105EB
:103130008105910521F0CE010A960E94201788E0B2
:1031400090E0A0E0B0E08093380690933906A09319
:103150003A06B0933B0610921B05809175038530AB
:1031600010F40E946E0A61E0809178030E94ED08DD
:103170000E944517809131068CBD809130068823CE
:1031800019F08DB5816002C08DB58E7F8DBD8091A7
:103190003E0690913F06FC01EE57FF4F20812E3DE9
:1031A00009F0FFCF42E050E060E070E04093380665
:1031B0005093390660933A0670933B06E0913206CD
:1031C000F0913306059609952EC00397A105B10528
:1031D00051F5609134067091350680913C069091CE
:1031E0003D060E94351782E090E0A0E0B0E08093B9
:1031F000380690933906A0933A06B0933B0661E0F7
:10320000809178030E94ED080E9445178091310655
:103210008CBD80913006882319F08DB5816002C085
:103220008DB58E7F8DBD10921C05DF91CF911F91C2
:103230000F91089581E080931B058091750385307F
:1032400010F40C94F4010895809177030E94C4084F
:10325000BC01990F880B990B08958F929F92AF92A2
:10326000BF92EF92FF920F931F93CF93DF93CDB74F
:10327000DEB768970FB6F894DEBF0FBECDBF8C01E6
:103280000E94700F8FEF8983E0904C03F0904D0304
:1032900040E458E360E070E0C70109960E94500BDB
:1032A00040E15EE060E070E00E94500B4EE150E0D3
:1032B00060E070E00E94500B40E050E0BA010E94D4
:1032C000500B44E1B70189E090E20E94570BBE0128
:1032D0006F5F7F4F89E090E20E94670B89818111C7
:1032E000D8C00E94700F0E947A1B77FDD2C06D8BF0
:1032F0007E8B8F8B988F0E94700FE0904C03F09024
:103300004D036D897E894B01770FAA08BB08B50173
:10331000A401C70109960E94500B4FEF5FEF60E0D8
:1033200070E00E94500B42E050E060E070E00E94CC
:10333000500BFC0188E0808311821282138281E0AD
:103340008483158216821782108645E1B70189E0D1
:1033500090E10E94570BBE016F5F7F4F89E090E1C3
:103360000E94670B89819A81AB81BC81B7FF06C03F
:103370009C01909367078093660702C020E030E0CD
:1033800037FD87C082E090E09A8389831D821E8288
:103390001F821886F801E350FF4F808191819827A2
:1033A000892798279C838B830E94700F8FEF9FEF54
:1033B000DC01898B9A8BAB8BBC8BE0904C03F0903B
:1033C0004D03B501A401C70109960E94500BFC01F1
:1033D00088E0808311821282138284831582168290
:1033E0001782DE0111963896CE010996A817B90703
:1033F00019F02D912193FACF44E1B70182E090E1D9
:103400000E94570BBE016F5E7F4F82E090E10E94E9
:10341000670B89899A89AB89BC89909367078093E8
:103420006607B7FD36C00E94700F8FEF9FEFDC017B
:10343000898B9A8BAB8BBC8BE0904C03F0904D0347
:10344000B501A401C70109960E94500B40E050E06D
:10345000BA010E94500B48E0B70186E090E10E945B
:10346000570BBE016F5E7F4F86E090E10E94670BB5
:1034700089899A89AB89BC8990936707809366078D
:10348000B7FD07C0F801E150FF4F80829182A28210
:10349000B38268960FB6F894DEBF0FBECDBFDF9142
:1034A000CF911F910F91FF90EF90BF90AF909F90A1
:1034B0008F90089581E080931B058091750385307E
:1034C00010F40C94F40108950F931F93CF93DF939E
:1034D000EC01CB018170992721E0822721E028832C
:1034E0008C01060F171F19838170860F8A831B8238
:1034F0001C8280919F058E3D09F0FFCF8091380698
:1035000090913906A0913A06B0913B060097A1052B
:10351000B10509F4FFCF0197A105B10509F056C027
:103520008CB5809331068DB5817080933006809183
:103530002F068CBD80912E06882319F08DB58160F1
:1035400002C08DB58E7F8DBD84E591E00E94561737
:1035500060E0809178030E94ED0861E070E080E017
:1035600090E00E94590964E070E0CE010E94351796
:1035700061E070E080E090E00E945909B8016F5F5F
:103580007F4FCE0104960E94351782E090E0A0E0C4
:10359000B0E08093380690933906A0933A06B09332
:1035A0003B0661E0809178030E94ED080E94451778
:1035B000809131068CBD80913006882319F08DB53D
:1035C000816002C08DB58E7F8DBD7FC0E0915A03B2
:1035D000F0915B0309958091380690913906A0918E
:1035E0003A06B0913B0682309105A105B105D9F7A5
:1035F00083E090E0A0E0B0E0809338069093390635
:10360000A0933A06B0933B06D0933D06C0933C0688
:103610000B5F1F4F10933506009334068CB58093D3
:1036200031068DB581708093300680912F068CBD58
:1036300080912E06882319F08DB5816002C08DB56A
:103640008E7F8DBD84E591E00E94561760E08091E9
:1036500078030E94ED08E0915803F0915903099511
:10366000E0915603F09157030995672B682B692B5E
:1036700061F5609134067091350680913C06909119
:103680003D060E94351782E090E0A0E0B0E0809314
:10369000380690933906A0933A06B0933B0661E052
:1036A000809178030E94ED080E94451780913106B1
:1036B0008CBD80913006882319F08DB5816002C0E1
:1036C0008DB58E7F8DBD0E941A198091380690911C
:1036D0003906A0913A06B0913B0682309105A105CA
:1036E000B105D9F760E070E0CB01DF91CF911F9178
:1036F0000F9108950F931F93CF93DF9300D000D0C5
:10370000CDB7DEB78FEF9FEFDC0189839A83AB8360
:10371000BC8300914C0310914D0342E050E060E007
:1037200070E0C80109960E94500B41E050E060E053
:1037300070E00E94500B46E050E060E070E00E94B4
:10374000500B4CE0B80181E090E10E94570BBE01A4
:103750006F5F7F4F81E090E10E94670B69817A8102
:103760008B819C81709367076093660720E030E04F
:10377000A9010E94AF0C69817A818B819C810F9095
:103780000F900F900F90DF91CF911F910F9108959F
:10379000CF939091FE049C3008F052C0C82F61E096
:1037A0000E941D098091FE04E82FF0E09F01220F86
:1037B000331FE20FF31FE758FC4FCF739081907CCB
:1037C000C92BC0831092FF04109200056CE00E9488
:1037D000E62C9CE0899FB001112440E050E09A0162
:1037E000260F371FF901EE0FFF1F2E0F3F1FF901A4
:1037F000E758FC4F908196FD16C04F5F5F4F4C30ED
:10380000510569F781110FC01092800082E080930A
:1038100081001092850010928400B19A80916F000F
:10382000826080936F00E091FE04F0E0CF01880F8A
:10383000991FE80FF91FE758FC4F8081806480834F
:103840008091FE04CF910895CF92DF92EF92FF9284
:10385000CF93DF936B017C0197FF16C06DE28DEA79
:1038600094E00E945F23EC0144275527BA014C19CC
:103870005D096E097F092AE08DEA94E00E947B23AE
:103880007C01EC0EFD1E08C02AE0AB01BC018DEAF4
:1038900094E00E947B237C010E946D018E0D9F1D90
:1038A000DF91CF91FF90EF90DF90CF900895CF926E
:1038B000DF92EF92FF92CF93DF936C01990FEE08A6
:1038C000FF08F7FE16C06DE28DEA94E00E945F23C8
:1038D000EC0144275527BA014C195D096E097F098F
:1038E0002AE08DEA94E00E947B237C01EC0EFD1E11
:1038F00008C02AE0B701A6018DEA94E00E947B236C
:103900007C010E946D018E0D9F1DDF91CF91FF9074
:10391000EF90DF90CF9008958F929F92AF92BF92D9
:10392000CF92DF92EF92FF920F931F93CF93DF938B
:10393000CDB7DEB760970FB6F894DEBF0FBECDBF30
:103940007A018901C0904C03D0904D03AB01BC01BA
:10395000C60109960E94500BFC0184E1808311820C
:1039600012821382848315821682178280871186C1
:1039700012861386848715861686CF014096178691
:1039800041E050E060E070E00115110519F040E001
:1039900050E0BA010E94500BE114F10431F0F7013C
:1039A000408151816281738103C040E050E0BA01DF
:1039B0000E94500B40E050E0BA010E94500B40E0E2
:1039C00050E0BA010E94500B0115110549F1F801B0
:1039D00040815181628173814115510561057105F5
:1039E000B1F484809580A680B780F8E88F16F3E163
:1039F0009F06A104B1045CF428E8822E23E1922EF4
:103A0000A12CB12CF80184829582A682B7820E94F3
:103A1000500BF80144815581668177810E94500BDB
:103A20004CE2B60188E090E10E94570BBE016F5F47
:103A30007F4F88E090E10E94670B89819A81AB817A
:103A4000BC81B7FD0DC0E114F10481F04D815E81B0
:103A50006F817885F701408351836283738306C049
:103A600090936707809366078FEF9FEF60960FB67E
:103A7000F894DEBF0FBECDBFDF91CF911F910F91A4
:103A8000FF90EF90DF90CF90BF90AF909F908F907E
:103A900008952F923F924F925F926F927F928F92F2
:103AA0009F92AF92BF92CF92DF92EF92FF920F93CD
:103AB0001F93CF93DF93CDB7DEB7A6970FB6F894D9
:103AC000DEBF0FBECDBF4B015C011A0128013901D9
:103AD0009B016DA33EA30E94180A698B7A8B8B8B86
:103AE0009C8B81E090E0082C02C0880F991F0A94FB
:103AF000E2F7AC01990F660B770B498F5A8F6B8FEA
:103B00007C8F840185E0169507958A95E1F7F4018D
:103B1000EF71FF2741E050E060E070E0DB01CA0197
:103B200004C0880F991FAA1FBB1FEA95D2F78D8B7F
:103B30009E8BAF8BB88F2DA13EA1A901032E000C47
:103B4000660B770B4D8F5E8F6F8F78A3000F111F61
:103B5000000F111F61E070E06C0F7D1F060F171F33
:103B6000045F1F4F2F5F3F4FC901330FAA0BBB0BE1
:103B700089A39AA3ABA3BCA380915E0390915F033A
:103B8000A0916003B0916103892B8A2B8B2BC9F024
:103B900040915E0350915F036091600370916103F7
:103BA000CA01509367074093660710925E03109214
:103BB0005F031092600310926103009709F46EC0D6
:103BC000CAC02D8D3E8D4F8D58A12830310541053D
:103BD000510508F0BBC080910A0190910B01A091A2
:103BE0000C01B0910D01498D5A8D6B8D7C8D842314
:103BF0009523A623B723892B8A2B8B2B09F0A6C0EC
:103C00000E94180ADC01CB0129893A894B895C8919
:103C1000821B930BA40BB50B81339547A105B1050E
:103C200008F097C08091620390916303892B31F56E
:103C30001D861E861F86188A6D897E898F89988DBC
:103C4000D8016D937D938D939C93139719821A825B
:103C50001B821C8228E833E140E050E02D833E8344
:103C60004F8358879E012F5F3F4FAE01435F5F4FE9
:103C700069A17AA18BA19CA10E948C1C80916203F6
:103C800090916303892B09F477CF8091620390911F
:103C900063030197909363038093620380916A03A7
:103CA00090916B03A0916C03B0916D030196A11DDF
:103CB000B11D80936A0390936B03A0936C03B09340
:103CC0006D0300914C0310914D03B501A401C8018F
:103CD0000A960E94500B4CE050E060E070E00E94B9
:103CE000500BB301A2010E94500BB701A6010E9424
:103CF000500B9801265E3F4FF101CF0182199309C5
:103D0000A0E0B0E084159505A605B7052CF48191D7
:103D1000D9018D939D01F1CF82E0F801858381E87F
:103D2000868380E18783C201409680879187B201B4
:103D30006B5E7F4FC8010E94641ABE016F5F7F4FA8
:103D400083E090E10E94670BC20105C08FEF9FEFF7
:103D500002C08DEF9FEFA6960FB6F894DEBF0FBEA0
:103D6000CDBFDF91CF911F910F91FF90EF90DF902A
:103D7000CF90BF90AF909F908F907F906F905F900B
:103D80004F903F902F9008954F925F926F927F9245
:103D9000AF92BF92CF92DF92EF92FF920F931F9359
:103DA000CF93DF93CDB7DEB72C970FB6F894DEBF75
:103DB0000FBECDBF5A012801390100914C0310916B
:103DC0004D03AB01BC01C80109960E94500BB30121
:103DD000A2010E94500BB701A6010E94500B4CE0BB
:103DE000B80184E090E10E94570BBE016F5F7F4FE6
:103DF00084E090E10E94670B8D819E81AF81B88540
:103E0000181619061A061B064CF481E090E09093F0
:103E1000690380936803C5010E9433028D819E81EE
:103E200090936707809366072C960FB6F894DEBFD1
:103E30000FBECDBFDF91CF911F910F91FF90EF90FB
:103E4000DF90CF90BF90AF907F906F905F904F903A
:103E50000895FC0180915107811103C08FEF9FEFFE
:103E600008959FB7F89482E08093E9002091F200D2
:103E700030E01216130614F421E030E0211531056C
:103E800059F0289884E6809350078091F100808350
:103E90008091F200882319F09FBFC90108958BE635
:103EA0008093E800F9CF2FB7F89483E08093E9007E
:103EB0009091E800892F807295FF04C09091F200E4
:103EC00080E4891B2FBF08958091560781110DC092
:103ED00082E08093520784E0809353071092550745
:103EE0001092540781E08093560782E597E0089589
:103EF0000F931F93CF93DF938C01EB01FC01808123
:103F000091810097B1F0688179816115710579F02F
:103F1000428153812C813D814217530740F00E941A
:103F2000D02D8C819D81F8019583848313C00E94DC
:103F3000FC2A88819981F801918380838A819B8101
:103F4000938382838C819D819583848319821882D7
:103F50001B821A821D821C82DF91CF911F910F91CB
:103F60000895EF92FF920F931F93CF93DF93EC018D
:103F7000198218821B821A821D821C8261157105AA
:103F8000A9F17B01FB0101900020E9F731978F0136
:103F9000061B170BB8016F5F7F4F80E090E00E9417
:103FA000F82C009759F0998388831B830A832C810E
:103FB0003D81232B81F4FC0110820DC08881998101
:103FC000009711F00E94FC2A198218821D821C821F
:103FD0001B821A820BC01D830C83B701DF91CF9126
:103FE0001F910F91FF90EF900C94D02DDF91CF9106
:103FF0001F910F91FF90EF900895089540916407ED
:10400000509165072091620730916307421753076B
:10401000B4F49091E8009570E1F39091E80092FD7E
:1040200019C08093F1008091640790916507019613
:104030008F739927892B19F48EEF8093E800809174
:1040400064079091650701969093650780936407D4
:1040500081E0089580E00895DF92EF92FF920F9340
:104060001F93CF93DF93D82E8A017B01E40EF51EB8
:10407000EB01CE15DF0571F0D7FE03C0FE01849180
:1040800001C088810E94FE1F21968111F2CF8FEF1F
:104090009FEF01C0C801DF91CF911F910F91FF9059
:1040A000EF90DF900895615030F02091F100FC0115
:1040B00020830196F8CF289884E6809350070895CE
:1040C000CF92DF92EF92FF920F931F93CF93DF93E4
:1040D0006C017A018B01C0E0D0E0CE15DF0589F0DC
:1040E000D8016D918D01D601ED91FC910190F08187
:1040F000E02DC6010995892B11F47E0102C021969D
:10410000ECCFC701DF91CF911F910F91FF90EF90FE
:10411000DF90CF9008950F931F93CF93DF931F925B
:10412000CDB7DEB782E0898342E450E06DE072E013
:1041300080E80E942C200E94641FDC0112960D91E1
:104140001C9113970115110569F0D801ED91FC91AF
:104150000280F381E02DBE016F5F7F4FC80109959A
:1041600097FF07C089810F90DF91CF911F910F9129
:104170000895F80100851185E5CF1F920F920FB6C3
:104180000F9211248F939F938091E1009091E10011
:10419000937F9093E10083FF0FC01092E90091E0BC
:1041A0009093EB001092EC0092E39093ED0010924C
:1041B000510798E09093F00082FF20C093E0909325
:1041C000E9009091F200992319F09AE39093E800A6
:1041D00090916107992339F09091610791509093E4
:1041E0006107992389F190915007992339F09091B3
:1041F0005007915090935007992341F184FF10C0CC
:104200008091E2008E7E81608093E2008091E100E7
:104210008F7E8093E100809160078E7E806111C067
:1042200080FF16C08091E2008E7E80618093E20064
:104230008091E1008E7E8093E100809160078E7E08
:1042400081608093600704C05D9ACDCF289AD6CF55
:104250009F918F910F900FBE0F901F9018951F92F6
:104260000F920FB60F921124CF92DF92EF92FF922E
:104270000F931F932F933F934F935F936F937F936E
:104280008F939F93AF93BF93EF93FF93CF93DF935E
:10429000CDB7DEB76C97DEBFCDBF1092E90080913D
:1042A000E80083FFEDC168E0CE0145960E945320EF
:1042B00082EF8093E8008D8987FF05C09091E80028
:1042C00090FFFCCF03C09EEF9093E800982F90766C
:1042D00009F0C6C09E892F89188D91110CC08038B5
:1042E00029F480915F078093F10002C01092F100E1
:1042F0001092F10048C1422F50E0512B913051F4FF
:10430000811141C14130510509F03DC180915F07E4
:104310008D7F0BC0933061F4811135C1413051055F
:1043200009F031C180915F07826080935F072BC1E4
:10433000953041F48091E80080FFFCCF2068209305
:10434000E30021C1963009F05FC0EB8CFC8C109229
:10435000E9001092650710926407123091F51092EF
:104360006307109262070E948B2099E0BE016F5F85
:104370007F4FDB01E92F1D92EA95E9F799831A83B4
:1043800091E09E8390EA98879AEF9987209164073D
:1043900030916507275F3F4F3C832B838D831092BD
:1043A000E9001092650710926407F0926307E092AB
:1043B000620749E050E080E00E942C200E948B20A0
:1043C000E2C0F0926307E09262070E94641FDC0182
:1043D0001296ED90FC901397E114F10409F4C0C01B
:1043E000D701ED91FC910480F581E02DBE016B5E5B
:1043F0007F4FC7010995009719F00CF0C4C0C7C0E2
:10440000F701E084F184E8CF973009F4C0C0983018
:1044100021F481E08093F100B6C0993009F0B3C077
:10442000837009F0B4C0EDE0F2E081E021E036E312
:104430009081992361F08093E9002093EB009191A2
:104440009093EC003093ED008F5F873089F78EE713
:104450008093EA001092EA008F898093510793C0FD
:104460008B8D9C8D1092E900109265071092640765
:104470009093630780936207898D811156C08E895E
:104480009D89913A59F4813209F081C047E050E0AA
:1044900062E171E080E00E942C2075C0913209F049
:1044A00076C0833289F4888D90E0982F88272F89F1
:1044B000822BA0E0B0E080930E0190930F01A093B7
:1044C0001001B09311015FC0803269F48091E8005F
:1044D00082FFFCCF67E082E191E00E9453208BEFE6
:1044E0008093E80006C0823209F04DC08F89809326
:1044F000190180915E07882319F0EEEFFAE002C0FF
:10450000E0E0F8E08091120190911301A091140174
:10451000B0911501803B9440A105B10509F07BC025
:104520008091190180FF93C076C00E94641FDC0156
:1045300012960D911C9113970115110541F1D801A7
:10454000ED91FC910190F081E02DBE016B5E7F4FFB
:10455000C8010995811117C0F80100851185ECCFBC
:10456000113009F44EC0133091F48F89882309F477
:1045700045C0823081F440E860E181E792E00E942A
:104580002A2A882321F08EEF8093E80079C081E207
:104590008093EB0075C0813029F440E86BE085E63C
:1045A00092E0EDCF833099F70E94641FDC011296F0
:1045B000ED90FC9013978E010F5F1F4F6801E1147F
:1045C000F10479F0D701ED91FC910680F781E02D9F
:1045D000B801C7010995080F111DF701E084F184A6
:1045E000EECFD8011C92F60101900020E9F7319737
:1045F000BF016C197D0940E0C601C1CF6FE472E0D4
:1046000002C063E572E06115710509F2FB01449196
:1046100050E080E840CF0FB6F894A89580916000F4
:10462000886180936000109260000FBEA895EE3FF5
:104630002AE0F20739F08091FE0A9091FF0A9183F7
:104640008083A1CF1092FF0A1092FE0A9CCFEE3F0A
:104650008AE0F80731F0808191819093FF0A80937E
:10466000FE0A87E797E7918380839BE088E10FB696
:10467000F894A895809360000FBE9093600083CF5C
:104680006C960FB6F894DEBF0FBECDBFDF91CF9111
:10469000FF91EF91BF91AF919F918F917F916F911A
:1046A0005F914F913F912F911F910F91FF90EF904C
:1046B000DF90CF900F900FBE0F901F901895DC01E8
:1046C000ED91FC910190F081E02D09946115710547
:1046D00079F0FB0101900020E9F73197AF01461B0B
:1046E000570BDC01ED91FC910280F381E02D0994E0
:1046F00080E090E008954F925F926F927F92EF92E8
:10470000FF920F931F93CF93DF93CDB7DEB7A1979F
:104710000FB6F894DEBF0FBECDBF7C01FA01CB010E
:1047200019A2223008F42AE08E010F5D1F4F422E9D
:10473000512C612C712CBF01A30192010E94B52C58
:10474000F901CA01015011096A3014F4605D01C019
:10475000695CD8016C93232B242B252B61F7B801BE
:10476000C7010E946623A1960FB6F894DEBF0FBE64
:10477000CDBFDF91CF911F910F91FF90EF907F9070
:104780006F905F904F90089586EE91E090930805AA
:10479000809307051092090510920A0510920B05E7
:1047A00010920C051092B0041092AF0448EE53E042
:1047B00060E070E04093B1045093B2046093B3049E
:1047C0007093B4042CE631E03093AE042093AD0432
:1047D0002FEF3FEF3093BA042093B90490930E0566
:1047E00080930D0510920F0510921005109211057F
:1047F00010921205909314058093130510921505DD
:104800001092160510921705109218059093020544
:10481000809301051092030510920405109205057E
:104820001092060580919D038C30A0F491E0980FC2
:1048300090939D038093FE0490E0FC01EE0FFF1F18
:104840008E0F9F1FFC01E758FC4F88EB9BE0928383
:10485000818303C08FEF8093FE041092FD048AE0F1
:104860008093780387E08093770385E080937603D5
:104870008FEF8093750384E0809374031092730329
:104880008DEA94E090931A05809319051092AD0378
:104890001092AC038CEC91E09093AB038093AA034D
:1048A0001092B1031092B00348EE53E060E070E064
:1048B0004093B2035093B3036093B4037093B50372
:1048C0002EEA31E03093AF032093AE038FEF9FEFDA
:1048D000DC018093FD039093FE03A093FF03B0934C
:1048E00000041092040410920304409305045093B2
:1048F0000604609307047093080430930204209325
:1049000001048093500490935104A0935204B093F7
:104910005304109257041092560440935804509335
:10492000590460935A0470935B04309355042093A8
:1049300054048093A3049093A404A093A504B0937B
:10494000A6042FEF30E03093A8042093A7048093AF
:10495000A9049093AA04A093AB04B093AC0465E1BE
:1049600072E084EA93E00E94B11F65E172E08EE993
:1049700093E00C94B11FCF93DF93CDB7DEB7C3554F
:10498000D1090FB6F894DEBF0FBECDBF789484B5C1
:10499000826084BD84B5816084BD85B5826085BD3B
:1049A00085B5816085BD80916E00816080936E00C9
:1049B00010928100809181008260809381008091BB
:1049C000810081608093810080918000816080936C
:1049D000800080919100826080939100809191008D
:1049E000816080939100809190008160809390001D
:1049F0008091C10084608093C1008091C100826079
:104A00008093C1008091C10081608093C10080913A
:104A1000C30081608093C3008091C0008260809356
:104A2000C0008091C20081608093C20080917A00B2
:104A3000846080937A0080917A00826080937A000B
:104A400080917A00816080937A0080917A008068FA
:104A500080937A001092510710925F0710926007BE
:104A60008091D70081608093D70080EA8093D8003E
:104A700089B5806189BD89B5826089BD09B400FEB0
:104A8000FDCF61E070E080E090E00E9459098091E4
:104A9000D8008F7C80618093D8008091E000807F77
:104AA0008093E0008091E1008E7E8093E1008DE0B4
:104AB0008093E200559A209AEEEFFFE7859194915A
:104AC0008B3F9C4D19F481E080935E078FEF9FEF41
:104AD0009093BA048093B9048CE090E00E94C81BC4
:104AE00080E090E00E9414076AEF70E080E090E0C0
:104AF0000E945909E091FE04F0E0CF01880F991F50
:104B0000E80FF91FE758FC4F80818F7B808366E1B7
:104B100072E0CE0101960E94B11FBE016F5F7F4F10
:104B200084EA93E00E94781F89819A810E94FC2A7E
:104B30006EE172E0CE0101960E94B11FBE016F5F6F
:104B40007F4F8EE993E00E94781F89819A810E94AD
:104B5000FC2A61E08DE00E941D098091FD04811115
:104B600050C180917703882351F0813051F0823019
:104B700051F0833051F0873051F08FEF09C082E05F
:104B800007C083E005C081E003C080E001C084E08D
:104B90008093750361E0809176030E941D0960E0B7
:104BA000809176030E94ED0864EF71E080E090E070
:104BB0000E94590961E0809178030E941D0962E01A
:104BC000809177030E941D098CB5809331068DB5C5
:104BD0008170809330061FB7F89480918706811109
:104BE00027C0E3E4F1E08491E4E2F1E09491E82F5E
:104BF000F0E0EE0FFF1FEB5FFE4FA591B491EC913B
:104C0000E92321F461E081E10E94ED0861E081E1A6
:104C10000E941D098CB580618CBD8CB580648CBDF3
:104C200061E08FE00E941D0961E080E10E941D09A2
:104C3000809187068F5F809387061FBF8CB5837F27
:104C400084608CBD8CB58F7D8CBD809174039CB5C8
:104C5000282F23709C7F922B9CBD2DB582FB99271A
:104C600090F9822F8E7F892B8DBD8CB580932F0676
:104C70008DB5817080932E06809175039FB7F8944F
:104C8000823069F030F4882399F0813061F482E059
:104C900010C0833031F0843031F480E40AC084E005
:104CA00008C088E006C082E080932D0680E001C045
:104CB00081E020912C06822B80932C0680912D067A
:104CC000811103C081E080932D069FBF61E0809138
:104CD00078030E94ED08809131068CBD80913006EA
:104CE000882319F08DB5816002C08DB58E7F8DBD92
:104CF00088E097E190934F0380934E0388E197E11A
:104D0000909351038093500380E197E19093530374
:104D10008093520384E299E1909357038093560362
:104D20008AE199E1909359038093580387EF97E1C3
:104D300090935B0380935A038EEE97E190935D030B
:104D400080935C038DEE93E190935503809354031D
:104D500011E01093720380E090E00E946E0B60E01F
:104D600070E0CB010E948806E0914C03F0914D0366
:104D70008FEF818712861386148688248A94982C54
:104D8000540189829A82AB82BC8244E0BF0186E0F2
:104D900090E00E94570BBE016F5F7F4F86E090E06E
:104DA0000E94670B1093720389829A82AB82BC8245
:104DB000A0904C03B0904D0344E052E860E070E0F6
:104DC000C50109960E94500B44E0B50188E090E0CF
:104DD0000E94570BBE016F5F7F4F88E090E00E94FA
:104DE000670B89819A81AB81BC81892B8A2B8B2BA4
:104DF00019F41093FD0405C081E591E00E94E801DB
:104E0000FFCF8091FD04882351F160EA7FE080E0CC
:104E100090E00E944205882311F164E971E180E08D
:104E200090E00E945909E0914C03F0914D031186E6
:104E300012861386148644E0BF0187E090E00E944A
:104E4000570B68E876E087E090E00E94670BC0901F
:104E50008806D0908906E0908A06F0908B068AE258
:104E600092E00E940F072AE0B701A6018DEA94E0C4
:104E70000E947B230E946D018CE392E00E94ED066C
:104E8000C114D104E104F10409F451C081E0C81A4D
:104E9000D108E108F108A0909006B12CB594A79430
:104EA00000919106902F9370B92E10E015950795FB
:104EB00015950795A80164E976E0CE0101960E9458
:104EC000D72DE1E0F0E0EC0FFD1FE00FF11F1082A5
:104ED000E0914C03F0914D031186128613861486DF
:104EE00044E0BF0187E090E00E94570B68E876E05D
:104EF00087E090E00E94670B86E892E00E940F072F
:104F0000CE0101960E940F070E946D0183E992E095
:104F10000E940F078A2D0E94FC068BE992E00E94F6
:104F20000F078B2D0E94FC060E946D01A9CF8CE318
:104F300092E00E94ED0660E070E0CB010E94420525
:104F40000E9442158AEA93E00E942D1980E090E0C9
:104F50000E94140760E0862E60E0962E72EF272EE6
:104F600071E0372E8091FD04882301F18FEF9FEFD0
:104F7000DC0189839A83AB83BC8360914C0370917D
:104F80004D0340E089E090E00E94570BBE016F5F47
:104F90007F4F89E090E00E94670B89819A81AB8105
:104FA000BC810397A105B10509F444C00E946D01BD
:104FB0008FE193E00E94ED060E946D0160E08DE0BC
:104FC0000E94ED088091FD04882391F1E0915C033B
:104FD000F0915D0380E00995E0915603F09157034D
:104FE0000995672B682B692BB9F380914C0390913D
:104FF0004D03892B21F010924D0310924C038091A8
:105000003E0690913F06892B21F010923F061092A8
:105010003E06E0915A03F0915B03099568E873E15D
:1050200080E090E00E94590980E090E00E946E0BC1
:105030000E9442150AEF13E0C8018C549109DC016B
:10504000ED91FC910688F789E02D0995811154C0F6
:105050000E94700F4090A9045090AA046090AB0485
:105060007090AC04E0904C03F0904D03B301A201AA
:10507000C70109960E94500B44E0B70185E090E11A
:105080000E94570BBE016F5F7F4F85E090E10E9449
:10509000670BAD80BE80B0926707A092660765017E
:1050A0000B2C000CEE08FF08B8E0CB16D104E1048D
:1050B000F10430F420E030E0A901C701B60106C0D8
:1050C00021E030E040E050E0C301B2010E94AF0CAB
:1050D000B7FC12C0F801C382D482E582F682128244
:1050E00011821082FE013D96D801A054B10980E4DE
:1050F00001900D928A95E1F70D5A1F4FF4E0033F9E
:105100001F0709F099CF5EEAE52E53E0F52E00E087
:1051100010E0D701ED91FC910688F789E02DC701D9
:105120000995882309F47FC1D701ED91FC91008492
:10513000F185E02DC7010995181619060CF073C109
:10514000802F082F082E000C110B8F3F09F464C12B
:105150001C821B8288EE93E0A0E0B0E08D839E83EA
:10516000AF83B8873A822982A3E5A09FC001A19F9F
:10517000900D112482559C4F9E878D8740EFE42E21
:1051800046E0F42E0E94180A69877A878B879C87ED
:10519000CE0101960E94381097FD1CC0F701819343
:1051A0007F01F1E1EF16F7E0FF0661F78091F0066D
:1051B0008093CB068091F1068093CC06482F50E077
:1051C0002AE1281B2093CA06DA01A353B94F80E0D5
:1051D00090E016C00E94180A49845A846B847C842B
:1051E000DC01CB0184199509A609B7094D805E80C1
:1051F0006F80788484159505A605B70548F2D6CF4B
:105200008430910549F0FC01E40FF51FE051F94F9E
:1052100022812D930196F4CF2091CA0630E080E0E0
:1052200090E0821793076CF4DC01A653B94FFC01A0
:10523000E40FF51FE051F94F678118966C930196C2
:10524000F0CFC090CB06D12CE090CD06F12C8CEAAB
:1052500092E00E940F07C6010E94571C84EB92E067
:105260000E940F078091CC060E94FC0684EC92E01D
:105270000E940F076091CE067091CF068091D006F4
:105280009091D1060E94241C8EEC92E00E940F07A0
:10529000C7010E94571C8091CB06823009F441C09F
:1052A000833009F45EC0813009F0B3C084ED92E030
:1052B0000E94ED068CE3809362060E943E2C609370
:1052C0006506709366068093670690936806000FE4
:1052D000111F000F111FF801E654F94F608371830D
:1052E0008283938380E090E00E94061541E250E0C3
:1052F00060E476E0CE0101960E94051089EE92E00E
:105300000E94ED068EEF92E00E940F076091650605
:105310007091660680916706909168060E94241C31
:1053200078C084ED92E00E94ED068091CA060E944A
:10533000FC068EE093E00E94ED0600E010E0809114
:10534000CA0690E0081719070CF063C0F801E6538D
:10535000F94F60858DEA94E00E945F230F5F1F4F35
:10536000EECF84ED92E00E94ED0680E48093620629
:105370008091D206809369068091D30680936A0655
:105380008091D40680936B068091D50680936C063D
:105390008091D60680936D068091D70680936E0625
:1053A0008091D80680936F068091D906809370060D
:1053B00088E090E00E9406158CE090E00E94C81BF7
:1053C00080E590E00E94140741E250E060E476E05E
:1053D0008AEA93E00E9486176AEF70E080E090E02E
:1053E0000E94590980E090E00E9414076AEF70E083
:1053F00080E090E00E945909E091FE04F0E0CF01C6
:10540000880F991FE80FF91FE758FC4F80818F7BA9
:1054100080839FEF9093CB068114910409F4A2CD71
:105420000E9400009FCD0F5F1F4FA3E5EA0EF11C05
:105430000330110509F06DCE8FEF83CE80919E036E
:1054400090919F030E94FC2A8091A4039091A50350
:105450000C94FC2ACF92DF92EF92FF920F931F934E
:10546000CF93DF931F92CDB7DEB7182F062FE42E10
:10547000862F880F8E5F99830E94FE1F83E00E9413
:10548000FE1FF12EC12E9981D92E8C2D8F198017D8
:1054900098F4F601E7FE02C0849101C080810E9469
:1054A000FE1F182F80E00E94FE1F8123FFEFCF1AFE
:1054B000DF0A8111EACF01C081E00F90DF91CF9127
:1054C0001F910F91FF90EF90DF90CF900895CF93B1
:1054D000DF938230910510F482E090E0E0916A075A
:1054E000F0916B0720E030E0C0E0D0E0309711F1A0
:1054F0004081518148175907C0F04817590761F496
:1055000082819381209719F09B838A832BC090938B
:105510006B0780936A0726C02115310519F04217E1
:10552000530718F49A01BE01DF01EF010280F381F5
:10553000E02DDCCF2115310509F1281B390B243072
:10554000310590F412968D919C9113976115710518
:1055500021F0FB019383828304C090936B078093B7
:105560006A07FD01329644C0FD01E20FF31F8193EB
:105570009193225031092D933C933AC020916807B2
:1055800030916907232B41F420911C0130911D01BA
:10559000309369072093680720911A0130911B010D
:1055A0002115310541F42DB73EB740911E015091B0
:1055B0001F01241B350BE0916807F0916907E21782
:1055C000F307A0F42E1B3F0B2817390778F0AC0126
:1055D0004E5F5F4F2417350748F04E0F5F1F509303
:1055E0006907409368078193919302C0E0E0F0E07F
:1055F000CF01DF91CF9108950F931F93CF93DF9346
:10560000009709F48CC0FC0132971382128200913A
:105610006A0710916B070115110581F42081318112
:10562000820F931F20916807309169072817390767
:1056300079F5F0936907E093680771C0D80140E0FD
:1056400050E0AE17BF0750F412962D913C9113977E
:10565000AD012115310509F1D901F3CF9D01DA0121
:105660003383228360817181860F971F821793078E
:1056700069F4EC0128813981260F371F2E5F3F4FD7
:10568000318320838A819B8193838283452B29F4F4
:10569000F0936B07E0936A0742C01396FC93EE9376
:1056A0001297ED01499159919E01240F351FE21780
:1056B000F30771F480819181840F951F02961196F2
:1056C0009C938E938281938113969C938E931297D1
:1056D000E0E0F0E0D80112968D919C91139700972D
:1056E00019F0F8018C01F6CF8D919C9198012E5FF5
:1056F0003F4F820F931F2091680730916907281749
:10570000390769F4309729F410926B0710926A07F1
:1057100002C0138212821093690700936807DF9119
:10572000CF911F910F9108958F929F92AF92BF9248
:10573000CF92DF92EF92FF92CF93DF93EC016881DB
:1057400079818A819B81611571058105910521F41B
:1057500064E279ED8BE597E02DE133EF41E050E035
:105760000E944C2C49015A019B01AC01A7EAB1E40B
:105770000E946B2C6B017C01ACEEB4EFA50194018F
:105780000E94792CDC01CB018C0D9D1DAE1DBF1D2F
:10579000B7FF03C00197A109B04888839983AA8302
:1057A000BB839F77DF91CF91FF90EF90DF90CF90F9
:1057B000BF90AF909F908F9008950E94942B089572
:1057C00080E291E00E94942B0895A0E0B0E08093E5
:1057D000200190932101A0932201B0932301089509
:1057E0008F929F92AF92BF92CF92DF92EF92FF92F1
:1057F000CF93DF93EC01688179818A819B81611568
:1058000071058105910521F464E279ED8BE597E05E
:105810002DE133EF41E050E00E944C2C49015A0148
:105820009B01AC01A7EAB1E40E946B2C6B017C01E7
:10583000ACEEB4EFA50194010E94792CDC01CB0100
:105840008C0D9D1DAE1DBF1DB7FF03C00197A109A3
:10585000B04888839983AA83BB83BC01CD019F771D
:10586000DF91CF91FF90EF90DF90CF90BF90AF90FE
:105870009F908F9008950E94F02B089584E291E00C
:105880000E94F02B0895609324017093250180936A
:105890002601909327010895052E97FB1EF400948E
:1058A0000E94632C57FD07D00E94B52C07FC03D043
:1058B0004EF40C94632C50954095309521953F4FB4
:1058C0004F4F5F4F089590958095709561957F4FEC
:1058D0008F4F9F4F08950E94D72CA59F900DB49F86
:1058E000900DA49F800D911D11240895B7FF0C9475
:1058F0006B2C0E946B2C821B930B08952F923F926E
:105900004F925F926F927F928F929F92AF92BF92CF
:10591000CF92DF92EF92FF920F931F93CF93DF937B
:10592000CDB7DEB7CA1BDB0B0FB6F894DEBF0FBED8
:10593000CDBF09942A88398848885F846E847D8425
:105940008C849B84AA84B984C884DF80EE80FD8027
:105950000C811B81AA81B981CE0FD11D0FB6F8949D
:10596000DEBF0FBECDBFED010895A1E21A2EAA1B26
:10597000BB1BFD010DC0AA1FBB1FEE1FFF1FA217FF
:10598000B307E407F50720F0A21BB30BE40BF50BFC
:10599000661F771F881F991F1A9469F76095709585
:1059A000809590959B01AC01BD01CF010895A29F08
:1059B000B001B39FC001A39F700D811D1124911DE3
:1059C000B29F700D811D1124911D0895991B79E0DE
:1059D00004C0991F961708F0961B881F7A95C9F77F
:1059E00080950895EE0FFF1F0590F491E02D099426
:1059F000A0E0B0E0EEEFFCE20C94822CEC0100970A
:105A000021F4CB010E94672AB8C0FC01E60FF71F02
:105A10009C0122503109E217F30708F4ACC0D90108
:105A20000D911C91119706171707B0F0053011055D
:105A300008F49FC0C80104978617970708F499C017
:105A400002501109061B170B019311936D937C9360
:105A5000CF010E94FC2A8DC05B01A01AB10A4C0143
:105A6000800E911EA0916A07B0916B0740E050E054
:105A7000E12CF12C109709F44AC0A815B905D1F50D
:105A80006D907C901197630182E0C80ED11CCA14FE
:105A9000DB0480F1A3014A195B096A0182E0C80EA8
:105AA000D11C1296BC9012971396AC91B5E0CB1610
:105AB000D10440F0B282A38351834083D9016D9316
:105AC0007C930AC00E5F1F4FC301800F911FF90125
:105AD00091838083EB2DFA2FE114F10431F0D7018B
