:100000000C94E6000C940E010C940E010C940E015D
:100010000C940E010C940E010C940E010C940E0124
:100020000C940E010C940E010C94910D0C94030E83
:100030000C940E010C940E010C940E010C940E0104
:100040000C940E010C94870B0C940E010C940E0171
:100050000C940E010C940E010C940E010C94EE08FD
:100060000C940E010C945F030C9439030C940E0154
:100070000C940E010C940E010C940E010C940E01C4
:100080000C940E010C940E010C940E010C940E01B4
:100090000C940E010C940E010C940E010C940E01A4
:1000A0000C940E010C940E010C940E017C087F0838
:1000B0006E0872087608A008A008A00883088708C0
:1000C0008B0891089508A0089B0872756E2D6272C6
:1000D000696467650A000A000A00302E302E302E4F
:1000E00030003132372E302E302E3100000000002B
:1000F000250028002B002E00310004040404040312
:1001000004050202020204030202020206060606B7
:1001100006060404020202040404080201104080DE
:1001200040102040804080080204018040201002DE
:1001300001108010204040200000000200090F0044
:1001400000030401000C000000000000000000009B
:1001500000000000000000080B000202020100097C
:100160000400000102020000052400100105240122
:10017000010104240206052406000107058103107D
:10018000004009040100020A0000000705020240C5
:100190000000070583024000000403090412010067
:1001A00002EF0201404123418000010102030141AD
:1001B000726475696E6F204C4C43004172647569BE
:1001C0006E6F2059756E000035143A1511241FBE4C
:1001D000CFEFDAE0DEBFCDBF12E0A0E0B1E0E0EFAC
:1001E000F1E302C005900D92A630B107D9F725E0E2
:1001F000A6E0B2E001C01D92A739B207E1F710E016
:10020000C5EED0E004C02197FE010E94D216C43E84
:10021000D107C9F70E94CF100C94EB180C94000082
:10022000FC01538D448D252F30E0842F90E0821BFC
:10023000930B541710F0CF96089501970895FC0181
:10024000918D828D981761F0828DDF01A80FB11D0D
:100250005D968C91928D9F5F9F73928F90E0089531
:100260008FEF9FEF0895FC01918D828D981731F0EB
:10027000828DE80FF11D858D90E008958FEF9FEF3F
:100280000895FC01918D228D892F90E0805C9F4F15
:10029000821B91098F739927089585EE92E00E9441
:1002A000410121E0892B09F420E0822F0895FC010F
:1002B000848DDF01A80FB11DA35ABF4F2C91848DEF
:1002C00090E001968F739927848FA689B7892C9324
:1002D000A089B1898C9180648C93938D848D9813BF
:1002E00006C00288F389E02D80818F7D8083089588
:1002F000EF92FF920F931F93CF93DF93EC0181E076
:10030000888F9B8D8C8D981305C0E889F989808131
:1003100085FD24C0F62E0B8D10E00F5F1F4F0F736D
:100320001127E02E8C8DE8120CC00FB607FCFACF17
:10033000E889F989808185FFF5CFCE010E945701B8
:10034000F1CF8B8DFE01E80FF11DE35AFF4FF082D4
:100350000B8FEA89FB898081806207C0EE89FF8963
:100360006083E889F98980818064808381E090E0FE
:10037000DF91CF911F910F91FF90EF900895CF9350
:10038000DF93EC01888D8823C9F0EA89FB8980819D
:1003900085FD05C0A889B9898C9186FD0FC00FB66F
:1003A00007FCF5CF808185FFF2CFA889B9898C91B0
:1003B00085FFEDCFCE010E945701E7CFDF91CF91AE
:1003C000089580E090E0892B29F00E944D01811171
:1003D0000C9400000895CF93DF931F92CDB7DEB742
:1003E0006983DC01ED91FC910280F381E02D41E015
:1003F00050E0BE016F5F7F4F09950F90DF91CF9165
:10040000089583E08093E9008091F200882319F039
:100410008AE38093E8000895FC018485958597FD23
:100420000BC09FB7F89482E08093E9008091F200BE
:100430009FBF90E0019608959FB7F89482E0809363
:10044000E9008091F2009FBF90E008958F929F9203
:10045000AF92BF92CF92DF92EF92FF920F931F93D2
:10046000CF93DF937C018B016C0182E0C80ED11C1D
:100470004701E5E08E0E911CC0E0D0E0F60141910D
:100480006F0150E060E070E02AE0C8010E94731044
:100490005C016EE2C8010E9433108A0D9B1DC80FDB
:1004A000D91FC814D90451F7F701458150E060E025
:1004B00070E02AE0C8010E9473108C0F9D1FDF912D
:1004C000CF911F910F91FF90EF90DF90CF90BF9051
:1004D000AF909F908F9008958F929F92AF92BF920E
:1004E000CF92DF92EF92FF920F931F93CF93DF9300
:1004F0005C016B017A0180910B01882309F45BC0D8
:1005000080919402882309F456C08091890580FF68
:1005100005C08091E00082608093E000E70110E078
:100520000AEF83E0882E9AE3992E2097D9F10E9452
:100530001E0681110AC0015009F43DC061E070E05F
:1005400080E090E00E94B408F0CF282F30E0C2177E
:10055000D3070CF48C2F4FB7F8948092E900909158
:10056000E80095FF1DC0282F30E0C21BD30BF60119
:10057000982F915020F081918093F100FACFC20E14
:10058000D31E112319F09092E80009C08091E80071
:1005900085FD06C09092E80011E0209709F010E078
:1005A0004FBFC3CF1111C3CF5D9884E680938A05F6
:1005B0001E141F0444F081E090E0F50193838283D0
:1005C00080E090E001C0C701DF91CF911F910F91B2
:1005D000FF90EF90DF90CF90BF90AF909F908F9063
:1005E00008950E941E0690E008950F931F93CF93E5
:1005F000DF931F92CDB7DEB78C01FC018485958512
:1006000097FF0EC0CE0101960E94BB05019719F419
:10061000298130E002C02FEF3FEFF80135872487B2
:10062000F801848595850F90DF91CF911F910F91EF
:100630000895CF93DF931F92CDB7DEB7FC01848579
:10064000958597FD05C02FEF3FEF358724870BC0B9
:10065000CE0101960E94BB05019719F4898190E0B3
:1006600002C08FEF9FEF0F90DF91CF9108950E940E
:10067000CF181F920F920FB60F9211242F933F9312
:100680004F935F936F937F938F939F93AF93BF939A
:10069000EF93FF9385EE92E00E945701FF91EF9157
:1006A000BF91AF919F918F917F916F915F914F918A
:1006B0003F912F910F900FBE0F901F9018951F9292
:1006C0000F920FB60F9211242F938F939F93EF9356
:1006D000FF93E091F502F091F6028081E091FB0238
:1006E000F091FC0282FD12C090818091FE028F5F2A
:1006F0008F732091FF02821751F0E091FE02F0E02B
:10070000EB51FD4F958F8093FE0201C08081FF91D8
:10071000EF919F918F912F910F900FBE0F901F908F
:1007200018952F923F924F925F926F927F928F9285
:100730009F92AF92BF92CF92DF92EF92FF920F9370
:100740001F93CF93DF93CDB7DEB72B970FB6F894F7
:10075000DEBF0FBECDBF9B878A875B011901FD827B
:10076000EC823A01600E711E872C7B82912C44240E
:100770004A94542C9B01240F351F3F832E839101F3
:10078000200F311F39872887EA85FB8580859816D9
:1007900008F036C1AA85BB8514965C924E921397D9
:1007A00015968D919C911697DC01ED91FC9101902D
:1007B000F081E02D6FEF09956FEF8A859B850E9490
:1007C0009909EA85FB8585819681DC01ED91FC9193
:1007D0000190F081E02DAA85BB856C910995EA8591
:1007E000FB856081CF010E949909AA85BB8515967A
:1007F0008D919C911697DC01ED91FC910190F08117
:10080000E02D682D09956B818A859B850E94990949
:10081000EA85FB8585819681DC01ED91FC91019053
:10082000F081E02D662D0995662D8A859B850E94B5
:10083000990975012E813F81E216F306B1F0EA8530
:10084000FB85858196818701DC01ED91FC9101900A
:10085000F081E02DD7016D917D010995F80160814E
:100860008A859B850E949909E5CF7101AA85BB8580
:1008700015968D919C91169728853985E216F30679
:1008800091F08701DC01ED91FC910190F081E02D68
:10089000D7016D917D010995F80160818A859B855D
:1008A0000E949909E3CFDC01ED91FC91AA85BB85FB
:1008B00014966C910190F081E02D0995EA85FB85F5
:1008C00085819681DC01ED91FC910190F081E02D14
:1008D000AA85BB8513966C91099564E670E08A85BC
:1008E0009B850E9454098F3F910509F07DC0EA85E0
:1008F000FB85548243826FEFCF010E94990965E026
:1009000070E08A859B850E945409AA85BB856C91FD
:10091000262F30E08217930709F066C0CD010E94B0
:1009200099096AE070E08A859B850E9454097C01E0
:1009300097FD5AC0682F8A859B850E9499096AE0B5
:1009400070E08A859B850E9454098C0197FD4CC0FC
:10095000682F8A859B850E949909EA821982E9811C
:10096000FA810E0F1F1FE12CF12C65E070E08A85E3
:100970009B85E016F106A9F0EC14FD0491F00E94AD
:10098000540997FD0AC0EC81FD81EE0DFF1D8083A7
:10099000682F8A859B850E949909FFEFEF1AFF0A4D
:1009A000E4CF0E9454097C0197FD1EC065E070E011
:1009B0008A859B850E94540997FD16C0FE2CEE2463
:1009C0008E0D9F1DAA85BB8513962D913C91149782
:1009D0002817390749F48C918F5F8C93C801C01692
:1009E000D10680F4C6010EC0939464E670E080E006
:1009F00090E00E94B4088A859B850E943809C4CE85
:100A00008FEF9FEF2B960FB6F894DEBF0FBECDBFD2
:100A1000DF91CF911F910F91FF90EF90DF90CF90DA
:100A2000BF90AF909F908F907F906F905F904F900E
:100A30003F902F900895EF92FF920F931F93CF93C3
:100A4000DF9300D0CDB7DEB77C018BE68A8301E06F
:100A500010E09E012F5F3F4F41E050E0BE016E5F0E
:100A60007F4F80915305909154050E94B009892BC6
:100A7000B1F4F7011382128288EE93E0A0E0B0E0B7
:100A800084839583A683B7838CE491E091838083EC
:100A900084E495E0958784871686178617C0898138
:100AA000F7011382128248EE53E060E070E0448365
:100AB0005583668377832CE431E03183208324E4FB
:100AC00035E035872487868781E08787108AC701CC
:100AD0000F900F90DF91CF911F910F91FF90EF90AA
:100AE0000895CF92DF92EF92FF92CF93DF936B0145
:100AF0007C0197FF16C06DE285E992E00E943310F9
:100B0000EC0144275527BA014C195D096E097F098C
:100B10002AE085E992E00E9473107C01EC0EFD1E34
:100B200008C02AE0AB01BC0185E992E00E94731085
:100B30007C0168EB71E085E992E00E945E108E0D09
:100B40009F1DDF91CF91FF90EF90DF90CF900895A0
:100B5000CF93DF93BC0185E992E00E945E10EC0127
:100B600068EB71E085E992E00E945E108C0F9D1F9A
:100B7000DF91CF910895FC0180919402811103C00F
:100B80008FEF9FEF08959FB7F89482E08093E9007C
:100B90002091F20030E01216130614F421E030E048
:100BA0002115310559F0289884E6809393028091AD
:100BB000F10080838091F200882319F09FBFC90162
:100BC00008958BE68093E800F9CFCF92DF92EF9201
:100BD000FF92CF93DF936C01990FEE08FF08F7FEA9
:100BE00016C06DE285E992E00E943310EC014427C3
:100BF0005527BA014C195D096E097F092AE085E97C
:100C000092E00E9473107C01EC0EFD1E08C02AE0E9
:100C1000B701A60185E992E00E9473107C0168EBA0
:100C200071E085E992E00E945E108E0D9F1DDF91BC
:100C3000CF91FF90EF90DF90CF9008952FB7F89469
:100C400083E08093E9009091E800892F807295FFFE
:100C500004C09091F20080E4891B2FBF0895809119
:100C6000630581110DC082E080935F0584E080936D
:100C70006005109262051092610581E08093630522
:100C80008FE595E008950F931F93CF93DF93EC01C9
:100C900088819981009729F02A813B81261737079F
:100CA00088F48B016F5F7F4F0E940518009761F0F9
:100CB000998388831B830A832C813D81232B11F424
:100CC000FC01108281E001C080E0DF91CF911F9193
:100CD0000F910895CF92DF92EF92FF920F931F939F
:100CE000CF93DF9300D000D0CDB7DEB78C01862F35
:100CF0004AE09E012F5F3F4F6901B90190E00E94D9
:100D00000316F60101900020E9F73197EC19FD096F
:100D1000D8011496ED90FC9015973097B9F0EE0E2F
:100D2000FF1EB701C8010E944306882381F0F80125
:100D30002081318184819581B601820F931F0E94A9
:100D4000E418D8011596FC92EE92149781E00F906A
:100D50000F900F900F90DF91CF911F910F91FF9007
:100D6000EF90DF90CF900895EF92FF920F931F9333
:100D7000CF93DF9300D0CDB7DEB78C018EE28983AD
:100D80001A82F801E480F580FFEFEF1AFF0AB7013D
:100D9000C8010E944306882381F0F8012081318137
:100DA00084819581BE016F5F7F4F820F931F0E94E8
:100DB000E418F801F582E48281E00F900F90DF9152
:100DC000CF911F910F91FF90EF900895EF92FF92B6
:100DD0000F931F93CF93DF93EC018B016115710586
:100DE00051F0CB010E94FA157C01BC01CE010E949A
:100DF0004306811104C0CE010E947F0D07C0FD8211
:100E0000EC82B801888199810E94F315CE01DF91AF
:100E1000CF911F910F91FF90EF9008953FB7F894F5
:100E20008091830590918405A0918505B0918605F8
:100E300026B5A89B05C02F3F19F00196A11DB11D35
:100E40003FBFBA2FA92F982F8827820F911DA11D70
:100E5000B11DBC01CD0142E0660F771F881F991FAD
:100E60004A95D1F708950895FB012785FC0127874E
:100E7000FB012685FC0126870895FC0187850895DE
:100E8000089580E090E00895AF92BF92CF92DF92F4
:100E9000EF92FF920F931F93CF93DF9300D0CDB7C4
:100EA000DEB7FC0187858823B1F05A019B018CE6EF
:100EB000898386858A83C12CD12CE12CF12C8A016F
:100EC00042E050E0BE016F5F7F4F848595850E94B0
:100ED0009103C50102C080E090E00F900F90DF9178
:100EE000CF911F910F91FF90EF90DF90CF90BF9027
:100EF000AF900895AF92BF92CF92DF92EF92FF92A0
:100F00000F931F93CF93DF93CDB7DEB72A970FB61A
:100F1000F894DEBF0FBECDBF5C018EE48F83F50178
:100F200086819781988789871A8219821C821B8201
:100F30001E821D8262EE70E0CE0101960E94E606DE
:100F4000F5018185811106C06AED70E0CE01019640
:100F50000E94E6060D811E8129813A81CC24C3942A
:100F6000D12CCE010A967C0143E050E0BE01695FBE
:100F70007F4FF501848195810E94910381E09A85DC
:100F8000913009F080E0F501808789819A810E9483
:100F90006D172A960FB6F894DEBF0FBECDBFDF9156
:100FA000CF911F910F91FF90EF90DF90CF90BF9066
:100FB000AF900895CF92DF92EF92FF920F931F931D
:100FC000CF93DF9300D000D000D0CDB7DEB77C0147
:100FD0008B016A011A8219821C821B821E821D8269
:100FE00060E070E0CE0101960E944306811105C0C9
:100FF000CE0101960E947F0D08C01E821D826AEB01
:1010000071E089819A810E94E41862E170E0CE016A
:1010100001960E944306D80112966C91CE0101966A
:101020000E946A06CE0101960E94B406F80163810F
:10103000CE0101960E946A06CE0101960E94B40676
:10104000D80114966C91CE0101960E946A06CE01D9
:1010500001960E94B406F8016581CE0101960E94B6
:101060006A06D701ED91FC9169817A810088F18946
:10107000E02DA601C70109958C0189819A810E9402
:101080006D17C80126960FB6F894DEBF0FBECDBF10
:10109000DF91CF911F910F91FF90EF90DF90CF9054
:1010A0000895362F90E0FC01E85CFE4F4491FC016E
:1010B000E75EFE4F2491FC01E650FF4F84918823A8
:1010C00009F451C04423E1F150E0FA013197EF30C7
:1010D000F105B0F5EA5AFF4F0C94D21690918000BA
:1010E0009F7707C0909180009F7D03C09091800002
:1010F000977F9093800024C094B59F7702C094B5E9
:101100009F7D94BD1DC0909190009F7707C09091E6
:1011100090009F7D03C090919000977F90939000E6
:101120000FC09091C0009F7703C09091C0009F7D39
:101130009093C00005C09091C200977F9093C20029
:10114000E82FF0E0EE0FFF1FE451FF4FA591B4919F
:101150008FB7F894EC91311103C020952E2301C074
:101160002E2B2C938FBF08958F929F92AF92BF9298
:10117000CF92DF92EF92FF926B017C010E940E07EB
:101180004B015C01C114D104E104F104F1F00E94AF
:101190000E07DC01CB0188199909AA09BB09883E11
:1011A0009340A105B10570F321E0C21AD108E1080E
:1011B000F10888EE880E83E0981EA11CB11CC114B2
:1011C000D104E104F10419F7DDCFFF90EF90DF9037
:1011D000CF90BF90AF909F908F9008951F920F92E5
:1011E0000FB60F9211242F933F938F939F93AF933A
:1011F000BF9380917F0590918005A0918105B0916A
:10120000820530917E0523E0230F2D3720F40196CF
:10121000A11DB11D05C026E8230F0296A11DB11D19
:1012200020937E0580937F0590938005A093810590
:10123000B09382058091830590918405A0918505E6
:10124000B09186050196A11DB11D809383059093F1
:101250008405A0938505B0938605BF91AF919F91BA
:101260008F913F912F910F900FBE0F901F90189567
:10127000CF93DF93EC018D819E81DC01ED91FC9198
:101280000084F185E02D09951816190654F48D8116
:101290009E81DC01ED91FC910284F385E02D09959E
:1012A000EACFDF91CF9108958F929F92AF92BF9234
:1012B000CF92DF92EF92FF92CF93DF93EC018FB743
:1012C000F89480907F0590908005A0908105B09063
:1012D00082058FBF6B01E12CF12C8D819E81DC0199
:1012E000ED91FC910284F385E02D099597FF16C0DE
:1012F0002FB7F89480917F0590918005A09181058A
:10130000B09182052FBF88199909AA09BB098C15CC
:101310009D05AE05BF0508F38FEF9FEFDF91CF91DD
:10132000FF90EF90DF90CF90BF90AF909F908F9005
:101330000895FC01238134812627022E2295207FE7
:101340002025032E322F22952F7002262695322734
:101350002327220F220F220F202534832383089571
:10136000CF92DF92EF92FF920F931F936801790162
:1013700000E010E020E030E00E9491031F910F9107
:10138000FF90EF90DF90CF900895AF92BF92CF92F1
:10139000DF92EF92FF920F931F93CF93DF93CDB71E
:1013A000DEB727970FB6F894DEBF0FBECDBF5C0146
:1013B0009B0183E489835A834B83FB0101900020C6
:1013C000E9F731978F01061B170BCC24C394D12C5E
:1013D000CE0107967C0143E050E0BE016F5F7F4F76
:1013E000D5011C968D919C911D970E949103892B8C
:1013F000C1F18F81F501868793E69C838D8301E09F
:1014000010E09E012A5F3F4F42E050E0BE016C5F5A
:101410007F4FD5011C968D919C911D970E94B0091C
:101420008E81882339F061E070E080E090E00E94D6
:10143000B408E5CF81E0F50187870190F081E02DC8
:101440000688F789E02DC501099581110DC0D501E8
:10145000ED91FC910488F589E02DC5010995F50110
:10146000168680E090E002C081E090E027960FB6FB
:10147000F894DEBF0FBECDBFDF91CF911F910F91CA
:10148000FF90EF90DF90CF90BF90AF900895EF92D4
:10149000FF920F931F93CF93DF9300D01F92CDB78E
:1014A000DEB7DC011F962C911F97222301F17C01EE
:1014B000ED91FC910084F185E02D0995892BC9F40B
:1014C0008CE48983F70186858A8301E010E09E0120
:1014D0002D5F3F4F42E050E0BE016F5F7F4F84853C
:1014E00095850E94B00981E09B81913019F080E0E0
:1014F00001C081E00F900F900F90DF91CF911F916D
:101500000F91FF90EF900895EF92FF920F931F932A
:10151000CF93DF9300D01F92CDB7DEB7FC012089B7
:10152000211118C07C01118A8BE4898380E48B83AC
:1015300086858A839F012E5E3F4F00E410E043E0E2
:1015400050E0BE016F5F7F4F848595850E94B00992
:10155000F701808B0F900F900F90DF91CF911F912B
:101560000F91FF90EF900895CF93DF93EC010E94CD
:10157000840A8889882331F08989C80FD11D8A8916
:1015800090E002C08FEF9FEFDF91CF910895CF924F
:10159000DF92EF92FF920F931F93CF93DF93EC01B3
:1015A0006A017B0100E010E08889811106C0CE014C
:1015B0000E94840A8889882399F00F5F1F4F8989C8
:1015C00091E0980F998BFE01E80FF11D8289F701D8
:1015D00081937F0188898150888B0C151D0520F32C
:1015E000C801DF91CF911F910F91FF90EF90DF9095
:1015F000CF900895CF93DF93EC010E94840A8889ED
:10160000882359F08150888B898991E0980F998BB4
:10161000C80FD11D8A8990E002C08FEF9FEFDF9144
:10162000CF910895CF93DF93EC010E94840A8889BB
:1016300090E0DF91CF9108950F931F9300E010E0A9
:1016400020E030E00E94B0091F910F910895CF93E0
:10165000DF9300D0CDB7DEB722E629836A8342E06C
:1016600050E0BE016F5F7F4FFC01848195810E9435
:101670001C0B81E090E00F900F90DF91CF910895C7
:10168000CF93DF9300D01F92CDB7DEB7FC01278543
:10169000222389F08CE6898386858A836B8343E0E5
:1016A00050E0BE016F5F7F4F848595850E941C0BC3
:1016B00081E090E002C080E090E00F900F900F90EA
:1016C000DF91CF9108950F931F93CF93DF9300D0B5
:1016D000CDB7DEB78C01FC018785882369F08AE6E7
:1016E000898386858A8342E050E0BE016F5F7F4F29
:1016F000848595850E941C0BF8011786108A118A33
:101700000F900F90DF91CF911F910F9108951F922D
:101710000F920FB60F9211242F933F934F935F9325
:101720006F937F938F939F93AF93BF93EF93FF93A9
:1017300080917D0587FF05C010928500109284007E
:101740001BC020917D05022E000C330B8091A60357
:1017500090E02817390784F480917D05082E000C4D
:10176000990BFC01EE0FFF1F8E0F9F1FFC01EE5720
:10177000FC4F808186FD15C080917D058F5F809331
:101780007D0520917D05022E000C330B8091A60370
:1017900090E028173907C4F480917D058C3064F1FE
:1017A00013C080917D05082E000C990BFC01EE0FF3
:1017B000FF1F8E0F9F1FFC01EE57FC4F808160E0E2
:1017C0008F730E945108D8CF80918400909185003A
:1017D000049680349C4918F480E49CE905C080910B
:1017E00084009091850004969093890080938800EE
:1017F0008FEF80937D053BC0209184003091850060
:1018000080917D05082E000C990BFC01EE0FFF1F47
:101810008E0F9F1FFC01EE57FC4F81819281820F3A
:10182000931F909389008093880080917D05082EF6
:10183000000C990BFC01EE0FFF1F8E0F9F1FFC0188
:10184000EE57FC4F808186FF12C080917D05082EE7
:10185000000C990BFC01EE0FFF1F8E0F9F1FFC0168
:10186000EE57FC4F808161E08F730E945108FF9119
:10187000EF91BF91AF919F918F917F916F915F9108
:101880004F913F912F910F900FBE0F901F90189581
:101890000F931F93CF93DF93EC01809127028093E6
:1018A00006028AE18C1B809328028093070208E0DD
:1018B00012E0C801865092402091280230E02F5F4C
:1018C0003F4F2817390734F00E948715F80181939C
:1018D0008F01EFCF20E030E02496C217D30774F0D9
:1018E000F901E80FF91FEA5FFD4FD901A95DBD4F6E
:1018F00012964C9141832F5F3F4FEFCFDF91CF91F5
:101900001F910F91089540918D0550918E05209162
:101910008B0530918C0542175307B4F49091E80081
:101920009570E1F39091E80092FD19C08093F10069
:1019300080918D0590918E0501968F739927892B43
:1019400019F48EEF8093E80080918D0590918E05BB
:10195000019690938E0580938D0581E0089580E037
:101960000895CF92DF92EF92FF920F931F93CF9340
:10197000DF931F92CDB7DEB7182F062FE42E862FE8
:10198000880F8E5F99830E94830C83E00E94830CF2
:10199000F12EC12E9981D92E8C2D8F19801798F494
:1019A000F601E7FE02C0849101C080810E94830C91
:1019B000182F80E00E94830C8123FFEFCF1ADF0AEB
:1019C0008111EACF01C081E00F90DF91CF911F918B
:1019D0000F91FF90EF90DF90CF900895DF92EF92FC
:1019E000FF920F931F93CF93DF93D82E8A017B0131
:1019F000E40EF51EEB01CE15DF0571F0D7FE03C036
:101A0000FE01849101C088810E94830C219681117E
:101A1000F2CF8FEF9FEF01C0C801DF91CF911F91EF
:101A20000F91FF90EF90DF900895615030F020917A
:101A3000F100FC0120830196F8CF289884E680937A
:101A400093020895CF92DF92EF92FF920F931F932C
:101A5000CF93DF936C017A018B01C0E0D0E0CE150B
:101A6000DF0589F0D8016D918D01D601ED91FC91D2
:101A70000190F081E02DC6010995892B11F47E01BA
:101A800002C02196ECCFC701DF91CF911F910F913A
:101A9000FF90EF90DF90CF9008950F931F93CF9317
:101AA000DF931F92CDB7DEB782E0898342E450E036
:101AB00067E571E080E80E94EE0C0E942F06DC01D1
:101AC00012960D911C9113970115110569F0D8011B
:101AD000ED91FC910280F381E02DBE016F5F7F4F9D
:101AE000C801099597FF07C089810F90DF91CF91B9
:101AF0001F910F910895F80100851185E5CFCF93CF
:101B0000DF93EC0188819981009711F00E946D1795
:101B1000198218821D821C821B821A82DF91CF914A
:101B200008951F920F920FB60F9211248F939F93D7
:101B30008091E1009091E100937F9093E10083FF19
:101B40000FC01092E90091E09093EB001092EC002E
:101B500092E39093ED001092940298E09093F0003D
:101B600082FF20C093E09093E9009091F2009923C6
:101B700019F09AE39093E80090918A05992339F03F
:101B800090918A05915090938A05992389F19091BB
:101B90009302992339F0909193029150909393027C
:101BA000992341F184FF10C08091E2008E7E816014
:101BB0008093E2008091E1008F7E8093E10080912C
:101BC00089058E7E806111C080FF16C08091E20081
:101BD0008E7E80618093E2008091E1008E7E809312
:101BE000E100809189058E7E81608093890504C023
:101BF0005D9ACDCF289AD6CF9F918F910F900FBE2F
:101C00000F901F9018951F920F920FB60F921124EC
:101C1000CF92DF92EF92FF920F931F932F933F93F8
:101C20004F935F936F937F938F939F93AF93BF93E4
:101C3000EF93FF93CF93DF93CDB7DEB76C97DEBF03
:101C4000CDBF1092E9008091E80083FFEDC168E00C
:101C5000CE0145960E94150D82EF8093E8008D8994
:101C600087FF05C09091E80090FFFCCF03C09EEF76
:101C70009093E800982F907609F0C6C09E892F892E
:101C8000188D91110CC0803829F4809188058093BB
:101C9000F10002C01092F1001092F10048C1422FF1
:101CA00050E0512B913051F4811141C14130510527
:101CB00009F03DC1809188058D7F0BC0933061F4A0
:101CC000811135C14130510509F031C1809188053C
:101CD0008260809388052BC1953041F48091E800A3
:101CE00080FFFCCF20682093E30021C1963009F0EB
:101CF0005FC0EB8CFC8C1092E90010928E05109264
:101D00008D05123091F510928C0510928B050E9472
:101D10004D0D99E0BE016F5F7F4FDB01E92F1D92F2
:101D2000EA95E9F799831A8391E09E8390EA988770
:101D30009AEF998720918D0530918E05275F3F4F4F
:101D40003C832B838D831092E90010928E051092B4
:101D50008D05F0928C05E0928B0549E050E080E023
:101D60000E94EE0C0E944D0DE2C0F0928C05E092B4
:101D70008B050E942F06DC011296ED90FC901397C4
:101D8000E114F10409F4C0C0D701ED91FC91048085
:101D9000F581E02DBE016B5E7F4FC701099500976D
:101DA00019F00CF0C4C0C7C0F701E084F184E8CF9B
:101DB000973009F4C0C0983021F481E08093F1009D
:101DC000B6C0993009F0B3C0837009F0B4C0E3E83D
:101DD000F1E081E021E036E39081992361F0809386
:101DE000E9002093EB0091919093EC003093ED008B
:101DF0008F5F873089F78EE78093EA001092EA00C0
:101E00008F898093940293C08B8D9C8D1092E900F2
:101E100010928E0510928D0590938C0580938B0502
:101E2000898D811156C08E899D89913A59F48132EC
:101E300009F081C047E050E064E071E080E00E947A
:101E4000EE0C75C0913209F076C0833289F4888D2A
:101E500090E0982F88272F89822BA0E0B0E0809314
:101E6000000190930101A0930201B09303015FC0B0
:101E7000803269F48091E80082FFFCCF67E084E063
:101E800091E00E94150D8BEF8093E80006C082322E
:101E900009F04DC08F8980930B01809187058823BD
:101EA00019F0EEEFFAE002C0E0E0F8E08091040102
:101EB00090910501A0910601B0910701803B9440EB
:101EC000A105B10509F07BC080910B0180FF93C093
:101ED00076C00E942F06DC0112960D911C9113977B
:101EE0000115110541F1D801ED91FC910190F081AE
:101EF000E02DBE016B5E7F4FC8010995811117C0AF
:101F0000F80100851185ECCF113009F44EC0133073
:101F100091F48F89882309F445C0823081F440E828
:101F20006BE08BEB91E00E94B10C882321F08EEFE7
:101F30008093E80079C081E28093EB0075C0813026
:101F400029F440E86BE08FEA91E0EDCF833099F718
:101F50000E942F06DC011296ED90FC9013978E01E3
:101F60000F5F1F4F6801E114F10479F0D701ED9183
:101F7000FC910680F781E02DB801C7010995080F93
:101F8000111DF701E084F184EECFD8011C92F60117
:101F900001900020E9F73197BF016C197D0940E0FD
:101FA000C601C1CF69E971E002C06DE971E0611558
:101FB000710509F2FB01449150E080E840CF0FB673
:101FC000F894A895809160008861809360001092D9
:101FD00060000FBEA895EE3F2AE0F20739F080912D
:101FE000FE0A9091FF0A91838083A1CF1092FF0A8D
:101FF0001092FE0A9CCFEE3F8AE0F80731F0808114
:1020000091819093FF0A8093FE0A87E797E7918377
:1020100080839BE088E10FB6F894A89580936000D8
:102020000FBE9093600083CF6C960FB6F894DEBF1E
:102030000FBECDBFDF91CF91FF91EF91BF91AF91D7
:102040009F918F917F916F915F914F913F912F91D0
:102050001F910F91FF90EF90DF90CF900F900FBEE8
:102060000F901F901895DC01ED91FC910190F0818B
:10207000E02D0994EF92FF920F931F93CF93DF937C
:102080008C017B01C0E0D0E0F701EC0FFD1F6491F3
:10209000662361F0D801ED91FC910190F081E02D73
:1020A000C8010995892B11F02196EECFCE01DF9161
:1020B000CF911F910F91FF90EF90089561157105D9
:1020C00079F0FB0101900020E9F73197AF01461B41
:1020D000570BDC01ED91FC910280F381E02D099416
:1020E00080E090E008954F925F926F927F92EF921E
:1020F000FF920F931F93CF93DF93CDB7DEB7A197D6
:102100000FB6F894DEBF0FBECDBF7C01FA01CB0144
:1021100019A2223008F42AE08E010F5D1F4F422ED3
:10212000512C612C712CBF01A30192010E94A116B8
:10213000F901CA01015011096A3014F4605D01C04F
:10214000695CD8016C93232B242B252B61F7B801F4
:10215000C7010E945E10A1960FB6F894DEBF0FBEB5
:10216000CDBFDF91CF911F910F91FF90EF907F90A6
:102170006F905F904F900895FC010FB6F8946091B6
:102180008F057091900580919105909192050FBEF9
:10219000309721F060837183828393830895CF9376
:1021A000DF93CDB7DEB7CB55D1090FB6F894DEBFBC
:1021B0000FBECDBF789484B5826084BD84B5816044
:1021C00084BD85B5826085BD85B5816085BD809102
:1021D0006E00816080936E0010928100809181007A
:1021E0008260809381008091810081608093810072
:1021F0008091800081608093800080919100826056
:1022000080939100809191008160809391008091F2
:1022100090008160809390008091C10084608093E1
:10222000C1008091C10082608093C1008091C10093
:1022300081608093C1008091C30081608093C3005E
:102240008091C00082608093C0008091C200816054
:102250008093C20080917A00846080937A0080919C
:102260007A00826080937A0080917A008160809306
:102270007A0080917A00806880937A0010929402AC
:1022800010928805109289058091D7008160809313
:10229000D70080EA8093D80089B5806189BD89B56F
:1022A000826089BD09B400FEFDCF61E070E080E08E
:1022B00090E00E94B4088091D8008F7C8061809368
:1022C000D8008091E000807F8093E0008091E10061
:1022D0008E7E8093E1008DE08093E200559A209AF3
:1022E000EEEFFFE7859194918B3F9C4D19F481E0CF
:1022F000809387058FEF9FEF9093A2028093A102B6
:10230000E0914D05F0914E05A089B18982E08C9352
:10231000A485B5851C92A685B78587E08C93108E21
:10232000A489B58986E08C93A289B3898C91806158
:102330008C93A289B3898C9188608C93A289B3898C
:102340008C9180688C930288F389E02D80818F7D49
:10235000808380914B058111C8C081E080934B053B
:1023600084E495E00E94380968EE73E080E090E034
:102370000E94B4088091490590914A05DC01ED91D5
:10238000FC910084F185E02D09951816190644F397
:1023900065E0F62EEE24E39472E3D72EEAE1F1E055
:1023A000DE01AD5ABF4F8F2D01900D928A95E1F756
:1023B000E0924C0545E050E0BE016D5A7F4F84E449
:1023C00095E00E941C0B63E08091490590914A05BD
:1023D0000E9433106AEF70E080E090E00E94B40841
:1023E00068ED70E08091490590914A050E943A108D
:1023F0006AEF70E080E090E00E94B40866ED70E063
:102400008091490590914A050E943A1064EF71E06D
:1024100080E090E00E94B4086AEC70E08091490589
:1024200090914A050E943A1064EF71E080E090E0DC
:102430000E94B40884E495E00E943809EFE1F1E0DD
:10244000DE0111968F2D01900D928A95E1F7D092C1
:102450004C0504E010E09E01285A3F4F45E050E053
:10246000BE016F5F7F4F84E495E00E94B0098F3F0B
:10247000BFEF9B0739F468EE73E080E090E00E94C4
:10248000B4088CCF69962FAD69972111FFCF0497BF
:1024900019F56A962FAD6A9730E02053310984E62A
:1024A000829FA001839F500D11246B962FAD6B97D7
:1024B00030E0205331096AE0629FC001639F900DB4
:1024C0001124840F951F6C962FAD6C9730E020532C
:1024D0003109820F931F02C084E690E09093460575
:1024E0008093450582E380934C05109258058FE454
:1024F00095E00E947A0780E090E00E94BC10CB013A
:102500000E948C1580E090E00E94BC1088279927DB
:10251000611571058105910511F00E94EA150AEA1D
:1025200013E0D801ED91FC91E28CF38CCE01019681
:102530000E941B05BE016F5F7F4FC801F70109951F
:102540000E5A1F4FF5E004341F0759F73CE3332EB2
:1025500040E4C42EDD24D394412C512C3201439409
:102560002AEAE22E23E0F22ED701ED91FC910688B3
:10257000F789E02DC701099581110FC0D701ED91B1
:10258000FC91028D138DCE0101960E941B05BE01A8
:102590006F5F7F4FC701F8010995F2E5EF0EF11C5F
:1025A00024E4E21625E0F206F9F60AEA13E0A12C8B
:1025B000B12CD801ED91FC910688F789E02DC80176
:1025C0000995882309F444C1D801ED91FC9106884E
:1025D000F789E02DC8010995882309F439C1D8018C
:1025E000ED91FC910688F789E02DC80109958111CC
:1025F00004C089E891E00E94A805D801ED91FC9102
:102600000084F185E02DC8010995892B09F474C077
:1026100092E7E92E92E0F92ED801ED91FC91008429
:10262000F185E02DC8010995892B61F0D801ED9164
:10263000FC910284F385E02DC8010995F70181938F
:102640007F01EACF8091720280934D02E091730284
:10265000E0934E02F0E0CF010296E15BFD4F9C015A
:102660002E1B3F0BDC01AE58BD4FA9014E0F5F1F63
:10267000413251051CF44C914193F7CF80904D02AB
:10268000912CE0905302F12C60EA71E085E992E030
:102690000E945E10C4010E94E50568EA71E085E9C8
:1026A00092E00E945E1040914E0250E060E070E0C7
:1026B0002AE085E992E00E94731068EB71E085E9F9
:1026C00092E00E945E106BEB71E085E992E00E945F
:1026D0005E1060914F027091500280915102909172
:1026E00052020E94710565EC71E085E992E00E945A
:1026F0005E10C7010E94E50585E992E00E940C0288
:10270000892B81F085E992E00E94190380934C02A5
:10271000682F85E992E00E94331060914C02C80155
:102720000E94331080914D02813011F1833009F005
:1027300087C0C0922702D0922E02D0922F02D09250
:102740003002D0923102D09232024092290250924D
:102750002A0260922B0270922C0285E090E00E9487
:10276000480C8AEAE82E83E0F82E812C912C37C0A1
:102770008BEC91E00E94A8053092270210922D0266
:102780000E94E5156093290270932A0280932B0220
:1027900090932C0280E090E00E94480CD801ED91CB
:1027A000FC910280F381E02D41E250E066E072E0AE
:1027B000C801099580EE91E00E94A80565EF71E0DF
:1027C00085E992E00E945E106091290270912A02D0
:1027D00080912B0290912C020E94710531C0D7018B
:1027E000ED91FC910688F789E02DC70109958823B2
:1027F00079F08A149B0461F0D701ED91FC9102807D
:10280000F381E02D41E250E066E072E0C7010995F6
:10281000BFEF8B1A9B0AE2E5EE0EF11CF5E08F1676
:102820009104E9F661E08DE00E94510868EE73E0E2
:1028300080E090E00E94B40860E08DE00E945108C2
:1028400041E250E06FEF7FEF8DE492E00E94DD18EF
:102850002FEFA21AB20A0E5A1F4F85E0A816B10434
:1028600009F0A7CE0E94E1017BCECF92DF92EF92DA
:10287000FF928AE791E090936C0580936B0510922C
:102880006D0510926E0510926F051092700525EE81
:1028900032E01092E8021092E70248EE53E060E066
:1028A00070E04093E9025093EA026093EB02709368
:1028B000EC02E8E2F1E0F093E602E093E502EDECF1
:1028C000F0E0F093F202E093F102ECECF0E0F09330
:1028D000F402E093F302E8ECF0E0F093F602E09308
:1028E000F502E9ECF0E0F093F802E093F702EAEC8D
:1028F000F0E0F093FA02E093F902EEECF0E0F093EE
:10290000FC02E093FB021092FE021092FF02109272
:1029100000031092010310929802109297024093C4
:10292000990250939A0260939B0270939C024AE32F
:1029300051E050939602409395024FEF5FEF509312
:10294000A2024093A10290937205809371051092A8
:102950007305109274051092750510927605909388
:102960007805809377051092790510927A05109278
:102970007B0510927C051092440530934A05209304
:10298000490510924B0510924C0530934E0520934B
:102990004D0590935A058093590510925B0510924E
:1029A0005C0510925D0510925E0510925205109222
:1029B00051058CE691E09093500580934F0584E497
:1029C00095E090935405809353058FEF90E090939A
:1029D0005605809355051092570510925805EAEA5E
:1029E000F3E080E090E038EEC32E33E0D32EE12C0C
:1029F000F12C4CE451E024E435E013821282C482CD
:102A0000D582E682F7825183408335872487DC01B3
:102A1000A655BC4F1E961C921E971F961C921F9780
:102A200050961C928E5A9F4FEE5AFF4F8A3961E0A2
:102A3000960719F78091A6038C30A0F491E0980FC7
:102A40009093A6038093A70390E0FC01EE0FFF1F75
:102A50008E0F9F1FFC01EE57FC4F88EB9BE092838B
:102A6000818303C08FEF8093A703FF90EF90DF90E7
:102A7000CF90089508958F929F92AF92BF92CF9278
:102A8000DF92EF92FF92CF93DF93EC01688179811F
:102A90008A819B81611571058105910521F464E2AC
:102AA00079ED8BE597E02DE133EF41E050E00E94B6
:102AB000381649015A019B01AC01A7EAB1E40E9412
:102AC00057166B017C01ACEEB4EFA50194010E9496
:102AD0006516DC01CB018C0D9D1DAE1DBF1DB7FF22
:102AE00003C00197A109B04888839983AA83BB8357
:102AF0009F77DF91CF91FF90EF90DF90CF90BF90C5
:102B0000AF909F908F9008950E943B1508958CE0A0
:102B100091E00E943B150895A0E0B0E080930C0185
:102B200090930D01A0930E01B0930F0108958F9221
:102B30009F92AF92BF92CF92DF92EF92FF92CF938C
:102B4000DF93EC01688179818A819B816115710530
:102B50008105910521F464E279ED8BE597E02DE1A3
:102B600033EF41E050E00E94381649015A019B01C1
:102B7000AC01A7EAB1E40E9457166B017C01ACEEF0
:102B8000B4EFA50194010E946516DC01CB018C0D08
:102B90009D1DAE1DBF1DB7FF03C00197A109B04821
:102BA00088839983AA83BB83BC01CD019F77DF9182
:102BB000CF91FF90EF90DF90CF90BF90AF909F901C
:102BC0008F9008950E949715089580E191E00E94EA
:102BD000971508956093100170931101809312016D
:102BE000909313010895FB01DC0105900D920020E4
:102BF000E1F70895FC0105900020E9F78095909594
:102C00008E0F9F1F0895BB274A3031F4992322F479
:102C1000BDE2909581959F4F0C940F16BB27FB0149
:102C20005527AA27880F991FAA1FA41710F0A41BC5
:102C300083955051B9F7A05DAA3308F0A95DA1931F
:102C4000009779F7B111B1931192CB010C9428162A
:102C5000DC01FC01672F71917723E1F7329704C003
:102C60007C916D9370836291AE17BF07C8F308958E
:102C7000052E97FB1EF400940E944F1657FD07D0B7
:102C80000E94A11607FC03D04EF40C944F165095E9
:102C90004095309521953F4F4F4F5F4F0895909548
:102CA0008095709561957F4F8F4F9F4F08950E943B
:102CB000C316A59F900DB49F900DA49F800D911DEC
:102CC00011240895B7FF0C9457160E945716821BC3
:102CD000930B08952F923F924F925F926F927F9243
:102CE0008F929F92AF92BF92CF92DF92EF92FF921C
:102CF0000F931F93CF93DF93CDB7DEB7CA1BDB0BC8
:102D00000FB6F894DEBF0FBECDBF09942A8839886C
:102D100048885F846E847D848C849B84AA84B98473
:102D2000C884DF80EE80FD800C811B81AA81B9817F
:102D3000CE0FD11D0FB6F894DEBF0FBECDBFED0193
:102D40000895A1E21A2EAA1BBB1BFD010DC0AA1FEC
:102D5000BB1FEE1FFF1FA217B307E407F50720F004
:102D6000A21BB30BE40BF50B661F771F881F991F7F
:102D70001A9469F760957095809590959B01AC01C8
:102D8000BD01CF010895A29FB001B39FC001A39FD1
:102D9000700D811D1124911DB29F700D811D112494
:102DA000911D0895EE0FFF1F0590F491E02D0994F9
:102DB000CF93DF938230910510F482E090E0E091B0
:102DC0009505F091960520E030E0C0E0D0E0309726
:102DD00011F14081518148175907C0F04817590730
:102DE00061F482819381209719F09B838A832BC0A1
:102DF000909396058093950526C02115310519F00D
:102E00004217530718F49A01BE01DF01EF01028057
:102E1000F381E02DDCCF2115310509F1281B390B99
:102E20002430310590F412968D919C911397611581
:102E3000710521F0FB019383828304C09093960572
:102E400080939505FD01329644C0FD01E20FF31F0A
:102E500081939193225031092D933C933AC0209154
:102E6000930530919405232B41F420911601309164
:102E7000170130939405209393052091140130910C
:102E800015012115310541F42DB73EB740911801C8
:102E900050911901241B350BE0919305F091940595
:102EA000E217F307A0F42E1B3F0B2817390778F021
:102EB000AC014E5F5F4F2417350748F04E0F5F1F80
:102EC00050939405409393058193919302C0E0E061
:102ED000F0E0CF01DF91CF9108950F931F93CF932F
:102EE000DF93009709F48CC0FC01329713821282A1
:102EF00000919505109196050115110581F4208129
:102F00003181820F931F20919305309194052817EA
:102F1000390779F5F0939405E093930571C0D801D2
:102F200040E050E0AE17BF0750F412962D913C914F
:102F30001397AD012115310509F1D901F3CF9D0199
:102F4000DA013383228360817181860F971F821794
:102F5000930769F4EC0128813981260F371F2E5F12
:102F60003F4F318320838A819B8193838283452BCA
:102F700029F4F0939605E093950542C01396FC93CF
:102F8000EE931297ED01499159919E01240F351F3F
:102F9000E217F30771F480819181840F951F0296E7
:102FA00011969C938E938281938113969C938E931A
:102FB0001297E0E0F0E0D80112968D919C91139762
:102FC000009719F0F8018C01F6CF8D919C91980132
:102FD0002E5F3F4F820F931F2091930530919405F0
:102FE0002817390769F4309729F410929605109242
:102FF000950502C0138212821093940500939305E5
:10300000DF91CF911F910F910895A0E0B0E0EBE028
:10301000F8E10C946E16EC01009721F4CB010E94AC
:10302000D816B8C0FC01E60FF71F9C0122503109E9
:10303000E217F30708F4ACC0D9010D911C91119768
:1030400006171707B0F00530110508F49FC0C80136
:1030500004978617970708F499C002501109061BB8
:10306000170B019311936D937C93CF010E946D1701
:103070008DC05B01A01AB10A4C01800E911EA09177
:103080009505B091960540E050E0E12CF12C1097A9
:1030900009F44AC0A815B905D1F56D907C90119737
:1030A000630182E0C80ED11CCA14DB0480F1A301C5
:1030B0004A195B096A0182E0C80ED11C1296BC90C5
:1030C00012971396AC91B5E0CB16D10440F0B282C2
:1030D000A38351834083D9016D937C930AC00E5F13
:1030E0001F4FC301800F911FF90191838083EB2D46
:1030F000FA2FE114F10431F0D7011396FC93EE930B
:10310000129744C0F0939605E09395053FC08D91CA
:103110009C9111974817590708F4AC017D0112964C
:103120000D90BC91A02DB3CF809193059091940503
:1031300088159905E1F446175707C8F480911401E2
:1031400090911501009741F48DB79EB740911801F9
:1031500050911901841B950BE817F907C8F4F093F7
:103160009405E0939305F901718360830FC0CB014F
:103170000E94D8167C01009759F0A801BE010E9458
:10318000D418CE010E946D17C70104C0CE0102C041
:1031900080E090E0CDB7DEB7EEE00C948A1681E0D7
:1031A00090E0F8940C94EB18FB01DC0102C0019054
:1031B0000D9241505040D8F70895DC0101C06D9345
:1031C00041505040E0F70895FB01DC0101900D9261
:1031D0000020E1F7089510E0C5EED0E004C0FE0144
:1031E0000E94D2162196C63ED107C9F7F894FFCFA8
:1031F000FFFFFFFF00E100000000000001000000F1
:103200000100000000009705800058585858585891
:1032100058313030000000007801220D1001BF014C
:1032200041011F01330100000000EB016C02F102BB
:1032300001020C021903F50200000000400B4407D4
:1032400041073307120BFA0AB40ADA07C509C70A9D
:10325000630B470A3D07340700000000270B220DCF
:10326000410740077A070000000026020000000026
:10327000370300C180810000004E657720636C69D0
:10328000656E7420636F6E6E656374696F6E2E0079
:10329000436F6465203A200050616464696E672062
:1032A00053697A65203A20000D0A005365714E7506
:1032B0006D203A20004944203A20000A0A537461E4
:1032C00072742053656E64205061636B65740A00EC
:1032D000436F6D706C6574652053656E642050613A
:1032E000636B65740053656E64205365715F4E7542
:0632F0006D203A200000F1
:00000001FF
