:100000000C94E6000C940E010C940E010C940E015D
:100010000C940E010C940E010C940E010C940E0124
:100020000C940E010C940E010C94560D0C94C80DFA
:100030000C940E010C940E010C940E010C940E0104
:100040000C940E010C940A080C940E010C940E01F1
:100050000C940E010C940E010C940E010C9471057D
:100060000C940E010C9443030C941D030C940E018C
:100070000C940E010C940E010C940E010C940E01C4
:100080000C940E010C940E010C940E010C940E01B4
:100090000C940E010C940E010C940E010C940E01A4
:1000A0000C940E010C940E010C940E01BA03BD03C6
:1000B000AC03B003B403DE03DE03DE03C103C503F8
:1000C000C903CF03D303DE03D90372756E2D6272A9
:1000D000696467650A000A000A00302E302E302E4F
:1000E00030003132372E302E302E3100000000002B
:1000F000250028002B002E00310004040404040312
:1001000004050202020204030202020206060606B7
:1001100006060404020202040404080201104080DE
:1001200040102040804080080204018040201002DE
:1001300001108010204040200000000200090F0044
:1001400000030401000C000000000000000000009B
:1001500000000000000000080B000202020100097C
:100160000400000102020000052400100105240122
:10017000010104240206052406000107058103107D
:10018000004009040100020A0000000705020240C5
:100190000000070583024000000403090412010067
:1001A00002EF0201404123418000010102030141AD
:1001B000726475696E6F204C4C43004172647569BE
:1001C0006E6F2059756E0000BF13BE1311241FBE41
:1001D000CFEFDAE0DEBFCDBF12E0A0E0B1E0E2E0B9
:1001E000F1E302C005900D92A230B107D9F725E0E6
:1001F000A2E0B2E001C01D92A439B207E1F710E01D
:10020000C5EED0E004C02197FE010E945B16C43EFB
:10021000D107C9F70E9494100C9474180C94000034
:10022000FC01538D448D252F30E0842F90E0821BFC
:10023000930B541710F0CF96089501970895FC0181
:10024000918D828D981761F0828DDF01A80FB11D0D
:100250005D968C91928D9F5F9F73928F90E0089531
:100260008FEF9FEF0895FC01918D828D981731F0EB
:10027000828DE80FF11D858D90E008958FEF9FEF3F
:100280000895FC01918D228D892F90E0805C9F4F15
:10029000821B91098F73992708958CEE92E00E943A
:1002A000410121E0892B09F420E0822F0895FC010F
:1002B000848DDF01A80FB11DA35ABF4F2C91848DEF
:1002C00090E001968F739927848FA689B7892C9324
:1002D000A089B1898C9180648C93938D848D9813BF
:1002E00006C00288F389E02D80818F7D8083089588
:1002F000EF92FF920F931F93CF93DF93EC0181E076
:10030000888F9B8D8C8D981305C0E889F989808131
:1003100085FD24C0F62E0B8D10E00F5F1F4F0F736D
:100320001127E02E8C8DE8120CC00FB607FCFACF17
:10033000E889F989808185FFF5CFCE010E945701B8
:10034000F1CF8B8DFE01E80FF11DE35AFF4FF082D4
:100350000B8FEA89FB898081806207C0EE89FF8963
:100360006083E889F98980818064808381E090E0FE
:10037000DF91CF911F910F91FF90EF900895CF9350
:10038000DF93EC01888D8823C9F0EA89FB8980819D
:1003900085FD05C0A889B9898C9186FD0FC00FB66F
:1003A00007FCF5CF808185FFF2CFA889B9898C91B0
:1003B00085FFEDCFCE010E945701E7CFDF91CF91AE
:1003C000089580E090E0892B29F00E944D01811171
:1003D0000C9400000895CF93DF931F92CDB7DEB742
:1003E0006983DC01ED91FC910280F381E02D41E015
:1003F00050E0BE016F5F7F4F09950F90DF91CF9165
:10040000089583E08093E9008091F200882319F039
:100410008AE38093E80008958F929F92AF92BF92F3
:10042000CF92DF92EF92FF920F931F93CF93DF93C0
:100430007C018B016C0182E0C80ED11C4701E5E014
:100440008E0E911CC0E0D0E0F60141916F0150E0AA
:1004500060E070E02AE0C8010E9438105C016EE2A2
:10046000C8010E94F80F8A0D9B1DC80FD91FC81420
:10047000D90451F7F701458150E060E070E02AE0CF
:10048000C8010E9438108C0F9D1FDF91CF911F91E2
:100490000F91FF90EF90DF90CF90BF90AF909F9023
:1004A0008F9008958F929F92AF92BF92CF92DF92DA
:1004B000EF92FF920F931F93CF93DF935C016B0139
:1004C0007A0180910B01882309F45BC080919B0223
:1004D000882309F456C08091860580FF05C080916D
:1004E000E00082608093E000E70110E00AEF83E023
:1004F000882E9AE3992E2097D9F10E94580B8111EA
:100500000AC0015009F43DC061E070E080E090E075
:100510000E943705F0CF282F30E0C217D3070CF424
:100520008C2F4FB7F8948092E9009091E80095FFE6
:100530001DC0282F30E0C21BD30BF601982F91501D
:1005400020F081918093F100FACFC20ED31E1123C7
:1005500019F09092E80009C08091E80085FD06C07E
:100560009092E80011E0209709F010E04FBFC3CF50
:100570001111C3CF5D9884E6809387051E141F0474
:1005800044F081E090E0F5019383828380E090E085
:1005900001C0C701DF91CF911F910F91FF90EF90A4
:1005A000DF90CF90BF90AF909F908F9008950E9462
:1005B000580B90E008950F931F93CF93DF931F92F2
:1005C000CDB7DEB78C01FC018485958597FF0EC001
:1005D000CE0101960E942E0B019719F4298130E07B
:1005E00002C02FEF3FEFF80135872487F80184859B
:1005F00095850F90DF91CF911F910F910895CF9323
:10060000DF931F92CDB7DEB7FC018485958597FDFA
:1006100005C02FEF3FEF358724870BC0CE01019631
:100620000E942E0B019719F4898190E002C08FEF90
:100630009FEF0F90DF91CF9108951F920F920FB609
:100640000F9211242F933F934F935F936F937F9358
:100650008F939F93AF93BF93EF93FF938CEE92E0B2
:100660000E945701FF91EF91BF91AF919F918F91A0
:100670007F916F915F914F913F912F910F900FBE9E
:100680000F901F9018951F920F920FB60F92112482
:100690002F938F939F93EF93FF93E091FC02F09140
:1006A000FD028081E0910203F091030382FD12C0FC
:1006B0009081809105038F5F8F73209106038217CD
:1006C00051F0E0910503F0E0E451FD4F958F8093E8
:1006D000050301C08081FF91EF919F918F912F9130
:1006E0000F900FBE0F901F901895FC018485958583
:1006F00097FD0BC09FB7F89482E08093E90080914A
:10070000F2009FBF90E0019608959FB7F89482E0B1
:100710008093E9008091F2009FBF90E00895362F0A
:1007200090E0FC01E85CFE4F4491FC01E75EFE4F67
:100730002491FC01E650FF4F8491882309F451C0B5
:100740004423E1F150E0FA013197EF30F105B0F5C3
:10075000EA5AFF4F0C945B16909180009F7707C078
:10076000909180009F7D03C090918000977F90932F
:10077000800024C094B59F7702C094B59F7D94BD3E
:100780001DC0909190009F7707C0909190009F7D31
:1007900003C090919000977F909390000FC090912C
:1007A000C0009F7703C09091C0009F7D9093C000D0
:1007B00005C09091C200977F9093C200E82FF0E0AF
:1007C000EE0FFF1FE451FF4FA591B4918FB7F8943E
:1007D000EC91311103C020952E2301C02E2B2C93B8
:1007E0008FBF08953FB7F894809196029091970239
:1007F000A0919802B091990226B5A89B05C02F3F01
:1008000019F00196A11DB11D3FBFBA2FA92F982F36
:100810008827820F911DA11DB11DBC01CD0142E0B1
:10082000660F771F881F991F4A95D1F7089508957D
:10083000FB012785FC012787FB012685FC01268714
:100840000895FC0187850895089580E090E008955B
:100850000E945818AF92BF92CF92DF92EF92FF9210
:100860000F931F93CF93DF9300D0CDB7DEB7FC017A
:1008700087858823B1F05A019B018CE689838685A0
:100880008A83C12CD12CE12CF12C8A0142E050E06A
:10089000BE016F5F7F4F848595850E94CB08C5019F
:1008A00002C080E090E00F900F90DF91CF911F91F8
:1008B0000F91FF90EF90DF90CF90BF90AF90089591
:1008C000AF92BF92CF92DF92EF92FF920F931F935E
:1008D000CF93DF93CDB7DEB72A970FB6F894DEBF7C
:1008E0000FBECDBF5C018EE48F83F50186819781B9
:1008F000988789871A8219821C821B821E821D8218
:1009000062EE70E0CE0101960E94200CF501818517
:10091000811106C06AED70E0CE0101960E94200CA4
:100920000D811E8129813A81CC24C394D12CCE0122
:100930000A967C0143E050E0BE01695F7F4FF501FC
:10094000848195810E94CB0881E09A85913009F0DD
:1009500080E0F501808789819A810E94F6162A96A7
:100960000FB6F894DEBF0FBECDBFDF91CF911F91C0
:100970000F91FF90EF90DF90CF90BF90AF900895D0
:10098000CF92DF92EF92FF920F931F93CF93DF935B
:1009900000D000D000D0CDB7DEB77C018B016A015A
:1009A0001A8219821C821B821E821D8260E070E006
:1009B000CE0101960E947D0B811105C0CE010196EA
:1009C0000E94440D08C01E821D826AEB71E089817D
:1009D0009A810E946D1862E170E0CE0101960E943A
:1009E0007D0BD80112966C91CE0101960E94A40B4A
:1009F000CE0101960E94EE0BF8016381CE010196B3
:100A00000E94A40BCE0101960E94EE0BD801149611
:100A10006C91CE0101960E94A40BCE0101960E941A
:100A2000EE0BF8016581CE0101960E94A40BD7015F
:100A3000ED91FC9169817A810088F189E02DA60110
:100A4000C70109958C0189819A810E94F616C80117
:100A500026960FB6F894DEBF0FBECDBFDF91CF91C3
:100A60001F910F91FF90EF90DF90CF9008958F929C
:100A70009F92AF92BF92CF92DF92EF92FF926B0163
:100A80007C010E94F2034B015C01C114D104E1041A
:100A9000F104F1F00E94F203DC01CB0188199909FD
:100AA000AA09BB09883E9340A105B10570F321E076
:100AB000C21AD108E108F10888EE880E83E0981E7A
:100AC000A11CB11CC114D104E104F10419F7DDCF5C
:100AD000FF90EF90DF90CF90BF90AF909F908F905E
:100AE00008951F920F920FB60F9211242F933F93E8
:100AF0008F939F93AF93BF938091920290919302B3
:100B0000A0919402B09195023091910223E0230FBD
:100B10002D3720F40196A11DB11D05C026E8230F35
:100B20000296A11DB11D2093910280939202909391
:100B30009302A0939402B0939502809196029091B3
:100B40009702A0919802B09199020196A11DB11D42
:100B50008093960290939702A0939802B093990283
:100B6000BF91AF919F918F913F912F910F900FBEA9
:100B70000F901F901895CF93DF93EC018D819E818C
:100B8000DC01ED91FC910084F185E02D09951816AA
:100B9000190654F48D819E81DC01ED91FC91028453
:100BA000F385E02D0995EACFDF91CF9108958F92DB
:100BB0009F92AF92BF92CF92DF92EF92FF92CF932C
:100BC000DF93EC018FB7F89480909202909093029B
:100BD000A0909402B09095028FBF6B01E12CF12C94
:100BE0008D819E81DC01ED91FC910284F385E02DE5
:100BF000099597FF16C02FB7F894809192029091B3
:100C00009302A0919402B09195022FBF881999097F
:100C1000AA09BB098C159D05AE05BF0508F38FEF2A
:100C20009FEFDF91CF91FF90EF90DF90CF90BF903B
:100C3000AF909F908F900895FC01238134812627E7
:100C4000022E2295207F2025032E322F22952F70F1
:100C50000226269532272327220F220F220F202536
:100C6000348323830895CF92DF92EF92FF920F9304
:100C70001F936801790100E010E020E030E00E945D
:100C8000CB081F910F91FF90EF90DF90CF900895C8
:100C9000AF92BF92CF92DF92EF92FF920F931F938A
:100CA000CF93DF93CDB7DEB727970FB6F894DEBFAB
:100CB0000FBECDBF5C019B0183E489835A834B83C4
:100CC000FB0101900020E9F731978F01061B170BFC
:100CD000CC24C394D12CCE0107967C0143E050E094
:100CE000BE016F5F7F4FD5011C968D919C911D9722
:100CF0000E94CB08892BC1F18F81F501868793E68D
:100D00009C838D8301E010E09E012A5F3F4F42E00B
:100D100050E0BE016C5F7F4FD5011C968D919C9178
:100D20001D970E9433068E81882339F061E070E0C0
:100D300080E090E00E943705E5CF81E0F5018787EC
:100D40000190F081E02D0688F789E02DC501099515
:100D500081110DC0D501ED91FC910488F589E02D3C
:100D6000C5010995F501168680E090E002C081E09A
:100D700090E027960FB6F894DEBF0FBECDBFDF918F
:100D8000CF911F910F91FF90EF90DF90CF90BF9088
:100D9000AF900895EF92FF920F931F93CF93DF933D
:100DA00000D01F92CDB7DEB7DC011F962C911F97A4
:100DB000222301F17C01ED91FC910084F185E02D6D
:100DC0000995892BC9F48CE48983F70186858A8388
:100DD00001E010E09E012D5F3F4F42E050E0BE0178
:100DE0006F5F7F4F848595850E94330681E09B81EC
:100DF000913019F080E001C081E00F900F900F90CA
:100E0000DF91CF911F910F91FF90EF900895EF9296
:100E1000FF920F931F93CF93DF9300D01F92CDB714
:100E2000DEB7FC012089211118C07C01118A8BE4F6
:100E3000898380E48B8386858A839F012E5E3F4F62
:100E400000E410E043E050E0BE016F5F7F4F848517
:100E500095850E943306F701808B0F900F900F90BD
:100E6000DF91CF911F910F91FF90EF900895CF9355
:100E7000DF93EC010E9407078889882331F0898974
:100E8000C80FD11D8A8990E002C08FEF9FEFDF91DC
:100E9000CF910895CF92DF92EF92FF920F931F931D
:100EA000CF93DF93EC016A017B0100E010E08889B9
:100EB000811106C0CE010E9407078889882399F016
:100EC0000F5F1F4F898991E0980F998BFE01E80F02
:100ED000F11D8289F70181937F0188898150888B78
:100EE0000C151D0520F3C801DF91CF911F910F91C3
:100EF000FF90EF90DF90CF900895CF93DF93EC01B8
:100F00000E9407078889882359F08150888B898936
:100F100091E0980F998BC80FD11D8A8990E002C08B
:100F20008FEF9FEFDF91CF910895CF93DF93EC0187
:100F30000E940707888990E0DF91CF9108950F9371
:100F40001F9300E010E020E030E00E9433061F9184
:100F50000F910895CF93DF9300D0CDB7DEB722E68F
:100F600029836A8342E050E0BE016F5F7F4FFC013E
:100F7000848195810E949F0781E090E00F900F90FF
:100F8000DF91CF910895CF93DF9300D01F92CDB71B
:100F9000DEB7FC012785222389F08CE689838685CC
:100FA0008A836B8343E050E0BE016F5F7F4F84858F
:100FB00095850E949F0781E090E002C080E090E06C
:100FC0000F900F900F90DF91CF9108950F931F9383
:100FD000CF93DF9300D0CDB7DEB78C01FC018785BE
:100FE000882369F08AE6898386858A8342E050E017
:100FF000BE016F5F7F4F848595850E949F07F80132
:101000001786108A118A0F900F90DF91CF911F9150
:101010000F9108951F920F920FB60F9211242F93E4
:101020003F934F935F936F937F938F939F93AF9370
:10103000BF93EF93FF938091900287FF05C01092BA
:101040008500109284001BC020919002022E000C9B
:10105000330B8091AD0390E02817390784F4809119
:101060009002082E000C990BFC01EE0FFF1F8E0F53
:101070009F1FFC01E757FC4F808186FD15C08091C2
:1010800090028F5F8093900220919002022E000CBC
:10109000330B8091AD0390E028173907C4F4809199
:1010A00090028C3064F113C080919002082E000CE5
:1010B000990BFC01EE0FFF1F8E0F9F1FFC01E757DE
:1010C000FC4F808160E08F730E948F03D8CF8091A6
:1010D000840090918500049680349C4918F480E443
:1010E0009CE905C0809184009091850004969093BE
:1010F0008900809388008FEF809390023BC02091FD
:1011000084003091850080919002082E000C990B8C
:10111000FC01EE0FFF1F8E0F9F1FFC01E757FC4FD6
:1011200081819281820F931F909389008093880020
:1011300080919002082E000C990BFC01EE0FFF1F0E
:101140008E0F9F1FFC01E757FC4F808186FF12C066
:1011500080919002082E000C990BFC01EE0FFF1FEE
:101160008E0F9F1FFC01E757FC4F808161E08F735A
:101170000E948F03FF91EF91BF91AF919F918F914B
:101180007F916F915F914F913F912F910F900FBE83
:101190000F901F9018952F923F924F925F926F92EF
:1011A0007F928F929F92AF92BF92CF92DF92EF92F7
:1011B000FF920F931F93CF93DF93CDB7DEB72B979B
:1011C0000FB6F894DEBF0FBECDBF9B878A875B0149
:1011D0001901FD82EC823A01600E711E872C7B8220
:1011E000912C44244A94542C9B01240F351F3F8397
:1011F0002E839101200F311F39872887EA85FB85CF
:101200008085981608F036C1AA85BB8514965C9235
:101210004E92139715968D919C911697DC01ED9146
:10122000FC910190F081E02D6FEF09956FEF8A85B9
:101230009B850E941C06EA85FB8585819681DC01E1
:10124000ED91FC910190F081E02DAA85BB856C9118
:101250000995EA85FB856081CF010E941C06AA855D
:10126000BB8515968D919C911697DC01ED91FC91B3
:101270000190F081E02D682D09956B818A859B8511
:101280000E941C06EA85FB8585819681DC01ED9133
:10129000FC910190F081E02D662D0995662D8A85DF
:1012A0009B850E941C0675012E813F81E216F30684
:1012B000B1F0EA85FB85858196818701DC01ED919E
:1012C000FC910190F081E02DD7016D917D01099590
:1012D000F80160818A859B850E941C06E5CF71011B
:1012E000AA85BB8515968D919C9116972885398581
:1012F000E216F30691F08701DC01ED91FC9101907B
:10130000F081E02DD7016D917D010995F801608193
:101310008A859B850E941C06E3CFDC01ED91FC9140
:10132000AA85BB8514966C910190F081E02D0995FA
:10133000EA85FB8585819681DC01ED91FC91019028
:10134000F081E02DAA85BB8513966C91099564E622
:1013500070E08A859B850E94D7058F3F910509F033
:101360007DC0EA85FB85548243826FEFCF010E94E6
:101370001C0665E070E08A859B850E94D705AA85DA
:10138000BB856C91262F30E08217930709F066C069
:10139000CD010E941C066AE070E08A859B850E9450
:1013A000D7057C0197FD5AC0682F8A859B850E94CE
:1013B0001C066AE070E08A859B850E94D7058C0137
:1013C00097FD4CC0682F8A859B850E941C06EA8287
:1013D0001982E981FA810E0F1F1FE12CF12C65E0C3
:1013E00070E08A859B85E016F106A9F0EC14FD04F7
:1013F00091F00E94D70597FD0AC0EC81FD81EE0DAA
:10140000FF1D8083682F8A859B850E941C06FFEF45
:10141000EF1AFF0AE4CF0E94D7057C0197FD1EC09A
:1014200065E070E08A859B850E94D70597FD16C010
:10143000FE2CEE248E0D9F1DAA85BB8513962D9143
:101440003C9114972817390749F48C918F5F8C933E
:10145000C801C016D10680F4C6010EC0939464E69C
:1014600070E080E090E00E9437058A859B850E94AD
:10147000BB05C4CE8FEF9FEF2B960FB6F894DEBF5F
:101480000FBECDBFDF91CF911F910F91FF90EF90D5
:10149000DF90CF90BF90AF909F908F907F906F9094
:1014A0005F904F903F902F900895EF92FF920F938F
:1014B0001F93CF93DF9300D0CDB7DEB77C018BE6CF
:1014C0008A8301E010E09E012F5F3F4F41E050E032
:1014D000BE016E5F7F4F80915A0590915B050E941F
:1014E0003306892BB1F4F7011382128288EE93E060
:1014F000A0E0B0E084839583A683B7838CE491E079
:10150000918380838BE495E0958784871686178680
:1015100017C08981F7011382128248EE53E060E020
:1015200070E044835583668377832CE431E0318314
:1015300020832BE435E035872487868781E0878701
:10154000108AC7010F900F90DF91CF911F910F91DB
:10155000FF90EF900895CF93DF93BC018CE992E068
:101560000E942310EC0168EB71E08CE992E00E948C
:1015700023108C0F9D1FDF91CF910895CF92DF92A2
:10158000EF92FF92CF93DF936C01990FEE08FF0863
:10159000F7FE16C06DE28CE992E00E94F80FEC01B4
:1015A00044275527BA014C195D096E097F092AE0C5
:1015B0008CE992E00E9438107C01EC0EFD1E08C000
:1015C0002AE0B701A6018CE992E00E9438107C0164
:1015D00068EB71E08CE992E00E9423108E0D9F1D54
:1015E000DF91CF91FF90EF90DF90CF900895CF9251
:1015F000DF92EF92FF92CF93DF936B017C0197FF15
:1016000016C06DE28CE992E00E94F80FEC014427CD
:101610005527BA014C195D096E097F092AE08CE94A
:1016200092E00E9438107C01EC0EFD1E08C02AE0FA
:10163000AB01BC018CE992E00E9438107C0168EBA0
:1016400071E08CE992E00E9423108E0D9F1DDF91C6
:10165000CF91FF90EF90DF90CF900895FC018091A3
:101660009B02811103C08FEF9FEF08959FB7F894FD
:1016700082E08093E9002091F20030E01216130618
:1016800014F421E030E02115310559F0289884E662
:1016900080939A028091F10080838091F2008823E8
:1016A00019F09FBFC90108958BE68093E800F9CF38
:1016B0002FB7F89483E08093E9009091E800892F98
:1016C000807295FF04C09091F20080E4891B2FBFC7
:1016D000089580916A0581110DC082E080936605AE
:1016E00084E080936705109269051092680581E097
:1016F00080936A0586E695E008950F931F93CF9334
:10170000DF93EC0188819981009729F02A813B8140
:101710002617370788F48B016F5F7F4F0E948E1763
:10172000009761F0998388831B830A832C813D8114
:10173000232B11F4FC01108281E001C080E0DF91D5
:10174000CF911F910F910895CF92DF92EF92FF9268
:101750000F931F93CF93DF9300D000D0CDB7DEB7A8
:101760008C01862F4AE09E012F5F3F4F6901B9012E
:1017700090E00E948C15F60101900020E9F7319766
:10178000EC19FD09D8011496ED90FC90159730974F
:10179000B9F0EE0EFF1EB701C8010E947D0B882331
:1017A00081F0F8012081318184819581B601820F19
:1017B000931F0E946D18D8011596FC92EE92149713
:1017C00081E00F900F900F900F90DF91CF911F91BC
:1017D0000F91FF90EF90DF90CF900895EF92FF92DE
:1017E0000F931F93CF93DF9300D0CDB7DEB78C015B
:1017F0008EE289831A82F801E480F580FFEFEF1A08
:10180000FF0AB701C8010E947D0B882381F0F8010F
:101810002081318184819581BE016F5F7F4F820F6E
:10182000931F0E946D18F801F582E48281E00F9009
:101830000F90DF91CF911F910F91FF90EF9008953E
:10184000EF92FF920F931F93CF93DF93EC018B01E5
:101850006115710551F0CB010E9483157C01BC011B
:10186000CE010E947D0B811104C0CE010E94440D67
:1018700007C0FD82EC82B801888199810E947C15A5
:10188000CE01DF91CF911F910F91FF90EF900895BE
:1018900040918A0550918B052091880530918905EA
:1018A00042175307B4F49091E8009570E1F39091DA
:1018B000E80092FD19C08093F10080918A05909113
:1018C0008B0501968F739927892B19F48EEF8093DE
:1018D000E80080918A0590918B05019690938B0585
:1018E00080938A0581E0089580E00895CF92DF9289
:1018F000EF92FF920F931F93CF93DF931F92CDB779
:10190000DEB7182F062FE42E862F880F8E5F99835F
:101910000E94480C83E00E94480CF12EC12E998150
:10192000D92E8C2D8F19801798F4F601E7FE02C08E
:10193000849101C080810E94480C182F80E00E9491
:10194000480C8123FFEFCF1ADF0A8111EACF01C0D3
:1019500081E00F90DF91CF911F910F91FF90EF9059
:10196000DF90CF900895DF92EF92FF920F931F9335
:10197000CF93DF93D82E8A017B01E40EF51EEB0195
:10198000CE15DF0571F0D7FE03C0FE01849101C0C2
:1019900088810E94480C21968111F2CF8FEF9FEF32
:1019A00001C0C801DF91CF911F910F91FF90EF907F
:1019B000DF900895615030F02091F100FC01208308
:1019C0000196F8CF289884E680939A020895CF92E2
:1019D000DF92EF92FF920F931F93CF93DF936C01EF
:1019E0007A018B01C0E0D0E0CE15DF0589F0D80187
:1019F0006D918D01D601ED91FC910190F081E02D6A
:101A0000C6010995892B11F47E0102C02196ECCF05
:101A1000C701DF91CF911F910F91FF90EF90DF9061
:101A2000CF9008950F931F93CF93DF931F92CDB75D
:101A3000DEB782E0898342E450E067E571E080E848
:101A40000E94B30C0E94690BDC0112960D911C914F
:101A500013970115110569F0D801ED91FC910280F1
:101A6000F381E02DBE016F5F7F4FC801099597FF9D
:101A700007C089810F90DF91CF911F910F91089539
:101A8000F80100851185E5CFCF93DF93EC018881C4
:101A90009981009711F00E94F616198218821D8212
:101AA0001C821B821A82DF91CF9108951F920F92A0
:101AB0000FB60F9211248F939F938091E100909124
:101AC000E100937F9093E10083FF0FC01092E90043
:101AD00091E09093EB001092EC0092E39093ED0074
:101AE00010929B0298E09093F00082FF20C093E058
:101AF0009093E9009091F200992319F09AE3909362
:101B0000E80090918705992339F0909187059150CD
:101B100090938705992389F190919A02992339F03E
:101B200090919A02915090939A02992341F184FFE7
:101B300010C08091E2008E7E81608093E2008091EF
:101B4000E1008F7E8093E100809186058E7E80612A
:101B500011C080FF16C08091E2008E7E806180936C
:101B6000E2008091E1008E7E8093E1008091860505
:101B70008E7E81608093860504C05D9ACDCF289AC1
:101B8000D6CF9F918F910F900FBE0F901F901895F9
:101B90001F920F920FB60F921124CF92DF92EF9205
:101BA000FF920F931F932F933F934F935F936F93E6
:101BB0007F938F939F93AF93BF93EF93FF93CF93B5
:101BC000DF93CDB7DEB76C97DEBFCDBF1092E900D3
:101BD0008091E80083FFEDC168E0CE0145960E9448
:101BE000DA0C82EF8093E8008D8987FF05C0909121
:101BF000E80090FFFCCF03C09EEF9093E800982F81
:101C0000907609F0C6C09E892F89188D91110CC05D
:101C1000803829F4809185058093F10002C01092EC
:101C2000F1001092F10048C1422F50E0512B913049
:101C300051F4811141C14130510509F03DC18091FC
:101C400085058D7F0BC0933061F4811135C1413022
:101C5000510509F031C18091850582608093850529
:101C60002BC1953041F48091E80080FFFCCF2068C3
:101C70002093E30021C1963009F05FC0EB8CFC8C0F
:101C80001092E90010928B0510928A05123091F59E
:101C900010928905109288050E94120D99E0BE01EC
:101CA0006F5F7F4FDB01E92F1D92EA95E9F799837A
:101CB0001A8391E09E8390EA98879AEF9987209102
:101CC0008A0530918B05275F3F4F3C832B838D83A3
:101CD0001092E90010928B0510928A05F092890506
:101CE000E092880549E050E080E00E94B30C0E9439
:101CF000120DE2C0F0928905E09288050E94690BFE
:101D0000DC011296ED90FC901397E114F10409F4B4
:101D1000C0C0D701ED91FC910480F581E02DBE019A
:101D20006B5E7F4FC7010995009719F00CF0C4C096
:101D3000C7C0F701E084F184E8CF973009F4C0C050
:101D4000983021F481E08093F100B6C0993009F019
:101D5000B3C0837009F0B4C0E3E8F1E081E021E0B2
:101D600036E39081992361F08093E9002093EB00A2
:101D700091919093EC003093ED008F5F873089F75D
:101D80008EE78093EA001092EA008F8980939B028D
:101D900093C08B8D9C8D1092E90010928B05109250
:101DA0008A059093890580938805898D811156C095
:101DB0008E899D89913A59F4813209F081C047E0BA
:101DC00050E064E071E080E00E94B30C75C0913295
:101DD00009F076C0833289F4888D90E0982F8827A7
:101DE0002F89822BA0E0B0E0809300019093010145
:101DF000A0930201B09303015FC0803269F4809127
:101E0000E80082FFFCCF67E084E091E00E94DA0CFA
:101E10008BEF8093E80006C0823209F04DC08F89B5
:101E200080930B0180918405882319F0EEEFFAE08E
:101E300002C0E0E0F8E08091040190910501A091DA
:101E40000601B0910701803B9440A105B10509F05E
:101E50007BC080910B0180FF93C076C00E94690B0C
:101E6000DC0112960D911C9113970115110541F19A
:101E7000D801ED91FC910190F081E02DBE016B5EE7
:101E80007F4FC8010995811117C0F80100851185A0
:101E9000ECCF113009F44EC0133091F48F898823B0
:101EA00009F445C0823081F440E86BE08BEB91E0AF
:101EB0000E94760C882321F08EEF8093E80079C091
:101EC00081E28093EB0075C0813029F440E86BE03B
:101ED0008FEA91E0EDCF833099F70E94690BDC0126
:101EE0001296ED90FC9013978E010F5F1F4F6801C3
:101EF000E114F10479F0D701ED91FC910680F781AE
:101F0000E02DB801C7010995080F111DF701E08404
:101F1000F184EECFD8011C92F60101900020E9F780
:101F20003197BF016C197D0940E0C601C1CF69E955
:101F300071E002C06DE971E06115710509F2FB0104
:101F4000449150E080E840CF0FB6F894A895809176
:101F50006000886180936000109260000FBEA895B9
:101F6000EE3F2AE0F20739F08091FE0A9091FF0AD5
:101F700091838083A1CF1092FF0A1092FE0A9CCF1A
:101F8000EE3F8AE0F80731F0808191819093FF0A5B
:101F90008093FE0A87E797E7918380839BE088E13F
:101FA0000FB6F894A895809360000FBE90936000E0
:101FB00083CF6C960FB6F894DEBF0FBECDBFDF9116
:101FC000CF91FF91EF91BF91AF919F918F917F91B1
:101FD0006F915F914F913F912F911F910F91FF90C2
:101FE000EF90DF90CF900F900FBE0F901F9018953D
:101FF000DC01ED91FC910190F081E02D0994EF92CC
:10200000FF920F931F93CF93DF938C017B01C0E06E
:10201000D0E0F701EC0FFD1F6491662361F0D80159
:10202000ED91FC910190F081E02DC8010995892B7B
:1020300011F02196EECFCE01DF91CF911F910F913C
:10204000FF90EF9008956115710579F0FB01019003
:102050000020E9F73197AF01461B570BDC01ED91EA
:10206000FC910280F381E02D099480E090E00895D6
:102070004F925F926F927F92EF92FF920F931F9316
:10208000CF93DF93CDB7DEB7A1970FB6F894DEBF3D
:102090000FBECDBF7C01FA01CB0119A2223008F49A
:1020A0002AE08E010F5D1F4F422E512C612C712CA6
:1020B000BF01A30192010E942A16F901CA01015031
:1020C00011096A3014F4605D01C0695CD8016C9339
:1020D000232B242B252B61F7B801C7010E94231065
:1020E000A1960FB6F894DEBF0FBECDBFDF91CF91A2
:1020F0001F910F91FF90EF907F906F905F904F90A6
:102100000895FC010FB6F89460918C0570918D05CF
:1021100080918E0590918F050FBE309721F06083DE
:102120007183828393830895CF93DF93CDB7DEB716
:10213000CB55D1090FB6F894DEBF0FBECDBF789452
:1021400084B5826084BD84B5816084BD85B58260BC
:1021500085BD85B5816085BD80916E00816080936D
:102160006E001092810080918100826080938100D6
:1021700080918100816080938100809180008160E6
:102180008093800080919100826080939100809183
:102190009100816080939100809190008160809394
:1021A00090008091C10084608093C1008091C10043
:1021B00082608093C1008091C10081608093C100E2
:1021C0008091C30081608093C3008091C0008260D1
:1021D0008093C0008091C20081608093C200809192
:1021E0007A00846080937A0080917A008260809384
:1021F0007A0080917A00816080937A0080917A00E1
:10220000806880937A0010929B021092850510924C
:1022100086058091D70081608093D70080EA809303
:10222000D80089B5806189BD89B5826089BD09B44E
:1022300000FEFDCF61E070E080E090E00E94370595
:102240008091D8008F7C80618093D8008091E000DD
:10225000807F8093E0008091E1008E7E8093E1009A
:102260008DE08093E200559A209AEEEFFFE785918A
:1022700094918B3F9C4D19F481E0809384058FEFFE
:102280009FEF9093A9028093A802E0915405F091EA
:102290005505A089B18982E08C93A485B5851C92EF
:1022A000A685B78587E08C93108EA489B58986E0D2
:1022B0008C93A289B3898C9180618C93A289B38914
:1022C0008C9188608C93A289B3898C9180688C935F
:1022D0000288F389E02D80818F7D80838091520573
:1022E0008111C8C081E0809352058BE495E00E9483
:1022F000BB0568EE73E080E090E00E9437058091B6
:10230000500590915105DC01ED91FC910084F1851F
:10231000E02D09951816190644F345E0F42EEE2435
:10232000E39452E3D52EEAE1F1E0DE01AD5ABF4F6E
:102330008F2D01900D928A95E1F7E092530545E0CB
:1023400050E0BE016D5A7F4F8BE495E00E949F07DD
:1023500063E080915005909151050E94F80F6AEF5B
:1023600070E080E090E00E94370568ED70E08091B9
:102370005005909151050E94FF0F6AEF70E080E0D8
:1023800090E00E94370566ED70E0809150059091D5
:1023900051050E94FF0F64EF71E080E090E00E9421
:1023A00037056AEC70E080915005909151050E94CC
:1023B000FF0F64EF71E080E090E00E9437058BE44E
:1023C00095E00E94BB05EFE1F1E0DE0111968F2D53
:1023D00001900D928A95E1F7D092530504E010E048
:1023E0009E01285A3F4F45E050E0BE016F5F7F4F8E
:1023F0008BE495E00E9433068F3FBFEF9B0739F4D3
:1024000068EE73E080E090E00E9437058CCF69961B
:102410002FAD69972111FFCF049719F56A962FAD5B
:102420006A9730E02053310984E6829FA001839FA0
:10243000500D11246B962FAD6B9730E0205331096E
:102440006AE0629FC001639F900D1124840F951F65
:102450006C962FAD6C9730E020533109820F931F9B
:1024600002C084E690E090934D0580934C0582E392
:102470008093530510925F0586E595E00E94600405
:1024800080E090E00E948110CB010E94151580E051
:1024900090E00E94811088279927611571058105B8
:1024A000910511F00E94731501EB13E0D801ED9135
:1024B000FC91E28CF38CCE0101960E94550ABE017C
:1024C0006F5F7F4FC801F70109950E5A1F4FF5E066
:1024D0000B341F0759F7EE24E3942CE3D22E3AE194
:1024E000F32E01EB13E0D801ED91FC910688F789FA
:1024F000E02DC801099581110FC0D801ED91FC9123
:10250000A28CB38CCE0101960E94550ABE016F5F6A
:102510007F4FC801F50109950E5A1F4FF5E00B34A6
:102520001F0709F701EB13E0D801ED91FC91068834
:10253000F789E02DC8010995882309F415C1D80150
:10254000ED91FC910688F789E02DC8010995882353
:1025500009F40AC180918F02811104C089E891E0D9
:102560000E94AB0AE0928F02D801ED91FC910084A9
:10257000F185E02DC8010995892B09F474C09EE608
:10258000A92E92E0B92ED801ED91FC910084F1853D
:10259000E02DC8010995892B61F0D801ED91FC91DE
:1025A0000284F385E02DC8010995F50181935F014F
:1025B000EACF80916E0280934902E0916F02E0932E
:1025C0004A02F0E0CF010296E55BFD4FAC014E1BE5
:1025D0005F0BDC01A259BD4F9A012E0F3F1F213224
:1025E00031051CF42C912193F7CF80904902912C56
:1025F000A0904F02B12C60EA71E08CE992E00E9459
:102600002310C4010E94BE0A68EA71E08CE992E0DE
:102610000E94231040914A0250E060E070E02AE0FE
:102620008CE992E00E94381068EB71E08CE992E04E
:102630000E9423106BEB71E08CE992E00E94231062
:1026400060914B0270914C0280914D0290914E022C
:102650000E94F70A65EC71E08CE992E00E94231079
:10266000C5010E94BE0A8CE992E00E947503892B85
:1026700081F08CE992E00E94FF0280934802682F6B
:102680008CE992E00E94F80F60914802C8010E9414
:10269000F80F80914902813009F066C08BEC91E01F
:1026A0000E94AB0AD0922302109229020E946E155A
:1026B000609325027093260280932702909328024C
:1026C0008091230280930202F0922402F09203028E
:1026D00084E0A82E82E0B82E9501225032408091ED
:1026E000240290E001968217930734F00E9410159F
:1026F000F50181935F01F0CF81E090E0FC01ED5D99
:10270000FD4F4181FC01E20FF31FEE5FFD4F40835F
:1027100001968630910591F7D801ED91FC910280E8
:10272000F381E02D41E250E062E072E0C8010995DA
:102730008DED91E00E94AB0A62EF71E08CE992E0CE
:102740000E94231060912502709126028091270239
:10275000909128020E94F70A41E250E06FEF7FEF6C
:1027600089E492E00E9466180E5A1F4FB5E00B34C0
:102770001B0709F0D9CE0E94E101B3CE0895CF9294
:10278000DF92EF92FF928AE791E090937305809336
:1027900072051092740510927505109276051092CC
:1027A00077052CEE32E01092EF021092EE0248EE26
:1027B00053E060E070E04093F0025093F1026093C8
:1027C000F2027093F302E8E2F1E0F093ED02E0939D
:1027D000EC02EDECF0E0F093F902E093F802ECEC9F
:1027E000F0E0F093FB02E093FA02E8ECF0E0F09303
:1027F000FD02E093FC02E9ECF0E0F093FF02E093CD
:10280000FE02EAECF0E0F0930103E0930003EEEC4B
:10281000F0E0F0930303E09302031092050310929B
:102820000603109207031092080310929F02109261
:102830009E024093A0025093A1026093A202709363
:10284000A3024AE351E050939D0240939C024FEF54
:102850005FEF5093A9024093A8029093790580936B
:10286000780510927A0510927B0510927C051092E3
:102870007D0590937F0580937E05109280051092D0
:102880008105109282051092830510924B053093BA
:102890005105209350051092520510925305309324
:1028A000550520935405909361058093600510921F
:1028B00062051092630510926405109265051092EE
:1028C0005905109258058CE691E090935705809336
:1028D00056058BE495E090935B0580935A058FEF46
:1028E00090E090935D0580935C0510925E051092D8
:1028F0005F05E1EBF3E080E090E038EEC32E33E0DB
:10290000D32EE12CF12C4CE451E02BE435E0138282
:102910001282C482D582E682F78251834083358752
:102920002487DC01AF54BC4F1E961C921E971F9645
:102930001C921F9750961C928E5A9F4FEE5AFF4F33
:102940008A3961E0960719F78091AD038C30A0F4C5
:1029500091E0980F9093AD038093AE0390E0FC015B
:10296000EE0FFF1F8E0F9F1FFC01E757FC4F88EBF8
:102970009BE09283818303C08FEF8093AE03FF902F
:10298000EF90DF90CF9008958F929F92AF92BF9279
:10299000CF92DF92EF92FF92CF93DF93EC016881A9
:1029A00079818A819B81611571058105910521F4E9
:1029B00064E279ED8BE597E02DE133EF41E050E003
:1029C0000E94C11549015A019B01AC01A7EAB1E47B
:1029D0000E94E0156B017C01ACEEB4EFA5019401FF
:1029E0000E94EE15DC01CB018C0D9D1DAE1DBF1D9F
:1029F000B7FF03C00197A109B04888839983AA83D0
:102A0000BB839F77DF91CF91FF90EF90DF90CF90C6
:102A1000BF90AF909F908F9008950E94C414089526
:102A20008CE091E00E94C4140895A0E0B0E080938F
:102A30000C0190930D01A0930E01B0930F01089526
:102A40008F929F92AF92BF92CF92DF92EF92FF92BE
:102A5000CF93DF93EC01688179818A819B81611535
:102A600071058105910521F464E279ED8BE597E02C
:102A70002DE133EF41E050E00E94C11549015A01B8
:102A80009B01AC01A7EAB1E40E94E0156B017C0157
:102A9000ACEEB4EFA50194010E94EE15DC01CB0170
:102AA0008C0D9D1DAE1DBF1DB7FF03C00197A10971
:102AB000B04888839983AA83BB83BC01CD019F77EB
:102AC000DF91CF91FF90EF90DF90CF90BF90AF90CC
:102AD0009F908F9008950E942015089580E191E0C5
:102AE0000E94201508956093100170931101809346
:102AF0001201909313010895FB01DC0105900D92E2
:102B00000020E1F70895FC0105900020E9F7809589
:102B100090958E0F9F1F0895BB274A3031F499235B
:102B200022F4BDE2909581959F4F0C949815BB2798
:102B3000FB015527AA27880F991FAA1FA41710F079
:102B4000A41B83955051B9F7A05DAA3308F0A95D85
:102B5000A193009779F7B111B1931192CB010C9425
:102B6000B115DC01FC01672F71917723E1F73297F2
:102B700004C07C916D9370836291AE17BF07C8F358
:102B80000895052E97FB1EF400940E94D81557FD5A
:102B900007D00E942A1607FC03D04EF40C94D815D7
:102BA00050954095309521953F4F4F4F5F4F089579
:102BB00090958095709561957F4F8F4F9F4F0895A9
:102BC0000E944C16A59F900DB49F900DA49F800D60
:102BD000911D11240895B7FF0C94E0150E94E01593
:102BE000821B930B08952F923F924F925F926F92A8
:102BF0007F928F929F92AF92BF92CF92DF92EF928D
:102C0000FF920F931F93CF93DF93CDB7DEB7CA1B0D
:102C1000DB0B0FB6F894DEBF0FBECDBF09942A8838
:102C2000398848885F846E847D848C849B84AA84E0
:102C3000B984C884DF80EE80FD800C811B81AA816D
:102C4000B981CE0FD11D0FB6F894DEBF0FBECDBF38
:102C5000ED010895A1E21A2EAA1BBB1BFD010DC0B8
:102C6000AA1FBB1FEE1FFF1FA217B307E407F5073C
:102C700020F0A21BB30BE40BF50B661F771F881F18
:102C8000991F1A9469F760957095809590959B01AE
:102C9000AC01BD01CF010895A29FB001B39FC00157
:102CA000A39F700D811D1124911DB29F700D811D78
:102CB0001124911D0895EE0FFF1F0590F491E02D52
:102CC0000994CF93DF938230910510F482E090E075
:102CD000E0919205F091930520E030E0C0E0D0E073
:102CE000309711F14081518148175907C0F04817BA
:102CF000590761F482819381209719F09B838A831D
:102D00002BC0909393058093920526C02115310521
:102D100019F04217530718F49A01BE01DF01EF01C1
:102D20000280F381E02DDCCF2115310509F1281B4C
:102D3000390B2430310590F412968D919C911397A4
:102D40006115710521F0FB019383828304C0909388
:102D5000930580939205FD01329644C0FD01E20F78
:102D6000F31F81939193225031092D933C933AC0E4
:102D70002091900530919105232B41F4209116016B
:102D80003091170130939105209390052091140103
:102D9000309115012115310541F42DB73EB7409111
:102DA000180150911901241B350BE0919005F09109
:102DB0009105E217F307A0F42E1B3F0B28173907E4
:102DC00078F0AC014E5F5F4F2417350748F04E0F87
:102DD0005F1F50939105409390058193919302C09A
:102DE000E0E0F0E0CF01DF91CF9108950F931F93C2
:102DF000CF93DF93009709F48CC0FC0132971382C4
:102E0000128200919205109193050115110581F42C
:102E100020813181820F931F20919005309191057F
:102E20002817390779F5F0939105E093900571C063
:102E3000D80140E050E0AE17BF0750F412962D9134
:102E40003C911397AD012115310509F1D901F3CF5B
:102E50009D01DA013383228360817181860F971F80
:102E60008217930769F4EC0128813981260F371FF7
:102E70002E5F3F4F318320838A819B81938382839E
:102E8000452B29F4F0939305E093920542C01396E5
:102E9000FC93EE931297ED01499159919E01240FF5
:102EA000351FE217F30771F480819181840F951F1C
:102EB000029611969C938E938281938113969C9394
:102EC0008E931297E0E0F0E0D80112968D919C91DC
:102ED0001397009719F0F8018C01F6CF8D919C9112
:102EE00098012E5F3F4F820F931F209190053091E4
:102EF00091052817390769F4309729F41092930542
:102F00001092920502C013821282109391050093D1
:102F10009005DF91CF911F910F910895A0E0B0E04F
:102F2000E4E9F7E10C94F715EC01009721F4CB01EB
:102F30000E946116B8C0FC01E60FF71F9C012250E9
:102F40003109E217F30708F4ACC0D9010D911C91C7
:102F5000119706171707B0F00530110508F49FC048
:102F6000C80104978617970708F499C00250110901
:102F7000061B170B019311936D937C93CF010E9455
:102F8000F6168DC05B01A01AB10A4C01800E911E8D
:102F9000A0919205B091930540E050E0E12CF12C16
:102FA000109709F44AC0A815B905D1F56D907C9029
:102FB0001197630182E0C80ED11CCA14DB0480F1B2
:102FC000A3014A195B096A0182E0C80ED11C12965E
:102FD000BC9012971396AC91B5E0CB16D10440F09B
:102FE000B282A38351834083D9016D937C930AC03D
:102FF0000E5F1F4FC301800F911FF90191838083E2
:10300000EB2DFA2FE114F10431F0D7011396FC9364
:10301000EE93129744C0F0939305E09392053FC05E
:103020008D919C9111974817590708F4AC017D01C7
:1030300012960D90BC91A02DB3CF809190059091E8
:10304000910588159905E1F446175707C8F4809152
:10305000140190911501009741F48DB79EB74091EE
:10306000180150911901841B950BE817F907C8F452
:10307000F0939105E0939005F901718360830FC08F
:10308000CB010E9461167C01009759F0A801BE0196
:103090000E945D18CE010E94F616C70104C0CE0141
:1030A00002C080E090E0CDB7DEB7EEE00C941316DE
:1030B00081E090E0F8940C947418FB01DC0102C0EC
:1030C00001900D9241505040D8F70895DC0101C0A5
:1030D0006D9341505040E0F70895FB01DC010190F1
:1030E0000D920020E1F7089510E0C5EED0E004C095
:1030F000FE010E945B162196C63ED107C9F7F894DF
:02310000FFCFFF
:10310200FFFFFFFF00E100000000000001000000DF
:103112000100000000009405800058585858585883
:1031220058313030000000007801E70C1001BF0177
:1031320041011F01330100000000EB015202D702DE
:1031420001027503FF02DB0200000000C3072A042C
:103152002504170495077D073707C00448064A0768
:10316200E607CA062104180400000000AA07E70CBB
:10317200250424046004000000000C02000000008A
:10318200280400C180810000004E657720636C69CD
:10319200656E7420636F6E6E656374696F6E2E0068
:1031A200436F6465203A200050616464696E672051
:1031B20053697A65203A20000D0A005365714E75F5
:1031C2006D203A20004944203A2000537461727401
:1031D2002053656E64205061636B657400436F6DAC
:1031E200706C6574652053656E64205061636B6515
:1031F200740053656E64205365715F4E756D203A9D
:023202002000AA
:00000001FF
