:100000000C94ED000C9415010C9415010C94150141
:100010000C9415010C9415010C9415010C94150108
:100020000C9415010C9415010C94100B0C94820B7C
:100030000C9415010C9415010C9415010C941501E8
:100040000C9415010C9498060C9415010C94150150
:100050000C9415010C9415010C9415010C94FF03DC
:100060000C9415010C940B090C94E5080C941501E3
:100070000C9415010C9415010C9415010C941501A8
:100080000C9415010C9415010C9415010C94150198
:100090000C9415010C9415010C9415010C94150188
:1000A0000C9415010C9415010C9415017D0180012F
:1000B0006F0173017701A101A101A10184018801F0
:1000C0008C0192019601A1019C01302E302E302E20
:1000D00030003132372E302E302E31000000000239
:1000E00000090F0000030401000C000000000000E4
:1000F000000000000000000000000072756E2D621C
:1001000072696467650A000A000A000000000025A1
:100110000028002B002E00310000000000240027E2
:10012000002A002D00300004040404040304050226
:100130000202020403020202020606060606060482
:10014000040202020404040802011040804010204E
:10015000408040800802040180402010020110808D
:100160001020404020080B00020202010009040098
:100170000001020200000524001001052401010114
:10018000042402060524060001070581031000402F
:1001900009040100020A00000007050202400000F5
:1001A000070583024000000403090412010002EF66
:1001B00002014041234180000101020301417264B8
:1001C00075696E6F204C4C430041726475696E6FA7
:1001D0002059756E00009F141F1111241FBECFEF10
:1001E000DAE0DEBFCDBF12E0A0E0B1E0ECEAF2E37E
:1001F00002C005900D92A831B107D9F724E0A8E11B
:10020000B2E001C01D92A436B207E1F710E0CCEED7
:10021000D0E004C02197FE010E943017CB3ED107E9
:10022000C9F70E9420110C9449190C940000CF9337
:10023000DF931F92CDB7DEB76983DC01ED91FC91AE
:100240000280F381E02D41E050E0BE016F5F7F4FFF
:1002500009950F90DF91CF91089583E08093E90095
:100260008091F200882319F08AE38093E8000895D2
:10027000FC018485958597FD0BC09FB7F89482E0BB
:100280008093E9008091F2009FBF90E0019608956D
:100290009FB7F89482E08093E9008091F2009FBFBD
:1002A00090E00895362F90E0FC01E452FF4F449116
:1002B000FC01EA5BFE4F2491FC01E95DFE4F849155
:1002C000882309F451C04423E1F150E0FA01319749
:1002D000EF30F105B0F5EA5AFF4F0C9430179091CA
:1002E00080009F7707C0909180009F7D03C0909110
:1002F0008000977F9093800024C094B59F7702C0C0
:1003000094B59F7D94BD1DC0909190009F7707C0CC
:10031000909190009F7D03C090919000977F909363
:1003200090000FC09091C0009F7703C09091C000D3
:100330009F7D9093C00005C09091C200977F9093DD
:10034000C200E82FF0E0EE0FFF1FE55FFE4FA59122
:10035000B4918FB7F894EC91311103C020952E23FE
:1003600001C02E2B2C938FBF08953FB7F894809136
:100370001E0290911F02A0912002B091210226B589
:10038000A89B05C02F3F19F00196A11DB11D3FBFCD
:10039000BA2FA92F982F8827820F911DA11DB11D5B
:1003A000BC01CD0142E0660F771F881F991F4A9557
:1003B000D1F708950895FB012785FC012787FB01EC
:1003C0002685FC0126870895FC01878508950895F8
:1003D00080E090E008950E94220A90E008950F9333
:1003E0001F93CF93DF931F92CDB7DEB78C01FC0133
:1003F0008485958597FF0EC0CE0101960E94E2107C
:10040000019719F4298130E002C02FEF3FEFF80186
:1004100035872487F801848595850F90DF91CF91EA
:100420001F910F910895CF93DF931F92CDB7DEB741
:10043000FC018485958597FD05C02FEF3FEF35873B
:1004400024870BC0CE0101960E94E210019719F497
:10045000898190E002C08FEF9FEF0F90DF91CF91E5
:1004600008950E942D19AF92BF92CF92DF92EF9222
:10047000FF920F931F93CF93DF9300D0CDB7DEB7DA
:10048000FC0187858823B1F05A019B018CE68983A2
:1004900086858A83C12CD12CE12CF12C8A0142E083
:1004A00050E0BE016F5F7F4F848595850E94340EBA
:1004B000C50102C080E090E00F900F90DF91CF91D6
:1004C0001F910F91FF90EF90DF90CF90BF90AF9072
:1004D0000895AF92BF92CF92DF92EF92FF920F9367
:1004E0001F93CF93DF93CDB7DEB72A970FB6F8945B
:1004F000DEBF0FBECDBF5C018EE48F83F501868128
:100500009781988789871A8219821C821B821E8292
:100510001D8262ED70E0CE0101960E94E80AF501AD
:100520008185811106C06AEC70E0CE0101960E94BF
:10053000E80A0D811E8129813A81CC24C394D12CF3
:10054000CE010A967C0143E050E0BE01695F7F4F17
:10055000F501848195810E94340E81E09A85913065
:1005600009F080E0F501808789819A810E94CB178C
:100570002A960FB6F894DEBF0FBECDBFDF91CF91A4
:100580001F910F91FF90EF90DF90CF90BF90AF90B1
:100590000895CF92DF92EF92FF920F931F93CF9324
:1005A000DF9300D000D000D0CDB7DEB77C018B0147
:1005B0006A011A8219821C821B821E821D8260E0DF
:1005C00070E0CE0101960E94330A811105C0CE0170
:1005D00001960E94D60A08C01E821D826AEB71E055
:1005E00089819A810E94421962E170E0CE010196F0
:1005F0000E94330AD80112966C91CE0101960E9496
:100600005A0ACE0101960E94A40AF8016381CE0124
:1006100001960E945A0ACE0101960E94A40AD801AE
:1006200014966C91CE0101960E945A0ACE01019651
:100630000E94A40AF8016581CE0101960E945A0A1F
:10064000D701ED91FC9169817A810088F189E02DD3
:10065000A601C70109958C0189819A810E94CB1757
:10066000C80126960FB6F894DEBF0FBECDBFDF914E
:10067000CF911F910F91FF90EF90DF90CF90089551
:100680008F929F92AF92BF92CF92DF92EF92FF92A2
:100690006B017C010E94B5014B015C01C114D104C6
:1006A000E104F104F1F00E94B501DC01CB018819ED
:1006B0009909AA09BB09883E9340A105B10570F3C9
:1006C00021E0C21AD108E108F10888EE880E83E023
:1006D000981EA11CB11CC114D104E104F10419F746
:1006E000DDCFFF90EF90DF90CF90BF90AF909F90C5
:1006F0008F9008958F929F92AF92BF92CF92DF9288
:10070000EF92FF920F931F93CF93DF935C016B01E6
:100710007A0180910B01882309F45BC08091C702A4
:10072000882309F456C08091B40280FF05C08091EF
:10073000E00082608093E000E70110E00AEF83E0D0
:10074000882E9AE3992E2097D9F10E94220A8111CE
:100750000AC0015009F43DC061E070E080E090E023
:100760000E944003F0CF282F30E0C217D3070CF4CB
:100770008C2F4FB7F8948092E9009091E80095FF94
:100780001DC0282F30E0C21BD30BF601982F9150CB
:1007900020F081918093F100FACFC20ED31E112375
:1007A00019F09092E80009C08091E80085FD06C02C
:1007B0009092E80011E0209709F010E04FBFC3CFFE
:1007C0001111C3CF5D9884E68093B5021E141F04F7
:1007D00044F081E090E0F5019383828380E090E033
:1007E00001C0C701DF91CF911F910F91FF90EF9052
:1007F000DF90CF90BF90AF909F908F9008951F9201
:100800000F920FB60F9211242F933F938F939F93C4
:10081000AF93BF9380911A0290911B02A0911C028A
:10082000B0911D023091190223E0230F2D3720F4DF
:100830000196A11DB11D05C026E8230F0296A11D3A
:10084000B11D2093190280931A0290931B02A0936A
:100850001C02B0931D0280911E0290911F02A09174
:100860002002B09121020196A11DB11D80931E02AC
:1008700090931F02A0932002B0932102BF91AF91E9
:100880009F918F913F912F910F900FBE0F901F90CE
:100890001895CF93DF93EC018D819E81DC01ED9162
:1008A000FC910084F185E02D09951816190654F481
:1008B0008D819E81DC01ED91FC910284F385E02D18
:1008C0000995EACFDF91CF9108958F929F92AF92D1
:1008D000BF92CF92DF92EF92FF92CF93DF93EC0122
:1008E0008FB7F89480901A0290901B02A0901C027F
:1008F000B0901D028FBF6B01E12CF12C8D819E8188
:10090000DC01ED91FC910284F385E02D099597FFC0
:1009100016C02FB7F89480911A0290911B02A091F3
:100920001C02B0911D022FBF88199909AA09BB09A1
:100930008C159D05AE05BF0508F38FEF9FEFDF9186
:10094000CF91FF90EF90DF90CF90BF90AF909F90AE
:100950008F900895FC01238134812627022E229551
:10096000207F2025032E322F22952F7002262695D8
:1009700032272327220F220F220F2025348323839F
:100980000895CF92DF92EF92FF920F931F93680129
:10099000790100E010E020E030E00E94340E1F9169
:1009A0000F91FF90EF90DF90CF900895AF92BF929C
:1009B000CF92DF92EF92FF920F931F93CF93DF932B
:1009C000CDB7DEB727970FB6F894DEBF0FBECDBF09
:1009D0005C019B0183E489835A834B83FB01019073
:1009E0000020E9F731978F01061B170BCC24C39425
:1009F000D12CCE0107967C0143E050E0BE016F5F31
:100A00007F4FD5011C968D919C911D970E94340EAD
:100A1000892BC1F18F81F501868793E69C838D83B5
:100A200001E010E09E012A5F3F4F42E050E0BE012E
:100A30006C5F7F4FD5011C968D919C911D970E94F4
:100A4000C1048E81882339F061E070E080E090E09D
:100A50000E944003E5CF81E0F50187870190F08196
:100A6000E02D0688F789E02DC501099581110DC09B
:100A7000D501ED91FC910488F589E02DC50109951A
:100A8000F501168680E090E002C081E090E02796B4
:100A90000FB6F894DEBF0FBECDBFDF91CF911F918F
:100AA0000F91FF90EF90DF90CF90BF90AF9008959F
:100AB000EF92FF920F931F93CF93DF9300D01F927B
:100AC000CDB7DEB7DC011F962C911F97222301F1D1
:100AD0007C01ED91FC910084F185E02D0995892B35
:100AE000C9F48CE48983F70186858A8301E010E0EC
:100AF0009E012D5F3F4F42E050E0BE016F5F7F4F90
:100B0000848595850E94C10481E09B81913019F014
:100B100080E001C081E00F900F900F90DF91CF91A6
:100B20001F910F91FF90EF900895EF92FF920F9316
:100B30001F93CF93DF9300D01F92CDB7DEB7FC0198
:100B40002089211118C07C01118A8BE4898380E4FB
:100B50008B8386858A839F012E5E3F4F00E410E0E1
:100B600043E050E0BE016F5F7F4F848595850E9412
:100B7000C104F701808B0F900F900F90DF91CF9100
:100B80001F910F91FF90EF900895CF93DF93EC01A9
:100B90000E9495058889882331F08989C80FD11D65
:100BA0008A8990E002C08FEF9FEFDF91CF91089587
:100BB000CF92DF92EF92FF920F931F93CF93DF9329
:100BC000EC016A017B0100E010E08889811106C018
:100BD000CE010E9495058889882399F00F5F1F4FE9
:100BE000898991E0980F998BFE01E80FF11D8289A8
:100BF000F70181937F0188898150888B0C151D0531
:100C000020F3C801DF91CF911F910F91FF90EF90DA
:100C1000DF90CF900895CF93DF93EC010E9495056C
:100C20008889882359F08150888B898991E0980FB1
:100C3000998BC80FD11D8A8990E002C08FEF9FEF7A
:100C4000DF91CF910895CF93DF93EC010E9495053A
:100C5000888990E0DF91CF9108950F931F9300E072
:100C600010E020E030E00E94C1041F910F91089530
:100C7000CF93DF9300D0CDB7DEB722E629836A8316
:100C800042E050E0BE016F5F7F4FFC01848195819F
:100C90000E942D0681E090E00F900F90DF91CF91A0
:100CA0000895CF93DF9300D01F92CDB7DEB7FC013C
:100CB0002785222389F08CE6898386858A836B8346
:100CC00043E050E0BE016F5F7F4F848595850E94B1
:100CD0002D0681E090E002C080E090E00F900F9040
:100CE0000F90DF91CF9108950F931F93CF93DF93D0
:100CF00000D0CDB7DEB78C01FC018785882369F071
:100D00008AE6898386858A8342E050E0BE016F5F70
:100D10007F4F848595850E942D06F8011786108ADD
:100D2000118A0F900F90DF91CF911F910F9108952D
:100D30001F920F920FB60F9211242F933F934F9350
:100D40005F936F937F938F939F93AF93BF93EF9333
:100D5000FF938091180287FF05C0109285001092C2
:100D600084001BC020911802022E000C330B8091CE
:100D7000D90390E02817390784F480911802082ECF
:100D8000000C990BFC01EE0FFF1F8E0F9F1FFC0143
:100D9000EB54FC4F808186FD15C0809118028F5F57
:100DA0008093180220911802022E000C330B8091C0
:100DB000D90390E028173907C4F4809118028C30C9
:100DC00064F113C080911802082E000C990BFC01ED
:100DD000EE0FFF1F8E0F9F1FFC01EB54FC4F808115
:100DE00060E08F730E945201D8CF8091840090916F
:100DF0008500049680349C4918F480E49CE905C081
:100E0000809184009091850004969093890080934E
:100E100088008FEF809318023BC0209184003091AE
:100E2000850080911802082E000C990BFC01EE0F32
:100E3000FF1F8E0F9F1FFC01EB54FC4F818192819D
:100E4000820F931F909389008093880080911802ED
:100E5000082E000C990BFC01EE0FFF1F8E0F9F1F39
:100E6000FC01EB54FC4F808186FF12C08091180278
:100E7000082E000C990BFC01EE0FFF1F8E0F9F1F19
:100E8000FC01EB54FC4F808161E08F730E945201A2
:100E9000FF91EF91BF91AF919F918F917F916F9152
:100EA0005F914F913F912F910F900FBE0F901F9028
:100EB0001895EF92FF920F931F93CF93DF938C01BE
:100EC0007B01C0E0D0E0F701EC0FFD1F64916623C9
:100ED00061F0D801ED91FC910190F081E02DC80105
:100EE0000995892B11F02196EECFCE01DF91CF919C
:100EF0001F910F91FF90EF900895CF92DF92EF92A4
:100F0000FF920F931F93CF93DF936C017A018B01B4
:100F1000C0E0D0E0CE15DF0589F0D8016D918D01DC
:100F2000D601ED91FC910190F081E02DC60109956B
:100F3000892B11F47E0102C02196ECCFC701DF910D
:100F4000CF911F910F91FF90EF90DF90CF90089578
:100F5000FC01538D448D252F30E0842F90E0821BBF
:100F6000930B541710F0CF96089501970895FC0144
:100F7000918D828D981761F0828DDF01A80FB11DD0
:100F80005D968C91928D9F5F9F73928F90E00895F4
:100F90008FEF9FEF0895FC01918D828D981731F0AE
:100FA000828DE80FF11D858D90E008958FEF9FEF02
:100FB0000895FC01918D228D892F90E0805C9F4FD8
:100FC000821B91098F739927089588E193E00E940D
:100FD000D90721E0892B09F420E0822F0895FC0134
:100FE000848DDF01A80FB11DA35ABF4F2C91848DB2
:100FF00090E001968F739927848FA689B7892C93E7
:10100000A089B1898C9180648C93938D848D981381
:1010100006C00288F389E02D80818F7D808308954A
:10102000EF92FF920F931F93CF93DF93EC0181E038
:10103000888F9B8D8C8D981305C0E889F9898081F4
:1010400085FD24C0F62E0B8D10E00F5F1F4F0F7330
:101050001127E02E8C8DE8120CC00FB607FCFACFDA
:10106000E889F989808185FFF5CFCE010E94EF07DD
:10107000F1CF8B8DFE01E80FF11DE35AFF4FF08297
:101080000B8FEA89FB898081806207C0EE89FF8926
:101090006083E889F98980818064808381E090E0C1
:1010A000DF91CF911F910F91FF90EF900895CF9313
:1010B000DF93EC01888D8823C9F0EA89FB89808160
:1010C00085FD05C0A889B9898C9186FD0FC00FB632
:1010D00007FCF5CF808185FFF2CFA889B9898C9173
:1010E00085FFEDCFCE010E94EF07E7CFDF91CF91D3
:1010F000089580E090E0892B29F00E94E507811196
:101100000C9400000895DC01ED91FC910190F081B8
:10111000E02D09948F929F92AF92BF92CF92DF926F
:10112000EF92FF920F931F93CF93DF937C018B017C
:101130006C0182E0C80ED11C4701E5E08E0E911CC7
:10114000C0E0D0E0F60141916F0150E060E070E056
:101150002AE0C8010E94B20D5C016EE2C8010E9443
:1011600083088A0D9B1DC80FD91FC814D90451F7D5
:10117000F701458150E060E070E02AE0C8010E947C
:10118000B20D8C0F9D1FDF91CF911F910F91FF909A
:10119000EF90DF90CF90BF90AF909F908F90089589
:1011A0006115710579F0FB0101900020E9F7319795
:1011B000AF01461B570BDC01ED91FC910280F381DE
:1011C000E02D099480E090E008951F920F920FB6F1
:1011D0000F9211242F933F934F935F936F937F93BD
:1011E0008F939F93AF93BF93EF93FF9388E193E027
:1011F0000E94EF07FF91EF91BF91AF919F918F9167
:101200007F916F915F914F913F912F910F900FBE02
:101210000F901F9018951F920F920FB60F921124E6
:101220002F938F939F93EF93FF93E0912803F09177
:1012300029038081E0912E03F0912F0382FD12C0DB
:101240009081809131038F5F8F73209132038217D9
:1012500051F0E0913103F0E0E85EFC4F958F809310
:10126000310301C08081FF91EF919F918F912F9168
:101270000F900FBE0F901F9018958091BE028111A4
:101280000DC082E08093BA0284E08093BB0210928A
:10129000BD021092BC0281E08093BE028AEB92E014
:1012A00008954091B8025091B9022091B602309150
:1012B000B70242175307B4F49091E8009570E1F338
:1012C0009091E80092FD19C08093F1008091B802DE
:1012D0009091B90201968F739927892B19F48EEF9B
:1012E0008093E8008091B8029091B90201969093A2
:1012F000B9028093B80281E0089580E00895CF920A
:10130000DF92EF92FF920F931F93CF93DF931F9281
:10131000CDB7DEB7182F062FE42E862F880F8E5FED
:1013200099830E94510983E00E945109F12EC12E38
:101330009981D92E8C2D8F19801798F4F601E7FE2C
:1013400002C0849101C080810E945109182F80E061
:101350000E9451098123FFEFCF1ADF0A8111EACFE2
:1013600001C081E00F90DF91CF911F910F91FF900D
:10137000EF90DF90CF900895DF92EF92FF920F935E
:101380001F93CF93DF93D82E8A017B01E40EF51EC5
:10139000EB01CE15DF0571F0D7FE03C0FE0184918D
:1013A00001C088810E94510921968111F2CF8FEFEF
:1013B0009FEF01C0C801DF91CF911F910F91FF9066
:1013C000EF90DF9008950F931F93CF93DF931F92B9
:1013D000CDB7DEB782E0898342E450E065E671E094
:1013E00080E80E94BC090E943D09DC0112960D9123
:1013F0001C9113970115110569F0D801ED91FC912D
:101400000280F381E02DBE016F5F7F4FC801099517
:1014100097FF07C089810F90DF91CF911F910F91A6
:101420000895F80100851185E5CF615030F02091D5
:10143000F100FC0120830196F8CF289884E6809380
:10144000C60208952FB7F89483E08093E900909145
:10145000E800892F807295FF04C09091F20080E42B
:10146000891B2FBF08950F931F93CF93DF93EC0138
:1014700088819981009729F02A813B8126173707B7
:1014800088F48B016F5F7F4F0E946318009761F0B3
:10149000998388831B830A832C813D81232B11F43C
:1014A000FC01108281E001C080E0DF91CF911F91AB
:1014B0000F910895CF92DF92EF92FF920F931F93B7
:1014C000CF93DF9300D000D0CDB7DEB78C01862F4D
:1014D0004AE09E012F5F3F4F6901B90190E00E94F1
:1014E0005516F60101900020E9F73197EC19FD0936
:1014F000D8011496ED90FC9015973097B9F0EE0E48
:10150000FF1EB701C8010E94330A882381F0F80149
:101510002081318184819581B601820F931F0E94C1
:101520004219D8011596FC92EE92149781E00F9023
:101530000F900F900F90DF91CF911F910F91FF901F
:10154000EF90DF90CF900895EF92FF920F931F934B
:10155000CF93DF9300D0CDB7DEB78C018EE28983C5
:101560001A82F801E480F580FFEFEF1AFF0AB70155
:10157000C8010E94330A882381F0F801208131815B
:1015800084819581BE016F5F7F4F820F931F0E9400
:101590004219F801F582E48281E00F900F90DF910B
:1015A000CF911F910F91FF90EF900895CF93DF930C
:1015B000EC0188819981009711F00E94CB17198264
:1015C00018821D821C821B821A82DF91CF9108959E
:1015D000EF92FF920F931F93CF93DF93EC018B0158
:1015E0006115710551F0CB010E944C167C01BC01C4
:1015F000CE010E94330A811104C0CE010E94D60A96
:1016000007C0FD82EC82B801888199810E9445164D
:10161000CE01DF91CF911F910F91FF90EF90089530
:101620001F920F920FB60F9211248F939F93809168
:10163000E1009091E100937F9093E10083FF0FC060
:101640001092E90091E09093EB001092EC0092E38D
:101650009093ED001092C70298E09093F00082FF03
:1016600020C093E09093E9009091F200992319F043
:101670009AE39093E8009091B502992339F0909104
:10168000B50291509093B502992389F19091C602C9
:10169000992339F09091C60291509093C6029923F4
:1016A00041F184FF10C08091E2008E7E81608093C2
:1016B000E2008091E1008F7E8093E1008091B4028E
:1016C0008E7E806111C080FF16C08091E2008E7E08
:1016D00080618093E2008091E1008E7E8093E10042
:1016E0008091B4028E7E81608093B40204C05D9AC2
:1016F000CDCF289AD6CF9F918F910F900FBE0F908C
:101700001F9018951F920F920FB60F921124CF922F
:10171000DF92EF92FF920F931F932F933F934F937C
:101720005F936F937F938F939F93AF93BF93EF9349
:10173000FF93CF93DF93CDB7DEB76C97DEBFCDBFFE
:101740001092E9008091E80083FFEDC168E0CE01CE
:1017500045960E94150A82EF8093E8008D8987FFE5
:1017600005C09091E80090FFFCCF03C09EEF9093DE
:10177000E800982F907609F0C6C09E892F89188DB1
:1017800091110CC0803829F48091B3028093F1004C
:1017900002C01092F1001092F10048C1422F50E0B7
:1017A000512B913051F4811141C14130510509F063
:1017B0003DC18091B3028D7F0BC0933061F48111E4
:1017C00035C14130510509F031C18091B3028260C9
:1017D0008093B3022BC1953041F48091E80080FFE3
:1017E000FCCF20682093E30021C1963009F05FC050
:1017F000EB8CFC8C1092E9001092B9021092B802A6
:10180000123091F51092B7021092B6020E94E309CD
:1018100099E0BE016F5F7F4FDB01E92F1D92EA95D2
:10182000E9F799831A8391E09E8390EA98879AEF6B
:1018300099872091B8023091B902275F3F4F3C83CE
:101840002B838D831092E9001092B9021092B80296
:10185000F092B702E092B60249E050E080E00E94C8
:10186000BC090E94E309E2C0F092B702E092B6021E
:101870000E943D09DC011296ED90FC901397E11453
:10188000F10409F4C0C0D701ED91FC910480F58109
:10189000E02DBE016B5E7F4FC7010995009719F0DF
:1018A0000CF0C4C0C7C0F701E084F184E8CF9730E2
:1018B00009F4C0C0983021F481E08093F100B6C0F3
:1018C000993009F0B3C0837009F0B4C0E5E2F1E0EB
:1018D00081E021E036E39081992361F08093E90073
:1018E0002093EB0091919093EC003093ED008F5F8B
:1018F000873089F78EE78093EA001092EA008F899B
:101900008093C70293C08B8D9C8D1092E90010923A
:10191000B9021092B8029093B7028093B602898DF3
:10192000811156C08E899D89913A59F4813209F00E
:1019300081C047E050E064E071E080E00E94BC09B3
:1019400075C0913209F076C0833289F4888D90E0B9
:10195000982F88272F89822BA0E0B0E08093000188
:1019600090930101A0930201B09303015FC0803204
:1019700069F48091E80082FFFCCF67E084E091E0A9
:101980000E94150A8BEF8093E80006C0823209F0AE
:101990004DC08F8980930B018091B202882319F08A
:1019A000EEEFFAE002C0E0E0F8E0809104019091EF
:1019B0000501A0910601B0910701803B9440A1056B
:1019C000B10509F07BC080910B0180FF93C076C008
:1019D0000E943D09DC0112960D911C91139701158F
:1019E000110541F1D801ED91FC910190F081E02DBC
:1019F000BE016B5E7F4FC8010995811117C0F801C8
:101A000000851185ECCF113009F44EC0133091F4EC
:101A10008F89882309F445C0823081F440E86BE067
:101A200089EC91E00E947F09882321F08EEF80935A
:101A3000E80079C081E28093EB0075C0813029F421
:101A400040E86BE08DEB91E0EDCF833099F70E9499
:101A50003D09DC011296ED90FC9013978E010F5F0B
:101A60001F4F6801E114F10479F0D701ED91FC9169
:101A70000680F781E02DB801C7010995080F111DF7
:101A8000F701E084F184EECFD8011C92F6010190B9
:101A90000020E9F73197BF016C197D0940E0C601CC
:101AA000C1CF67EA71E002C06BEA71E061157105B0
:101AB00009F2FB01449150E080E840CF0FB6F89462
:101AC000A89580916000886180936000109260000A
:101AD0000FBEA895EE3F2AE0F20739F08091FE0A8A
:101AE0009091FF0A91838083A1CF1092FF0A1092F8
:101AF000FE0A9CCFEE3F8AE0F80731F080819181A9
:101B00009093FF0A8093FE0A87E797E7918380838B
:101B10009BE088E10FB6F894A895809360000FBE13
:101B20009093600083CF6C960FB6F894DEBF0FBE23
:101B3000CDBFDF91CF91FF91EF91BF91AF919F9179
:101B40008F917F916F915F914F913F912F911F9155
:101B50000F91FF90EF90DF90CF900F900FBE0F90FE
:101B60001F9018954F925F926F927F92EF92FF9223
:101B70000F931F93CF93DF93CDB7DEB7A1970FB627
:101B8000F894DEBF0FBECDBF7C01FA01CB0119A2D4
:101B9000223008F42AE08E010F5D1F4F422E512C97
:101BA000612C712CBF01A30192010E94F316F9016F
:101BB000CA01015011096A3014F4605D01C0695C0A
:101BC000D8016C93232B242B252B61F7B801C70177
:101BD0000E94D008A1960FB6F894DEBF0FBECDBF0D
:101BE000DF91CF911F910F91FF90EF907F906F90B9
:101BF0005F904F900895CF92DF92EF92FF92CF9334
:101C0000DF936C01990FEE08FF08F7FE16C06DE236
:101C100088EC92E00E948308EC0144275527BA0122
:101C20004C195D096E097F092AE088EC92E00E9458
:101C3000B20D7C01EC0EFD1E08C02AE0B701A60122
:101C400088EC92E00E94B20D7C0168EB71E088ECB8
:101C500092E00E94D0088E0D9F1DDF91CF91FF90E2
:101C6000EF90DF90CF9008952F923F924F925F9226
:101C70006F927F928F929F92AF92BF92CF92DF929C
:101C8000EF92FF920F931F93CF93DF93CDB7DEB701
:101C90002B970FB6F894DEBF0FBECDBF9B878A8708
:101CA0005B011901FD82EC823A01600E711E872CE6
:101CB0007B82912C44244A94542C9B01240F351F81
:101CC0003F832E839101200F311F39872887EA85B2
:101CD000FB858085981608F036C1AA85BB851496C9
:101CE0005C924E92139715968D919C911697DC01FC
:101CF000ED91FC910190F081E02D6FEF09956FEF70
:101D00008A859B850E94AA04EA85FB858581968148
:101D1000DC01ED91FC910190F081E02DAA85BB855D
:101D20006C910995EA85FB856081CF010E94AA0428
:101D3000AA85BB8515968D919C911697DC01ED9136
:101D4000FC910190F081E02D682D09956B818A85C9
:101D50009B850E94AA04EA85FB8585819681DC012A
:101D6000ED91FC910190F081E02D662D0995662D95
:101D70008A859B850E94AA0475012E813F81E21607
:101D8000F306B1F0EA85FB85858196818701DC0148
:101D9000ED91FC910190F081E02DD7016D917D01D5
:101DA0000995F80160818A859B850E94AA04E5CF88
:101DB0007101AA85BB8515968D919C9116972885F2
:101DC0003985E216F30691F08701DC01ED91FC9173
:101DD0000190F081E02DD7016D917D010995F80109
:101DE00060818A859B850E94AA04E3CFDC01ED9186
:101DF000FC91AA85BB8514966C910190F081E02D31
:101E00000995EA85FB8585819681DC01ED91FC9140
:101E10000190F081E02DAA85BB8513966C91099500
:101E200064E670E08A859B850E9465048F3F91057A
:101E300009F07DC0EA85FB85548243826FEFCF01B4
:101E40000E94AA0465E070E08A859B850E94650473
:101E5000AA85BB856C91262F30E08217930709F085
:101E600066C0CD010E94AA046AE070E08A859B8565
:101E70000E9465047C0197FD5AC0682F8A859B8566
:101E80000E94AA046AE070E08A859B850E9465042E
:101E90008C0197FD4CC0682F8A859B850E94AA04FF
:101EA000EA821982E981FA810E0F1F1FE12CF12CC1
:101EB00065E070E08A859B85E016F106A9F0EC14D8
:101EC000FD0491F00E94650497FD0AC0EC81FD813C
:101ED000EE0DFF1D8083682F8A859B850E94AA04D2
:101EE000FFEFEF1AFF0AE4CF0E9465047C0197FD23
:101EF0001EC065E070E08A859B850E94650497FDA1
:101F000016C0FE2CEE248E0D9F1DAA85BB85139650
:101F10002D913C9114972817390749F48C918F5FC4
:101F20008C93C801C016D10680F4C6010EC09394EC
:101F300064E670E080E090E00E9440038A859B8523
:101F40000E944904C4CE8FEF9FEF2B960FB6F894F2
:101F5000DEBF0FBECDBFDF91CF911F910F91FF90DC
:101F6000EF90DF90CF90BF90AF909F908F907F9039
:101F70006F905F904F903F902F900895CF92DF9297
:101F8000EF92FF92DC01A03282E0B8070CF03EC075
:101F9000B7FD06C0A53BB1052CF0A4EBB0E002C034
:101FA000A0E0B0E08091DB0328E830E06901C81AC6
:101FB000D10887FDD394CC0CDD1CCC0CDD1C0D2C82
:101FC000000CEE08FF088091DC0328E532E0281BB6
:101FD000310987FD3395220F331F220F331FA901CB
:101FE000330F660B770B9A01AB012C193D094E0993
:101FF0005F090E94B41624EB30E040E050E00E94FC
:102000008A16C20ED31EE41EF51ED6019091DA0385
:102010009C3098F58091DB0348E850E0481B51095B
:1020200087FD5395440F551F440F551FA417B5073F
:102030008CF08091DC0328E532E0281B310987FD14
:102040003395220F331F220F331FAD012A173B0791
:102050000CF4A90142505109440F551F2FB7F894B1
:10206000892F90E0FC01EE0FFF1F8E0F9F1FFC01D8
:10207000EB54FC4F528341832FBFFF90EF90DF90D2
:10208000CF900895EF92FF920F931F93CF93DF931A
:1020900000D0CDB7DEB77C018BE68A8301E010E08B
:1020A0009E012F5F3F4F41E050E0BE016E5F7F4FCA
:1020B00080913E0490913F040E94C104892BB1F4A9
:1020C000F7011382128288EE93E0A0E0B0E08483EF
:1020D0009583A683B78383E591E0918380838FE224
:1020E00094E0958784871686178617C08981F70143
:1020F0001382128248EE53E060E070E0448355831F
:102100006683778323E531E0318320832FE234E057
:1021100035872487868781E08787108AC7010F90DB
:102120000F90DF91CF911F910F91FF90EF90089545
:10213000CF93DF93BC0188EC92E00E94D008EC01C1
:1021400068EB71E088EC92E00E94D0088C0F9D1F34
:10215000DF91CF910895CF92DF92EF92FF92CF93CC
:10216000DF936B017C0197FF16C06DE288EC92E073
:102170000E948308EC0144275527BA014C195D09D8
:102180006E097F092AE088EC92E00E94B20D7C0182
:10219000EC0EFD1E08C02AE0AB01BC0188EC92E009
:1021A0000E94B20D7C0168EB71E088EC92E00E9425
:1021B000D0088E0D9F1DDF91CF91FF90EF90DF90A3
:1021C000CF900895FC018091C702811103C08FEF69
:1021D0009FEF08959FB7F89482E08093E9002091E3
:1021E000F20030E01216130614F421E030E021155D
:1021F000310559F0289884E68093C6028091F10059
:1022000080838091F200882319F09FBFC90108954F
:102210008BE68093E800F9CFFC010FB6F89460914B
:102220005C0470915D0480915E0490915F040FBE28
:10223000309721F06083718382839383089508959A
:10224000CF93DF93CDB7DEB7CB55D1090FB6F89456
:10225000DEBF0FBECDBF789484B5826084BD84B5E7
:10226000816084BD85B5826085BD85B5816085BD91
:1022700080916E00816080936E0010928100809149
:1022800081008260809381008091810081608093D1
:102290008100809180008160809380008091910016
:1022A0008260809391008091910081608093910081
:1022B000809190008160809390008091C100846043
:1022C0008093C1008091C10082608093C1008091A1
:1022D000C10081608093C1008091C30081608093C0
:1022E000C3008091C00082608093C0008091C200D2
:1022F00081608093C20080917A00846080937A002C
:1023000080917A00826080937A0080917A00816067
:1023100080937A0080917A00806880937A0010928E
:10232000C7021092B3021092B4028091D70081606C
:102330008093D70080EA8093D80089B5806189BDF9
:1023400089B5826089BD09B400FEFDCF61E070E00F
:1023500080E090E00E9440038091D8008F7C8061F3
:102360008093D8008091E000807F8093E00080918E
:10237000E1008E7E8093E1008DE08093E200559A2B
:10238000209AEEEFFFE7859194918B3F9C4D19F4D5
:1023900081E08093B2028FEF9FEF9093D5028093FC
:1023A000D402E0913804F0913904A089B18982E027
:1023B0008C93A485B5851C92A685B78587E08C9300
:1023C000108EA489B58986E08C93A289B3898C91FB
:1023D00080618C93A289B3898C9188608C93A28947
:1023E000B3898C9180688C930288F389E02D808179
:1023F0008F7D8083809136048111C8C081E08093F5
:1024000036048FE294E00E94490468EE73E080E0B5
:1024100090E00E9440038091340490913504DC01E7
:10242000ED91FC910084F185E02D099518161906AF
:1024300044F305E0F02EEE24E39482E3D82EEAE1A3
:10244000F1E0DE01AD5ABF4F8F2D01900D928A95BC
:10245000E1F7E092370445E050E0BE016D5A7F4F4E
:102460008FE294E00E942D0663E080913404909105
:1024700035040E9483086AEF70E080E090E00E94DB
:10248000400369E071E080913404909135040E942A
:1024900059076AEF70E080E090E00E94400367E037
:1024A00071E080913404909135040E94590764EFE3
:1024B00071E080E090E00E9440036BEF70E080915B
:1024C0003404909135040E94590764EF71E080E074
:1024D00090E00E9440038FE294E00E944904EFE103
:1024E000F1E0DE0111968F2D01900D928A95E1F7B2
:1024F000D092370404E010E09E01285A3F4F45E097
:1025000050E0BE016F5F7F4F8FE294E00E94C104F4
:102510008F3FBFEF9B0739F468EE73E080E090E0F7
:102520000E9440038CCF69962FAD69972111FFCF90
:10253000049719F56A962FAD6A9730E02053310958
:1025400084E6829FA001839F500D11246B962FADCE
:102550006B9730E0205331096AE0629FC001639FAE
:10256000900D1124840F951F6C962FAD6C9730E061
:1025700020533109820F931F02C084E690E09093AC
:1025800031048093300482E3809337041092430433
:102590008AE394E00E946902CE0101960E944210F3
:1025A00088898093EC038F858093EB0380E090E033
:1025B0000E940C11CB010E94DE1580E090E00E9489
:1025C0000C1188279927611571058105910511F076
:1025D0000E943C1610922302109222028091DA038C
:1025E0008C3008F068C0EDE4F1E02491EEE2F1E017
:1025F0008491882399F090E0880F991FFC01E75E91
:10260000FE4FA591B491FC01E55FFE4F8591949139
:102610008FB7F894EC91E22BEC938FBF8091DA03A3
:10262000E82FF0E09F01220F331FE20FF31FEB545E
:10263000FC4F9081907C976090831092DB03109206
:10264000DC036CE00E942417ECE08E9FB0011124A3
:1026500040E050E09A01260F371FF901EE0FFF1FEF
:102660002E0F3F1FF901EB54FC4F908196FD16C0D1
:102670004F5F5F4F4C30510569F781110FC01092C9
:10268000800082E080938100109285001092840087
:10269000B19A80916F00826080936F00E091DA03BD
:1026A000F0E0CF01880F991FE80FF91FEB54FC4FA2
:1026B00080818064808380E090E00E94BE0FEE24E1
:1026C000E3942CE3D22E3AE1F32E0DE210E08DEDEF
:1026D00093E00E9458059091B102882309F402C149
:1026E000911104C089E891E00E949810E092B10233
:1026F0008DED93E00E9495058091ED03882309F408
:102700006EC090E9A92E92E0B92E8DED93E00E9463
:1027100095058091ED03882341F08DED93E00E94B3
:102720000B06D5018D935D01F0CF809190028093CF
:102730006B02E0919102E0936C02F0E0CF0102960F
:10274000E359FD4FAC014E1B5F0BDC01A057BD4FA1
:102750009A012E0F3F1F213231051CF42C91219339
:10276000F7CF80906B02912CA0907102B12C60EA9F
:1027700071E088EC92E00E94D008C4010E94FB0D39
:1027800068EA71E088EC92E00E94D00840916C0207
:1027900050E060E070E02AE088EC92E00E94B20D28
:1027A00068EB71E088EC92E00E94D0086BEB71E07E
:1027B00088EC92E00E94D00860916D0270916E02E8
:1027C00080916F02909170020E94AB1065EC71E0F5
:1027D00088EC92E00E94D008C5010E94FB0D88ECB5
:1027E00092E00E943801892B89F088EC92E00E94E7
:1027F000130280936A02682F88EC92E00E9483089B
:1028000060916A028DED93E00E94830880916B02D3
:10281000813009F07DC08BEC91E00E949810D0923D
:10282000450210924B020E94371660934702709344
:1028300048028093490290934A0280914502809316
:102840002402F0924602F092250286E2A82E82E04F
:10285000B82E9501245232408091460290E00196B4
:102860008217930734F00E94D915F50181935F0117
:10287000F0CF81E090E0FC01EB5BFD4F4181FC017A
:10288000E20FF31FEC5DFD4F40830196863091050A
:1028900091F741E250E064E272E08DED93E00E9436
:1028A00033028DED91E00E94981062EF71E088ECA8
:1028B00092E00E94D0086091470270914802809196
:1028C000490290914A020E94AB1010932302009398
:1028D000220241E250E06FEF7FEF8BE692E00E9430
:1028E0003B1916C0992341F08DED93E00E947406C8
:1028F00082E092E00E9498101092B102CE010196FF
:102900000E94421088898093EC038F858093EB03AB
:10291000A0902202B0902302C5010E94BE0F1A149B
:102920001B0454F464E670E080E090E00E944003F1
:1029300010922302109222020E947908C8CE81E8E8
:1029400091E090934B0480934A0410924C041092AF
:102950004D0410924E0410924F04E8E1F3E01092FF
:102960001B0310921A0348EE53E060E070E04093BE
:102970001C0350931D0360931E0370931F032FE2EB
:1029800031E030931903209318032DEC30E030939D
:102990002503209324032CEC30E03093270320936D
:1029A000260328EC30E0309329032093280329ECF8
:1029B00030E030932B0320932A032AEC30E030934D
:1029C0002D0320932C032EEC30E030932F03209323
:1029D0002E0310923103109232031092330310929F
:1029E00034031092CB021092CA024093CC0250934F
:1029F000CD026093CE027093CF0221E431E0309398
:102A0000C9022093C8022FEF3FEF3093D5022093E5
:102A1000D402909351048093500410925204109267
:102A200053041092540410925504909357048093C9
:102A30005604109258041092590410925A0410929D
:102A40005B042FE234E010922F04F0933504E093FE
:102A500034041092360410923704F0933904E09352
:102A600038049093450480934404109246041092D5
:102A70004704109248041092490410923D041092A9
:102A80003C0483E791E090933B0480933A043093B5
:102A90003F0420933E048FEF90E090934104809395
:102AA000400410924204109243041092E0031092EA
:102AB000DF034093E1035093E2036093E3037093D9
:102AC000E40383E591E09093DE038093DD0330938C
:102AD000EA032093E9031092EB031092EC031092A7
:102AE000ED038091D9038C30A0F491E0980F90937E
:102AF000D9038093DA0390E0FC01EE0FFF1F8E0FE5
:102B00009F1FFC01EB54FC4F88EB9BE09283818379
:102B100008958FEF8093DA0308958F929F92AF927A
:102B2000BF92CF92DF92EF92FF92CF93DF93EC01AF
:102B3000688179818A819B81611571058105910583
:102B400021F464E279ED8BE597E02DE133EF41E08C
:102B500050E00E948A1649015A019B01AC01A7EA84
:102B6000B1E40E94A9166B017C01ACEEB4EFA501A3
:102B700094010E94B716DC01CB018C0D9D1DAE1D8A
:102B8000BF1DB7FF03C00197A109B048888399838F
:102B9000AA83BB839F77DF91CF91FF90EF90DF9067
:102BA000CF90BF90AF909F908F9008950E948D1509
:102BB00008958CE091E00E948D150895A0E0B0E0AA
:102BC00080930C0190930D01A0930E01B0930F011F
:102BD00008958F929F92AF92BF92CF92DF92EF9221
:102BE000FF92CF93DF93EC01688179818A819B8189
:102BF000611571058105910521F464E279ED8BE59C
:102C000097E02DE133EF41E050E00E948A16490140
:102C10005A019B01AC01A7EAB1E40E94A9166B011D
:102C20007C01ACEEB4EFA50194010E94B716DC0163
:102C3000CB018C0D9D1DAE1DBF1DB7FF03C00197BD
:102C4000A109B04888839983AA83BB83BC01CD01C5
:102C50009F77DF91CF91FF90EF90DF90CF90BF9063
:102C6000AF909F908F9008950E94E915089580E19C
:102C700091E00E94E915089560931001709311018D
:102C800080931201909313010895FB01DC010590DC
:102C90000D920020E1F70895FC0105900020E9F76E
:102CA000809590958E0F9F1F0895BB274A3031F471
:102CB000992322F4BDE2909581959F4F0C94611663
:102CC000BB27FB015527AA27880F991FAA1FA41706
:102CD00010F0A41B83955051B9F7A05DAA3308F0FA
:102CE000A95DA193009779F7B111B1931192CB012E
:102CF0000C947A16DC01FC01672F71917723E1F7C0
:102D0000329704C07C916D9370836291AE17BF07B8
:102D1000C8F30895052E97FB1EF400940E94A11697
:102D200057FD07D00E94F31607FC03D04EF40C9415
:102D3000A11650954095309521953F4F4F4F5F4FCD
:102D4000089590958095709561957F4F8F4F9F4F17
:102D500008950E941517A59F900DB49F900DA49FF4
:102D6000800D911D11240895B7FF0C94A9160E949F
:102D7000A916821B930B08952F923F924F925F9258
:102D80006F927F928F929F92AF92BF92CF92DF927B
:102D9000EF92FF920F931F93CF93DF93CDB7DEB7E0
:102DA000CA1BDB0B0FB6F894DEBF0FBECDBF099474
:102DB0002A88398848885F846E847D848C849B84CB
:102DC000AA84B984C884DF80EE80FD800C811B81D9
:102DD000AA81B981CE0FD11D0FB6F894DEBF0FBE08
:102DE000CDBFED010895A1E21A2EAA1BBB1BFD0168
:102DF0000DC0AA1FBB1FEE1FFF1FA217B307E407DA
:102E0000F50720F0A21BB30BE40BF50B661F771F31
:102E1000881F991F1A9469F7609570958095909511
:102E20009B01AC01BD01CF010895A29FB001B39FEA
:102E3000C001A39F700D811D1124911DB29F700DC3
:102E4000811D1124911D0895991B79E004C0991FDB
:102E5000961708F0961B881F7A95C9F780950895F4
:102E6000EE0FFF1F0590F491E02D0994CF93DF93AF
:102E70008230910510F482E090E0E0916204F091DC
:102E8000630420E030E0C0E0D0E0309711F14081F1
:102E9000518148175907C0F04817590761F48281DA
:102EA0009381209719F09B838A832BC090936304AE
:102EB0008093620426C02115310519F0421753078B
:102EC00018F49A01BE01DF01EF010280F381E02DC9
:102ED000DCCF2115310509F1281B390B24303105D0
:102EE00090F412968D919C9113976115710521F0C4
:102EF000FB019383828304C09093630480936204F4
:102F0000FD01329644C0FD01E20FF31F81939193BE
:102F1000225031092D933C933AC0209160043091A6
:102F20006104232B41F42091160130911701309355
:102F30006104209360042091140130911501211542
:102F4000310541F42DB73EB7409118015091190158
:102F5000241B350BE0916004F0916104E217F30744
:102F6000A0F42E1B3F0B2817390778F0AC014E5FF9
:102F70005F4F2417350748F04E0F5F1F50936104D1
:102F8000409360048193919302C0E0E0F0E0CF01B0
:102F9000DF91CF9108950F931F93CF93DF93009705
:102FA00009F48CC0FC0132971382128200916204F2
:102FB000109163040115110581F420813181820F84
:102FC000931F20916004309161042817390779F527
:102FD000F0936104E093600471C0D80140E050E0D8
:102FE000AE17BF0750F412962D913C911397AD0187
:102FF0002115310509F1D901F3CF9D01DA013383A0
:10300000228360817181860F971F8217930769F46D
:10301000EC0128813981260F371F2E5F3F4F318306
:1030200020838A819B8193838283452B29F4F093AB
:103030006304E093620442C01396FC93EE931297EC
:10304000ED01499159919E01240F351FE217F307B5
:1030500071F480819181840F951F029611969C9343
:103060008E938281938113969C938E931297E0E0C6
:10307000F0E0D80112968D919C911397009719F06A
:10308000F8018C01F6CF8D919C9198012E5F3F4FF6
:10309000820F931F20916004309161042817390733
:1030A00069F4309729F4109263041092620402C00C
:1030B000138212821093610400936004DF91CF9118
:1030C0001F910F910895A0E0B0E0E9E6F8E10C94BB
:1030D000C016EC01009721F4CB010E943617B8C04E
:1030E000FC01E60FF71F9C0122503109E217F3079C
:1030F00008F4ACC0D9010D911C9111970617170760
:10310000B0F00530110508F49FC0C8010497861778
:10311000970708F499C002501109061B170B019379
:1031200011936D937C93CF010E94CB178DC05B01EF
:10313000A01AB10A4C01800E911EA0916204B091B8
:10314000630440E050E0E12CF12C109709F44AC0F0
:10315000A815B905D1F56D907C901197630182E0B7
:10316000C80ED11CCA14DB0480F1A3014A195B0903
:103170006A0182E0C80ED11C1296BC901297139679
:10318000AC91B5E0CB16D10440F0B282A383518359
:103190004083D9016D937C930AC00E5F1F4FC3011A
:1031A000800F911FF90191838083EB2DFA2FE11499
:1031B000F10431F0D7011396FC93EE93129744C0BB
:1031C000F0936304E09362043FC08D919C9111974A
:1031D0004817590708F4AC017D0112960D90BC9177
:1031E000A02DB3CF8091600490916104881599055A
:1031F000E1F446175707C8F4809114019091150126
:10320000009741F48DB79EB7409118015091190174
:10321000841B950BE817F907C8F4F0936104E09359
:103220006004F901718360830FC0CB010E943617DF
:103230007C01009759F0A801BE010E943219CE010D
:103240000E94CB17C70104C0CE0102C080E090E00D
:10325000CDB7DEB7EEE00C94DC1681E090E0F89498
:103260000C944919FB01DC0102C001900D92415000
:103270005040D8F70895DC0101C06D934150504093
:10328000E0F70895FB01DC0101900D920020E1F7C9
:10329000089510E0CCEED0E004C0FE010E9430178B
:0C32A0002196CD3ED107C9F7F894FFCF6E
:1032AC00FFFFFFFF00E10000000000000100000034
:1032BC000100000000006404800058585858585809
:1032CC005831303000C18081000000000000001037
:1032DC00087D07A8075708D907B707CB07000000D8
:1032EC000017017A03EB012D0138011302EF0100E5
:1032FC0000000051063302E801DA0123060B06C573
:10330C0005C902D604D80574065805E401DB010092
:10331C0000000038067D07E801E7016902000000A3
:10332C00008A080000000031024E657720636C694A
:10333C00656E7420636F6E6E656374696F6E2E00BC
:10334C00436F6465203A200050616464696E6720A5
:10335C0053697A65203A20000D0A005365714E7549
:10336C006D203A20004944203A2000537461727455
:10337C002053656E64205061636B657400436F6D00
:10338C00706C6574652053656E64205061636B6569
:10339C00740053656E64205365715F4E756D203AF1
:1033AC002000436C69656E7420646973636F6E6E84
:0833BC0065637465642E0000D6
:00000001FF
