:100000000C9443010C94851A0C945E1A0C94371AC4
:100010000C94101A0C946B010C946B010C94E9195C
:100020000C946B010C946B010C94330E0C94A50E84
:100030000C946B010C946B010C946B010C946B0190
:100040000C946B010C9409070C946B010C946B01DC
:100050000C946B010C946B010C946B010C94801943
:100060000C946B010C946B010C946B010C946B0160
:100070000C946B010C946B010C946B010C946B0150
:100080000C946B010C946B010C946B010C946B0140
:100090000C946B010C946B010C946B010C946B0130
:1000A0000C946B010C946B010C946B0147174A176D
:1000B00039173D1743176B176B176B174E175217EE
:1000C00056175C1760176B1766170A444E53736513
:1000D00072763A20000A444843507372763A200000
:1000E0000A476174657761793A20000A4E65746D3C
:1000F00061736B3A20000A495020416464723A20CF
:1001000000556E61626C6520746F2072657472694F
:100110006576652074686520495020416464726585
:100120007373210D0A00526571756573742044481C
:10013000435000436F6E6E656374656421004661D1
:10014000696C656421000A417474656D7074696E30
:100150006720746F20636F6E6E65637420746F2008
:1001600000080B0002020201000904000001020263
:1001700000000524001001052401010104240206E9
:100180000524060001070581031000400904010051
:10019000020A000000070502024000000705830272
:1001A0004000000403090412010002EF0201404173
:1001B00023368000010102030141726475696E6F8C
:1001C000204C4C430041726475696E6F204C656F22
:1001D0006E6172646F0000000000250028002B0093
:1001E0002E003100000000002300260029002C0012
:1001F0002F000000000200090F0000030401000CA2
:1002000000000000000000000000000000000000EE
:100210000000000000240027002A002D0030000408
:1002200008020110408040102040804080080204F5
:100230000180402010020110801020404020040462
:10024000040404030405020202020403020202027F
:1002500006060606060604040202020404436F753D
:100260006C646E277420626567696E2829212043BB
:100270006865636B20796F757220776972696E6744
:100280003F008B23422311241FBECFEFDAE0DEBFF5
:10029000CDBF13E0A0E0B1E0E2EEFAE502C00590C8
:1002A0000D92A235B107D9F727E0A2E5B3E001C06E
:1002B0001D92A837B207E1F711E0C2E4D1E004C013
:1002C0002197FE010E94702CC134D107C9F70E940A
:1002D00082240C94642D0C940000DC011C968D91FA
:1002E0009C911D97009739F0DC01ED91FC910488F9
:1002F000F589E02D09940895DC011C968D919C915F
:100300001D97009739F0DC01ED91FC910680F78193
:10031000E02D09940895DC011C968D919C911D9708
:10032000009739F0DC01ED91FC910484F585E02D16
:10033000099480E090E00895DC011C968D919C91D9
:100340001D97009739F0DC01ED91FC910280F3815B
:10035000E02D099480E090E00895DC011C968D91D9
:100360009C911D97009739F0DC01ED91FC9102887A
:10037000F389E02D099480E090E00895DC011C965B
:100380008D919C911D97009739F0DC01ED91FC91C6
:100390000084F185E02D099480E090E00895DC016F
:1003A0001C968D919C911D97009739F0DC01ED9181
:1003B000FC910284F385E02D099480E090E008959B
:1003C000DC011C968D919C911D97009739F0DC0102
:1003D000ED91FC910190F081E02D099480E090E096
:1003E0000895DC011C968D919C911D97009739F022
:1003F000DC01ED91FC910688F789E02D099480E0FD
:100400000895DC011C968D919C911D97009739F001
:10041000DC01ED91FC910088F189E02D099480E0E8
:1004200090E00895EF92FF920F931F93CF93DF9385
:1004300000D000D000D0CDB7DEB7FC018485958513
:100440000097D9F0DB01FC0120813181F901E684BC
:10045000F7842DEE31E03A83298312960D911D9198
:100460002D913C9115970B831C832D833E83BE01F8
:100470006F5F7F4FF701099502C080E090E02696FC
:100480000FB6F894DEBF0FBECDBFDF91CF911F91A5
:100490000F91FF90EF900895DC01ED91FC9106889B
:1004A000F789E02D099591E0811101C090E0892F35
:1004B00008950895DC01ED91FC910688F789E02DFF
:1004C000099591E0811101C090E0892F0895089568
:1004D00080E090E008958F929F92AF92BF92EF924A
:1004E000FF920F931F93CF93DF93CDB7DEB768973B
:1004F0000FB6F894DEBF0FBECDBF8C010E94CC1E9C
:100500008FEF8983E090AC03F090AD0340E458E3B3
:1005100060E070E0C70109960E94AC1A40E15EE01D
:1005200060E070E00E94AC1A4EE150E060E070E0E4
:100530000E94AC1A40E050E0BA010E94AC1A44E1BB
:10054000B70189E090E20E94B31ABE016F5F7F4F4E
:1005500089E090E20E94C31A89818111D8C00E946B
:10056000CC1E0E944A1677FDD2C06D8B7E8B8F8B7E
:10057000988F0E94CC1EE090AC03F090AD036D8983
:100580007E894B01770FAA08BB08B501A401C701FA
:1005900009960E94AC1A4FEF5FEF60E070E00E9496
:1005A000AC1A42E050E060E070E00E94AC1AFC013E
:1005B00088E0808311821282138281E08483158215
:1005C00016821782108645E1B70189E090E10E940A
:1005D000B31ABE016F5F7F4F89E090E10E94C31A9A
:1005E00089819A81AB81BC81B7FF06C09C01909341
:1005F00073078093720702C020E030E037FD87C0A8
:1006000082E090E09A8389831D821E821F82188671
:10061000F801E350FF4F808191819827892798271F
:100620009C838B830E94CC1E8FEF9FEFDC01898B14
:100630009A8BAB8BBC8BE090AC03F090AD03B50113
:10064000A401C70109960E94AC1AFC0188E08083CE
:100650001182128213828483158216821782DE0130
:1006600011963896CE010996A817B90719F02D9161
:100670002193FACF44E1B70182E090E10E94B31ADE
:10068000BE016F5E7F4F82E090E10E94C31A8989AC
:100690009A89AB89BC899093730780937207B7FDE1
:1006A00036C00E94CC1E8FEF9FEFDC01898B9A8BA6
:1006B000AB8BBC8BE090AC03F090AD03B501A40113
:1006C000C70109960E94AC1A40E050E0BA010E94AE
:1006D000AC1A48E0B70186E090E10E94B31ABE016F
:1006E0006F5E7F4F86E090E10E94C31A89899A89E4
:1006F000AB89BC899093730780937207B7FD07C0DD
:10070000F801E150FF4F80829182A282B382689605
:100710000FB6F894DEBF0FBECDBFDF91CF911F9112
:100720000F91FF90EF90BF90AF909F908F900895A2
:10073000CF93DF93EC01C15BDF4F688179818A81C0
:100740009B810E94571C8FEF9FEFDC018883998368
:10075000AA83BB83DF91CF910895CF93DF93EC0100
:10076000C15BDF4F488159816A817B8177FD23C05E
:10077000DC01ED91FC910084F185E02D0995892B38
:1007800051F4688179818A819B81FB01E059FC4F9A
:100790002081211102C081E00FC00E94571CE88116
:1007A000F981E059FC4F10828FEF9FEFDC018883C5
:1007B0009983AA83BB8380E0DF91CF9108954F9204
:1007C0005F926F927F928F929F92AF92BF92CF92E1
:1007D000DF92EF92FF920F931F93CF93DF93EC0181
:1007E0003C012DE4620E711C5C018CE4A80EB11C6E
:1007F0002E01ECE04E0E511C4E01FFE48F0E911CB9
:10080000F30140815181141615065CF10E94CC1E43
:10081000F4016081718182819381C12CD12C760198
:1008200000E410E020E030E0A2010E940E0DF30190
:1008300091838083C99691F4F401608171818281F2
:1008400093810E94571C8FEF9FEFDC01F40180839E
:100850009183A283B38380E090E010C0F501108201
:10086000CFCFF5019081292F30E04217530771F265
:10087000C20FD31F8C859F5F908390E0DF91CF9153
:100880001F910F91FF90EF90DF90CF90BF90AF90AE
:100890009F908F907F906F905F904F9008954F92B0
:1008A0005F926F927F928F929F92AF92BF92CF9200
:1008B000DF92EF92FF920F931F93CF93DF93EC01A0
:1008C0003C012DE4620E711C4C018CE4880E911CDD
:1008D0002E01ECE04E0E511C5E01FFE4AF0EB11C88
:1008E000F30120813181121613065CF10E94CC1EA7
:1008F000F5016081718182819381C12CD12C7601B7
:1009000000E410E020E030E0A2010E940E0DF301AF
:1009100091838083C99691F4F50160817181828110
:1009200093810E94571C8FEF9FEFDC01F5018083BC
:100930009183A283B38380E090E00DC0F401108224
:10094000CFCFF401808190E02817390779F2C80FE2
:10095000D91F8C8590E0DF91CF911F910F91FF906F
:10096000EF90DF90CF90BF90AF909F908F907F904F
:100970006F905F904F900895CF92DF92EF92FF9229
:100980000F931F93FB018A0120E030E0DC01A15BA3
:10099000BF4F6D917D918D919C91C12CD12C760191
:1009A000AF010E940E0D1F910F91FF90EF90DF900D
:1009B000CF9008958F929F92AF92BF92CF92DF9285
:1009C000EF92FF920F931F93CF93DF93CDB7DEB7D4
:1009D0002C970FB6F894DEBF0FBECDBFFC01E15BD4
:1009E000FF4F80819181A281B381B7FD5FC03297B3
:1009F000208131811216130654F43197408150E062
:100A00004217530724F4C901841B950B51C0198662
:100A10001A861B861C868C019D0145E0359527951D
:100A2000179507954A95D1F7000F111F000F111F59
:100A3000E1E0F0E0EC0FFD1FE00FF11F4C015D0164
:100A40002FE182229924AA24BB24C12CD12C760127
:100A5000C39404C0CC0CDD1CEE1CFF1C8A94D2F79E
:100A6000C086D186E286F38619821A821B821C8296
:100A700008E813E120E030E00D831E832F833887E0
:100A8000BC01CD016F5F7F4F8F4F9F4F9E012F5F46
:100A90003F4FAE01475F5F4F0E94D60A31E020E032
:100AA000019709F030E0832F922F02C080E090E0A0
:100AB0002C960FB6F894DEBF0FBECDBFDF91CF915D
:100AC0001F910F91FF90EF90DF90CF90BF90AF906C
:100AD0009F908F9008958F929F92AF92BF92CF92E6
:100AE000DF92EF92FF920F931F93CF93DF93CDB7D7
:100AF000DEB766970FB6F894DEBF0FBECDBF7C01A0
:100B00006B01FC01E35BFF4F118210823197108271
:100B10004D8B5E8B0E944A164B015C014D895E89AC
:100B20006F3F2FEF72078207920709F469C0FB013C
:100B3000E059FC4F10828E010F5F1F4F80E1F801DA
:100B400011928A95E9F782E090E09A8389835B832A
:100B50004C83F60182819381248135813D832E83EC
:100B60009F8388878FEF9FEFDC01898B9A8BAB8BFC
:100B7000BC8BC090AC03D090AD03B501A401C601FD
:100B800009960E94AC1AFC0188E0808311821282CF
:100B900013828483158216821782D8013896CE017B
:100BA0000996A817B90719F02D912193FACF44E1BE
:100BB000B60187E090E10E94B31ABE016F5E7F4FDD
:100BC00087E090E10E94C31A89899A89AB89BC8920
:100BD00090937307809372078F3F9F4FAF4FBF4F24
:100BE00029F4C501B4010E94571C0AC0F701E15B5A
:100BF000FF4F80829182A282B38281E090E002C0A6
:100C000080E090E066960FB6F894DEBF0FBECDBFD1
:100C1000DF91CF911F910F91FF90EF90DF90CF90D8
:100C2000BF90AF909F908F900895CF92DF92EF92F8
:100C3000FF920F931F93CF93DF931F92CDB7DEB731
:100C40006983FC01E15BFF4F608171818281938147
:100C5000C12CD12C760101E010E020E030E0AE01A3
:100C60004F5F5F4F0E94930B97FF02C080E090E0C0
:100C70000F90DF91CF911F910F91FF90EF90DF9038
:100C8000CF900895CF92DF92EF92FF920F931F9330
:100C9000FB018A0120E030E0DC01A15BBF4F6D91D8
:100CA0007D918D919C91C12CD12C7601AF010E9438
:100CB000930B1F910F91FF90EF90DF90CF900895CD
:100CC000EF92FF920F931F93CF93DF93CDB7DEB7D1
:100CD0002A970FB6F894DEBF0FBECDBF8C01CB01B3
:100CE0007A011F82188619861A86FB01019000205E
:100CF000E9F73197BF01681B790BAE01495F5F4F80
:100D00000E94971B4F81588569857A854115510549
:100D100061057105B9F0892BA9F0D801ED91FC911D
:100D20000684F785E02D8DEE91E09A8389834B83CD
:100D30005C836D837E83A701BE016F5F7F4FC80117
:100D4000099502C080E090E02A960FB6F894DEBFC5
:100D50000FBECDBFDF91CF911F910F91FF90EF900C
:100D60000895FA01603830E873078105910521F490
:100D70003091D303316009C0613030E873078105D9
:100D8000910531F43091D30332603093D30321C005
:100D9000623030E873078105910531F42091D30367
:100DA000297F2093D30327C0603130E87307810582
:100DB000910521F48091D303846008C069397105DD
:100DC0008105910531F48091D30388608093D3032A
:100DD0000895603430E873078105910561F48091CE
:100DE0006F038F5F80936F03422F50E0BF018BE54D
:100DF00093E00C94452D611578488105910541F4E7
:100E0000E081E03228F4F0E0E059FC4F81E080839B
:100E100008951F920F920FB60F9211242F933F93B4
:100E20004F935F936F937F938F939F93AF93BF93F2
:100E3000EF93FF9380915A0387FF05C010928500BE
:100E4000109284001BC020915A03022E000C330B19
:100E50008091FD0390E02817390784F480915A03AC
:100E6000082E000C990BFC01EE0FFF1F8E0F9F1F29
:100E7000FC01E752FC4F808186FD15C080915A032A
:100E80008F5F80935A0320915A03022E000C330B7C
:100E90008091FD0390E028173907C4F480915A032C
:100EA0008C3064F113C080915A03082E000C990B0A
:100EB000FC01EE0FFF1F8E0F9F1FFC01E752FC4F3E
:100EC000808160E08F730E944918D8CF80918400A0
:100ED00090918500049680349C4918F480E49CE944
:100EE00005C08091840090918500049690938900BC
:100EF000809388008FEF80935A033BC02091840039
:100F00003091850080915A03082E000C990BFC014A
:100F1000EE0FFF1F8E0F9F1FFC01E752FC4F8181D8
:100F20009281820F931F9093890080938800809113
:100F30005A03082E000C990BFC01EE0FFF1F8E0FB9
:100F40009F1FFC01E752FC4F808186FF12C08091F9
:100F50005A03082E000C990BFC01EE0FFF1F8E0F99
:100F60009F1FFC01E752FC4F808161E08F730E945C
:100F70004918FF91EF91BF91AF919F918F917F9110
:100F80006F915F914F913F912F910F900FBE0F90F6
:100F90001F9018950F931F93CF93DF93EC018091CF
:100FA000C2068093A0068AE18C1B8093C306C0937F
:100FB000C1068093A10602EA16E0A801405A5640F5
:100FC0008091C30690E001968417950734F00E9443
:100FD0005E2BF80181938F01F0CF20E030E0249662
:100FE000C217D30774F0F901E40FF51FE056F94F6B
:100FF000D901AF53B94F14968C9181832F5F3F4F26
:10100000EFCFDF91CF911F910F9108952F923F92D3
:101010004F925F926F927F928F929F92AF92BF9208
:10102000CF92DF92EF92FF920F931F93CF93DF93B4
:10103000CDB7DEB7C754D1090FB6F894DEBF0FBEE7
:10104000CDBF86E491E00E942F11E0910D05F09153
:101050000E054091080450910904609104047091B8
:1010600005040280F381E02D8DE095E009950E9452
:10107000D510E0900804F0900904C7010E94E5290A
:101080008C0180910204909103040E94E5291C01C7
:10109000A7014F5F5F4FB80184E094E00E9476158E
:1010A00040910204509103044F5F5F4FB1018EEFF6
:1010B00093E00E94761520915D0524962FAF24972A
:1010C000222309F47CC19E012F5F3F4F21963FAF41
:1010D0002EAF219744244A94542C32012A5F3F4F6B
:1010E00023963FAF2EAF23970E94CC1E60EA7FE08D
:1010F00080E090E00E94AA1464E971E180E090E051
:101100000E94B51860E070E0CB010E94AA148091A3
:101110005D05882309F4A1C060E070E0CB010E9466
:101120003A15672B682B692B09F097C064EF71E0C3
:1011300080E090E00E94B518F80101900020E9F7E6
:1011400031976F01C01AD10A4601A12CB12C21960A
:10115000AEADBFAD2197E6E01D92EA95E9F74BAE43
:101160005CAE6DAE7EAEE090AC03F090AD03ECE112
:10117000D7011996EC9319971A961C921A971B96F9
:101180001C921B971C961C92B501A401C7010D96D9
:101190000E94AC1AFC011082118212821382B501E6
:1011A000A401405F5F4F6F4F7F4F04960E94AC1ABF
:1011B00040E050E0BA010E94AC1ADC011C9211968A
:1011C0001C921197FE013196129621912D93239630
:1011D0002EAD3FAD2397E217F307B9F7DC01189660
:1011E000F801CF01801B910BAC0160E070E0481565
:1011F00059056A057B051CF481918D93F2CF4CE172
:101200004C0DB70181E090E00E94B31ABE01655C0D
:101210007F4F81E090E00E94C31A8BAD9CADADADD5
:10122000BEAD9093730780937207892B8A2B8B2B0B
:10123000A1F488EEE82E83E0F82E8091D30381FD9F
:101240000CC00E94CC1E6AE070E080E090E00E943A
:10125000B51891E0E91AF10881F78091D30381FF75
:1012600043CF83E391E00E94501186E291E00E9417
:1012700050118091D30382FF09C0AE014F5F5F4FD1
:1012800069E070E083E192E00E94971B8091D303B4
:1012900082FD15C064E670E080E090E00E94B51821
:1012A000E8CF8091D30381FD12C081E091E00E94DC
:1012B000501168EE73E080E090E00E94B518309124
:1012C0005D0524963FAF24973111EBCFEECF80918F
:1012D000D30382FFEACF6091AC037091AD0340E08D
:1012E00085E090E20E94B31ABE016F5F7F4F85E0F8
:1012F00090E20E94C31A8C818823B9F289819A8175
:10130000AB81BC818093560390935703A0935803FD
:10131000B09359038D819E81AF81B88528968CAF9B
:101320009DAFAEAFBFAF289749845A846B847C844D
:101330008D849E84AF84B888C988DA88EB88FC885D
:1013400086EF90E00E942F11609156037091570331
:1013500080915803909159030E94DB108BEE90E02E
:101360000E942F1128966CAD7DAD8EAD9FAD289754
:101370000E94DB1080EE90E00E942F11C301B201A9
:101380000E94DB1085ED90E00E942F11C501B40191
:101390000E94DB108AEC90E00E942F11C701B60179
:1013A0000E94DB100E94D51061E08DE00E94491878
:1013B000C8010E947A2AC1010E947A2A04C08EE3E1
:1013C00091E00E94501124968FAD2497C95BDF4FA6
:1013D0000FB6F894DEBF0FBECDBFDF91CF911F9146
:1013E0000F91FF90EF90DF90CF90BF90AF909F90C4
:1013F0008F907F906F905F904F903F902F900895C7
:1014000080919E0381110DC082E080939A0384E055
:1014100080939B0310929D0310929C0381E0809324
:101420009E038AE993E008950895DF92EF92FF9278
:101430000F931F93CF93DF93D82E8A017B01E40E85
:10144000F51EEB01CE15DF0571F0D7FE03C0FE01DE
:10145000849101C088810E94A22221968111F2CF3D
:101460008FEF9FEF01C0C801DF91CF911F910F91C6
:10147000FF90EF90DF9008950F931F93CF93DF932A
:101480001F92CDB7DEB782E0898342E450E061E687
:1014900071E080E80E94150A0E94000ADC011296A1
:1014A0000D911C9113970115110569F0D801ED916B
:1014B000FC910280F381E02DBE016F5F7F4FC80178
:1014C000099597FF07C089810F90DF91CF911F91F8
:1014D0000F910895F80100851185E5CFCF92DF9235
:1014E000EF92FF92CF93DF936B017C0197FF16C0C1
:1014F0006DE28DE095E00E94DD22EC014427552746
:10150000BA014C195D096E097F092AE08DE095E06A
:101510000E94F9227C01EC0EFD1E08C02AE0AB01FE
:10152000BC018DE095E00E94F9227C010E94D5105B
:101530008E0D9F1DDF91CF91FF90EF90DF90CF90A8
:101540000895CF92DF92EF92FF92CF93DF936C01D9
:10155000990FEE08FF08F7FE16C06DE28DE095E0EA
:101560000E94DD22EC0144275527BA014C195D0980
:101570006E097F092AE08DE095E00E94F9227C0146
:10158000EC0EFD1E08C02AE0B701A6018DE095E033
:101590000E94F9227C010E94D5108E0D9F1DDF91C3
:1015A000CF91FF90EF90DF90CF9008958F929F9210
:1015B000AF92BF92CF92DF92EF92FF920F931F9361
:1015C000CF93DF93CDB7DEB760970FB6F894DEBF49
:1015D0000FBECDBF7A018901C090AC03D090AD039E
:1015E000AB01BC01C60109960E94AC1AFC0184E162
:1015F000808311821282138284831582168217825D
:101600008087118612861386848715861686CF01F9
:101610004096178641E050E060E070E0011511054A
:1016200019F040E050E0BA010E94AC1AE114F10454
:1016300031F0F701408151816281738103C040E044
:1016400050E0BA010E94AC1A40E050E0BA010E949A
:10165000AC1A40E050E0BA010E94AC1A0115110525
:1016600049F1F80140815181628173814115510531
:1016700061057105B1F484809580A680B780F8E893
:101680008F16F3E19F06A104B1045CF428E8822ED2
:1016900023E1922EA12CB12CF80184829582A6829E
:1016A000B7820E94AC1AF801448155816681778126
:1016B0000E94AC1A4CE2B60188E090E10E94B31A95
:1016C000BE016F5F7F4F88E090E10E94C31A89815D
:1016D0009A81AB81BC81B7FD0DC0E114F10481F0AA
:1016E0004D815E816F817885F701408351836283EC
:1016F000738306C090937307809372078FEF9FEFF9
:1017000060960FB6F894DEBF0FBECDBFDF91CF91CC
:101710001F910F91FF90EF90DF90CF90BF90AF900F
:101720009F908F9008952F923F924F925F926F9269
:101730007F928F929F92AF92BF92CF92DF92EF9261
:10174000FF920F931F93CF93DF93CDB7DEB7A6978A
:101750000FB6F894DEBF0FBECDBF4B015C011A017E
:10176000280139019B016DA33EA30E947419698B66
:101770007A8B8B8B9C8B81E090E0082C02C0880FC9
:10178000991F0A94E2F7AC01990F660B770B498F0A
:101790005A8F6B8F7C8F840185E0169507958A950B
:1017A000E1F7F401EF71FF2741E050E060E070E005
:1017B000DB01CA0104C0880F991FAA1FBB1FEA954D
:1017C000D2F78D8B9E8BAF8BB88F2DA13EA1A90137
:1017D000032E000C660B770B4D8F5E8F6F8F78A3F7
:1017E000000F111F000F111F61E070E06C0F7D1FD3
:1017F000060F171F045F1F4F2F5F3F4FC901330FA5
:10180000AA0BBB0B89A39AA3ABA3BCA38091BE0375
:101810009091BF03A091C003B091C103892B8A2B83
:101820008B2BC9F04091BE035091BF036091C00360
:101830007091C103CA0150937307409372071092CD
:10184000BE031092BF031092C0031092C103009711
:1018500009F46EC0CAC02D8D3E8D4F8D58A1283021
:1018600031054105510508F0BBC080910C019091F4
:101870000D01A0910E01B0910F01498D5A8D6B8D14
:101880007C8D84239523A623B723892B8A2B8B2B2E
:1018900009F0A6C00E947419DC01CB0129893A899C
:1018A0004B895C89821B930BA40BB50B8133954745
:1018B000A105B10508F097C08091C2039091C303C0
:1018C000892B31F51D861E861F86188A6D897E89B3
:1018D0008F89988DD8016D937D938D939C931397E9
:1018E00019821A821B821C8228E833E140E050E012
:1018F0002D833E834F8358879E012F5F3F4FAE015C
:10190000435F5F4F69A17AA18BA19CA10E94D60A77
:101910008091C2039091C303892B09F477CF809102
:10192000C2039091C30301979093C3038093C203B2
:101930008091CA039091CB03A091CC03B091CD03C9
:101940000196A11DB11D8093CA039093CB03A09370
:10195000CC03B093CD030091AC031091AD03B5015E
:10196000A401C8010A960E94AC1A4CE050E060E065
:1019700070E00E94AC1AB301A2010E94AC1AB70138
:10198000A6010E94AC1A9801265E3F4FF101CF01DB
:1019900082199309A0E0B0E084159505A605B70566
:1019A0002CF48191D9018D939D01F1CF82E0F80152
:1019B000858381E8868380E18783C20140968087A2
:1019C0009187B2016B5E7F4FC8010E946121BE0109
:1019D0006F5F7F4F83E090E10E94C31AC20105C090
:1019E0008FEF9FEF02C08DEF9FEFA6960FB6F89492
:1019F000DEBF0FBECDBFDF91CF911F910F91FF9042
:101A0000EF90DF90CF90BF90AF909F908F907F909E
:101A10006F905F904F903F902F9008954F925F92FC
:101A20006F927F92AF92BF92CF92DF92EF92FF922E
:101A30000F931F93CF93DF93CDB7DEB72C970FB6DD
:101A4000F894DEBF0FBECDBF5A01280139010091C5
:101A5000AC031091AD03AB01BC01C80109960E9413
:101A6000AC1AB301A2010E94AC1AB701A6010E94F0
:101A7000AC1A4CE0B80184E090E10E94B31ABE01B8
:101A80006F5F7F4F84E090E10E94C31A8D819E8139
:101A9000AF81B885181619061A061B064CF481E0AA
:101AA00090E09093C9038093C803C5010E949B11E5
:101AB0008D819E8190937307809372072C960FB649
:101AC000F894DEBF0FBECDBFDF91CF911F910F9174
:101AD000FF90EF90DF90CF90BF90AF907F906F908E
:101AE0005F904F900895FC0180919903811103C08C
:101AF0008FEF9FEF08959FB7F89482E08093E900FD
:101B00002091F20030E01216130614F421E030E0C8
:101B10002115310559F0289884E680939803809127
:101B2000F10080838091F200882319F09FBFC901E2
:101B300008958BE68093E800F9CF2FB7F89483E0FF
:101B40008093E9009091E800892F807295FF04C08E
:101B50009091F20080E4891B2FBF08950F931F938B
:101B6000CF93DF938C01EB01FC0180819181009781
:101B7000B1F0688179816115710579F042815381F5
:101B80002C813D814217530740F00E944E2D8C81DD
:101B90009D81F8019583848313C00E947A2A8881ED
:101BA0009981F801918380838A819B8193838283C9
:101BB0008C819D8195838483198218821B821A826D
:101BC0001D821C82DF91CF911F910F910895EF929A
:101BD000FF920F931F93CF93DF93EC01198218822A
:101BE0001B821A821D821C8261157105A9F17B017D
:101BF000FB0101900020E9F731978F01061B170BBD
:101C0000B8016F5F7F4F80E090E00E94762C0097D4
:101C100059F0998388831B830A832C813D81232B70
:101C200081F4FC0110820DC088819981009711F028
:101C30000E947A2A198218821D821C821B821A82B3
:101C40000BC01D830C83B701DF91CF911F910F91C2
:101C5000FF90EF900C944E2DDF91CF911F910F913B
:101C6000FF90EF9008951F920F920FB60F921124DC
:101C70008F939F938091E1009091E100937F9093E7
:101C8000E10083FF0FC01092E90091E09093EB0018
:101C90001092EC0092E39093ED001092990398E07B
:101CA0009093F00082FF20C093E09093E900909120
:101CB000F200992319F09AE39093E800909197032A
:101CC000992339F09091970391509093970399231A
:101CD00089F190919803992339F09091980391504C
:101CE00090939803992341F184FF10C08091E20002
:101CF0008E7E81608093E2008091E1008F7E8093F0
:101D0000E100809196038E7E806111C080FF16C035
:101D10008091E2008E7E80618093E2008091E100FC
:101D20008E7E8093E100809196038E7E8160809309
:101D3000960304C05D9ACDCF289AD6CF9F918F91FC
:101D40000F900FBE0F901F9018951F920F920FB615
:101D50000F921124CF92DF92EF92FF920F931F9375
:101D60002F933F934F935F936F937F938F939F93A3
:101D7000AF93BF93EF93FF93CF93DF93CDB7DEB7CE
:101D80006C97DEBFCDBF1092E9008091E80083FF21
:101D9000EDC168E0CE0145960E94D02282EF80938B
:101DA000E8008D8987FF05C09091E80090FFFCCF87
:101DB00003C09EEF9093E800982F907609F0C6C07C
:101DC0009E892F89188D91110CC0803829F480913B
:101DD00095038093F10002C01092F1001092F1007F
:101DE00048C1422F50E0512B913051F4811141C133
:101DF0004130510509F03DC1809195038D7F0BC0A5
:101E0000933061F4811135C14130510509F031C180
:101E1000809195038260809395032BC1953041F4A6
:101E20008091E80080FFFCCF20682093E30021C16F
:101E3000963009F05FC0EB8CFC8C1092E900109298
:101E4000930310929203123091F510929103109225
:101E500090030E943C0A99E0BE016F5F7F4FDB0157
:101E6000E92F1D92EA95E9F799831A8391E09E8301
:101E700090EA98879AEF9987209192033091930383
:101E8000275F3F4F3C832B838D831092E900109294
:101E9000930310929203F0929103E092900349E031
:101EA00050E080E00E94150A0E943C0AE2C0F092D5
:101EB0009103E09290030E94000ADC011296ED90DB
:101EC000FC901397E114F10409F4C0C0D701ED911F
:101ED000FC910480F581E02DBE016B5E7F4FC70150
:101EE0000995009719F00CF0C4C0C7C0F701E08451
:101EF000F184E8CF973009F4C0C0983021F481E034
:101F00008093F100B6C0993009F0B3C0837009F036
:101F1000B4C0E9E2F1E081E021E036E39081992369
:101F200061F08093E9002093EB0091919093EC0095
:101F30003093ED008F5F873089F78EE78093EA005A
:101F40001092EA008F898093990393C08B8D9C8DAA
:101F50001092E900109293031092920390939103D0
:101F600080939003898D811156C08E899D89913A05
:101F700059F4813209F081C047E050E064E071E03B
:101F800080E00E94150A75C0913209F076C0833254
:101F900089F4888D90E0982F88272F89822BA0E0E4
:101FA000B0E08093000190930101A0930201B093EF
:101FB00003015FC0803269F48091E80082FFFCCFAA
:101FC00067E084E091E00E94D0228BEF8093E800EC
:101FD00006C0823209F04DC08F8980930B01809139
:101FE0009403882319F0EEEFFAE002C0E0E0F8E095
:101FF0008091040190910501A0910601B091070123
:10200000803B9440A105B10509F07BC080910B0194
:1020100080FF93C076C00E94000ADC0112960D91E9
:102020001C9113970115110541F1D801ED91FC9117
:102030000190F081E02DBE016B5E7F4FC8010995D4
:10204000811117C0F80100851185ECCF113009F41A
:102050004EC0133091F48F89882309F445C0823033
:1020600081F440E860E185EC91E00E944E238823F2
:1020700021F08EEF8093E80079C081E28093EB003D
:1020800075C0813029F440E86BE089EB91E0EDCF39
:10209000833099F70E94000ADC011296ED90FC90C3
:1020A00013978E010F5F1F4F6801E114F10479F05F
:1020B000D701ED91FC910680F781E02DB801C701B1
:1020C0000995080F111DF701E084F184EECFD801C6
:1020D0001C92F60101900020E9F73197BF016C19BD
:1020E0007D0940E0C601C1CF63EA71E002C067EA42
:1020F00071E06115710509F2FB01449150E080E83F
:1021000040CF0FB6F894A8958091600088618093C5
:102110006000109260000FBEA895EE3F2AE0F20723
:1021200039F08091FE0A9091FF0A91838083A1CFBC
:102130001092FF0A1092FE0A9CCFEE3F8AE0F80749
:1021400031F0808191819093FF0A8093FE0A87E7A6
:1021500097E7918380839BE088E10FB6F894A89578
:10216000809360000FBE9093600083CF6C960FB693
:10217000F894DEBF0FBECDBFDF91CF91FF91EF91FD
:10218000BF91AF919F918F917F916F915F914F918F
:102190003F912F911F910F91FF90EF90DF90CF9083
:1021A0000F900FBE0F901F9018956DE172E08DE0BB
:1021B00095E00C94E422CF92DF92EF92FF926B01B4
:1021C0007C018091790590917A05009709F442C0CD
:1021D0004F2D5527662777272AE00E94F9226EE2C5
:1021E0008091790590917A050E94DD224E2D50E074
:1021F00060E070E02AE08091790590917A050E9474
:10220000F9226EE28091790590917A050E94DD2293
:102210004D2D50E060E070E02AE0809179059091CA
:102220007A050E94F9226EE28091790590917A05F3
:102230000E94DD22B701A6015527662777272AE0ED
:102240008091790590917A05FF90EF90DF90CF9083
:102250000C94F922FF90EF90DF90CF9008950F93A8
:102260001F93CF93DF938C01C0E0D0E0F801EC0F17
:10227000FD1F6491662371F0E0910D05F0910E054C
:102280000190F081E02D8DE095E00995892B11F00A
:102290002196ECCFCE01DF91CF911F910F91089540
:1022A000CF93DF930E942F11EC010E94D5108C0F69
:1022B0009D1FDF91CF910895E82FF0E0EE0FFF1FF3
:1022C000E05FFE4F2AE230E2318320838230D9F092
:1022D00028F4882341F0813071F008958330D9F0DB
:1022E000843009F10895809169008C7F8260809329
:1022F0006900E89A089580916900837F88608093DF
:102300006900E99A0895809169008F7C80628093CA
:102310006900EA9A0895809169008F7380688093BC
:102320006900EB9A089580916A008F7C80628093A7
:102330006A00EE9A08956F927F928F929F92AF9269
:10234000BF92CF92DF92EF92FF920F931F93CF93A2
:10235000DF9300D000D0CDB7DEB78C01E12CF12C9B
:1023600080E1B82E96E2A92E0E94CC1E8091A8038F
:102370009091A903892BC1F3C090AA03D090AB031D
:10238000F6018081843009F02AC261E070E0C60164
:102390000E94D31C7C01C6010E94DF1C672B682BA6
:1023A000692B09F010C23601F5E06F0E711C48E090
:1023B000E41640E1F40608F076C086E0E81680E115
:1023C000F80608F002C1E2E0EE16FE0609F4FDC0D0
:1023D00000F54DE0E416F10480F488E0E816F1041D
:1023E00008F0F3C0E1E0EE16F10408F4ECC1F7E008
:1023F000EF16F10408F06CC1E8C04DE0E416F104FA
:1024000009F4DEC081E0E81682E0F80609F4D8C0DD
:10241000DAC1E3E0EE16E0E1FE0610F5F1E0EF16BA
:10242000F0E1FF0608F0D1C045E0E41642E0F40612
:1024300008F4C6C087E0E81682E0F80609F0C3C1D8
:10244000F6018481F80181938F0160E070E0C3019F
:102450000E94A21CAB01BC01C8010E94AC1AB3C10E
:10246000E4E0EE16E0E1FE0609F4D9C008F40AC182
:1024700060E070E0C3010E94A21CF80160837183D8
:102480008283938364E070E0C3010E94A21CF80180
:102490006483758386839783085F1F4FF6013D969B
:1024A000D8018B2D47C141E1E41640E1F40609F45F
:1024B00087C008F04BC0EBE0EE16E0E1FE0609F441
:1024C00084C0A8F549E0E41640E1F40609F47DC0B3
:1024D00008F0EFC060E070E0C3010E94A21CF801A8
:1024E000608371838283938364E070E0C3010E9400
:1024F000A21CF801648375838683978368E070E08B
:10250000C3010E94A21CF8016087718782879387AC
:102510004801FCE08F0E911C6CE070E0C3010E944A
:10252000A21CF80164877587868797874BC1EFE007
:10253000EE16E0E1FE0609F4A5C008F051C04DE03A
:10254000E41640E1F40609F46AC03DC185E0E816EE
:1025500080E2F80609F4F3C060F4F2E1EF16F0E16E
:10256000FF0609F453C041E0E41640E2F40640F5EA
:102570002AC18AE0E81680E2F80658F4E8E0EE1690
:10258000E0E2FE06E8F4F6E0EF16F0E2FF06C1F046
:102590001AC14BE0E41640E4F40609F014C1F60158
:1025A000858190E09093C3038093C20361E070E063
:1025B000C3010E94D31C9093C5038093C40303C13D
:1025C000F6018481F8018083FEC060E070E0C30101
:1025D0000E94A21CF8016083718382839383F3C0FD
:1025E00060E070E0C3010E94A21CF8016193719346
:1025F000819391934F0164E070E0C3010E94A21C9B
:10260000F8016483758386839783DCC060E070E0A3
:10261000C3010E94D31CF80191838083D4C060E081
:1026200070E0C3010E94A21CF80160837183828361
:10263000938364E070E0C3010E94A21CF8016483EC
:102640007583868397834801F8E08F0E911C68E0BC
:1026500070E0C3010E94A21CF80160877187828725
:1026600093870485158526853785073C1F4F2F4F97
:102670003F4F09F0A7C021E030E040E050E00E9469
:102680000B1CA0C060E070E0C3010E94A21CF80116
:10269000608371838283938364E070E0C3010E944E
:1026A000A21CF8016483758386839783085F1F4F9C
:1026B0008AC0F6018481F8018483F60185819681C0
:1026C000A781B085F80180839183A283B3837BC007
:1026D00060E070E0C3010E94A21CF8016083718376
:1026E0008283938364E070E0C3010E94A21CF8011E
:1026F000648375838683978368E070E0C3010E94DA
:10270000D31CA0E0B0E0F80180879187A287B3874F
:102710006AE070E0C3010E94D31CA0E0B0E0F801C1
:1027200082879387A487B587045F1F4FF601719650
:10273000D8018A2D01900D928A95E1F744C0C80115
:10274000D8011496F30121913F01FC012193CF019F
:10275000EA17FB07B9F7F6013996C6010D962191E4
:102760002D93E817F907D9F7D8011896C6014196B5
:1027700021912D93E817F907D9F7D8011C96C601C6
:10278000459621912D93E817F907D9F7D80150966E
:10279000C601499621912D93E817F907D9F7D80179
:1027A0005496C6014F9621912D93E817F907D9F752
:1027B000D8015A96C601CF9621912D93E817F907B3
:1027C000D9F701C084018091A6039091A703E81670
:1027D000F906D9F41092A7031092A60316C063E07D
:1027E00070E0C6010E94D31CF601628170E0AC016A
:1027F000461B570B6B5F7F4F6C0D7D1DC8010E9400
:10280000452D1092C9031092C8031092A90310928B
:10281000A8030E945721F6018081843009F077C017
:10282000E114F0E1FF0609F072C019821A821B82DE
:102830001C82F6018581823039F1833009F445C06C
:10284000813009F064C08091B0039091B103892B6D
:1028500089F0E091B003F091B103CE0101960995A2
:10286000009741F06091AC037091AD0329813A81EA
:10287000AC0108C06091AC037091AD0320E030E082
:1028800040E050E081E041C08091AE039091AF0301
:10289000892B89F0E091AE03F091AF03CE01019650
:1028A0000995009741F06091AC037091AD032981C7
:1028B0003A81AC0108C06091AC037091AD0320E097
:1028C00030E040E050E082E020C08091B20390917F
:1028D000B303892B89F0E091B203F091B303CE01E9
:1028E00001960995009741F06091AC037091AD039A
:1028F00029813A81AC0108C06091AC037091AD03AD
:1029000020E030E040E050E083E00E94DC1E809157
:10291000A6039091A703892B09F026CD8091C803C7
:102920009091C903892B09F01FCD80E090E00F90B2
:102930000F900F900F90DF91CF911F910F91FF900B
:10294000EF90DF90CF90BF90AF909F908F907F904F
:102950006F900895EF92FF920F931F93CF93DF93A1
:10296000CDB7DEB7C454D1090FB6F894DEBF0FBEA1
:10297000CDBF20E4EFE2F1E0DE01119601900D926F
:102980002A95E1F720915D05222309F464C0AB018B
:10299000BC01E090AC03F090AD0384E2D70119963E
:1029A0008C9319971A961C921A971B961C921B9738
:1029B0001C961C92C7010D960E94AC1AFC0184E182
:1029C000808311821282138284E6848315821682A8
:1029D000178285E080871186128613868FEF8487A1
:1029E0008FE185871686178648E85FEF6FEF7FEFE8
:1029F000CF0140960E94AC1AFC0110821182128213
:102A000013828CE2848381E08583168217828E0193
:102A10000F5F1F4F3896CE018F5B9F4FD8012D91CE
:102A20008D012193A817B907C9F744E6B70183E0E0
:102A300090E00E94B31AB80183E090E00E94C31AAC
:102A4000F801408151816281738121E0452B462B41
:102A5000472B09F020E0822FCC5BDF4F0FB6F894B4
:102A6000DEBF0FBECDBFDF91CF911F910F91FF90C1
:102A7000EF9008950F931F93CF93DF9300D000D072
:102A8000CDB7DEB7AB01BC018FEF9FEFDC018983CF
:102A90009A83AB83BC830091AC031091AD03F80122
:102AA0001186128613861486158616861786108A56
:102AB000C80141960E94AC1A4CE0B80184E090E055
:102AC0000E94B31ABE016F5F7F4F84E090E00E94C6
:102AD000C31A69817A818B819C810F900F900F902E
:102AE0000F90DF91CF911F910F9108950F931F9336
:102AF000CF93DF9341155105E9F061157105D1F0D0
:102B0000FC01248135812115310519F4FB01108266
:102B100011C0EA0121972C173D0708F4E9018B0148
:102B2000FC0160817181AE01C8010E94552DC00F6A
:102B3000D11F1882DF91CF911F910F910895CF93EC
:102B4000DF93BC018DE095E00E94E422EC010E943D
:102B5000D5108C0F9D1FDF91CF910895CF93DF93F8
:102B6000482F50E060E070E02AE08DE095E00E94A0
:102B7000F922EC010E94D5108C0F9D1FDF91CF919F
:102B80000895BC018DE095E00C94E422CF92DF9291
:102B9000EF92FF92DC01A03282E0B8070CF03EC059
:102BA000B7FD06C0A53BB1052CF0A4EBB0E002C018
:102BB000A0E0B0E080915F0528E830E06901C81A24
:102BC000D10887FDD394CC0CDD1CCC0CDD1C0D2C66
:102BD000000CEE08FF088091600528E532E0281B14
:102BE000310987FD3395220F331F220F331FA901AF
:102BF000330F660B770B9A01AB012C193D094E0977
:102C00005F090E94F42B24EB30E040E050E00E948A
:102C1000CA2BC20ED31EE41EF51ED60190915E058E
:102C20009C3098F580915F0548E850E0481B5109B9
:102C300087FD5395440F551F440F551FA417B50723
:102C40008CF08091600528E532E0281B310987FD72
:102C50003395220F331F220F331FAD012A173B0775
:102C60000CF4A90142505109440F551F2FB7F89495
:102C7000892F90E0FC01EE0FFF1F8E0F9F1FFC01BC
:102C8000E752FC4F528341832FBFFF90EF90DF90BC
:102C9000CF9008950F931F93CF93DF9300D000D070
:102CA000CDB7DEB78FEF9FEFDC0189839A83AB83CB
:102CB000BC830091AC031091AD0342E050E060E0B2
:102CC00070E0C80109960E94AC1A41E050E060E053
:102CD00070E00E94AC1A46E050E060E070E00E94B4
:102CE000AC1A4CE0B80181E090E10E94B31ABE0139
:102CF0006F5F7F4F81E090E10E94C31A69817A8102
:102D00008B819C81709373076093720720E030E0A1
:102D1000A9010E940B1C69817A818B819C810F9093
:102D20000F900F900F90DF91CF911F910F91089509
:102D3000CF9390915E059C3008F052C0C82F61E09F
:102D40000E94791880915E05E82FF0E09F01220F24
:102D5000331FE20FF31FE752FC4FCF739081907C3B
:102D6000C92BC08310925F05109260056CE00E9431
:102D7000642C9CE0899FB001112440E050E09A014E
:102D8000260F371FF901EE0FFF1F2E0F3F1FF9010E
:102D9000E752FC4F908196FD16C04F5F5F4F4C305D
:102DA000510569F781110FC01092800082E0809375
:102DB00081001092850010928400B19A80916F007A
:102DC000826080936F00E0915E05F0E0CF01880F94
:102DD000991FE80FF91FE752FC4F808180648083C0
:102DE00080915E05CF910895CF93DF931F92CDB769
:102DF000DEB76983DC01ED91FC910280F381E02D67
:102E000041E050E0BE016F5F7F4F09950F90DF9169
:102E1000CF91089583E08093E9008091F2008823A8
:102E200019F08AE38093E8000895FC018485958574
:102E300097FD0BC09FB7F89482E08093E9008091E2
:102E4000F2009FBF90E0019608959FB7F89482E04A
:102E50008093E9008091F2009FBF90E0089590E098
:102E6000FC013197EF30F105B0F5EA5AFF4F0C94B1
:102E7000702C809180008F7703C0809180008F7DBF
:102E800080938000089580918000877FF9CF84B57A
:102E90008F7702C084B58F7D84BD089580919000A6
:102EA0008F7707C0809190008F7D03C08091900044
:102EB000877F8093900008958091C0008F7703C032
:102EC0008091C0008F7D8093C00008958091C200E2
:102ED000877F8093C20008953FB7F8948091880659
:102EE00090918906A0918A06B0918B0626B5A89B81
:102EF00005C02F3F19F00196A11DB11D3FBFBA2F8C
:102F0000A92F982F8827820F911DA11DB11DBC01EB
:102F1000CD0142E0660F771F881F991F4A95D1F7B0
:102F2000089508958F929F92AF92BF92CF92DF92B1
:102F3000EF92FF920F931F93CF93DF937C018B014E
:102F40006C0182E0C80ED11C4701E5E08E0E911C99
:102F5000C0E0D0E0F60141916F0150E060E070E028
:102F60002AE0C8010E94F9225C016EE2C8010E94B9
:102F7000DD228A0D9B1DC80FD91FC814D90451F733
:102F8000F701458150E060E070E02AE0C8010E944E
:102F9000F9228C0F9D1FDF91CF911F910F91FF9010
:102FA000EF90DF90CF90BF90AF909F908F9008955B
:102FB0000E949D0D90E00895CF93DF931F92CDB7AF
:102FC000DEB7FC018485958597FD05C02FEF3FEFA7
:102FD000358724870BC0CE0101960E94730D01979F
:102FE00019F4898190E002C08FEF9FEF0F90DF917D
:102FF000CF9108950F931F93CF93DF931F92CDB777
:10300000DEB78C01FC018485958597FF0EC0CE014B
:1030100001960E94730D019719F4298130E002C0D6
:103020002FEF3FEFF80135872487F80184859585D8
:103030000F90DF91CF911F910F9108950E94402D25
:10304000CF93DF93282F30E0F901EE50FE4F8491AB
:10305000F901E15EFD4FD491F901E25CFD4FC491AD
:10306000CC2391F081110E942F17EC2FF0E0EE0F8E
:10307000FF1FEC51FE4FA591B491EC91ED2381E03F
:1030800090E021F480E002C080E090E0DF91CF91F9
:1030900008951F93CF93DF93282F30E0F901EE506E
:1030A000FE4F8491F901E15EFD4FD491F901E25C9C
:1030B000FD4FC491CC23C9F0162F81110E942F1708
:1030C000EC2FF0E0EE0FFF1FEA52FE4FA591B491F6
:1030D0008FB7F894111105C09C91ED2FE095E9236D
:1030E00002C0EC91ED2BEC938FBFDF91CF911F913C
:1030F0000895CF93DF9390E0FC01E15EFD4F2491B2
:10310000FC01E25CFD4F8491882361F190E0880F1F
:10311000991FFC01EF5EFD4FC591D491FC01EA526D
:10312000FE4FA591B491611109C09FB7F8948881B1
:10313000209582238883EC912E230BC0623061F4AA
:103140009FB7F8943881822F809583238883EC91F0
:103150002E2B2C939FBF06C08FB7F894E8812E2B9F
:1031600028838FBFDF91CF9108958F929F92AF9266
:10317000BF92CF92DF92EF92FF926B017C010E948F
:103180006C174B015C01C114D104E104F104F1F0AE
:103190000E946C17DC01CB0188199909AA09BB09A7
:1031A000883E9340A105B10570F321E0C21AD10811
:1031B000E108F10888EE880E83E0981EA11CB11C7E
:1031C000C114D104E104F10419F7DDCFFF90EF90B1
:1031D000DF90CF90BF90AF909F908F9008958F9287
:1031E0009F92AF92BF92CF92DF92EF92FF920F9396
:1031F0001F93CF93DF935C016B017A0180910B01E8
:10320000882309F45BC080919903882309F456C090
:103210008091960380FF05C08091E00082608093DA
:10322000E000E70110E00AEF83E0882E9AE3992E90
:103230002097D9F10E949D0D81110AC0015009F417
:103240003DC061E070E080E090E00E94B518F0CFF2
:10325000282F30E0C217D3070CF48C2F4FB7F89407
:103260008092E9009091E80095FF1DC0282F30E082
:10327000C21BD30BF601982F915020F081918093BF
:10328000F100FACFC20ED31E112319F09092E8007C
:1032900009C08091E80085FD06C09092E80011E029
:1032A000209709F010E04FBFC3CF1111C3CF5D9835
:1032B00084E6809397031E141F0444F081E090E09D
:1032C000F5019383828380E090E001C0C701DF9124
:1032D000CF911F910F91FF90EF90DF90CF90BF9013
:1032E000AF909F908F9008952FB7F89460918406C7
:1032F0007091850680918606909187062FBF08956C
:103300001F920F920FB60F9211242F933F938F931A
:103310009F93AF93BF938091840690918506A0916F
:103320008606B09187063091830623E0230F2D3760
:1033300020F40196A11DB11D05C026E8230F0296B9
:10334000A11DB11D2093830680938406909385066A
:10335000A0938606B093870680918806909189068F
:10336000A0918A06B0918B060196A11DB11D809394
:10337000880690938906A0938A06B0938B06BF9126
:10338000AF919F918F913F912F910F900FBE0F9012
:103390001F901895823079F030F4882351F08130F5
:1033A00069F4E9980BC0833041F0843039F4EE9829
:1033B00005C0E89803C0EA9801C0EB98E82FF0E058
:1033C000EE0FFF1FE05FFE4F81E997E1918380835D
:1033D00008951F920F920FB60F9211242F933F93CF
:1033E0004F935F936F937F938F939F93AF93BF930D
:1033F000EF93FF93E0911801F09119010995FF9166
:10340000EF91BF91AF919F918F917F916F915F915C
:103410004F913F912F910F900FBE0F901F901895D5
:103420001F920F920FB60F9211242F933F934F9339
:103430005F936F937F938F939F93AF93BF93EF931C
:10344000FF93E0911601F09117010995FF91EF911B
:10345000BF91AF919F918F917F916F915F914F91AC
:103460003F912F910F900FBE0F901F9018951F92B4
:103470000F920FB60F9211242F933F934F935F93A8
:103480006F937F938F939F93AF93BF93EF93FF932C
:10349000E0911401F09115010995FF91EF91BF9111
:1034A000AF919F918F917F916F915F914F913F91DC
:1034B0002F910F900FBE0F901F9018951F920F9293
:1034C0000FB60F9211242F933F934F935F936F93F7
:1034D0007F938F939F93AF93BF93EF93FF93E0916D
:1034E0001201F09113010995FF91EF91BF91AF91F6
:1034F0009F918F917F916F915F914F913F912F910C
:103500000F900FBE0F901F9018951F920F920FB63D
:103510000F9211242F933F934F935F936F937F9359
:103520008F939F93AF93BF93EF93FF93E09110011D
:10353000F09111010995FF91EF91BF91AF919F918A
:103540008F917F916F915F914F913F912F910F904C
:103550000FBE0F901F901895FC014083518362832A
:10356000738304960895FB0121E025838683978366
:10357000408750E0BA016C5F7F4FCF010E9461210C
:1035800080E090E008959093A7038093A603CB0179
:103590000C949B11CF92DF92EF92FF92CF93DF9327
:1035A000EC011092CA031092CB031092CC0310923C
:1035B000CD031092CE031092CF031092D00310923D
:1035C000D1031092A7031092A6031092C303109286
:1035D000C2031092C5031092C4031092C703109245
:1035E000C6031092C9031092C8031092BE03109232
:1035F000BF031092C0031092C1031092A90310924E
:10360000A8031092AB031092AA03ADE7B5E0B09304
:10361000AD03A093AC0310929806109299061092F5
:103620009A0610929B0620E036E093E8F901892F74
:1036300011928A95E9F7FD0111929A95E9F786EAC8
:103640009EE19093930680939206109295061092B5
:10365000940610929D0610929C0630939F0620932C
:103660009E0610929706109296069EED9093820603
:103670009093FF05E091B803F091B9030995E091AB
:10368000B603F091B70309956B017C01E091BC038F
:10369000F091BD0381E00995CD28CE28CF2889F08F
:1036A000E091B603F091B7030995672B682B692B5E
:1036B000B9F76091AC037091AD03CD2BA9F480E014
:1036C00014C0E091B603F091B7030995672B682BFE
:1036D000692BB9F3E091B603F091B7030995672B15
:1036E000682B692BB9F7E5CF82E0FB01818741E0C8
:1036F00080E090E40E94B31A60E070E080E090E423
:103700000E94C31A6091AC037091AD0340E08BE05E
:1037100090E40E94B31A60E070E08BE090E4DF91E7
:10372000CF91FF90EF90DF90CF900C94C31AAF929F
:10373000BF92CF92DF92EF92FF920F931F93CF939E
:10374000DF93CDB7DEB728970FB6F894DEBF0FBE74
:10375000CDBF5C017B016A018FEF9FEF90937307F0
:1037600080937207673E710508F042C00091AC0378
:103770001091AD0388E0D80119968C9319971A9689
:103780001C921A971B961C921B971C961C92AB01BD
:1037900060E070E0C8010D960E94AC1AF501950139
:1037A0002E0D3F1DE217F30729F04191DC014D93E7
:1037B000CD01F8CF48E04E0DB80180E190E10E94C4
:1037C000B31ABE016F5F7F4F80E190E10E94C31A80
:1037D00089819A8190937307809372074D815E81EE
:1037E0006F817885F601408351836283738302C0C1
:1037F0008FEF9FEF28960FB6F894DEBF0FBECDBFB8
:10380000DF91CF911F910F91FF90EF90DF90CF90BC
:10381000BF90AF9008958F929F92AF92BF92CF9238
:10382000DF92EF92FF926830710581059105B0F546
:10383000223031054105510588F5E1E0F0E0062E22
:1038400002C0EE0FFF1F0A94E2F7E095F0956F01BA
:10385000FF0FEE08FF0880900C0190900D01A090E2
:103860000E01B0900F01C820D920EA20FB204901A9
:103870005A0104C0880C991CAA1CBB1C6A95D2F77B
:10388000D701C60188299929AA29BB2980930C014F
:1038900090930D01A0930E01B0930F01FF90EF9054
:1038A000DF90CF90BF90AF909F908F900895CF9270
:1038B000DF92EF92FF920F931F93CF93DF9300D08D
:1038C00000D0CDB7DEB76B017C018FEF9FEFDC013D
:1038D00089839A83AB83BC830091AC031091AD03C1
:1038E000B701A601C80109960E94AC1A44E0B801CC
:1038F0008BE090E10E94B31ABE016F5F7F4F8BE0B7
:1039000090E10E94C31A89819A81909373078093F2
:10391000720721E030E040E050E0C701B6010E94AC
:103920000B1C69817A818B819C810F900F900F9085
:103930000F90DF91CF911F910F91FF90EF90DF904B
:10394000CF9008950F931F93FC01E60FF71F43815B
:1039500050E060E070E0342F222711270027928189
:10396000492F50E060E070E0BA0155274427400F2E
:10397000511F621F731F8081480F511D611D711DF2
:10398000818190E0A0E0B0E0BA2FA92F982F88277E
:103990008A019B01080F191F2A1F3B1FC901B8018B
:1039A0001F910F910895FC01E60FF71F9181892F58
:1039B00090E0982F88272081820F911D08958F9283
:1039C0009F92AF92BF92CF92DF92EF92FF920F93AE
:1039D0001F93CF93DF93CDB7DEB765970FB6F894FB
:1039E000DEBF0FBECDBF8C0161E070E00E94D31C32
:1039F0006C01E12CF12C96FF69C0811521E492073E
:103A000009F064C065E070E0C8010E94D31C4C015D
:103A1000095F1F4FA12CB12CC12CD12C7601A81409
:103A2000B90479F062E070E0C8010E94D31CC80EAE
:103A3000D91EE11CF11C0C5F1F4F8FEFA81AB80AAA
:103A4000EECF8091C2039091C3038C0D9D1D909386
:103A5000C3038093C2038091CE039091CF03A091C2
:103A6000D003B091D103C80ED91EEA1EFB1EC0922E
:103A7000CE03D092CF03E092D003F092D1034091D5
:103A8000CE035091CF036091D0037091D103809108
:103A9000CA039091CB03A091CC03B091CD034817FA
:103AA00059076A077B0709F025C18091D203882353
:103AB00009F420C1E091B403F091B50320E040E0A7
:103AC00050E069E970E080E090E0D3C097FFD3C098
:103AD0008034E0E89E0709F46DC0C0F4843020E82B
:103AE000920709F4B6C030F481509048029708F06C
:103AF00017C1AFC08031904809F012C1D8011596A6
:103B0000FE013196CE010596AF011AC0811524E859
:103B1000920709F49EC050F48038F0E89F0709F43A
:103B200098C08115924809F494C0FAC08115E8E85C
:103B30009E0709F47EC08115994809F48AC0F0C037
:103B40002D912193E817F907D9F7F80181858D8325
:103B500082858E8383858F83848588873D96DE0169
:103B60001996C801419621912D93E817F907D9F7C5
:103B7000DE011D96C801459621912D93E817F9079E
:103B8000D9F7DE015196C801499621912D93E81786
:103B9000F907D9F7F80184818D8B8091B403909156
:103BA000B503892B09F4A6C0E091B403F091B503E5
:103BB00025E15DC00B5F1F4F60E070E0C8010E940F
:103BC000A21C69837A838B839C8364E070E0C801C4
:103BD0000E94A21C6D837E838F83988768E070E0CB
:103BE000C8010E94A21C69877A878B879C876CE03A
:103BF00070E0C8010E94A21C6D877E878F87988B1A
:103C000060E170E0C8010E94A21C698B7A8B8B8BEB
:103C10009C8B8091B4039091B503892B09F46AC001
:103C2000E091B403F091B50324E1AE014F5F5F4F23
:103C30001EC08091B4039091B503892B09F45AC03A
:103C4000E091B403F091B503A8014B5F5F4F21E011
:103C50000EC08091B4039091B503892B09F44AC03A
:103C6000E091B403F091B50320E040E050E0C701DB
:103C7000B60109953FC0F3E0CF16F0E1DF06E1049D
:103C8000F10421F08E5090410297C8F5780125E0AB
:103C9000E20EF11C64E070E0C7010E94A21C673CC8
:103CA0007F4F8F4F9F4FE1F5F801848190E0A0E0B6
:103CB000B0E08093BE039093BF03A093C003B09382
:103CC000C10360E070E0C7010E94A21C4B015C01CF
:103CD00064E070E0C7010E94A21C673C7F4F8F4FD9
:103CE0009F4F41F421E030E040E050E0C501B401D5
:103CF0000E940B1C61E070E080E090E014C08091B5
:103D0000A6039091A703A0E0B0E0C816D906EA0682
:103D1000FB0631F0C11420E1D206E104F10451F7B1
:103D200060E070E0CB0165960FB6F894DEBF0FBE81
:103D3000CDBFDF91CF911F910F91FF90EF90DF905A
:103D4000CF90BF90AF909F908F90089521E030E08A
:103D50003093A9032093A8039093AB038093AA0305
:103D60008091A8039091A903892BA9F08091AA03BF
:103D70009091AB03FC012081243069F40E94DF1C88
:103D8000613071058105910531F41092A9031092FB
:103D9000A8030C94572108958091D7030E942018FE
:103DA000892B49F480917C05811105C080917B05A8
:103DB00081110C942A2008958F929F92AF92BF9206
:103DC000CF92DF92EF92FF920F931F93CF93DF93E7
:103DD0008B01BA01E90123E0F80125838683CE0136
:103DE000029687839087C8010B96C93EF3E0DF07F0
:103DF000C0F4F801C187D287AE010E94452DBE01F3
:103E00006A5F7F4FC801DF91CF911F910F91FF90A3
:103E1000EF90DF90CF90BF90AF909F908F900C94D9
:103E2000612138EEF8013187228728EE33E0FA016C
:103E3000DC0101900D9221503040D9F7C85ED3408B
:103E40006A01F8E1CF1AFCEFDF0A6EEE73E0C801F9
:103E50000E946121480127E0820E911C580135E043
:103E6000A30EB11C0E94CC1EC93E83E0D80738F0D7
:103E7000C85ED34088EEE82E83E0F82E03C07E01B2
:103E8000C0E0D0E0F801F682E582A701B601C401E6
:103E90000E94452DCE0CDF1CB7016E5F7F4FC50120
:103EA0000E9461212097F1F6DF91CF911F910F9130
:103EB000FF90EF90DF90CF90BF90AF909F908F904A
:103EC0000895FC01108211821282138280E090E03A
:103ED0000895FC01108211821282138280E090E02A
:103EE0000895FC01108211821282138280E090E01A
:103EF00008952CB5237F24602CBD680F791F23E023
:103F00008617970751F02EBD00000DB407FEFDCFB8
:103F10003EB5FC013193CF01F3CF0895680F791FAF
:103F20008617970751F0FC012191CF012EBD0000AB
:103F30000DB407FEFDCF2EB5F3CF089580918D0609
:103F4000882361F09FB7F89420918D0680917107C6
:103F5000213019F48DBB9FBF08958FBF0895209124
:103F60008D06222399F04FB7F89420918D062130C9
:103F700059F42DB3209371073DB320918C06209501
:103F800023232DBB4FBF02C0409371078CBD9DBD45
:103F90000895CF93DF931F92CDB7DEB76983DC011D
:103FA000ED91FC910280F381E02D41E050E0BE01F3
:103FB0006F5F7F4F09950F90DF91CF910895AF927A
:103FC000BF92CF92DF92EF92FF920F931F93CF9306
:103FD000DF936B015A01EC0124967C012DEFE20E78
:103FE000F11C00E010E0E881F9810688F789E02DF6
:103FF000CE010995882359F0E881F9810280F38187
:10400000E02DA501B601CE010995080F191FCD5A63
:10401000DF4FCE15DF0539F7C801DF91CF911F9132
:104020000F91FF90EF90DF90CF90BF90AF900895E9
:10403000882311F061E001C060E08091D6030C9408
:10404000491810927B058091D503853010F40C94AB
:10405000CA1908950F931F93CF93DF9381E0809344
:104060007C058091980690919906A0919A06B0914E
:104070009B060097A105B10569F481E090E0A0E0FE
:10408000B0E08093980690939906A0939A06B09317
:104090009B06F3C082309105A105B10509F0BFC0B0
:1040A00086E090E0A0E0B0E08093980690939906B7
:1040B000A0939A06B0939B068CB5809391068DB51C
:1040C00081708093900680918F068CBD80918E06C2
:1040D000882319F08DB5816002C08DB58E7F8DBDAE
:1040E00084E591E00E94AF1F60E08091D8030E94B8
:1040F00049186AE070E080919E0690919F060E94A8
:10410000791F88E090E0A0E0B0E08093980690935B
:104110009906A0939A06B0939B06C0919E06D091F3
:104120009F068D81823019F08430E1F03EC063E05B
:1041300070E0CE0105960E94D31C9C01BC0180E07A
:1041400090E020FD05C06F5F7F4F8F4F9F4F05C0F0
:10415000611571058105910541F1CE010A960E9414
:10416000791F23C0088510E020E030E0C901B801C4
:10417000615071098109910960FF02C0C901B8014C
:10418000611571058105910521F0CE010A960E9405
:10419000791F88E090E0A0E0B0E0809398069093CB
:1041A0009906A0939A06B0939B0610927B05809186
:1041B000D503853010F40E94CA1961E08091D803BC
:1041C0000E9449180E949E1F809191068CBD80918B
:1041D0009006882319F08DB5816002C08DB58E7F61
:1041E0008DBD80919E0690919F06FC01EE57FF4F7A
:1041F00020812E3D09F0FFCF42E050E060E070E00A
:10420000409398065093990660939A0670939B0684
:10421000E0919206F0919306059609952EC00397BA
:10422000A105B10551F560919406709195068091B4
:104230009C0690919D060E948E1F82E090E0A0E077
:10424000B0E08093980690939906A0939A06B09355
:104250009B0661E08091D8030E9449180E949E1F2E
:10426000809191068CBD80919006882319F08DB5C0
:10427000816002C08DB58E7F8DBD10927C05DF916F
:10428000CF911F910F91089581E080937B058091DC
:10429000D503853010F40C945C1108958091D703F8
:1042A0000E942018BC01990F880B990B089581E09A
:1042B00080937B058091D503853010F40C945C11BC
:1042C00008950F931F93CF93DF93EC01CB0181707F
:1042D000992721E0822721E028838C01060F171FF0
:1042E00019838170860F8A831B821C828091FF054F
:1042F0008E3D09F0FFCF8091980690919906A0918C
:104300009A06B0919B060097A105B10509F4FFCF6D
:104310000197A105B10509F056C08CB580939106AF
:104320008DB581708093900680918F068CBD8091B1
:104330008E06882319F08DB5816002C08DB58E7F01
:104340008DBD84E591E00E94AF1F60E08091D803AD
:104350000E94491861E070E080E090E00E94B5188A
:1043600064E070E0CE010E948E1F61E070E080E0AA
:1043700090E00E94B518B8016F5F7F4FCE010496A0
:104380000E948E1F82E090E0A0E0B0E0809398064B
:1043900090939906A0939A06B0939B0661E0809152
:1043A000D8030E9449180E949E1F809191068CBDDF
:1043B00080919006882319F08DB5816002C08DB57B
:1043C0008E7F8DBD7FC0E091BA03F091BB0309954C
:1043D0008091980690919906A0919A06B0919B06BB
:1043E00082309105A105B105D9F783E090E0A0E006
:1043F000B0E08093980690939906A0939A06B093A4
:104400009B06D0939D06C0939C060B5F1F4F109395
:104410009506009394068CB5809391068DB58170B6
:104420008093900680918F068CBD80918E068823A4
:1044300019F08DB5816002C08DB58E7F8DBD84E58C
:1044400091E00E94AF1F60E08091D8030E9449185C
:10445000E091B803F091B9030995E091B603F091AA
:10446000B7030995672B682B692B61F5609194065A
:104470007091950680919C0690919D060E948E1FDA
:1044800082E090E0A0E0B0E08093980690939906D7
:10449000A0939A06B0939B0661E08091D8030E9496
:1044A00049180E949E1F809191068CBD80919006B4
:1044B000882319F08DB5816002C08DB58E7F8DBDCA
:1044C0000E9444218091980690919906A0919A06A5
:1044D000B0919B0682309105A105B105D9F760E046
:1044E00070E0CB01DF91CF911F910F910895CF9292
:1044F000DF92EF92FF920F931F93CF93DF936C01A4
:104500007A018B01C0E0D0E0CE15DF0589F0D8013B
:104510006D918D01D601ED91FC910190F081E02D1E
:10452000C6010995892B11F47E0102C02196ECCFBA
:10453000C701DF91CF911F910F91FF90EF90DF9016
:10454000CF9008954091920350919303209190034E
:104550003091910342175307B4F49091E80095709D
:10456000E1F39091E80092FD19C08093F1008091F1
:1045700092039091930301968F739927892B19F4D5
:104580008EEF8093E80080919203909193030196BF
:10459000909393038093920381E0089580E00895BF
:1045A000615030F02091F100FC0120830196F8CF9A
:1045B000289884E6809398030895DC01ED91FC919E
:1045C0000190F081E02D09946115710579F0FB01EE
:1045D00001900020E9F73197AF01461B570BDC0132
:1045E000ED91FC910280F381E02D099480E090E050
:1045F00008954F925F926F927F92EF92FF920F9386
:104600001F93CF93DF93CDB7DEB7A1970FB6F89482
:10461000DEBF0FBECDBF7C01FA01CB0119A2223053
:1046200008F42AE08E010F5D1F4F422E512C612CA1
:10463000712CBF01A30192010E94332CF901CA0120
:10464000015011096A3014F4605D01C0695CD80141
:104650006C93232B242B252B61F7B801C7010E94F3
:10466000E422A1960FB6F894DEBF0FBECDBFDF9156
:10467000CF911F910F91FF90EF907F906F905F907F
:104680004F9008958091FE039091FF030E947A2A33
:1046900080910404909105040C947A2ACF92DF92C1
:1046A000EF92FF920F931F93CF93DF931F92CDB79B
:1046B000DEB7182F062FE42E862F880F8E5F998382
:1046C0000E94A22283E00E94A222F12EC12E998193
:1046D000D92E8C2D8F19801798F4F601E7FE02C0B1
:1046E000849101C080810E94A222182F80E00E9444
:1046F000A2228123FFEFCF1ADF0A8111EACF01C086
:1047000081E00F90DF91CF911F910F91FF90EF907B
:10471000DF90CF9008958DEE91E09093680580939F
:1047200067051092690510926A0510926B05109248
:104730006C051092100510920F0548EE53E060E0F2
:1047400070E0409311055093120560931305709328
:10475000140523E731E030930E0520930D052FEF6C
:104760003FEF30931A052093190590936E058093BF
:104770006D0510926F0510927005109271051092E0
:1047800072059093740580937305109275051092CD
:1047900076051092770510927805909362058093C4
:1047A00061051092630510926405109265051092E0
:1047B00066058091FD038C30A0F491E0980F9093F2
:1047C000FD0380935E0590E0FC01EE0FFF1F8E0F4E
:1047D0009F1FFC01E752FC4F88EB9BE09283818393
:1047E00003C08FEF80935E0510925D058AE0809391
:1047F000D80387E08093D70385E08093D6038FEFBB
:104800008093D50384E08093D4031092D3038DE08A
:1048100095E090937A058093790510920D0410929B
:104820000C0483ED91E090930B0480930A041092A2
:1048300011041092100448EE53E060E070E04093E1
:10484000120450931304609314047093150425EB21
:1048500031E030930F0420930E048FEF9FEFDC01C3
:1048600080935D0490935E04A0935F04B093600412
:10487000109264041092630440936504509366049C
:10488000609367047093680430936204209361041A
:104890008093B0049093B104A093B204B093B30496
:1048A0001092B7041092B6044093B8045093B90420
:1048B0006093BA047093BB043093B5042093B4049E
:1048C0008093030590930405A0930505B093060516
:1048D0002FEF30E0309308052093070580930905FA
:1048E00090930A05A0930B05B0930C056FE172E05D
:1048F00084E094E00E94E70D6FE172E08EEF93E0B8
:104900000C94E70DCF93DF93CDB7DEB7C355D10934
:104910000FB6F894DEBF0FBECDBF789484B5826029
:1049200084BD84B5816084BD85B5826085BD85B553
:10493000816085BD80916E00816080936E001092D1
:10494000810080918100826080938100809181004C
:1049500081608093810080918000816080938000DD
:10496000809191008260809391008091910081609C
:10497000809391008091900081608093900080915D
:10498000C10084608093C1008091C10082608093E7
:10499000C1008091C10081608093C1008091C300FB
:1049A00081608093C3008091C00082608093C000CA
:1049B0008091C20081608093C20080917A008460FF
:1049C00080937A0080917A00826080937A0080914F
:1049D0007A00816080937A0080917A008068809369
:1049E0007A00109299031092950310929603809189
:1049F000D70081608093D70080EA8093D80089B582
:104A0000806189BD89B5826089BD09B400FEFDCF92
:104A100061E070E080E090E00E94B5188091D800DD
:104A20008F7C80618093D8008091E000807F8093AC
:104A3000E0008091E1008E7E8093E1008DE0809324
:104A4000E200559A209AEEEFFFE7859194918B3F13
:104A50009C4D19F481E0809394038FEF9FEF909326
:104A60001A05809319058CE090E00E94981680E06A
:104A700090E00E94C6156AEF70E080E090E00E942E
:104A8000B518E0915E05F0E0CF01880F991FE80F9F
:104A9000F91FE752FC4F80818F7B808360E272E0D8
:104AA000CE0101960E94E70DBE016F5F7F4F84E04B
:104AB00094E00E94AE0D89819A810E947A2A63E374
:104AC00072E0CE0101960E94E70DBE016F5F7F4F3D
:104AD0008EEF93E00E94AE0D89819A810E947A2A1E
:104AE00061E08DE00E94791880915D05811150C1CF
:104AF0008091D703882351F0813051F0823051F0FA
:104B0000833051F0873051F08FEF09C082E007C049
:104B100083E005C081E003C080E001C084E08093B1
:104B2000D50361E08091D6030E94791860E08091FE
:104B3000D6030E94491864EF71E080E090E00E9483
:104B4000B51861E08091D8030E94791862E08091E5
:104B5000D7030E9479188CB5809391068DB581702A
:104B6000809390061FB7F8948091E706811127C0C3
:104B7000EFE4F2E08491E0E3F2E09491E82FF0E0DA
:104B8000EE0FFF1FEF5EFD4FA591B491EC91E9236D
:104B900021F461E081E10E94491861E081E10E9415
:104BA00079188CB580618CBD8CB580648CBD61E05A
:104BB0008FE00E94791861E080E10E94791880916D
:104BC000E7068F5F8093E7061FBF8CB5837F846005
:104BD0008CBD8CB58F7D8CBD8091D4039CB5282F66
:104BE00023709C7F922B9CBD2DB582FB992790F959
:104BF000822F8E7F892B8DBD8CB580938F068DB5CE
:104C0000817080938E068091D5039FB7F89482308F
:104C100069F030F4882399F0813061F482E010C0AB
:104C2000833031F0843031F480E40AC084E008C07D
:104C300088E006C082E080938D0680E001C081E0BC
:104C400020918C06822B80938C0680918D06811199
:104C500003C081E080938D069FBF61E08091D803FF
:104C60000E944918809191068CBD809190068823FE
:104C700019F08DB5816002C08DB58E7F8DBD81E646
:104C80009FE19093AF038093AE0381E79FE1909300
:104C9000B1038093B00389E69FE19093B3038093BF
:104CA000B2038EE491E29093B7038093B60384E459
:104CB00091E29093B9038093B80381E290E29093DC
:104CC000BB038093BA0388E190E29093BD03809385
:104CD000BC0381EB96E09093B5038093B40311E09D
:104CE0001093D20380E090E00E94CA1A60E070E066
:104CF000CB010E943A15E091AC03F091AD038FEF28
:104D0000818712861386148688248A94982C5401ED
:104D100089829A82AB82BC8244E0BF0186E090E047
:104D20000E94B31ABE016F5F7F4F86E090E00E9441
:104D3000C31A1093D20389829A82AB82BC82A0905C
:104D4000AC03B090AD0344E052E860E070E0C50110
:104D500009960E94AC1A44E0B50188E090E00E94F8
:104D6000B31ABE016F5F7F4F88E090E00E94C31AC4
:104D700089819A81AB81BC81892B8A2B8B2B19F479
:104D800010935D0505C08DE592E00E945011FFCFA4
:104D900080915D05882351F160EA7FE080E090E03A
:104DA0000E94AA14882311F164E971E180E090E087
:104DB0000E94B518E091AC03F091AD031186128604
:104DC0001386148644E0BF0187E090E00E94B31A86
:104DD00068EE76E087E090E00E94C31AC090E80693
:104DE000D090E906E090EA06F090EB068FE392E0BF
:104DF0000E94C1152AE0B701A6018DE095E00E944E
:104E0000F9220E94D51081E592E00E949F15C114FD
:104E1000D104E104F10409F451C081E0C81AD108B9
:104E2000E108F108A090F006B12CB594A794009188
:104E3000F106902F9370B92E10E0159507951595F2
:104E40000795A80164EF76E0CE0101960E94552DEA
:104E5000E1E0F0E0EC0FFD1FE00FF11F1082E091A8
:104E6000AC03F091AD03118612861386148644E0DC
:104E7000BF0187E090E00E94B31A68EE76E087E019
:104E800090E00E94C31A8BE992E00E94C115CE0106
:104E900001960E94C1150E94D51088EA92E00E94F6
:104EA000C1158A2D0E94AE1580EB92E00E94C115BB
:104EB0008B2D0E94AE150E94D510A9CF81E592E0FE
:104EC0000E949F1560E070E0CB010E94AA140E942E
:104ED00006088AE094E00E946B0280E090E00E9465
:104EE000C61560E0862E60E0962E79EF272E71E0E1
:104EF000372E80915D05882301F18FEF9FEFDC0154
:104F000089839A83AB83BC836091AC037091AD03BA
:104F100040E089E090E00E94B31ABE016F5F7F4FCE
:104F200089E090E00E94C31A89819A81AB81BC819B
:104F30000397A105B10509F444C00E94D51084E38C
:104F400093E00E949F150E94D51060E08DE00E94C2
:104F5000491880915D05882391F1E091BC03F0919F
:104F6000BD0380E00995E091B603F091B703099580
:104F7000672B682B692BB9F38091AC039091AD033B
:104F8000892B21F01092AD031092AC0380919E0604
:104F900090919F06892B21F010929F0610929E06F9
:104FA000E091BA03F091BB03099568E873E180E0F2
:104FB00090E00E94B51880E090E00E94CA1A0E941A
:104FC00006080AE514E0C8018C549109DC01ED9152
:104FD000FC910688F789E02D0995811154C00E9443
:104FE000CC1E4090090550900A0560900B0570900A
:104FF0000C05E090AC03F090AD03B301A201C70132
:1050000009960E94AC1A44E0B70185E090E10E9445
:10501000B31ABE016F5F7F4F85E090E10E94C31A13
:10502000AD80BE80B0927307A092720765010B2C11
:10503000000CEE08FF08B8E0CB16D104E104F1043F
:1050400030F420E030E0A901C701B60106C021E03C
:1050500030E040E050E0C301B2010E940B1CB7FCFD
:1050600012C0F801C382D482E582F68212821182D4
:105070001082FE013D96D801A054B10980E4019050
:105080000D928A95E1F70D5A1F4FF5E003351F0782
:1050900009F099CF5EE0E52E54E0F52E00E010E037
:1050A000D701ED91FC910688F789E02DC70109959C
:1050B000882309F47FC1D701ED91FC910084F1852B
:1050C000E02DC7010995181619060CF073C1802F41
:1050D000082F082E000C110B8F3F09F464C11C82AD
:1050E0001B8288EE93E0A0E0B0E08D839E83AF83C7
:1050F000B8873A822982A3E5A09FC001A19F900DA5
:105100001124825F9B4F9E878D8740E5E42E47E008
:10511000F42E0E94741969877A878B879C87CE0149
:1051200001960E94CF0197FD1CC0F70181937F017A
:10513000F1E7EF16F7E0FF0661F7809150078093E3
:105140002B078091510780932C07482F50E02AE1CC
:10515000281B20932A07DA01A35DB84F80E090E076
:1051600016C00E94741949845A846B847C84DC01C3
:10517000CB0184199509A609B7094D805E806F801F
:10518000788484159505A605B70548F2D6CF8430F6
:10519000910549F0FC01E40FF51FE05BF84F228117
:1051A0002D930196F4CF20912A0730E080E090E023
:1051B000821793076CF4DC01A65DB84FFC01E40F85
:1051C000F51FE05BF84F678118966C930196F0CF5E
:1051D000C0902B07D12CE0902D07F12C81EC92E0B0
:1051E0000E94C115C6010E94A10A89EC92E00E94AA
:1051F000C11580912C070E94AE1589ED92E00E94A6
:10520000C11560912E0770912F0780913007909102
:1052100031070E946E0A83EE92E00E94C115C70119
:105220000E94A10A80912B07823009F441C083308B
:1052300009F45EC0813009F0B3C089EE92E00E94AB
:105240009F158CE38093C2060E94BC2B6093C50619
:105250007093C6068093C7069093C806000F111F6F
:10526000000F111FF801E65EF84F6083718382839F
:10527000938380E090E00E94CA0741E250E060EA38
:1052800076E0CE0101960E949C018EEF92E00E9492
:105290009F1583E193E00E94C1156091C50670914E
:1052A000C6068091C7069091C8060E946E0A78C013
:1052B00089EE92E00E949F1580912A070E94AE1508
:1052C00083E293E00E949F1500E010E080912A079E
:1052D00090E0081719070CF063C0F801E65DF84F7D
:1052E00060858DE095E00E94DD220F5F1F4FEECFBD
:1052F00089EE92E00E949F1580E48093C20680911F
:1053000032078093C906809133078093CA06809143
:1053100034078093CB06809135078093CC0680912B
:1053200036078093CD06809137078093CE06809113
:1053300038078093CF06809139078093D00688E0A4
:1053400090E00E94CA078CE090E00E94981680E5E9
:1053500090E00E94C61541E250E060EA76E08AE003
:1053600094E00E94DF1F6AEF70E080E090E00E940E
:10537000B51880E090E00E94C6156AEF70E080E00A
:1053800090E00E94B518E0915E05F0E0CF01880F33
:10539000991FE80FF91FE752FC4F80818F7B8083B4
:1053A0009FEF90932B078114910409F4A2CD0E94E2
:1053B00000009FCD0F5F1F4FA3E5EA0EF11C0330E5
:1053C000110509F06DCE8FEF83CECF93DF9382303E
:1053D000910510F482E090E0E0917607F091770774
:1053E00020E030E0C0E0D0E0309711F14081518101
:1053F00048175907C0F04817590761F48281938113
:10540000209719F09B838A832BC090937707809312
:10541000760726C02115310519F04217530718F4F5
:105420009A01BE01DF01EF010280F381E02DDCCFA4
:105430002115310509F1281B390B2430310590F471
:1054400012968D919C9113976115710521F0FB01C6
:105450009383828304C09093770780937607FD013E
:10546000329644C0FD01E20FF31F819391932250C5
:1054700031092D933C933AC0209174073091750700
:10548000232B41F420911C0130911D0130937507AD
:105490002093740720911A0130911B0121153105C9
:1054A00041F42DB73EB740911E0150911F01241BBE
:1054B000350BE0917407F0917507E217F307A0F43C
:1054C0002E1B3F0B2817390778F0AC014E5F5F4F5A
:1054D0002417350748F04E0F5F1F50937507409310
:1054E00074078193919302C0E0E0F0E0CF01DF9177
:1054F000CF9108950F931F93CF93DF93009709F4F3
:105500008CC0FC01329713821282009176071091B1
:1055100077070115110581F420813181820F931FD6
:1055200020917407309175072817390779F5F093A2
:105530007507E093740771C0D80140E050E0AE17E2
:10554000BF0750F412962D913C911397AD01211590
:10555000310509F1D901F3CF9D01DA0133832283AB
:1055600060817181860F971F8217930769F4EC01A0
:1055700028813981260F371F2E5F3F4F31832083CB
:105580008A819B8193838283452B29F4F09377074B
:10559000E093760742C01396FC93EE931297ED01C9
:1055A000499159919E01240F351FE217F30771F4B9
:1055B00080819181840F951F029611969C938E9302
:1055C0008281938113969C938E931297E0E0F0E092
:1055D000D80112968D919C911397009719F0F801BC
:1055E0008C01F6CF8D919C9198012E5F3F4F820FD9
:1055F000931F20917407309175072817390769F4B4
:10560000309729F4109277071092760702C0138220
:1056100012821093750700937407DF91CF911F9149
:105620000F9108958F929F92AF92BF92CF92DF9287
:10563000EF92FF92CF93DF93EC01688179818A81A9
:105640009B81611571058105910521F464E279ED75
:105650008BE597E02DE133EF41E050E00E94CA2B4B
:1056600049015A019B01AC01A7EAB1E40E94E92B70
:105670006B017C01ACEEB4EFA50194010E94F72B05
:10568000DC01CB018C0D9D1DAE1DBF1DB7FF03C0FE
:105690000197A109B04888839983AA83BB839F7728
:1056A000DF91CF91FF90EF90DF90CF90BF90AF90C0
:1056B0009F908F9008950E94122B089580E291E0B0
:1056C0000E94122B0895A0E0B0E0809320019093F7
:1056D0002101A0932201B093230108958F929F92FC
:1056E000AF92BF92CF92DF92EF92FF92CF93DF9370
:1056F000EC01688179818A819B8161157105810541
:10570000910521F464E279ED8BE597E02DE133EF2B
:1057100041E050E00E94CA2B49015A019B01AC01B3
:10572000A7EAB1E40E94E92B6B017C01ACEEB4EF77
:10573000A50194010E94F72BDC01CB018C0D9D1D6E
:10574000AE1DBF1DB7FF03C00197A109B0488883F4
:105750009983AA83BB83BC01CD019F77DF91CF9151
:10576000FF90EF90DF90CF90BF90AF909F908F9081
:1057700008950E946E2B089584E291E00E946E2BA2
:1057800008956093240170932501809326019093DE
:1057900027010895052E97FB1EF400940E94E12B2B
:1057A00057FD07D00E94332C07FC03D04EF40C9415
:1057B000E12B50954095309521953F4F4F4F5F4FCE
:1057C000089590958095709561957F4F8F4F9F4F6D
:1057D00008950E94552CA59F900DB49F900DA49FF5
:1057E000800D911D11240895B7FF0C94E92B0E94A0
:1057F000E92B821B930B08952F923F924F925F9259
:105800006F927F928F929F92AF92BF92CF92DF92D0
:10581000EF92FF920F931F93CF93DF93CDB7DEB735
:10582000CA1BDB0B0FB6F894DEBF0FBECDBF0994C9
:105830002A88398848885F846E847D848C849B8420
:10584000AA84B984C884DF80EE80FD800C811B812E
:10585000AA81B981CE0FD11D0FB6F894DEBF0FBE5D
:10586000CDBFED010895A1E21A2EAA1BBB1BFD01BD
:105870000DC0AA1FBB1FEE1FFF1FA217B307E4072F
:10588000F50720F0A21BB30BE40BF50B661F771F87
:10589000881F991F1A9469F7609570958095909567
:1058A0009B01AC01BD01CF010895A29FB001B39F40
:1058B000C001A39F700D811D1124911DB29F700D19
:1058C000811D1124911D0895991B79E004C0991F31
:1058D000961708F0961B881F7A95C9F7809508954A
:1058E000EE0FFF1F0590F491E02D0994A0E0B0E0C9
:1058F000ECE7FCE20C94002CEC01009721F4CB01C6
:105900000E94E529B8C0FC01E60FF71F9C01225058
:105910003109E217F30708F4ACC0D9010D911C91CD
:10592000119706171707B0F00530110508F49FC04E
:10593000C80104978617970708F499C00250110907
:10594000061B170B019311936D937C93CF010E945B
:105950007A2A8DC05B01A01AB10A4C01800E911EFB
:10596000A0917607B091770740E050E0E12CF12C50
:10597000109709F44AC0A815B905D1F56D907C902F
:105980001197630182E0C80ED11CCA14DB0480F1B8
:10599000A3014A195B096A0182E0C80ED11C129664
:1059A000BC9012971396AC91B5E0CB16D10440F0A1
:1059B000B282A38351834083D9016D937C930AC043
:1059C0000E5F1F4FC301800F911FF90191838083E8
:1059D000EB2DFA2FE114F10431F0D7011396FC936B
:1059E000EE93129744C0F0937707E09376073FC099
:1059F0008D919C9111974817590708F4AC017D01CE
:105A000012960D90BC91A02DB3CF80917407909108
:105A1000750788159905E1F446175707C8F4809172
:105A20001A0190911B01009741F48DB79EB74091E8
:105A30001E0150911F01841B950BE817F907C8F44C
:105A4000F0937507E0937407F901718360830FC0C9
:105A5000CB010E94E5297C01009759F0A801BE0105
:105A60000E94452DCE010E947A2AC70104C0CE01B2
:105A700002C080E090E0CDB7DEB7EEE00C941C2CC5
:105A800081E090E0F8940C94642DFB01DC0102C0ED
:105A900001900D9241505040D8F70895FB01DC0170
:105AA00001900D920020E1F70895FB01DC014150C7
:105AB000504048F001900D920020C9F701C01D929E
:105AC00041505040E0F7089511E0C2E4D1E004C035
:105AD000FE010E94702C2196C334D107C9F7F894B7
:025AE000FFCFF6
