:100000000C9443010C9466190C943F190C94181924
:100010000C94F1180C946B010C946B010C94CA189D
:100020000C946B010C946B010C943E0D0C94B00D70
:100030000C946B010C946B010C946B010C946B0190
:100040000C946B010C946B010C946B010C946B0180
:100050000C946B010C946B010C946B010C94611863
:100060000C946B010C946B010C946B010C946B0160
:100070000C946B010C946B010C946B010C946B0150
:100080000C946B010C946B010C946B010C946B0140
:100090000C946B010C946B010C946B010C946B0130
:1000A0000C946B010C946B010C946B016E16711621
:1000B000601664166A1692169216921675167916BE
:1000C0007D168316871692168D160A444E53736555
:1000D00072763A20000A444843507372763A200000
:1000E0000A476174657761793A20000A4E65746D3C
:1000F00061736B3A20000A495020416464723A20CF
:1001000000556E61626C6520746F2072657472694F
:100110006576652074686520495020416464726585
:100120007373210D0A00526571756573742044481C
:10013000435000436F6E6E656374656421004661D1
:10014000696C656421000A417474656D7074696E30
:100150006720746F20636F6E6E65637420746F2008
:1001600000080B0002020201000904000001020263
:1001700000000524001001052401010104240206E9
:100180000524060001070581031000400904010051
:10019000020A000000070502024000000705830272
:1001A0004000000403090412010002EF0201404173
:1001B00023368000010102030141726475696E6F8C
:1001C000204C4C430041726475696E6F204C656F22
:1001D0006E6172646F0000000000240027002A0096
:1001E0002D003000040802011040804010204080A3
:1001F000408008020401804020100201108010207D
:100200004040200404040404030405020202020422
:1002100003020202020606060606060404020202A1
:100220000404436F756C646E277420626567696EA1
:1002300028292120436865636B20796F75722077C8
:100240006972696E673F0000000000250028002BDE
:10025000002E003100000000002300260029002CA1
:10026000002F000000000200090F0000030401003D
:100270000C00000000000000000000000000000072
:1002800000008227232211241FBECFEFDAE0DEBF59
:10029000CDBF13E0A0E0B1E0ECE9F7E502C00590C6
:1002A0000D92A634B107D9F727E0A6E4B3E001C068
:1002B0001D92A534B207E1F711E0C2E4D1E004C019
:1002C0002197FE010E94CD2AC134D107C9F70E94AF
:1002D0006C220C94C12B0C940000DC011C968D91B7
:1002E0009C911D97009739F0DC01ED91FC910488F9
:1002F000F589E02D09940895DC011C968D919C915F
:100300001D97009739F0DC01ED91FC910680F78193
:10031000E02D09940895DC011C968D919C911D9708
:10032000009739F0DC01ED91FC910484F585E02D16
:10033000099480E090E00895DC011C968D919C91D9
:100340001D97009739F0DC01ED91FC910280F3815B
:10035000E02D099480E090E00895DC011C968D91D9
:100360009C911D97009739F0DC01ED91FC9102887A
:10037000F389E02D099480E090E00895DC011C965B
:100380008D919C911D97009739F0DC01ED91FC91C6
:100390000084F185E02D099480E090E00895DC016F
:1003A0001C968D919C911D97009739F0DC01ED9181
:1003B000FC910284F385E02D099480E090E008959B
:1003C000DC011C968D919C911D97009739F0DC0102
:1003D000ED91FC910190F081E02D099480E090E096
:1003E0000895DC011C968D919C911D97009739F022
:1003F000DC01ED91FC910688F789E02D099480E0FD
:100400000895DC011C968D919C911D97009739F001
:10041000DC01ED91FC910088F189E02D099480E0E8
:1004200090E00895EF92FF920F931F93CF93DF9385
:1004300000D000D000D0CDB7DEB7FC018485958513
:100440000097D9F0DB01FC0120813181F901E684BC
:10045000F7842BE032E03A83298312960D911D91A7
:100460002D913C9115970B831C832D833E83BE01F8
:100470006F5F7F4FF701099502C080E090E02696FC
:100480000FB6F894DEBF0FBECDBFDF91CF911F91A5
:100490000F91FF90EF900895DC01ED91FC9106889B
:1004A000F789E02D099591E0811101C090E0892F35
:1004B00008950895DC01ED91FC910688F789E02DFF
:1004C000099591E0811101C090E0892F0895089568
:1004D00080E090E008958F929F92AF92BF92EF924A
:1004E000FF920F931F93CF93DF93CDB7DEB768973B
:1004F0000FB6F894DEBF0FBECDBF8C010E94AD1DBC
:100500008FEF8983E0908604F090870440E458E3FD
:1005100060E070E0C70109960E948D1940E15EE03D
:1005200060E070E00E948D194EE150E060E070E004
:100530000E948D1940E050E0BA010E948D1944E1FB
:10054000B70189E090E20E949419BE016F5F7F4F6E
:1005500089E090E20E94A41989818111D8C00E948B
:10056000AD1D0E94CD1577FDD2C06D8B7E8B8F8B1C
:10057000988F0E94AD1DE0908604F09087046D89ED
:100580007E894B01770FAA08BB08B501A401C701FA
:1005900009960E948D194FEF5FEF60E070E00E94B6
:1005A0008D1942E050E060E070E00E948D19FC017E
:1005B00088E0808311821282138281E08483158215
:1005C00016821782108645E1B70189E090E10E940A
:1005D0009419BE016F5F7F4F89E090E10E94A419DA
:1005E00089819A81AB81BC81B7FF06C09C01909341
:1005F000400780933F0702C020E030E037FD87C00E
:1006000082E090E09A8389831D821E821F82188671
:10061000F801E350FF4F808191819827892798271F
:100620009C838B830E94AD1D8FEF9FEFDC01898B34
:100630009A8BAB8BBC8BE0908604F0908704B5015D
:10064000A401C70109960E948D19FC0188E08083EE
:100650001182128213828483158216821782DE0130
:1006600011963896CE010996A817B90719F02D9161
:100670002193FACF44E1B70182E090E10E949419FE
:10068000BE016F5E7F4F82E090E10E94A4198989CC
:100690009A89AB89BC899093400780933F07B7FD47
:1006A00036C00E94AD1D8FEF9FEFDC01898B9A8BC6
:1006B000AB8BBC8BE0908604F0908704B501A4015D
:1006C000C70109960E948D1940E050E0BA010E94CE
:1006D0008D1948E0B70186E090E10E949419BE01AF
:1006E0006F5E7F4F86E090E10E94A41989899A8904
:1006F000AB89BC899093400780933F07B7FD07C043
:10070000F801E150FF4F80829182A282B382689605
:100710000FB6F894DEBF0FBECDBFDF91CF911F9112
:100720000F91FF90EF90BF90AF909F908F900895A2
:10073000CF93DF93EC01C15BDF4F688179818A81C0
:100740009B810E94381B8FEF9FEFDC018883998388
:10075000AA83BB83DF91CF910895CF93DF93EC0100
:10076000C15BDF4F488159816A817B8177FD23C05E
:10077000DC01ED91FC910084F185E02D0995892B38
:1007800051F4688179818A819B81FB01ED59FC4F8D
:100790002081211102C081E00FC00E94381BE88136
:1007A000F981ED59FC4F10828FEF9FEFDC018883B8
:1007B0009983AA83BB8380E0DF91CF9108954F9204
:1007C0005F926F927F928F929F92AF92BF92CF92E1
:1007D000DF92EF92FF920F931F93CF93DF93EC0181
:1007E0003C012DE4620E711C5C018CE4A80EB11C6E
:1007F0002E01ECE04E0E511C4E01FFE48F0E911CB9
:10080000F30140815181141615065CF10E94AD1D63
:10081000F4016081718182819381C12CD12C760198
:1008200000E410E020E030E0A2010E94190CF30186
:1008300091838083C99691F4F401608171818281F2
:1008400093810E94381B8FEF9FEFDC01F4018083BE
:100850009183A283B38380E090E010C0F501108201
:10086000CFCFF5019081292F30E04217530771F265
:10087000C20FD31F8C859F5F908390E0DF91CF9153
:100880001F910F91FF90EF90DF90CF90BF90AF90AE
:100890009F908F907F906F905F904F9008954F92B0
:1008A0005F926F927F928F929F92AF92BF92CF9200
:1008B000DF92EF92FF920F931F93CF93DF93EC01A0
:1008C0003C012DE4620E711C4C018CE4880E911CDD
:1008D0002E01ECE04E0E511C5E01FFE4AF0EB11C88
:1008E000F30120813181121613065CF10E94AD1DC7
:1008F000F5016081718182819381C12CD12C7601B7
:1009000000E410E020E030E0A2010E94190CF301A5
:1009100091838083C99691F4F50160817181828110
:1009200093810E94381B8FEF9FEFDC01F5018083DC
:100930009183A283B38380E090E00DC0F401108224
:10094000CFCFF401808190E02817390779F2C80FE2
:10095000D91F8C8590E0DF91CF911F910F91FF906F
:10096000EF90DF90CF90BF90AF909F908F907F904F
:100970006F905F904F900895CF92DF92EF92FF9229
:100980000F931F93FB018A0120E030E0DC01A15BA3
:10099000BF4F6D917D918D919C91C12CD12C760191
:1009A000AF010E94190C1F910F91FF90EF90DF9003
:1009B000CF9008958F929F92AF92BF92CF92DF9285
:1009C000EF92FF920F931F93CF93DF93CDB7DEB7D4
:1009D0002C970FB6F894DEBF0FBECDBFFC01E15BD4
:1009E000FF4F80819181A281B381B7FD5FC03297B3
:1009F000208131811216130654F43197408150E062
:100A00004217530724F4C901841B950B51C0198662
:100A10001A861B861C868C019D0145E0359527951D
:100A2000179507954A95D1F7000F111F000F111F59
:100A3000E1E0F0E0EC0FFD1FE00FF11F4C015D0164
:100A40002FE182229924AA24BB24C12CD12C760127
:100A5000C39404C0CC0CDD1CEE1CFF1C8A94D2F79E
:100A6000C086D186E286F38619821A821B821C8296
:100A700008E813E120E030E00D831E832F833887E0
:100A8000BC01CD016F5F7F4F8F4F9F4F9E012F5F46
:100A90003F4FAE01475F5F4F0E94E10931E020E028
:100AA000019709F030E0832F922F02C080E090E0A0
:100AB0002C960FB6F894DEBF0FBECDBFDF91CF915D
:100AC0001F910F91FF90EF90DF90CF90BF90AF906C
:100AD0009F908F9008958F929F92AF92BF92CF92E6
:100AE000DF92EF92FF920F931F93CF93DF93CDB7D7
:100AF000DEB766970FB6F894DEBF0FBECDBF7C01A0
:100B00006B01FC01E35BFF4F118210823197108271
:100B10004D8B5E8B0E94CD154B015C014D895E892A
:100B20006F3F2FEF72078207920709F469C0FB013C
:100B3000ED59FC4F10828E010F5F1F4F80E1F801CD
:100B400011928A95E9F782E090E09A8389835B832A
:100B50004C83F60182819381248135813D832E83EC
:100B60009F8388878FEF9FEFDC01898B9A8BAB8BFC
:100B7000BC8BC0908604D0908704B501A401C60147
:100B800009960E948D19FC0188E0808311821282EF
:100B900013828483158216821782D8013896CE017B
:100BA0000996A817B90719F02D912193FACF44E1BE
:100BB000B60187E090E10E949419BE016F5E7F4FFD
:100BC00087E090E10E94A41989899A89AB89BC8940
:100BD0009093400780933F078F3F9F4FAF4FBF4F8A
:100BE00029F4C501B4010E94381B0AC0F701E15B7A
:100BF000FF4F80829182A282B38281E090E002C0A6
:100C000080E090E066960FB6F894DEBF0FBECDBFD1
:100C1000DF91CF911F910F91FF90EF90DF90CF90D8
:100C2000BF90AF909F908F900895CF92DF92EF92F8
:100C3000FF920F931F93CF93DF931F92CDB7DEB731
:100C40006983FC01E15BFF4F608171818281938147
:100C5000C12CD12C760101E010E020E030E0AE01A3
:100C60004F5F5F4F0E949E0A97FF02C080E090E0B6
:100C70000F90DF91CF911F910F91FF90EF90DF9038
:100C8000CF900895CF92DF92EF92FF920F931F9330
:100C9000FB018A0120E030E0DC01A15BBF4F6D91D8
:100CA0007D918D919C91C12CD12C7601AF010E9438
:100CB0009E0A1F910F91FF90EF90DF90CF900895C3
:100CC000EF92FF920F931F93CF93DF93CDB7DEB7D1
:100CD0002A970FB6F894DEBF0FBECDBF8C01CB01B3
:100CE0007A011F82188619861A86FB01019000205E
:100CF000E9F73197BF01681B790BAE01495F5F4F80
:100D00000E94781A4F81588569857A854115510569
:100D100061057105B9F0892BA9F0D801ED91FC911D
:100D20000684F785E02D8BE092E09A8389834B83DC
:100D30005C836D837E83A701BE016F5F7F4FC80117
:100D4000099502C080E090E02A960FB6F894DEBFC5
:100D50000FBECDBFDF91CF911F910F91FF90EF900C
:100D60000895FA01603830E873078105910521F490
:100D70003091AD04316009C0613030E873078105FE
:100D8000910531F43091AD0432603093AD0421C04F
:100D9000623030E873078105910531F42091AD048C
:100DA000297F2093AD0427C0603130E873078105A7
:100DB000910521F48091AD04846008C06939710502
:100DC0008105910531F48091AD0488608093AD0474
:100DD0000895603430E873078105910561F48091CE
:100DE00062038F5F80936203422F50E0BF018EE465
:100DF00093E00C94A22B611578488105910541F48C
:100E0000E081E03228F4F0E0ED59FC4F81E080838E
:100E100008950F931F93CF93DF93EC018091CF033D
:100E20008093AD038AE18C1B8093D003C093CE03E3
:100E30008093AE030FEA13E0A8014D5A534080910E
:100E4000D00390E001968417950734F00E94C729DB
:100E5000F80181938F01F0CF20E030E02496C21793
:100E6000D30774F0F901E40FF51FE355FC4FD901E6
:100E7000A253BC4F14968C9181832F5F3F4FEFCFCD
:100E8000DF91CF911F910F9108952F923F924F9232
:100E90005F926F927F928F929F92AF92BF92CF920A
:100EA000DF92EF92FF920F931F93CF93DF93CDB713
:100EB000DEB7C254D1090FB6F894DEBF0FBECDBF66
:100EC00086E491E00E948010E091C205F091C30594
:100ED0004091BD045091BE046091B9047091BA0470
:100EE0000280F381E02D82EC95E009950E942610A6
:100EF0000091BD041091BE04C8010E944E281C013F
:100F00008091B7049091B8040E944E284C01A8012A
:100F10004F5F5F4FB10189EB94E00E947D154091D6
:100F2000B7045091B8044F5F5F4FB40183EB94E076
:100F30000E947D1510911206112309F44DC10E94E3
:100F4000AD1D60EA7FE080E090E00E94FB1364E961
:100F500071E180E090E00E94961760E070E0CB01C4
:100F60000E94FB13D4019C9180911206911130C014
:100F7000882309F47CC060E070E0CB010E94411539
:100F8000672B682B692B09F072C064EF71E080E079
:100F900090E00E949617F10101900020E9F7319747
:100FA0008F010219130920E030E0A12CB12C65015A
:100FB000E12CF12CA10160E070E0CB010E948B14C8
:100FC000672B682B692B09F052C008EE13E04BC069
:100FD000882309F44CC0F10101900020E9F7319712
:100FE000E219F309B19708F042C0F4010190002022
:100FF000E9F73197E819F909B197C8F560E070E0B1
:10100000CB010E944115672B682B692B81F564EF9A
:1010100071E080E090E00E949617F40101900020BA
:10102000E9F731975F01A818B908F1010190002094
:10103000E9F731978F0102191309C12CD12C20E057
:1010400030E07401A10163E070E080E090E0B6CF91
:101050000E94AD1D6AE070E080E090E00E9496176B
:101060000150110921F08091AD0481FFF1CF8091F1
:10107000AD0481FF64CF83E391E00E94A11086E27A
:1010800091E00E94A1108091AD0482FF09C0AE01E1
:101090004F5F5F4F69E070E083E192E00E94781A51
:1010A0008091AD0482FD15C064E670E080E090E0C0
:1010B0000E949617E8CF8091AD0481FD0FC081E0BA
:1010C00091E00E94A11068EE73E080E090E00E9441
:1010D0009617109112061111EECFF1CF8091AD0449
:1010E00082FFEDCF609186047091870440E085E037
:1010F00090E20E949419BE016F5F7F4F85E090E2FD
:101100000E94A4198C818823D1F289819A81AB81B4
:10111000BC8180934A0390934B03A0934C03B093FC
:101120004D038D819E81AF81B8858BAF9CAFADAFF4
:10113000BEAF49845A846B847C848D859E85AF853F
:10114000B88923968CAF9DAFAEAFBFAF2397C98848
:10115000DA88EB88FC8886EF90E00E94801060912E
:101160004A0370914B0380914C0390914D030E9470
:101170002C108BEE90E00E9480106BAD7CAD8DAD9D
:101180009EAD0E942C1080EE90E00E948010C30162
:10119000B2010E942C1085ED90E00E9480102396F1
:1011A0006CAD7DAD8EAD9FAD23970E942C108AEC67
:1011B00090E00E948010C701B6010E942C100E948E
:1011C000261061E08DE00E942A17C1010E94E328E9
:1011D000C4010E94E32804C08EE391E00E94A110A4
:1011E000812FCE5BDF4F0FB6F894DEBF0FBECDBFB1
:1011F000DF91CF911F910F91FF90EF90DF90CF90F3
:10120000BF90AF909F908F907F906F905F904F9026
:101210003F902F9008958091910381110DC082E03D
:1012200080938D0384E080938E031092900310923C
:101230008F0381E0809391038DE893E008950895F2
:10124000DF92EF92FF920F931F93CF93DF93D82EED
:101250008A017B01E40EF51EEB01CE15DF0571F06E
:10126000D7FE03C0FE01849101C088810E948321C2
:1012700021968111F2CF8FEF9FEF01C0C801DF915E
:10128000CF911F910F91FF90EF90DF9008950F93F2
:101290001F93CF93DF931F92CDB7DEB782E0898390
:1012A00042E450E061E671E080E80E9420090E947B
:1012B0000B09DC0112960D911C9113970115110574
:1012C00069F0D801ED91FC910280F381E02DBE011F
:1012D0006F5F7F4FC801099597FF07C089810F9005
:1012E000DF91CF911F910F910895F801008511852D
:1012F000E5CFCF92DF92EF92FF92CF93DF936B0116
:101300007C0197FF16C06DE282EC95E00E94BE2141
:10131000EC0144275527BA014C195D096E097F0974
:101320002AE082EC95E00E94DA217C01EC0EFD1EA1
:1013300008C02AE0AB01BC0182EC95E00E94DA21F2
:101340007C010E9426108E0D9F1DDF91CF91FF9092
:10135000EF90DF90CF900895CF92DF92EF92FF92BF
:10136000CF93DF936C01990FEE08FF08F7FE16C0CC
:101370006DE282EC95E00E94BE21EC0144275527E6
:10138000BA014C195D096E097F092AE082EC95E0EB
:101390000E94DA217C01EC0EFD1E08C02AE0B70194
:1013A000A60182EC95E00E94DA217C010E942610C1
:1013B0008E0D9F1DDF91CF91FF90EF90DF90CF902A
:1013C00008958F929F92AF92BF92CF92DF92EF9249
:1013D000FF920F931F93CF93DF93CDB7DEB7609744
:1013E0000FB6F894DEBF0FBECDBF7A018901C09061
:1013F0008604D0908704AB01BC01C60109960E9407
:101400008D19FC0184E1808311821282138284830E
:10141000158216821782808711861286138684872A
:1014200015861686CF014096178641E050E060E0B1
:1014300070E00115110519F040E050E0BA010E947A
:101440008D19E114F10431F0F7014081518162817D
:10145000738103C040E050E0BA010E948D1940E062
:1014600050E0BA010E948D1940E050E0BA010E949C
:101470008D190115110549F1F801408151816281F1
:1014800073814115510561057105B1F48480958022
:10149000A680B780F8E88F16F3E19F06A104B10497
:1014A0005CF428E8822E23E1922EA12CB12CF801C5
:1014B00084829582A682B7820E948D19F8014481A8
:1014C0005581668177810E948D194CE2B60188E0D2
:1014D00090E10E949419BE016F5F7F4F88E090E118
:1014E0000E94A41989819A81AB81BC81B7FD0DC08E
:1014F000E114F10481F04D815E816F817885F701FF
:10150000408351836283738306C090934007809326
:101510003F078FEF9FEF60960FB6F894DEBF0FBEC8
:10152000CDBFDF91CF911F910F91FF90EF90DF9092
:10153000CF90BF90AF909F908F9008952F923F9241
:101540004F925F926F927F928F929F92AF92BF92D3
:10155000CF92DF92EF92FF920F931F93CF93DF937F
:10156000CDB7DEB7A6970FB6F894DEBF0FBECDBFDE
:101570004B015C011A01280139019B016DA33EA3B7
:101580000E945518698B7A8B8B8B9C8B81E090E045
:10159000082C02C0880F991F0A94E2F7AC01990F3A
:1015A000660B770B498F5A8F6B8F7C8F840185E098
:1015B000169507958A95E1F7F401EF71FF2741E051
:1015C00050E060E070E0DB01CA0104C0880F991FA1
:1015D000AA1FBB1FEA95D2F78D8B9E8BAF8BB88F5E
:1015E0002DA13EA1A901032E000C660B770B4D8F98
:1015F0005E8F6F8F78A3000F111F000F111F61E026
:1016000070E06C0F7D1F060F171F045F1F4F2F5FC9
:101610003F4FC901330FAA0BBB0B89A39AA3ABA3FE
:10162000BCA38091980490919904A0919A04B091E0
:101630009B04892B8A2B8B2BC9F0409198045091E5
:10164000990460919A0470919B04CA0150934007D9
:1016500040933F07109298041092990410929A04B4
:1016600010929B04009709F46EC0CAC02D8D3E8D68
:101670004F8D58A1283031054105510508F0BBC0F8
:1016800080910C0190910D01A0910E01B0910F017C
:10169000498D5A8D6B8D7C8D84239523A623B7238A
:1016A000892B8A2B8B2B09F0A6C00E945518DC01D0
:1016B000CB0129893A894B895C89821B930BA40B46
:1016C000B50B81339547A105B10508F097C080910E
:1016D0009C0490919D04892B31F51D861E861F86E2
:1016E000188A6D897E898F89988DD8016D937D9335
:1016F0008D939C93139719821A821B821C8228E86F
:1017000033E140E050E02D833E834F8358879E01B4
:101710002F5F3F4FAE01435F5F4F69A17AA18BA15D
:101720009CA10E94E10980919C0490919D04892BC9
:1017300009F477CF80919C0490919D040197909338
:101740009D0480939C048091A4049091A504A09191
:10175000A604B091A7040196A11DB11D8093A40415
:101760009093A504A093A604B093A70400918604C7
:1017700010918704B501A401C8010A960E948D1931
:101780004CE050E060E070E00E948D19B301A201CE
:101790000E948D19B701A6010E948D199801265E3D
:1017A0003F4FF101CF0182199309A0E0B0E0841509
:1017B0009505A605B7052CF48191D9018D939D015E
:1017C000F1CF82E0F801858381E8868380E1878319
:1017D000C201409680879187B2016B5E7F4FC8013E
:1017E0000E944220BE016F5F7F4F83E090E10E9424
:1017F000A419C20105C08FEF9FEF02C08DEF9FEFCC
:10180000A6960FB6F894DEBF0FBECDBFDF91CF9185
:101810001F910F91FF90EF90DF90CF90BF90AF900E
:101820009F908F907F906F905F904F903F902F9000
:1018300008954F925F926F927F92AF92BF92CF9234
:10184000DF92EF92FF920F931F93CF93DF93CDB769
:10185000DEB72C970FB6F894DEBF0FBECDBF5A018E
:10186000280139010091860410918704AB01BC0165
:10187000C80109960E948D19B301A2010E948D1919
:10188000B701A6010E948D194CE0B80184E090E1F7
:101890000E949419BE016F5F7F4F84E090E10E9427
:1018A000A4198D819E81AF81B885181619061A0674
:1018B0001B064CF481E090E09093A3048093A20473
:1018C000C5010E94EC108D819E819093400780930A
:1018D0003F072C960FB6F894DEBF0FBECDBFDF9149
:1018E000CF911F910F91FF90EF90DF90CF90BF901D
:1018F000AF907F906F905F904F900895FC01809122
:101900008C03811103C08FEF9FEF08959FB7F89468
:1019100082E08093E9002091F20030E01216130675
:1019200014F421E030E02115310559F0289884E6BF
:1019300080938B038091F10080838091F200882353
:1019400019F09FBFC90108958BE68093E800F9CF95
:101950002FB7F89483E08093E9009091E800892FF5
:10196000807295FF04C09091F20080E4891B2FBF24
:1019700008950F931F93CF93DF938C01EB01FC012C
:10198000808191810097B1F068817981611571053D
:1019900079F0428153812C813D814217530740F0F9
:1019A0000E94AB2B8C819D81F8019583848313C0A9
:1019B0000E94E32888819981F801918380838A813C
:1019C0009B81938382838C819D81958384831982FB
:1019D00018821B821A821D821C82DF91CF911F9177
:1019E0000F910895EF92FF920F931F93CF93DF9380
:1019F000EC01198218821B821A821D821C826115D9
:101A00007105A9F17B01FB0101900020E9F73197F5
:101A10008F01061B170BB8016F5F7F4F80E090E0CE
:101A20000E94D32A009759F0998388831B830A83E5
:101A30002C813D81232B81F4FC0110820DC0888113
:101A40009981009711F00E94E328198218821D8263
:101A50001C821B821A820BC01D830C83B701DF918D
:101A6000CF911F910F91FF90EF900C94AB2BDF91D2
:101A7000CF911F910F91FF90EF9008951F920F92B9
:101A80000FB60F9211248F939F938091E100909154
:101A9000E100937F9093E10083FF0FC01092E90073
:101AA00091E09093EB001092EC0092E39093ED00A4
:101AB00010928C0398E09093F00082FF20C093E096
:101AC0009093E9009091F200992319F09AE3909392
:101AD000E80090918A03992339F090918A039150FC
:101AE00090938A03992389F190918B03992339F07C
:101AF00090918B03915090938B03992341F184FF34
:101B000010C08091E2008E7E81608093E20080911F
:101B1000E1008F7E8093E100809189038E7E806159
:101B200011C080FF16C08091E2008E7E806180939C
:101B3000E2008091E1008E7E8093E1008091890334
:101B40008E7E81608093890304C05D9ACDCF289AF0
:101B5000D6CF9F918F910F900FBE0F901F90189529
:101B60001F920F920FB60F921124CF92DF92EF9235
:101B7000FF920F931F932F933F934F935F936F9316
:101B80007F938F939F93AF93BF93EF93FF93CF93E5
:101B9000DF93CDB7DEB76C97DEBFCDBF1092E90003
:101BA0008091E80083FFEDC168E0CE0145960E9478
:101BB000B12182EF8093E8008D8987FF05C0909165
:101BC000E80090FFFCCF03C09EEF9093E800982FB1
:101BD000907609F0C6C09E892F89188D91110CC08E
:101BE000803829F4809188038093F10002C010921C
:101BF000F1001092F10048C1422F50E0512B91307A
:101C000051F4811141C14130510509F03DC180912C
:101C100088038D7F0BC0933061F4811135C1413051
:101C2000510509F031C18091880382608093880357
:101C30002BC1953041F48091E80080FFFCCF2068F3
:101C40002093E30021C1963009F05FC0EB8CFC8C3F
:101C50001092E9001092860310928503123091F5DC
:101C600010928403109283030E94470999E0BE01F9
:101C70006F5F7F4FDB01E92F1D92EA95E9F79983AA
:101C80001A8391E09E8390EA98879AEF9987209132
:101C9000850330918603275F3F4F3C832B838D83E1
:101CA0001092E9001092860310928503F09284034B
:101CB000E092830349E050E080E00E9420090E9406
:101CC0004709E2C0F0928403E09283030E940B096B
:101CD000DC011296ED90FC901397E114F10409F4E5
:101CE000C0C0D701ED91FC910480F581E02DBE01CB
:101CF0006B5E7F4FC7010995009719F00CF0C4C0C7
:101D0000C7C0F701E084F184E8CF973009F4C0C080
:101D1000983021F481E08093F100B6C0993009F049
:101D2000B3C0837009F0B4C0E9E2F1E081E021E0E2
:101D300036E39081992361F08093E9002093EB00D2
:101D400091919093EC003093ED008F5F873089F78D
:101D50008EE78093EA001092EA008F8980938C03CB
:101D600093C08B8D9C8D1092E90010928603109287
:101D700085039093840380938303898D811156C0DA
:101D80008E899D89913A59F4813209F081C047E0EA
:101D900050E064E071E080E00E94200975C091325B
:101DA00009F076C0833289F4888D90E0982F8827D7
:101DB0002F89822BA0E0B0E0809300019093010175
:101DC000A0930201B09303015FC0803269F4809157
:101DD000E80082FFFCCF67E084E091E00E94B1213F
:101DE0008BEF8093E80006C0823209F04DC08F89E6
:101DF00080930B0180918703882319F0EEEFFAE0BE
:101E000002C0E0E0F8E08091040190910501A0910A
:101E10000601B0910701803B9440A105B10509F08E
:101E20007BC080910B0180FF93C076C00E940B099C
:101E3000DC0112960D911C9113970115110541F1CA
:101E4000D801ED91FC910190F081E02DBE016B5E17
:101E50007F4FC8010995811117C0F80100851185D0
:101E6000ECCF113009F44EC0133091F48F898823E0
:101E700009F445C0823081F440E860E185EC91E0EE
:101E80000E942F22882321F08EEF8093E80079C0F2
:101E900081E28093EB0075C0813029F440E86BE06B
:101EA00089EB91E0EDCF833099F70E940B09DC01BB
:101EB0001296ED90FC9013978E010F5F1F4F6801F3
:101EC000E114F10479F0D701ED91FC910680F781DE
:101ED000E02DB801C7010995080F111DF701E08435
:101EE000F184EECFD8011C92F60101900020E9F7B1
:101EF0003197BF016C197D0940E0C601C1CF63EA8B
:101F000071E002C067EA71E06115710509F2FB0139
:101F1000449150E080E840CF0FB6F894A8958091A6
:101F20006000886180936000109260000FBEA895E9
:101F3000EE3F2AE0F20739F08091FE0A9091FF0A05
:101F400091838083A1CF1092FF0A1092FE0A9CCF4A
:101F5000EE3F8AE0F80731F0808191819093FF0A8B
:101F60008093FE0A87E797E7918380839BE088E16F
:101F70000FB6F894A895809360000FBE9093600010
:101F800083CF6C960FB6F894DEBF0FBECDBFDF9146
:101F9000CF91FF91EF91BF91AF919F918F917F91E1
:101FA0006F915F914F913F912F911F910F91FF90F2
:101FB000EF90DF90CF900F900FBE0F901F9018956D
:101FC0008F929F92AF92BF92CF92DF92EF92FF9249
:101FD0000F931F93CF93DF937C018B016C0182E001
:101FE000C80ED11C4701E5E08E0E911CC0E0D0E088
:101FF000F60141916F0150E060E070E02AE0C80115
:102000000E94DA215C016EE2C8010E94BE218A0DA5
:102010009B1DC80FD91FC814D90451F7F70145817A
:1020200050E060E070E02AE0C8010E94DA218C0FE5
:102030009D1FDF91CF911F910F91FF90EF90DF9047
:10204000CF90BF90AF909F908F90089563E473E01E
:1020500082EC95E00C94C521CF92DF92EF92FF9233
:102060006B017C0180912B0690912C06009709F45E
:1020700042C04F2D5527662777272AE00E94DA2194
:102080006EE280912B0690912C060E94BE214E2D6F
:1020900050E060E070E02AE080912B0690912C06E1
:1020A0000E94DA216EE280912B0690912C060E940C
:1020B000BE214D2D50E060E070E02AE080912B06BB
:1020C00090912C060E94DA216EE280912B0690916D
:1020D0002C060E94BE21B701A60155276627772747
:1020E0002AE080912B0690912C06FF90EF90DF90D4
:1020F000CF900C94DA21FF90EF90DF90CF9008956D
:102100000F931F93CF93DF938C01C0E0D0E0F801D1
:10211000EC0FFD1F6491662371F0E091C205F09110
:10212000C3050190F081E02D82EC95E00995892BA3
:1021300011F02196ECCFCE01DF91CF911F910F913D
:102140000895CF93DF930E948010EC010E94261027
:102150008C0F9D1FDF91CF910895E82FF0E0EE0FD7
:10216000FF1FE05FFE4F2BE03FE131832083823091
:10217000D9F028F4882341F0813071F0089583303C
:10218000D9F0843009F10895809169008C7F8260D4
:1021900080936900E89A089580916900837F886040
:1021A00080936900E99A0895809169008F7C80622C
:1021B00080936900EA9A0895809169008F7380681E
:1021C00080936900EB9A089580916A008F7C806209
:1021D00080936A00EE9A08956F927F928F929F92F9
:1021E000AF92BF92CF92DF92EF92FF920F931F9325
:1021F000CF93DF9300D000D0CDB7DEB78C01E12CB8
:10220000F12C80E1B82E96E2A92E0E94AD1D80919E
:10221000820490918304892BC1F3C0908404D090F0
:102220008504F6018081843009F02AC261E070E003
:10223000C6010E94B41B7C01C6010E94C01B672B13
:10224000682B692B09F010C23601F5E06F0E711C86
:1022500048E0E41640E1F40608F076C086E0E816AF
:1022600080E1F80608F002C1E2E0EE16FE0609F48D
:10227000FDC000F54DE0E416F10480F488E0E816B6
:10228000F10408F0F3C0E1E0EE16F10408F4ECC14B
:10229000F7E0EF16F10408F06CC1E8C04DE0E41679
:1022A000F10409F4DEC081E0E81682E0F80609F4E2
:1022B000D8C0DAC1E3E0EE16E0E1FE0610F5F1E089
:1022C000EF16F0E1FF0608F0D1C045E0E41642E069
:1022D000F40608F4C6C087E0E81682E0F80609F0C4
:1022E000C3C1F6018481F80181938F0160E070E041
:1022F000C3010E94831BAB01BC01C8010E948D1960
:10230000B3C1E4E0EE16E0E1FE0609F4D9C008F43A
:102310000AC160E070E0C3010E94831BF801608382
:1023200071838283938364E070E0C3010E94831B06
:10233000F8016483758386839783085F1F4FF601D6
:102340003D96D8018B2D47C141E1E41640E1F406EA
:1023500009F487C008F04BC0EBE0EE16E0E1FE06A2
:1023600009F484C0A8F549E0E41640E1F40609F454
:102370007DC008F0EFC060E070E0C3010E94831BE5
:10238000F801608371838283938364E070E0C3010A
:102390000E94831BF801648375838683978368E0BA
:1023A00070E0C3010E94831BF801608771878287F8
:1023B00093874801FCE08F0E911C6CE070E0C30134
:1023C0000E94831BF80164877587868797874BC1B6
:1023D000EFE0EE16E0E1FE0609F4A5C008F051C0FA
:1023E0004DE0E41640E1F40609F46AC03DC185E021
:1023F000E81680E2F80609F4F3C060F4F2E1EF16A3
:10240000F0E1FF0609F453C041E0E41640E2F406AF
:1024100040F52AC18AE0E81680E2F80658F4E8E0C0
:10242000EE16E0E2FE06E8F4F6E0EF16F0E2FF0654
:10243000C1F01AC14BE0E41640E4F40609F014C1FF
:10244000F601858190E090939D0480939C0461E067
:1024500070E0C3010E94B41B90939F0480939E047C
:1024600003C1F6018481F8018083FEC060E070E062
:10247000C3010E94831BF80160837183828393836D
:10248000F3C060E070E0C3010E94831BF801619318
:102490007193819391934F0164E070E0C3010E94B6
:1024A000831BF8016483758386839783DCC060E0B7
:1024B00070E0C3010E94B41BF80191838083D4C0F3
:1024C00060E070E0C3010E94831BF80160837183A8
:1024D0008283938364E070E0C3010E94831BF80150
:1024E00064837583868397834801F8E08F0E911C7F
:1024F00068E070E0C3010E94831BF8016087718768
:10250000828793870485158526853785073C1F4F6D
:102510002F4F3F4F09F0A7C021E030E040E050E0EE
:102520000E94EC1AA0C060E070E0C3010E94831B0F
:10253000F801608371838283938364E070E0C30158
:102540000E94831BF8016483758386839783085FE9
:102550001F4F8AC0F6018481F8018483F6018581CA
:102560009681A781B085F80180839183A283B3838C
:102570007BC060E070E0C3010E94831BF8016083B0
:1025800071838283938364E070E0C3010E94831BA4
:10259000F801648375838683978368E070E0C301E4
:1025A0000E94B41BA0E0B0E0F80180879187A28769
:1025B000B3876AE070E0C3010E94B41BA0E0B0E002
:1025C000F80182879387A487B587045F1F4FF601C0
:1025D0007196D8018A2D01900D928A95E1F744C039
:1025E000C801D8011496F30121913F01FC01219308
:1025F000CF01EA17FB07B9F7F6013996C6010D9628
:1026000021912D93E817F907D9F7D8011896C6013B
:10261000419621912D93E817F907D9F7D8011C9617
:10262000C601459621912D93E817F907D9F7D801EE
:102630005096C601499621912D93E817F907D9F7CD
:10264000D8015496C6014F9621912D93E817F907AA
:10265000D9F7D8015A96C601CF9621912D93E81744
:10266000F907D9F701C08401809180049091810419
:10267000E816F906D9F4109281041092800416C06D
:1026800063E070E0C6010E94B41BF601628170E055
:10269000AC01461B570B6B5F7F4F6C0D7D1DC80156
:1026A0000E94A22B1092A3041092A2041092830401
:1026B000109282040E943820F6018081843009F053
:1026C00077C0E114F0E1FF0609F072C019821A82A6
:1026D0001B821C82F6018581823039F1833009F436
:1026E00045C0813009F064C080918A0490918B04C8
:1026F000892B89F0E0918A04F0918B04CE01019638
:102700000995009741F060918604709187042981B2
:102710003A81AC0108C0609186047091870420E082
:1027200030E040E050E081E041C080918804909129
:102730008904892B89F0E0918804F0918904CE0105
:1027400001960995009741F0609186047091870485
:1027500029813A81AC0108C0609186047091870498
:1027600020E030E040E050E082E020C080918C0426
:1027700090918D04892B89F0E0918C04F0918D0467
:10278000CE0101960995009741F060918604709101
:10279000870429813A81AC0108C060918604709158
:1027A000870420E030E040E050E083E00E94BD1D5F
:1027B0008091800490918104892B09F026CD80912D
:1027C000A2049091A304892B09F01FCD80E090E032
:1027D0000F900F900F900F90DF91CF911F910F915D
:1027E000FF90EF90DF90CF90BF90AF909F908F9031
:1027F0007F906F900895EF92FF920F931F93CF9366
:10280000DF93CDB7DEB7C454D1090FB6F894DEBF5D
:102810000FBECDBF20E4EDE4F1E0DE0111960190A2
:102820000D922A95E1F720911206222309F464C043
:10283000AB01BC01E0908604F090870484E2D701EC
:1028400019968C9319971A961C921A971B961C929C
:102850001B971C961C92C7010D960E948D19FC01B6
:1028600084E1808311821282138284E6848315823C
:102870001682178285E080871186128613868FEF75
:1028800084878FE185871686178648E85FEF6FEFAC
:102890007FEFCF0140960E948D19FC0110821182BA
:1028A000128213828CE2848381E0858316821782F0
:1028B0008E010F5F1F4F3896CE018F5B9F4FD8015F
:1028C0002D918D012193A817B907C9F744E6B701E7
:1028D00083E090E00E949419B80183E090E00E94A8
:1028E000A419F801408151816281738121E0452B57
:1028F000462B472B09F020E0822FCC5BDF4F0FB631
:10290000F894DEBF0FBECDBFDF91CF911F910F9125
:10291000FF90EF9008952F923F924F925F926F92A7
:102920007F928F929F92AF92BF92CF92DF92EF925F
:10293000FF920F931F93CF93DF93CDB7DEB72E9700
:102940000FB6F894DEBF0FBECDBF6B877C878D8737
:102950009E874A0128013901CE0101961C0186E0BB
:10296000F10111928A95E9F78FEF9FEFDC018F83D8
:102970009887A987BA8700918604109187048CE113
:10298000F8018187128613861486B301A201C8015B
:102990000D960E948D194B855C856D857E850E9404
:1029A0008D19B301A201405F5F4F6F4F7F4F0E94AF
:1029B0008D19B601A5010E948D19FC0110821182AA
:1029C000F101DC0112961E0127E0220E311C21913B
:1029D0002D93E215F305D9F7FC013896D401AD012A
:1029E0004819590960E070E04415550566057705FA
:1029F0001CF48D918193F3CFA114B104C104D104CF
:102A000079F58CE18A0D482F440DB80181E090E002
:102A10000E949419B10181E090E00E94A4196F8195
:102A2000788589859A857093400760933F072E9635
:102A30000FB6F894DEBF0FBECDBFDF91CF911F91CF
:102A40000F91FF90EF90DF90CF90BF90AF909F904D
:102A50008F907F906F905F904F903F902F90089550
:102A6000E114F10471F2D701AD014E195F0960E084
:102A700070E04A155B056C057D051CF68D91819310
:102A8000F3CF0F931F93CF93DF9300D000D0CDB738
:102A9000DEB7AB01BC018FEF9FEFDC0189839A8326
:102AA000AB83BC830091860410918704F8011186E2
:102AB000128613861486158616861786108AC80114
:102AC00041960E948D194CE0B80184E090E00E948C
:102AD0009419BE016F5F7F4F84E090E00E94A419BB
:102AE00069817A818B819C810F900F900F900F905C
:102AF000DF91CF911F910F9108950F931F93CF9363
:102B0000DF9341155105E9F061157105D1F0FC0124
:102B1000248135812115310519F4FB01108211C082
:102B2000EA0121972C173D0708F4E9018B01FC010C
:102B300060817181AE01C8010E94B22BC00FD11F0C
:102B40001882DF91CF911F910F910895CF93DF935A
:102B5000BC0182EC95E00E94C521EC010E94261088
:102B60008C0F9D1FDF91CF910895CF93DF93482F56
:102B700050E060E070E02AE082EC95E00E94DA210B
:102B8000EC010E9426108C0F9D1FDF91CF910895BC
:102B9000BC0182EC95E00C94C5210F931F93CF9359
:102BA000DF9300D000D0CDB7DEB78FEF9FEFDC0111
:102BB00089839A83AB83BC83009186041091870438
:102BC00042E050E060E070E0C80109960E948D1973
:102BD00041E050E060E070E00E948D1946E050E076
:102BE00060E070E00E948D194CE0B80181E090E156
:102BF0000E949419BE016F5F7F4F81E090E10E94B7
:102C0000A41969817A818B819C81709340076093BC
:102C10003F0720E030E0A9010E94EC1A69817A8127
:102C20008B819C810F900F900F900F90DF91CF912F
:102C30001F910F910895CF93DF931F92CDB7DEB709
:102C40006983DC01ED91FC910280F381E02D41E08C
:102C500050E0BE016F5F7F4F09950F90DF91CF91DC
:102C6000089583E08093E9008091F200882319F0B1
:102C70008AE38093E8000895FC018485958597FD9B
:102C80000BC09FB7F89482E08093E9008091F20036
:102C90009FBF90E0019608959FB7F89482E08093DB
:102CA000E9008091F2009FBF90E0089590E0FC0160
:102CB0003197EF30F105B0F5EA5AFF4F0C94CD2A69
:102CC000809180008F7703C0809180008F7D8093FA
:102CD0008000089580918000877FF9CF84B58F7739
:102CE00002C084B58F7D84BD0895809190008F7758
:102CF00007C0809190008F7D03C080919000877FF6
:102D00008093900008958091C0008F7703C08091D8
:102D1000C0008F7D8093C00008958091C200877F9E
:102D20008093C20008953FB7F89480913A0790913C
:102D30003B07A0913C07B0913D0726B5A89B05C075
:102D40002F3F19F00196A11DB11D3FBFBA2FA92F2A
:102D5000982F8827820F911DA11DB11DBC01CD01A7
:102D600042E0660F771F881F991F4A95D1F7089593
:102D700008950E94A80C90E00895CF93DF931F92CE
:102D8000CDB7DEB7FC018485958597FD05C02FEF93
:102D90003FEF358724870BC0CE0101960E947E0C41
:102DA000019719F4898190E002C08FEF9FEF0F9097
:102DB000DF91CF9108950F931F93CF93DF931F92CD
:102DC000CDB7DEB78C01FC018485958597FF0EC0D9
:102DD000CE0101960E947E0C019719F4298130E002
:102DE00002C02FEF3FEFF80135872487F801848573
:102DF00095850F90DF91CF911F910F9108950E94BB
:102E00009D2BCF93DF93282F30E0F901ED59FD4F33
:102E10008491F901EC51FE4FD491F901ED5FFD4F22
:102E2000C491CC2391F081110E945616EC2FF0E052
:102E3000EE0FFF1FEB5AFD4FA591B491EC91ED23DE
:102E400081E090E021F480E002C080E090E0DF913A
:102E5000CF9108951F93CF93DF93282F30E0F9018E
:102E6000ED59FD4F8491F901EC51FE4FD491F901D8
:102E7000ED5FFD4FC491CC23C9F0162F81110E9444
:102E80005616EC2FF0E0EE0FFF1FE95BFD4FA5910A
:102E9000B4918FB7F894111105C09C91ED2FE09576
:102EA000E92302C0EC91ED2BEC938FBFDF91CF9122
:102EB0001F910895CF93DF9390E0FC01EC51FE4FFA
:102EC0002491FC01ED5FFD4F8491882361F190E036
:102ED000880F991FFC01EA52FE4FC591D491FC0165
:102EE000E95BFD4FA591B491611109C09FB7F894BA
:102EF0008881209582238883EC912E230BC0623039
:102F000061F49FB7F8943881822F8095832388835A
:102F1000EC912E2B2C939FBF06C08FB7F894E881BD
:102F20002E2B28838FBFDF91CF9108958F929F9290
:102F3000AF92BF92CF92DF92EF92FF926B017C0132
:102F40000E9493164B015C01C114D104E104F10409
:102F5000F1F00E949316DC01CB0188199909AA09A6
:102F6000BB09883E9340A105B10570F321E0C21A68
:102F7000D108E108F10888EE880E83E0981EA11CB4
:102F8000B11CC114D104E104F10419F7DDCFFF90A5
:102F9000EF90DF90CF90BF90AF909F908F9008956B
:102FA0008F929F92AF92BF92CF92DF92EF92FF9259
:102FB0000F931F93CF93DF935C016B017A01809194
:102FC0000B01882309F45BC080918C03882309F4EA
:102FD00056C08091890380FF05C08091E000826027
:102FE0008093E000E70110E00AEF83E0882E9AE387
:102FF000992E2097D9F10E94A80C81110AC0015086
:1030000009F43DC061E070E080E090E00E94961716
:10301000F0CF282F30E0C217D3070CF48C2F4FB716
:10302000F8948092E9009091E80095FF1DC0282F48
:1030300030E0C21BD30BF601982F915020F0819104
:103040008093F100FACFC20ED31E112319F0909293
:10305000E80009C08091E80085FD06C09092E80074
:1030600011E0209709F010E04FBFC3CF1111C3CF7B
:103070005D9884E680938A031E141F0444F081E067
:1030800090E0F5019383828380E090E001C0C70166
:10309000DF91CF911F910F91FF90EF90DF90CF9034
:1030A000BF90AF909F908F9008952FB7F894609144
:1030B00036077091370780913807909139072FBFF5
:1030C00008951F920F920FB60F9211242F933F93E2
:1030D0008F939F93AF93BF9380913607909137075B
:1030E000A0913807B09139073091350723E0230FBD
:1030F0002D3720F40196A11DB11D05C026E8230F30
:103100000296A11DB11D2093350780933607909339
:103110003707A0933807B093390780913A07909109
:103120003B07A0913C07B0913D070196A11DB11D41
:1031300080933A0790933B07A0933C07B0933D07D9
:10314000BF91AF919F918F913F912F910F900FBEA3
:103150000F901F901895823079F030F4882351F049
:10316000813069F4E9980BC0833041F0843039F440
:10317000EE9805C0E89803C0EA9801C0EB98E82FE4
:10318000F0E0EE0FFF1FE05FFE4F88EB96E19183CA
:10319000808308951F920F920FB60F9211242F93E0
:1031A0003F934F935F936F937F938F939F93AF93CF
:1031B000BF93EF93FF93E0911801F09119010995E6
:1031C000FF91EF91BF91AF919F918F917F916F91FF
:1031D0005F914F913F912F910F900FBE0F901F90D5
:1031E00018951F920F920FB60F9211242F933F93B1
:1031F0004F935F936F937F938F939F93AF93BF93FF
:10320000EF93FF93E0911601F09117010995FF915B
:10321000EF91BF91AF919F918F917F916F915F914E
:103220004F913F912F910F900FBE0F901F901895C7
:103230001F920F920FB60F9211242F933F934F932B
:103240005F936F937F938F939F93AF93BF93EF930E
:10325000FF93E0911401F09115010995FF91EF9111
:10326000BF91AF919F918F917F916F915F914F919E
:103270003F912F910F900FBE0F901F9018951F92A6
:103280000F920FB60F9211242F933F934F935F939A
:103290006F937F938F939F93AF93BF93EF93FF931E
:1032A000E0911201F09113010995FF91EF91BF9107
:1032B000AF919F918F917F916F915F914F913F91CE
:1032C0002F910F900FBE0F901F9018951F920F9285
:1032D0000FB60F9211242F933F934F935F936F93E9
:1032E0007F938F939F93AF93BF93EF93FF93E0915F
:1032F0001001F09111010995FF91EF91BF91AF91EC
:103300009F918F917F916F915F914F913F912F91FD
:103310000F900FBE0F901F901895FC0140835183B2
:103320006283738304960895FB0121E025838683DD
:103330009783408750E0BA016C5F7F4FCF010E94B6
:10334000422080E090E0089590938104809380046F
:10335000CB010C94EC10CF92DF92EF92FF92CF93BF
:10336000DF93EC011092A4041092A5041092A6041D
:103370001092A7041092A8041092A9041092AA0413
:103380001092AB04109281041092800410929D045C
:1033900010929C0410929F0410929E041092A1041B
:1033A0001092A0041092A3041092A2041092980408
:1033B0001092990410929A0410929B041092830424
:1033C000109282041092850410928404AFE2B6E059
:1033D000B0938704A09386041092A5031092A603CD
:1033E0001092A7031092A80322EB36E093E8F901AC
:1033F000892F11928A95E9F7FD0111929A95E9F7C3
:1034000087E89DE19093A00380939F031092A2030D
:103410001092A1031092AA031092A9033093AC0357
:103420002093AB031092A4031092A3039EED9093FC
:1034300034079093B106E0919204F09193040995BA
:10344000E0919004F091910409956B017C01E09169
:103450009604F091970481E00995CD28CE28CF28D5
:1034600089F0E0919004F09191040995672B682B05
:10347000692BB9F76091860470918704CD2BA9F46C
:1034800080E014C0E0919004F09191040995672BBD
:10349000682B692BB9F3E0919004F09191040995A0
:1034A000672B682B692BB9F7E5CF82E0FB01818799
:1034B00041E080E090E40E94941960E070E080E0D8
:1034C00090E40E94A419609186047091870440E002
:1034D0008BE090E40E94941960E070E08BE090E44F
:1034E000DF91CF91FF90EF90DF90CF900C94A419D3
:1034F000AF92BF92CF92DF92EF92FF920F931F9302
:10350000CF93DF93CDB7DEB728970FB6F894DEBF21
:103510000FBECDBF5C017B016A018FEF9FEF9093DF
:10352000400780933F07673E710508F042C0009155
:1035300086041091870488E0D80119968C93199716
:103540001A961C921A971B961C921B971C961C92FB
:10355000AB0160E070E0C8010D960E948D19F50185
:1035600095012E0D3F1DE217F30729F04191DC0173
:103570004D93CD01F8CF48E04E0DB80180E190E1C8
:103580000E949419BE016F5F7F4F80E190E10E941D
:10359000A41989819A819093400780933F074D81B8
:1035A0005E816F817885F6014083518362837383E6
:1035B00002C08FEF9FEF28960FB6F894DEBF0FBEC4
:1035C000CDBFDF91CF911F910F91FF90EF90DF90D2
:1035D000CF90BF90AF9008958F929F92AF92BF927D
:1035E000CF92DF92EF92FF926830710581059105CD
:1035F000B0F5223031054105510588F5E1E0F0E0F4
:10360000062E02C0EE0FFF1F0A94E2F7E095F09538
:103610006F01FF0FEE08FF0880900C0190900D01E4
:10362000A0900E01B0900F01C820D920EA20FB2005
:1036300049015A0104C0880C991CAA1CBB1C6A953C
:10364000D2F7D701C60188299929AA29BB298093D5
:103650000C0190930D01A0930E01B0930F01FF9008
:10366000EF90DF90CF90BF90AF909F908F90089594
:10367000CF92DF92EF92FF920F931F93CF93DF933E
:1036800000D000D0CDB7DEB76B017C018FEF9FEF8C
:10369000DC0189839A83AB83BC83009186041091FB
:1036A0008704B701A601C80109960E948D1944E05C
:1036B000B8018BE090E10E949419BE016F5F7F4FCB
:1036C0008BE090E10E94A41989819A819093400730
:1036D00080933F0721E030E040E050E0C701B601B1
:1036E0000E94EC1A69817A818B819C810F900F90E6
:1036F0000F900F90DF91CF911F910F91FF90EF905E
:10370000DF90CF9008950F931F93FC01E60FF71FF2
:10371000438150E060E070E0342F2227112700271A
:103720009281492F50E060E070E0BA0155274427AC
:10373000400F511F621F731F8081480F511D611D73
:10374000711D818190E0A0E0B0E0BA2FA92F982FE1
:1037500088278A019B01080F191F2A1F3B1FC901D7
:10376000B8011F910F910895FC01E60FF71F918199
:10377000892F90E0982F88272081820F911D08952E
:103780008F929F92AF92BF92CF92DF92EF92FF9271
:103790000F931F93CF93DF93CDB7DEB765970FB627
:1037A000F894DEBF0FBECDBF8C0161E070E00E94D7
:1037B000B41B6C01E12CF12C96FF69C0811521E44A
:1037C000920709F064C065E070E0C8010E94B41B74
:1037D0004C01095F1F4FA12CB12CC12CD12C7601BB
:1037E000A814B90479F062E070E0C8010E94B41B2B
:1037F000C80ED91EE11CF11C0C5F1F4F8FEFA81AD9
:10380000B80AEECF80919C0490919D048C0D9D1D73
:1038100090939D0480939C048091A8049091A904A6
:10382000A091AA04B091AB04C80ED91EEA1EFB1EDB
:10383000C092A804D092A904E092AA04F092AB042A
:103840004091A8045091A9046091AA047091AB041E
:103850008091A4049091A504A091A604B091A7041E
:10386000481759076A077B0709F025C18091AC0406
:10387000882309F420C1E0918E04F0918F0420E0A8
:1038800040E050E069E970E080E090E0D3C097FF4D
:10389000D3C08034E0E89E0709F46DC0C0F48430E2
:1038A00020E8920709F4B6C030F48150904802979E
:1038B00008F017C1AFC08031904809F012C1D8019B
:1038C0001596FE013196CE010596AF011AC08115FD
:1038D00024E8920709F49EC050F48038F0E89F076E
:1038E00009F498C08115924809F494C0FAC0811572
:1038F000E8E89E0709F47EC08115994809F48AC05A
:10390000F0C02D912193E817F907D9F7F8018185C7
:103910008D8382858E8383858F83848588873D967A
:10392000DE011996C801419621912D93E817F907F8
:10393000D9F7DE011D96C801459621912D93E81710
:10394000F907D9F7DE015196C801499621912D93C7
:10395000E817F907D9F7F80184818D8B80918E04DF
:1039600090918F04892B09F4A6C0E0918E04F09108
:103970008F0425E15DC00B5F1F4F60E070E0C80160
:103980000E94831B69837A838B839C8364E070E04D
:10399000C8010E94831B6D837E838F83988768E0B4
:1039A00070E0C8010E94831B69877A878B879C8798
:1039B0006CE070E0C8010E94831B6D877E878F8753
:1039C000988B60E170E0C8010E94831B698B7A8B41
:1039D0008B8B9C8B80918E0490918F04892B09F4A2
:1039E0006AC0E0918E04F0918F0424E1AE014F5F34
:1039F0005F4F1EC080918E0490918F04892B09F433
:103A00005AC0E0918E04F0918F04A8014B5F5F4F84
:103A100021E00EC080918E0490918F04892B09F4CF
:103A20004AC0E0918E04F0918F0420E040E050E025
:103A3000C701B60109953FC0F3E0CF16F0E1DF06FC
:103A4000E104F10421F08E5090410297C8F578010D
:103A500025E0E20EF11C64E070E0C7010E94831BC8
:103A6000673C7F4F8F4F9F4FE1F5F801848190E0D5
:103A7000A0E0B0E08093980490939904A0939A04F6
:103A8000B0939B0460E070E0C7010E94831B4B0170
:103A90005C0164E070E0C7010E94831B673C7F4FBC
:103AA0008F4F9F4F41F421E030E040E050E0C501EE
:103AB000B4010E94EC1A61E070E080E090E014C074
:103AC0008091800490918104A0E0B0E0C816D906EE
:103AD000EA06FB0631F0C11420E1D206E104F1044C
:103AE00051F760E070E0CB0165960FB6F894DEBF49
:103AF0000FBECDBFDF91CF911F910F91FF90EF903F
:103B0000DF90CF90BF90AF909F908F90089521E06D
:103B100030E0309383042093820490938504809353
:103B200084048091820490918304892BA9F0809170
:103B3000840490918504FC012081243069F40E9462
:103B4000C01B613071058105910531F41092830429
:103B5000109282040C94382008958091B1040E9440
:103B60000117892B49F480912E06811105C080919F
:103B70002D0681110C940B1F08958F929F92AF9286
:103B8000BF92CF92DF92EF92FF920F931F93CF934A
:103B9000DF938B01BA01E90123E0F80125838683D5
:103BA000CE01029687839087C8010B96C93EF3E049
:103BB000DF07C0F4F801C187D287AE010E94A22BB3
:103BC000BE016A5F7F4FC801DF91CF911F910F91B6
:103BD000FF90EF90DF90CF90BF90AF909F908F902D
:103BE0000C94422038EEF8013187228728EE33E02A
:103BF000FA01DC0101900D9221503040D9F7C85EE6
:103C0000D3406A01F8E1CF1AFCEFDF0A6EEE73E0F1
:103C1000C8010E944220480127E0820E911C5801F1
:103C200035E0A30EB11C0E94AD1DC93E83E0D8074C
:103C300038F0C85ED34088EEE82E83E0F82E03C04B
:103C40007E01C0E0D0E0F801F682E582A701B6016E
:103C5000C4010E94A22BCE0CDF1CB7016E5F7F4F08
:103C6000C5010E9442202097F1F6DF91CF911F916C
:103C70000F91FF90EF90DF90CF90BF90AF909F900B
:103C80008F900895FC01108211821282138280E0CD
:103C900090E00895FC01108211821282138280E06C
:103CA00090E00895FC01108211821282138280E05C
:103CB00090E008952CB5237F24602CBD680F791FF8
:103CC00023E08617970751F02EBD00000DB407FEC4
:103CD000FDCF3EB5FC013193CF01F3CF0895680FBE
:103CE000791F8617970751F0FC012191CF012EBD56
:103CF00000000DB407FEFDCF2EB5F3CF08958091DF
:103D00009A03882361F09FB7F89420919A038091D9
:103D10003E07213019F48DBB9FBF08958FBF0895D2
:103D200020919A03222399F04FB7F89420919A0397
:103D3000213059F42DB320933E073DB320919903D0
:103D4000209523232DBB4FBF02C040933E078CBD5F
:103D50009DBD0895CF93DF931F92CDB7DEB76983E2
:103D6000DC01ED91FC910280F381E02D41E050E017
:103D7000BE016F5F7F4F09950F90DF91CF9108953E
:103D8000AF92BF92CF92DF92EF92FF920F931F9369
:103D9000CF93DF936B015A01EC0124967C012DEF48
:103DA000E20EF11C00E010E0E881F9810688F78955
:103DB000E02DCE010995882359F0E881F981028030
:103DC000F381E02DA501B601CE010995080F191F59
:103DD000CD5ADF4FCE15DF0539F7C801DF91CF91FE
:103DE0001F910F91FF90EF90DF90CF90BF90AF9019
:103DF0000895882311F061E001C060E08091B00473
:103E00000C942A1710922D068091AF04853010F47F
:103E10000C94AB1808950F931F93CF93DF9381E019
:103E200080932E068091A5039091A603A091A703ED
:103E3000B091A8030097A105B10569F481E090E075
:103E4000A0E0B0E08093A5039093A603A093A703FE
:103E5000B093A803F3C082309105A105B10509F024
:103E6000BFC086E090E0A0E0B0E08093A50390930F
:103E7000A603A093A703B093A8038CB580939E03D9
:103E80008DB5817080939D0380919C038CBD809142
:103E90009B03882319F08DB5816002C08DB58E7F9C
:103EA0008DBD84E591E00E94901E60E08091B20497
:103EB0000E942A176AE070E08091AB039091AC03F6
:103EC0000E945A1E88E090E0A0E0B0E08093A50335
:103ED0009093A603A093A703B093A803C091AB034C
:103EE000D091AC038D81823019F08430E1F03EC076
:103EF00063E070E0CE0105960E94B41B9C01BC01FA
:103F000080E090E020FD05C06F5F7F4F8F4F9F4F97
:103F100005C0611571058105910541F1CE010A9633
:103F20000E945A1E23C0088510E020E030E0C9013D
:103F3000B801615071098109910960FF02C0C9018E
:103F4000B801611571058105910521F0CE010A9630
:103F50000E945A1E88E090E0A0E0B0E08093A503A4
:103F60009093A603A093A703B093A80310922D06E5
:103F70008091AF04853010F40E94AB1861E080910D
:103F8000B2040E942A170E947F1E80919E038CBD5E
:103F900080919D03882319F08DB5816002C08DB595
:103FA0008E7F8DBD8091AB039091AC03FC01EE57E9
:103FB000FF4F20812E3D09F0FFCF42E050E060E04E
:103FC00070E04093A5035093A6036093A7037093FA
:103FD000A803E0919F03F091A003059609952EC0D8
:103FE0000397A105B10551F56091A1037091A2035A
:103FF0008091A9039091AA030E946F1E82E090E035
:10400000A0E0B0E08093A5039093A603A093A7033C
:10401000B093A80361E08091B2040E942A170E9425
:104020007F1E80919E038CBD80919D03882319F093
:104030008DB5816002C08DB58E7F8DBD10922E062C
:10404000DF91CF911F910F91089581E080932D060C
:104050008091AF04853010F40C94AD1008958091D8
:10406000B1040E940117BC01990F880B990B0895A8
:1040700081E080932D068091AF04853010F40C947C
:10408000AD1008950F931F93CF93DF93EC01CB01F5
:104090008170992721E0822721E028838C01060F77
:1040A000171F19838170860F8A831B821C8280915F
:1040B000B1068E3D09F0FFCF8091A5039091A60334
:1040C000A091A703B091A8030097A105B10509F439
:1040D000FFCF0197A105B10509F056C08CB58093BB
:1040E0009E038DB5817080939D0380919C038CBD50
:1040F00080919B03882319F08DB5816002C08DB536
:104100008E7F8DBD84E591E00E94901E60E08091DD
:10411000B2040E942A1761E070E080E090E00E9403
:10412000961764E070E0CE010E946F1E61E070E0BF
:1041300080E090E00E949617B8016F5F7F4FCE013C
:1041400004960E946F1E82E090E0A0E0B0E08093B1
:10415000A5039093A603A093A703B093A80361E0DF
:104160008091B2040E942A170E947F1E80919E03B4
:104170008CBD80919D03882319F08DB5816002C0AC
:104180008DB58E7F8DBD7FC0E0919404F091950434
:1041900009958091A5039091A603A091A703B091E2
:1041A000A80382309105A105B105D9F783E090E01D
:1041B000A0E0B0E08093A5039093A603A093A7038B
:1041C000B093A803D093AA03C093A9030B5F1F4F1A
:1041D0001093A2030093A1038CB580939E038DB529
:1041E000817080939D0380919C038CBD80919B0383
:1041F000882319F08DB5816002C08DB58E7F8DBD8D
:1042000084E591E00E94901E60E08091B2040E94DB
:104210002A17E0919204F09193040995E09190049B
:10422000F09191040995672B682B692B61F56091DA
:10423000A1037091A2038091A9039091AA030E9407
:104240006F1E82E090E0A0E0B0E08093A503909321
:10425000A603A093A703B093A80361E08091B204E2
:104260000E942A170E947F1E80919E038CBD809120
:104270009D03882319F08DB5816002C08DB58E7FB6
:104280008DBD0E9425208091A5039091A603A09149
:10429000A703B091A80382309105A105B105D9F714
:1042A00060E070E0CB01DF91CF911F910F910895F5
:1042B000CF92DF92EF92FF920F931F93CF93DF93F2
:1042C0006C017A018B01C0E0D0E0CE15DF0589F0EA
:1042D000D8016D918D01D601ED91FC910190F08195
:1042E000E02DC6010995892B11F47E0102C02196AB
:1042F000ECCFC701DF91CF911F910F91FF90EF900D
:10430000DF90CF90089540918503509186032091CE
:1043100083033091840342175307B4F49091E8006B
:104320009570E1F39091E80092FD19C08093F1003F
:10433000809185039091860301968F739927892B2D
:1043400019F48EEF8093E8008091850390918603A5
:104350000196909386038093850381E0089580E021
:104360000895615030F02091F100FC012083019606
:10437000F8CF289884E680938B030895DC01ED91B3
:10438000FC910190F081E02D09946115710579F09F
:10439000FB0101900020E9F73197AF01461B570B55
:1043A000DC01ED91FC910280F381E02D099480E025
:1043B00090E008954F925F926F927F92EF92FF92FA
:1043C0000F931F93CF93DF93CDB7DEB7A1970FB6AF
:1043D000F894DEBF0FBECDBF7C01FA01CB0119A25C
:1043E000223008F42AE08E010F5D1F4F422E512C1F
:1043F000612C712CBF01A30192010E949C2AF9013A
:10440000CA01015011096A3014F4605D01C0695C91
:10441000D8016C93232B242B252B61F7B801C701FE
:104420000E94C521A1960FB6F894DEBF0FBECDBF86
:10443000DF91CF911F910F91FF90EF907F906F9040
:104440005F904F9008958091B3049091B4040E94BE
:10445000E3288091B9049091BA040C94E328CF9298
:10446000DF92EF92FF920F931F93CF93DF931F92F0
:10447000CDB7DEB7182F062FE42E862F880F8E5F5C
:1044800099830E94832183E00E948321F12EC12E13
:104490009981D92E8C2D8F19801798F4F601E7FE9B
:1044A00002C0849101C080810E948321182F80E086
:1044B0000E9483218123FFEFCF1ADF0A8111EACF07
:1044C00001C081E00F90DF91CF911F910F91FF907C
:1044D000EF90DF90CF900895CF93DF93CDB7DEB705
:1044E000C355D1090FB6F894DEBF0FBECDBF789487
:1044F00084B5826084BD84B5816084BD85B58260E9
:1045000085BD85B5816085BD80916E008160809399
:104510006E00109281008091810082608093810002
:104520008091810081608093810080918000816012
:1045300080938000809191008260809391008091AF
:1045400091008160809391008091900081608093C0
:1045500090008091C10084608093C1008091C1006F
:1045600082608093C1008091C10081608093C1000E
:104570008091C30081608093C3008091C0008260FD
:104580008093C0008091C20081608093C2008091BE
:104590007A00846080937A0080917A0082608093B0
:1045A0007A0080917A00816080937A0080917A000D
:1045B000806880937A0010928C0310928803109286
:1045C00089038091D70081608093D70080EA80932F
:1045D000D80089B5806189BD89B5826089BD09B47B
:1045E00000FEFDCF61E070E080E090E00E94961751
:1045F0008091D8008F7C80618093D8008091E0000A
:10460000807F8093E0008091E1008E7E8093E100C6
:104610008DE08093E200559A209AEEEFFFE78591B6
:1046200094918B3F9C4D19F481E0809387038FEF29
:104630009FEF9093CF058093CE056DE172E0CE01A0
:1046400001960E94F20CBE016F5F7F4F89EB94E0F0
:104650000E94B90C89819A810E94E32865E272E088
:10466000CE0101960E94F20CBE016F5F7F4F83EB7B
:1046700094E00E94B90C89819A810E94E3281092EB
:1046800028041092270461E08DE00E945A1780915F
:104690001206811150C18091B104882351F08130FC
:1046A00051F0823051F0833051F0873051F08FEF6C
:1046B00009C082E007C083E005C081E003C080E05C
:1046C00001C084E08093AF0461E08091B0040E9457
:1046D0005A1760E08091B0040E942A1764EF71E0DD
:1046E00080E090E00E94961761E08091B2040E9401
:1046F0005A1762E08091B1040E945A178CB58093DA
:104700009E038DB5817080939D031FB7F8948091AF
:10471000F403811127C0E4E1F2E08491E5EFF1E0D8
:104720009491E82FF0E0EE0FFF1FEA52FE4FA591A3
:10473000B491EC91E92321F461E081E10E942A1710
:1047400061E081E10E945A178CB580618CBD8CB507
:1047500080648CBD61E08FE00E945A1761E080E1C7
:104760000E945A178091F4038F5F8093F4031FBF58
:104770008CB5837F84608CBD8CB58F7D8CBD809122
:10478000AE049CB5282F23709C7F922B9CBD2DB529
:1047900082FB992790F9822F8E7F892B8DBD8CB556
:1047A00080939C038DB5817080939B038091AF04AF
:1047B0009FB7F894823069F030F4882399F0813003
:1047C00061F482E010C0833031F0843031F480E451
:1047D0000AC084E008C088E006C082E080939A03A3
:1047E00080E001C081E020919903822B809399039E
:1047F00080919A03811103C081E080939A039FBF47
:1048000061E08091B2040E942A1780919E038CBDC2
:1048100080919D03882319F08DB5816002C08DB50C
:104820008E7F8DBD82E49EE19093890480938804FD
:1048300082E59EE190938B0480938A048AE49EE152
:1048400090938D0480938C048FE290E29093910476
:104850008093900485E290E2909393048093920475
:1048600082E09FE1909395048093940489EF9EE108
:10487000909397048093960481EB96E090938F0435
:1048800080938E0411E01093AC0480E090E00E94CD
:10489000AB1960E070E0CB010E944115E091860405
:1048A000F09187048FEF81871286138614868824FF
:1048B0008A94982C540189829A82AB82BC8244E00B
:1048C000BF0186E090E00E949419BE016F5F7F4FA8
:1048D00086E090E00E94A4191093AC0489829A8229
:1048E000AB82BC82A0908604B090870444E052E87A
:1048F00060E070E0C50109960E948D1944E0B501A1
:1049000088E090E00E949419BE016F5F7F4F88E0BD
:1049100090E00E94A41989819A81AB81BC81892B86
:104920008A2B8B2B19F41093120605C082E292E0B9
:104930000E94A110FFCF80911206882351F160EAF6
:104940007FE080E090E00E94FB13882311F164E98E
:1049500071E180E090E00E949617E0918604F0916A
:104960008704118612861386148644E0BF0187E00F
:1049700090E00E94941965EF73E087E090E00E9458
:10498000A419C090F503D090F603E090F703F090DF
:10499000F80381E392E00E94C8152AE0B701A6015E
:1049A00082EC95E00E94DA210E94261083E492E0D6
:1049B0000E94A615C114D104E104F10409F451C008
:1049C00081E0C81AD108E108F108A090FD03B12CDC
:1049D000B594A7940091FE03902F9370B92E10E028
:1049E0001595079515950795A80161E074E0CE012E
:1049F00001960E94B22BE1E0F0E0EC0FFD1FE00F0A
:104A0000F11F1082E0918604F091870411861286CE
:104A10001386148644E0BF0187E090E00E94941959
:104A200065EF73E087E090E00E94A4198DE892E0C2
:104A30000E94C815CE0101960E94C8150E9426103A
:104A40008AE992E00E94C8158A2D0E94B51582EA73
:104A500092E00E94C8158B2D0E94B5150E94261069
:104A6000A9CF83E492E00E94A61560E070E0CB013C
:104A70000E94FB130E9445078FEB94E00E946B029B
:104A800050E0852E50E0952E63E3262E61E0362E11
:104A900080911206882301F18FEF9FEFDC0189835B
:104AA0009A83AB83BC83609186047091870440E055
:104AB00089E090E00E949419BE016F5F7F4F89E00A
:104AC00090E00E94A41989819A81AB81BC810397EF
:104AD000A105B10509F444C00E94261086E293E0C6
:104AE0000E94A6150E94261060E08DE00E942A1701
:104AF00080911206882391F1E0919604F091970439
:104B000080E00995E0919004F09191040995672B5C
:104B1000682B692BB9F38091860490918704892BC7
:104B200021F010928704109286048091AB0390913B
:104B3000AC03892B21F01092AC031092AB03E091EF
:104B40009404F0919504099568E873E180E090E0A1
:104B50000E94961780E090E00E94AB190E944507E2
:104B60000FE015E0C8018C549109DC01ED91FC9136
:104B70000688F789E02D0995811154C00E94AD1D6A
:104B80004090BE055090BF056090C0057090C10573
:104B9000E0908604F0908704B301A201C701099652
:104BA0000E948D1944E0B70185E090E10E949419BC
:104BB000BE016F5F7F4F85E090E10E94A419AD8038
:104BC000BE80B0924007A0923F0765010B2C000CFD
:104BD000EE08FF08B8E0CB16D104E104F10430F48C
:104BE00020E030E0A901C701B60106C021E030E0B5
:104BF00040E050E0C301B2010E94EC1AB7FC12C0C1
:104C0000F801C382D482E582F68212821182108278
:104C1000FE013D96D801A054B10980E401900D92A7
:104C20008A95E1F70D5A1F4FF6E008301F0709F08B
:104C300099CF43ECE42E44E0F42E00E010E0D701DD
:104C4000ED91FC910688F789E02DC701099588232D
:104C500009F44DC1D701ED91FC910084F185E02D5F
:104C6000C7010995181619060CF041C1802F082FAD
:104C7000082E000C110B8F3F09F432C11C821B82DD
:104C800088EE93E0A0E0B0E08D839E83AF83B88789
:104C90003A822982A3E5A09FC001A19F900D112413
:104CA0008D539B4F9E878D873FE5E32E34E0F32E97
:104CB0000E94551869877A878B879C87CE01019659
:104CC0000E94CF0197FD1CC0F70181937F01F0E89E
:104CD000EF16F4E0FF0661F780915F0480933A04D9
:104CE0008091600480933B04482F50E02AE1281B08
:104CF00020933904DA01A45CBB4F80E090E016C039
:104D00000E94551849845A846B847C84DC01CB0151
:104D100084199509A609B7094D805E806F80788453
:104D200084159505A605B70548F2D6CF84309105C0
:104D300049F0FC01E40FF51FE15AFB4F22812D934E
:104D40000196F4CF2091390430E080E090E08217A2
:104D500093076CF4DC01A75CBB4FFC01E40FF51F6B
:104D6000E15AFB4F678118966C930196F0CFC09083
:104D70003A04D12CE0903C04F12C83EB92E00E94A9
:104D8000C815C6010E94AC098BEB92E00E94C815C1
:104D900080913B040E94B5158BEC92E00E94C815EF
:104DA00060913D0470913E0480913F0490914004D5
:104DB0000E94790985ED92E00E94C815C7010E9402
:104DC000AC0980913A04823009F441C0833009F47F
:104DD0005DC0813009F081C08BED92E00E94A61584
:104DE0008CE38093CF030E94252A6093D2037093B3
:104DF000D3038093D4039093D503000F111F000FAA
:104E0000111FF801E75DFB4F6083718382839383F9
:104E100080E090E00E94090741E250E06DEA73E013
:104E2000CE0101960E949C0180EF92E00E94A6159F
:104E300085E093E00E94C8156091D2037091D3037E
:104E40008091D4039091D5030E94790946C08BEDDF
:104E500092E00E94A615809139040E94B51585E163
:104E600093E00E94A61500E010E08091390490E0E4
:104E70000817190794F5F801E75CFB4F608582EC91
:104E800095E00E94BE210F5F1F4FEFCF8BED92E0A8
:104E90000E94A61580E48093CF0380914104809303
:104EA000D603809142048093D7038091430480937A
:104EB000D803809144048093D90380913C0480936B
:104EC000DA0385E090E00E94090741E250E06DEAD4
:104ED00073E08FEB94E00E94C01E9FEF90933A0422
:104EE0008114910409F4D4CD0E940000D1CD0F5F4C
:104EF0001F4FA3E5EA0EF11C0330110509F09FCE08
:104F00008FEFB5CEE9E1F6E08BE092E0918380830C
:104F10001282138214821582E2ECF5E0138212826F
:104F200048EE53E060E070E0448355836683778306
:104F300021E931E0318320832FEF3FEF358724874C
:104F4000AFE1B6E011969C938E9312961C92129745
:104F500013961C92139714961C92149715961C92F4
:104F6000A5E2B6E011969C938E9312961C9212972E
:104F700013961C92139714961C92149715961C92D4
:104F8000A3E1B6E011969C938E9312961C92129711
:104F900013961C92139714961C92149715961C92B4
:104FA000109212068AE08093B20487E08093B104E5
:104FB00085E08093B0048FEF8093AF0484E080930A
:104FC000AE041092AD04F0932C06E0932B06EFEBA9
:104FD000F4E01382128281EF91E091838083178243
:104FE0001682408751876287738723ED31E03583CE
:104FF00024838FEF9FEFDC018093120590931305BC
:10500000A0931405B0931505109219051092180578
:1050100040931A0550931B0560931C0570931D0562
:1050200030931705209316058093650590936605C8
:10503000A0936705B093680510926C0510926B05FC
:1050400040936D0550936E0560936F0570937005E6
:1050500030936A05209369058093B8059093B9054C
:10506000A093BA05B093BB052FEF30E03093BD0598
:105070002093BC058093BE059093BF05A093C00507
:10508000B093C10565E473E089EB94E00E94F20CF3
:1050900065E473E083EB94E00C94F20CCF93DF9320
:1050A0008230910510F482E090E0E0914307F091A6
:1050B000440720E030E0C0E0D0E0309711F14081BB
:1050C000518148175907C0F04817590761F4828188
:1050D0009381209719F09B838A832BC09093440778
:1050E0008093430726C02115310519F04217530755
:1050F00018F49A01BE01DF01EF010280F381E02D77
:10510000DCCF2115310509F1281B390B243031057D
:1051100090F412968D919C9113976115710521F071
:10512000FB019383828304C09093440780934307D9
:10513000FD01329644C0FD01E20FF31F819391936C
:10514000225031092D933C933AC020914107309170
:105150004207232B41F420911C0130911D01309313
:1051600042072093410720911A0130911B0121151C
:10517000310541F42DB73EB740911E0150911F01FA
:10518000241B350BE0914107F0914207E217F3072A
:10519000A0F42E1B3F0B2817390778F0AC014E5FA7
:1051A0005F4F2417350748F04E0F5F1F509342079B
:1051B000409341078193919302C0E0E0F0E0CF017A
:1051C000DF91CF9108950F931F93CF93DF930097B3
:1051D00009F48CC0FC0132971382128200914307BC
:1051E000109144070115110581F420813181820F4E
:1051F000931F20914107309142072817390779F50D
:10520000F0934207E093410771C0D80140E050E0BD
:10521000AE17BF0750F412962D913C911397AD0134
:105220002115310509F1D901F3CF9D01DA0133834D
:10523000228360817181860F971F8217930769F41B
:10524000EC0128813981260F371F2E5F3F4F3183B4
:1052500020838A819B8193838283452B29F4F09359
:105260004407E093430742C01396FC93EE931297D2
:10527000ED01499159919E01240F351FE217F30763
:1052800071F480819181840F951F029611969C93F1
:105290008E938281938113969C938E931297E0E074
:1052A000F0E0D80112968D919C911397009719F018
:1052B000F8018C01F6CF8D919C9198012E5F3F4FA4
:1052C000820F931F20914107309142072817390719
:1052D00069F4309729F4109244071092430702C0F2
:1052E000138212821093420700934107DF91CF91FE
:1052F0001F910F9108958F929F92AF92BF92CF927C
:10530000DF92EF92FF92CF93DF93EC016881798176
:105310008A819B81611571058105910521F464E203
:1053200079ED8BE597E02DE133EF41E050E00E940D
:10533000332A49015A019B01AC01A7EAB1E40E945A
:10534000522A6B017C01ACEEB4EFA50194010E94DE
:10535000602ADC01CB018C0D9D1DAE1DBF1DB7FF6A
:1053600003C00197A109B04888839983AA83BB83AE
:105370009F77DF91CF91FF90EF90DF90CF90BF901C
:10538000AF909F908F9008950E947B29089580E2AE
:1053900091E00E947B290895A0E0B0E08093200175
:1053A00090932101A0932201B093230108958F923D
:1053B0009F92AF92BF92CF92DF92EF92FF92CF93E4
:1053C000DF93EC01688179818A819B816115710588
:1053D0008105910521F464E279ED8BE597E02DE1FB
:1053E00033EF41E050E00E94332A49015A019B010A
:1053F000AC01A7EAB1E40E94522A6B017C01ACEE39
:10540000B4EFA50194010E94602ADC01CB018C0D50
:105410009D1DAE1DBF1DB7FF03C00197A109B04878
:1054200088839983AA83BB83BC01CD019F77DF91D9
:10543000CF91FF90EF90DF90CF90BF90AF909F9073
:105440008F9008950E94D729089584E291E00E94E8
:10545000D729089560932401709325018093260134
:10546000909327010895052E97FB1EF400940E9447
:105470004A2A57FD07D00E949C2A07FC03D04EF40D
:105480000C944A2A50954095309521953F4F4F4FA7
:105490005F4F089590958095709561957F4F8F4FE0
:1054A0009F4F08950E94BE2AA59F900DB49F900D16
:1054B000A49F800D911D11240895B7FF0C94522ACA
:1054C0000E94522A821B930B08952F923F924F9273
:1054D0005F926F927F928F929F92AF92BF92CF9284
:1054E000DF92EF92FF920F931F93CF93DF93CDB78D
:1054F000DEB7CA1BDB0B0FB6F894DEBF0FBECDBF05
:1055000009942A88398848885F846E847D848C84D5
:105510009B84AA84B984C884DF80EE80FD800C81DE
:105520001B81AA81B981CE0FD11D0FB6F894DEBFC1
:105530000FBECDBFED010895A1E21A2EAA1BBB1B21
:10554000FD010DC0AA1FBB1FEE1FFF1FA217B3074F
:10555000E407F50720F0A21BB30BE40BF50B661F65
:10556000771F881F991F1A9469F760957095809529
:1055700090959B01AC01BD01CF010895A29FB001A0
:10558000B39FC001A39F700D811D1124911DB29F77
:10559000700D811D1124911D0895EE0FFF1F0590C0
:1055A000F491E02D0994A0E0B0E0E9EDFAE20C946A
:1055B000692AEC01009721F4CB010E944E28B8C063
:1055C000FC01E60FF71F9C0122503109E217F30797
:1055D00008F4ACC0D9010D911C911197061717075B
:1055E000B0F00530110508F49FC0C8010497861774
:1055F000970708F499C002501109061B170B019375
:1056000011936D937C93CF010E94E3288DC05B01C1
:10561000A01AB10A4C01800E911EA0914307B091CF
:10562000440740E050E0E12CF12C109709F44AC007
:10563000A815B905D1F56D907C901197630182E0B2
:10564000C80ED11CCA14DB0480F1A3014A195B09FE
:105650006A0182E0C80ED11C1296BC901297139674
:10566000AC91B5E0CB16D10440F0B282A383518354
:105670004083D9016D937C930AC00E5F1F4FC30115
:10568000800F911FF90191838083EB2DFA2FE11494
:10569000F10431F0D7011396FC93EE93129744C0B6
:1056A000F0934407E09343073FC08D919C9111977D
:1056B0004817590708F4AC017D0112960D90BC9172
:1056C000A02DB3CF8091410790914207881599058D
:1056D000E1F446175707C8F480911A0190911B0115
:1056E000009741F48DB79EB740911E0150911F0164
:1056F000841B950BE817F907C8F4F0934207E09371
:105700004107F901718360830FC0CB010E944E28CD
:105710007C01009759F0A801BE010E94A22BCE0186
:105720000E94E328C70104C0CE0102C080E090E0DF
:10573000CDB7DEB7EEE00C94852A81E090E0F894D6
:105740000C94C12BFB01DC0102C001900D92415071
:105750005040D8F70895FB01DC0101900D92002024
:10576000E1F70895FB01DC014150504048F0019001
:105770000D920020C9F701C01D9241505040E0F742
:10578000089511E0C2E4D1E004C0FE010E94CD2AD8
:0C5790002196C334D107C9F7F894FFCF6D
:10579C00FFFFFFFF00E1000000000000FFFF000022
:1057AC00B816B816B816B816B8160000450780001B
:1057BC00010000000100000000C180810000000019
:1057CC00000000E0019C0168027C01BE01CF018B4E
:1057DC000112020102AD016D01F1014C02D0070072
:1057EC0000D0070000D0070000D0070000D0070051
:1057FC0000D0070000D0070000D0070000D0070041
:10580C0000D0070000D0070000D0070000D0070030
:10581C0000D0070000D0070000D0070000000000F7
:10582C00001B16D017B91631163C16BD16DB160028
:10583C00000000FF16FF166802FF16FF16FF16FF8A
:10584C0016FF16FF16FF16FF16FF16FF16000000B8
:10585C0000FF16582168026702FF16FF16FF16009C
:10586C000000001506420668025902DA04DF034FF5
:10587C00046B056006BC049803AD035A02000000DB
:10588C0000AA1EC01E680267026B0200000000FF27
:10589C001658216802670200000000E00F000000AB
:1058AC0000FF166C6F63616C686F737400697074C1
:1058BC00696D657200666C7969636562616C6C21F7
:1058CC00004E6574776F726B7320666F756E642013
:1058DC003A2000203D3D203D3D203D3D203D3D20DA
:1058EC003D3D203D3D203D3D203D3D203D3D203D6D
:1058FC003D203D3D203D3D203D3D203D3D203D3D5D
:10590C00203D3D203D3D203D3D203D3D203D3D2069
:10591C003D3D203D3D203D3D203D3D200053534924
:10592C0044204E616D65203A200052535349203A71
:10593C0020005365637572697479204D6F6465201E
:10594C003A2000436F6465203A200050616464691A
:10595C006E672053697A65203A20005365714E7545
:10596C006D203A20004944203A20000A0A53746101
:10597C0072742053656E64205061636B65740A0009
:10598C00436F6D706C6574652053656E6420506157
:10599C00636B65740053656E64205365715F4E755F
:1059AC006D203A20000A53746172742053686F772B
:1059BC002044617461005769466920436F6E6E65BF
:1059CC006374204C6F7374205265436F6E6E656305
:0659DC007421000D0A0019
:00000001FF
