:100000000C9442010C9408090C94E1080C94BA0871
:100010000C9493080C946A010C946A010C946C087B
:100020000C946A010C946A010C94AE110C94201289
:100030000C946A010C946A010C946A010C946A0194
:100040000C946A010C946A010C946A010C946A0184
:100050000C946A010C946A010C946A010C942208B5
:100060000C946A010C946A010C946A010C946A0164
:100070000C946A010C946A010C946A010C946A0154
:100080000C946A010C946A010C946A010C946A0144
:100090000C946A010C946A010C946A010C946A0134
:1000A0000C946A010C946A010C946A019E01A101EE
:1000B000900194019A01C201C201C201A501A901E6
:1000C000AD01B301B701C201BD0100000000250070
:1000D00028002B002E003100000000002300260025
:1000E00029002C002F000000000200090F0000036F
:1000F0000401000C000000000000000000000000EF
:10010000000000000000000000240027002A002D4D
:100110000030000408020110408040102040804060
:10012000800802040180402010020110801020404D
:100130004020040404040403040502020202040330
:100140000202020206060606060604040202020471
:10015000040A444E53736572763A20000A444843B9
:10016000507372763A20000A476174657761793A74
:1001700020000A4E65746D61736B3A20000A495085
:1001800020416464723A2000556E61626C6520748F
:100190006F207265747269657665207468652049A0
:1001A000502041646472657373210D0A00526571B9
:1001B00075657374204448435000436F6E6E6563E9
:1001C00074656421004661696C656421000A4174AC
:1001D00074656D7074696E6720746F20636F6E6EE6
:1001E00065637420746F2000436F756C646E2774B0
:1001F00020626567696E28292120436865636B204A
:10020000796F757220776972696E673F00080B001D
:10021000020202010009040000010202000005249C
:100220000010010524010101042402060524060032
:10023000010705810310004009040100020A0000C3
:100240000007050202400000070583024000000489
:1002500003090412010002EF020140032A4080005A
:100260000101020301556E6B6E6F776E004172647F
:1002700075696E6F204C656F6E6172646F204554B6
:100280004800C11811241FBECFEFDAE0DEBFCDBF9A
:1002900011E0A0E0B1E0E8E3F3E302C005900D92C5
:1002A000AA39B107D9F723E0AAE9B1E001C01D924C
:1002B000A43BB207E1F711E0C2E4D1E004C021970A
:1002C000FE010E948619C134D107C9F70E94AE14FD
:1002D0000C949A190C940000FC018485958597FD77
:1002E0000BC09FB7F89482E08093E9008091F20000
:1002F0009FBF90E0019608959FB7F89482E08093A5
:10030000E9008091F2009FBF90E0089590E0FC0129
:100310003197EF30F105B0F5EA5AFF4F0C9486198A
:10032000809180008F7703C0809180008F7D8093C3
:100330008000089580918000877FF9CF84B58F7702
:1003400002C084B58F7D84BD0895809190008F7721
:1003500007C0809190008F7D03C080919000877FBF
:100360008093900008958091C0008F7703C08091A2
:10037000C0008F7D8093C00008958091C200877F68
:100380008093C2000895CF93DF93282F30E0F901C6
:10039000EA51FF4F8491F901ED5EFE4FD491F901CE
:1003A000EE5CFE4FC491CC2391F081110E94860136
:1003B000EC2FF0E0EE0FFF1FE852FF4FA591B49134
:1003C000EC91ED2381E090E021F480E002C080E038
:1003D00090E0DF91CF9108953FB7F8948091DB01D1
:1003E0009091DC01A091DD01B091DE0126B5A89BC2
:1003F00005C02F3F19F00196A11DB11D3FBFBA2FB7
:10040000A92F982F8827820F911DA11DB11DBC0116
:10041000CD0142E0660F771F881F991F4A95D1F7DB
:100420000895823079F030F4882351F0813069F4F6
:10043000E9980BC0833041F0843039F4EE9805C060
:10044000E89803C0EA9801C0EB98E82FF0E0EE0FBF
:10045000FF1FEC5FFE4F80E392E09183808308955D
:1004600008950F931F93FC01E60FF71F438150E09F
:1004700060E070E0342F2227112700279281492F56
:1004800050E060E070E0BA0155274427400F511F4B
:10049000621F731F8081480F511D611D711D818175
:1004A00090E0A0E0B0E0BA2FA92F982F88278A010A
:1004B0009B01080F191F2A1F3B1FC901B8011F917B
:1004C0000F910895FC01E60FF71F9181892F90E0AD
:1004D000982F88272081820F911D0895FC0110829A
:1004E00011821282138280E090E00895FC01108254
:1004F00011821282138280E090E00895FC01108244
:1005000011821282138280E090E008951092D4014B
:1005100080912F03853010F40C941102089580917E
:1005200031030E94C301BC01990F880B990B0895F8
:100530002CB5237F24602CBD680F791F23E086171C
:10054000970751F02EBD00000DB407FEFDCF3EB55C
:10055000FC013193CF01F3CF0895680F791F8617FF
:10056000970751F0FC012191CF012EBD00000DB481
:1005700007FEFDCF2EB5F3CF08958091E0018823CB
:1005800061F09FB7F8942091E0018091D301213070
:1005900019F48DBB9FBF08958FBF08952091E0018E
:1005A000222399F04FB7F8942091E001213059F4BB
:1005B0002DB32093D3013DB32091DF012095232358
:1005C0002DBB4FBF02C04093D3018CBD9DBD08958C
:1005D000089580E090E008950E948C19FA01603837
:1005E00030E873078105910521F430912D033160C6
:1005F00009C0613030E873078105910531F430910D
:100600002D03326030932D0321C0623030E8730730
:100610008105910531F420912D03297F20932D032D
:1006200027C0603130E873078105910521F480917E
:100630002D03846008C0693971058105910531F485
:1006400080912D03886080932D030895603430E8F5
:1006500073078105910561F48091D2018F5F8093CA
:10066000D201422F50E0BF018EEB91E00C94911922
:10067000611578488105910541F4E081E03228F464
:10068000F0E0E256FE4F81E0808308958F929F92C2
:10069000AF92BF92CF92DF92EF92FF920F931F9390
:1006A000CF93DF93CDB7DEB765970FB6F894DEBF73
:1006B0000FBECDBF8C0161E070E00E9462026C0150
:1006C000E12CF12C96FF69C0811521E4920709F015
:1006D00064C065E070E0C8010E9462024C01095FDD
:1006E0001F4FA12CB12CC12CD12C7601A814B90418
:1006F00079F062E070E0C8010E946202C80ED91E63
:10070000E11CF11C0C5F1F4F8FEFA81AB80AEECF47
:1007100080911C0390911D038C0D9D1D90931D03D2
:1007200080931C038091280390912903A0912A03B0
:10073000B0912B03C80ED91EEA1EFB1EC0922803DF
:10074000D0922903E0922A03F0922B0340912803D0
:100750005091290360912A0370912B038091240307
:1007600090912503A0912603B091270348175907BC
:100770006A077B0709F021C180912C03882309F4C3
:100780001CC1E0910E03F0910F0320E040E050E027
:1007900069E970E080E090E0D3C097FFD3C0803477
:1007A000E0E89E0709F46DC0C0F4843020E89207A9
:1007B00009F4B6C030F481509048029708F013C194
:1007C000AFC08031904809F00EC1D8011596FE01E6
:1007D0003196CE010596AF011AC0811524E8920723
:1007E00009F49EC050F48038F0E89F0709F498C0DF
:1007F0008115924809F494C0F6C08115E8E89E0777
:1008000009F47EC08115994809F48AC0ECC02D9185
:100810002193E817F907D9F7F80181858D8382853F
:100820008E8383858F83848588873D96DE01199624
:10083000C801419621912D93E817F907D9F7DE01F8
:100840001D96C801459621912D93E817F907D9F710
:10085000DE015196C801499621912D93E817F907B9
:10086000D9F7F80184818D8B80910E0390910F034D
:10087000892B09F4A2C0E0910E03F0910F0325E14A
:100880005DC00B5F1F4F60E070E0C8010E94310245
:1008900069837A838B839C8364E070E0C8010E9443
:1008A00031026D837E838F83988768E070E0C80192
:1008B0000E94310269877A878B879C876CE070E0A1
:1008C000C8010E9431026D877E878F87988B60E117
:1008D00070E0C8010E943102698B7A8B8B8B9C8BF4
:1008E00080910E0390910F03892B09F466C0E0916B
:1008F0000E03F0910F0324E1AE014F5F5F4F1EC066
:1009000080910E0390910F03892B09F456C0E0915A
:100910000E03F0910F03A8014B5F5F4F21E00EC063
:1009200080910E0390910F03892B09F446C0E0914A
:100930000E03F0910F0320E040E050E0C701B60144
:1009400009953BC0F3E0CF16F0E1DF06E104F104C6
:1009500021F08E5090410297A8F5780125E0E20E33
:10096000F11C64E070E0C7010E943102673C7F4FD8
:100970008F4F9F4FC1F5F801848190E0A0E0B0E077
:100980008093180390931903A0931A03B0931B0349
:1009900060E070E0C7010E9431024B015C0164E03D
:1009A00070E0C7010E943102673C7F4F8F4F9F4F1D
:1009B00021F4C501B4010E94E20E61E070E080E024
:1009C00090E014C08091000390910103A0E0B0E09A
:1009D000C816D906EA06FB0631F0C11420E1D2069A
:1009E000E104F10451F760E070E0CB0165960FB6C9
:1009F000F894DEBF0FBECDBFDF91CF911F910F9155
:100A0000FF90EF90DF90CF90BF90AF909F908F902E
:100A1000089581E08093D40180912F03853010F4F4
:100A20000C94A30E089521E030E03093030320934B
:100A30000203909305038093040380910203909135
:100A40000303892BA9F08091040390910503FC0115
:100A50002081243069F40E944603613071058105CC
:100A6000910531F410920303109202030C940905CE
:100A7000089581E08093D40180912F03853010F494
:100A80000C94A30E08951F93CF93DF93282F30E08B
:100A9000F901EA51FF4F8491F901ED5EFE4FD491C7
:100AA000F901EE5CFE4FC491CC23C9F0162F8111E1
:100AB0000E948601EC2FF0E0EE0FFF1FE653FF4F80
:100AC000A591B4918FB7F894111105C09C91ED2FA9
:100AD000E095E92302C0EC91ED2BEC938FBFDF9101
:100AE000CF911F9108950F931F93CF93DF9381E0D0
:100AF0008093D5018091EB019091EC01A091ED01E3
:100B0000B091EE010097A105B10569F481E090E094
:100B1000A0E0B0E08093EB019093EC01A093ED0195
:100B2000B093EE01F3C082309105A105B10509F043
:100B3000BFC086E090E0A0E0B0E08093EB0190932E
:100B4000EC01A093ED01B093EE018CB58093E4012C
:100B50008DB581708093E3018091E2018CBD80911D
:100B6000E101882319F08DB5816002C08DB58E7FBB
:100B70008DBD84E591E00E94CE0260E08091320359
:100B80000E9443056AE070E08091F1019091F201CA
:100B90000E94980288E090E0A0E0B0E08093EB0132
:100BA0009093EC01A093ED01B093EE01C091F1019F
:100BB000D091F2018D81823019F08430E1F03EC095
:100BC00063E070E0CE0105960E9462029C01BC01C8
:100BD00080E090E020FD05C06F5F7F4F8F4F9F4FFB
:100BE00005C0611571058105910541F1CE010A9697
:100BF0000E94980223C0088510E020E030E0C9017F
:100C0000B801615071098109910960FF02C0C901F1
:100C1000B801611571058105910521F0CE010A9693
:100C20000E94980288E090E0A0E0B0E08093EB01A1
:100C30009093EC01A093ED01B093EE011092D401DA
:100C400080912F03853010F40E94110261E08091A1
:100C500032030E9443050E94BD028091E4018CBDD5
:100C60008091E301882319F08DB5816002C08DB5B4
:100C70008E7F8DBD8091F1019091F201FC01EE57C4
:100C8000FF4F20812E3D09F0FFCF42E050E060E0B1
:100C900070E04093EB015093EC016093ED01709391
:100CA000EE01E091E501F091E601059609952EC06F
:100CB0000397A105B10551F56091E7017091E80135
:100CC0008091EF019091F0010E94AD0282E090E0EE
:100CD000A0E0B0E08093EB019093EC01A093ED01D4
:100CE000B093EE0161E0809132030E9443050E94BF
:100CF000BD028091E4018CBD8091E301882319F04D
:100D00008DB5816002C08DB58E7F8DBD1092D501ED
:100D1000DF91CF911F910F910895882311F061E029
:100D200001C060E0809130030C944305CF93DF93C2
:100D300090E0FC01ED5EFE4F2491FC01EE5CFE4F65
:100D40008491882361F190E0880F991FFC01EB5F8B
:100D5000FE4FC591D491FC01E653FF4FA591B4918C
:100D6000611109C09FB7F8948881209582238883F8
:100D7000EC912E230BC0623061F49FB7F894388158
:100D8000822F809583238883EC912E2B2C939FBFF9
:100D900006C08FB7F894E8812E2B28838FBFDF9190
:100DA000CF9108958F929F92AF92BF92CF92DF9290
:100DB000EF92FF926B017C010E94EC014B015C0100
:100DC000C114D104E104F104F1F00E94EC01DC0152
:100DD000CB0188199909AA09BB09883E9340A1054E
:100DE000B10570F321E0C21AD108E108F10888EEDC
:100DF000880E83E0981EA11CB11CC114D104E1042B
:100E0000F10419F7DDCFFF90EF90DF90CF90BF9006
:100E1000AF909F908F9008950F931F93CF93DF9380
:100E2000EC01CB018170992721E0822721E0288302
:100E30008C01060F171F19838170860F8A831B820E
:100E40001C82809175028E3D09F0FFCF8091EB01ED
:100E50009091EC01A091ED01B091EE010097A105F8
:100E6000B10509F4FFCF0197A105B10509F056C0FE
:100E70008CB58093E4018DB581708093E3018091FE
:100E8000E2018CBD8091E101882319F08DB581606C
:100E900002C08DB58E7F8DBD84E591E00E94CE02AB
:100EA00060E0809132030E94430561E070E080E0E1
:100EB00090E00E94D20664E070E0CE010E94AD0294
:100EC00061E070E080E090E00E94D206B8016F5FC0
:100ED0007F4FCE0104960E94AD0282E090E0A0E038
:100EE000B0E08093EB019093EC01A093ED01B093FF
:100EF000EE0161E0809132030E9443050E94BD0231
:100F00008091E4018CBD8091E301882319F08DB5B7
:100F1000816002C08DB58E7F8DBD7FC0E0911403CE
:100F2000F091150309958091EB019091EC01A0914E
:100F3000ED01B091EE0182309105A105B105D9F71F
:100F400083E090E0A0E0B0E08093EB019093EC01AF
:100F5000A093ED01B093EE01D093F001C093EF01A7
:100F60000B5F1F4F1093E8010093E7018CB580934E
:100F7000E4018DB581708093E3018091E2018CBD25
:100F80008091E101882319F08DB5816002C08DB593
:100F90008E7F8DBD84E591E00E94CE0260E080915D
:100FA00032030E944305E0911203F0911303099567
:100FB000E0911003F09111030995672B682B692BC1
:100FC00061F56091E7017091E8018091EF019091E6
:100FD000F0010E94AD0282E090E0A0E0B0E08093DA
:100FE000EB019093EC01A093ED01B093EE0161E071
:100FF000809132030E9443050E94BD028091E4016A
:101000008CBD8091E301882319F08DB5816002C009
:101010008DB58E7F8DBD0E9439058091EB01909139
:10102000EC01A091ED01B091EE0182309105A10596
:10103000B105D9F760E070E0CB01DF91CF911F914E
:101040000F9108951F920F920FB60F9211242F93B4
:101050003F938F939F93AF93BF938091D7019091CC
:10106000D801A091D901B091DA013091D60123E0E5
:10107000230F2D3720F40196A11DB11D05C026E8D0
:10108000230F0296A11DB11D2093D6018093D70195
:101090009093D801A093D901B093DA018091DB013C
:1010A0009091DC01A091DD01B091DE010196A11DBE
:1010B000B11D8093DB019093DC01A093DD01B0931F
:1010C000DE01BF91AF919F918F913F912F910F9032
:1010D0000FBE0F901F9018951F920F920FB60F9290
:1010E00011242F933F934F935F936F937F938F932D
:1010F0009F93AF93BF93EF93FF93E0910C01F09117
:101100000D010995FF91EF91BF91AF919F918F9143
:101110007F916F915F914F913F912F910F900FBEF3
:101120000F901F9018951F920F920FB60F921124D7
:101130002F933F934F935F936F937F938F939F93DF
:10114000AF93BF93EF93FF93E0910A01F0910B01EE
:101150000995FF91EF91BF91AF919F918F917F91F1
:101160006F915F914F913F912F910F900FBE0F9014
:101170001F9018951F920F920FB60F9211242F9364
:101180003F934F935F936F937F938F939F93AF930F
:10119000BF93EF93FF93E0910801F0910901099546
:1011A000FF91EF91BF91AF919F918F917F916F913F
:1011B0005F914F913F912F910F900FBE0F901F9015
:1011C00018951F920F920FB60F9211242F933F93F1
:1011D0004F935F936F937F938F939F93AF93BF933F
:1011E000EF93FF93E0910601F09107010995FF91BC
:1011F000EF91BF91AF919F918F917F916F915F918F
:101200004F913F912F910F900FBE0F901F90189507
:101210001F920F920FB60F9211242F933F934F936B
:101220005F936F937F938F939F93AF93BF93EF934E
:10123000FF93E0910401F09105010995FF91EF9171
:10124000BF91AF919F918F917F916F915F914F91DE
:101250003F912F910F900FBE0F901F901895FB019B
:1012600021E0258386839783408750E0BA016C5F35
:101270007F4FCF010E940C0780E090E00895FC01B1
:101280004083518362837383049608958091310370
:101290000E94C301892B49F48091D501811105C0B9
:1012A0008091D40181110C94730508958F929F92BF
:1012B000AF92BF92CF92DF92EF92FF920F931F9364
:1012C000CF93DF938B01BA01E90123E0F801258375
:1012D0008683CE01029687839087C8010B96C93E0C
:1012E000F3E0DF07C0F4F801C187D287AE010E94A6
:1012F0009119BE016A5F7F4FC801DF91CF911F91A5
:101300000F91FF90EF90DF90CF90BF90AF909F90A4
:101310008F900C940C0738EEF8013187228728EE65
:1013200033E0FA01DC0101900D9221503040D9F7F1
:10133000C85ED3406A01F8E1CF1AFCEFDF0A6EEE17
:1013400073E0C8010E940C07480127E0820E911C3F
:10135000580135E0A30EB11C0E944609C93E83E046
:10136000D80738F0C85ED34088EEE82E83E0F82E28
:1013700003C07E01C0E0D0E0F801F682E582A7015B
:10138000B601C4010E949119CE0CDF1CB7016E5F3B
:101390007F4FC5010E940C072097F1F6DF91CF9196
:1013A0001F910F91FF90EF90DF90CF90BF90AF9083
:1013B0009F908F9008956F927F928F929F92AF929D
:1013C000BF92CF92DF92EF92FF920F931F93CF9332
:1013D000DF9300D000D0CDB7DEB78B01909301032F
:1013E00080930003E12CF12C80E1B82E96E2A92E27
:1013F0000E9446098091020390910303892BC1F357
:10140000C0900403D0900503F6018081843009F078
:1014100026C261E070E0C6010E9462027C01C60142
:101420000E944603672B682B692B09F00CC236011A
:10143000F5E06F0E711C48E0E41640E1F40608F098
:1014400076C086E0E81680E1F80608F002C1E2E026
:10145000EE16FE0609F4FDC000F54DE0E416F104B9
:1014600080F488E0E816F10408F0F3C0E1E0EE163D
:10147000F10408F4E8C1F7E0EF16F10408F068C1E0
:10148000E8C04DE0E416F10409F4DEC081E0E8169E
:1014900082E0F80609F4D8C0D6C1E3E0EE16E0E138
:1014A000FE0610F5F1E0EF16F0E1FF0608F0D1C0FE
:1014B00045E0E41642E0F40608F4C6C087E0E8160A
:1014C00082E0F80609F0BFC1F6018481F80181933A
:1014D0008F0160E070E0C3010E943102AB01BC01EA
:1014E000C8010E943F09AFC1E4E0EE16E0E1FE064C
:1014F00009F4D9C008F406C160E070E0C3010E949D
:101500003102F801608371838283938364E070E029
:10151000C3010E943102F801648375838683978337
:10152000085F1F4FF6013D96D8018B2D43C141E165
:10153000E41640E1F40609F487C008F04BC0EBE084
:10154000EE16E0E1FE0609F484C0A8F549E0E416D1
:1015500040E1F40609F47DC008F0EBC060E070E003
:10156000C3010E943102F8016083718382839383F7
:1015700064E070E0C3010E943102F8016483758366
:101580008683978368E070E0C3010E943102F8010E
:1015900060877187828793874801FCE08F0E911CDA
:1015A0006CE070E0C3010E943102F8016487758726
:1015B0008687978747C1EFE0EE16E0E1FE0609F463
:1015C000A1C008F051C04DE0E41640E1F40609F472
:1015D0006AC039C185E0E81680E2F80609F4EFC078
:1015E00060F4F2E1EF16F0E1FF0609F453C041E0C8
:1015F000E41640E2F40640F526C18AE0E81680E2EF
:10160000F80658F4E8E0EE16E0E2FE06E8F4F6E04C
:10161000EF16F0E2FF06C1F016C14BE0E41640E41D
:10162000F40609F010C1F601858190E090931D0346
:1016300080931C0361E070E0C3010E9462029093FA
:101640001F0380931E03FFC0F6018481F80180838D
:10165000FAC060E070E0C3010E943102F8016083CB
:10166000718382839383EFC060E070E0C3010E94C6
:101670003102F80161937193819391934F0164E07A
:1016800070E0C3010E943102F80164837583868390
:101690009783D8C060E070E0C3010E946202F80145
:1016A00091838083D0C060E070E0C3010E9431026A
:1016B000F801608371838283938364E070E0C301E7
:1016C0000E943102F8016483758386839783480101
:1016D000F8E08F0E911C68E070E0C3010E943102B7
:1016E000F801608771878287938704851585268531
:1016F0003785073C1F4F2F4F3F4F09F0A3C00E9473
:10170000E20EA0C060E070E0C3010E943102F80167
:10171000608371838283938364E070E0C3010E94DD
:101720003102F8016483758386839783085F1F4FB6
:101730008AC0F6018481F8018483F601858196814F
:10174000A781B085F80180839183A283B3837BC096
:1017500060E070E0C3010E943102F8016083718390
:101760008283938364E070E0C3010E943102F80138
:10177000648375838683978368E070E0C3010E9469
:101780006202A0E0B0E0F80180879187A287B3876A
:101790006AE070E0C3010E946202A0E0B0E0F801DC
:1017A00082879387A487B587045F1F4FF6017196E0
:1017B000D8018A2D01900D928A95E1F744C0C801A5
:1017C000D8011496F30121913F01FC012193CF012F
:1017D000EA17FB07B9F7F6013996C6010D96219174
:1017E0002D93E817F907D9F7D8011896C601419645
:1017F00021912D93E817F907D9F7D8011C96C60156
:10180000459621912D93E817F907D9F7D8015096FD
:10181000C601499621912D93E817F907D9F7D80108
:101820005496C6014F9621912D93E817F907D9F7E1
:10183000D8015A96C601CF9621912D93E817F90742
:10184000D9F701C084018091000390910103E8164B
:10185000F906D9F4109201031092000316C063E058
:1018600070E0C6010E946202F601628170E0AC0184
:10187000461B570B6B5F7F4F6C0D7D1DC8010E948F
:1018800091191092230310922203109203031092D5
:1018900002030E940905F6018081843009F077C0B7
:1018A000E114F0E1FF0609F072C019821A821B826E
:1018B0001C82F6018581823039F1833009F445C0FC
:1018C000813009F064C080910A0390910B03892B49
:1018D00089F0E0910A03F0910B03CE01019609957E
:1018E000009741F0609106037091070329813A81C6
:1018F000AC0108C0609106037091070320E030E05E
:1019000040E050E081E041C08091080390910903DC
:10191000892B89F0E0910803F0910903CE0101962B
:101920000995009741F060910603709107032981A2
:101930003A81AC0108C0609106037091070320E072
:1019400030E040E050E082E020C080910C039091B4
:101950000D03892B89F0E0910C03F0910D03CE016A
:1019600001960995009741F0609106037091070375
:1019700029813A81AC0108C0609106037091070388
:1019800020E030E040E050E083E00E945609809182
:10199000000390910103892B09F02ACD8091220345
:1019A00090912303892B09F023CD0F900F900F9076
:1019B0000F90DF91CF911F910F91FF90EF90DF90EB
:1019C000CF90BF90AF909F908F907F906F90089531
:1019D000CF93DF931F92CDB7DEB76983DC01ED9122
:1019E000FC910280F381E02D41E050E0BE016F5F89
:1019F0007F4F09950F90DF91CF91089583E08093F9
:101A0000E9008091F200882319F08AE38093E800CE
:101A100008958F929F92AF92BF92CF92DF92EF92F2
:101A2000FF920F931F93CF93DF937C018B016C0187
:101A300082E0C80ED11C4701E5E08E0E911CC0E08B
:101A4000D0E0F60141916F0150E060E070E02AE0E3
:101A5000C8010E9465145C01C8010E94190E8A0D1C
:101A60009B1DC80FD91FC814D90459F7F701458128
:101A700050E060E070E02AE0C8010E9465148C0F1D
:101A80009D1FDF91CF911F910F91FF90EF90DF90FD
:101A9000CF90BF90AF909F908F9008958F929F921C
:101AA000AF92BF92CF92DF92EF92FF920F931F936C
:101AB000CF93DF935C016B017A0180911901882338
:101AC00009F45BC08091FF02882309F456C080911D
:101AD000AC0380FF05C08091E00082608093E0004D
:101AE000E70110E00AEF83E0882E9AE3992E209711
:101AF000D9F10E94CA1081110AC0015009F43DC0F9
:101B000061E070E080E090E00E94D206F0CF282FE4
:101B100030E0C217D3070CF48C2F4FB7F8948092A3
:101B2000E9009091E80095FF1DC0282F30E0C21B0E
:101B3000D30BF601982F915020F081918093F10002
:101B4000FACFC20ED31E112319F09092E80009C0FB
:101B50008091E80085FD06C09092E80011E0209792
:101B600009F010E04FBFC3CF1111C3CF5D9884E6D9
:101B70008093AD031E141F0444F081E090E0F50152
:101B80009383828380E090E001C0C701DF91CF9111
:101B90001F910F91FF90EF90DF90CF90BF90AF908B
:101BA0009F908F9008950E94CA1090E00895CF935F
:101BB000DF931F92CDB7DEB7FC018485958597FD35
:101BC00005C02FEF3FEF358724870BC0CE0101966C
:101BD0000E94A010019719F4898190E002C08FEF54
:101BE0009FEF0F90DF91CF9108950F931F93CF93A5
:101BF000DF931F92CDB7DEB78C01FC0184859585FC
:101C000097FF0EC0CE0101960E94A010019719F413
:101C1000298130E002C02FEF3FEFF801358724879C
:101C2000F801848595850F90DF91CF911F910F91D9
:101C30000895DC01ED91FC910190F081E02D6EE2C0
:101C40000994CF92DF92EF92FF926B017C01809119
:101C5000A2039091A303009709F43FC04F2D55278D
:101C6000662777272AE00E9465148091A20390914D
:101C7000A3030E94190E4E2D50E060E070E02AE0B0
:101C80008091A2039091A3030E9465148091A20306
:101C90009091A3030E94190E4D2D50E060E070E07A
:101CA0002AE08091A2039091A3030E946514809181
:101CB000A2039091A3030E94190EB701A601552714
:101CC000662777272AE08091A2039091A303FF90D3
:101CD000EF90DF90CF900C946514FF90EF90DF9021
:101CE000CF9008950F931F93CF93DF938C01C0E0A3
:101CF000D0E0F801EC0FFD1F6491662371F0E091D4
:101D00003303F09134030190F081E02D83E393E0FD
:101D10000995892B11F02196ECCFCE01DF91CF915F
:101D20001F910F910895CF93DF930E94720EEC01E3
:101D30006FE871E083E393E00E9450148C0F9D1FC5
:101D4000DF91CF910895E82FF0E0EE0FFF1FEC5FD9
:101D5000FE4F23E735E0318320838230D9F028F429
:101D6000882341F0813071F008958330D9F08430B8
:101D700009F10895809169008C7F826080936900E9
:101D8000E89A089580916900837F88608093690054
:101D9000E99A0895809169008F7C80628093690040
:101DA000EA9A0895809169008F7380688093690032
:101DB000EB9A089580916A008F7C806280936A001C
:101DC000EE9A08950F931F938B019C016830710563
:101DD0008105910588F581E090E0002E02C0880F12
:101DE000991F0A94E2F780959095092E000CAA0B92
:101DF000BB0B409100015091010160910201709173
:101E0000030184239523A623B72341E050E060E03B
:101E100070E004C0440F551F661F771F0A95D2F764
:101E2000842B952BA62BB72B809300019093010157
:101E3000A0930201B09303011F910F910895EF92B7
:101E4000FF920F931F93CF93DF93CDB7DEB7C454A8
:101E5000D1090FB6F894DEBF0FBECDBF20E4EAE192
:101E6000F1E0DE01119601900D922A95E1F72091A3
:101E70008303222309F464C0AB01BC01E090060394
:101E8000F090070384E2D70119968C9319971A965C
:101E90001C921A971B961C921B971C961C92C701AA
:101EA0000D960E943F09FC0184E180831182128219
:101EB000138284E6848315821682178285E08087E8
:101EC0001186128613868FEF84878FE185871686A9
:101ED000178648E85FEF6FEF7FEFCF0140960E94D3
:101EE0003F09FC0110821182128213828CE28483EA
:101EF00081E08583168217828E010F5F1F4F38960F
:101F0000CE018F5B9F4FD8012D918D012193A81792
:101F1000B907C9F744E6B70183E090E00E942F09B2
:101F2000B80183E090E00E94DB09F8014081518113
:101F30006281738121E0452B462B472B09F020E07D
:101F4000822FCC5BDF4F0FB6F894DEBF0FBECDBF44
:101F5000DF91CF911F910F91FF90EF9008952F92F5
:101F60003F924F925F926F927F928F929F92AF9229
:101F7000BF92CF92DF92EF92FF920F931F93CF9376
:101F8000DF93CDB7DEB72C970FB6F894DEBF0FBE48
:101F9000CDBF4B015C0129013A01CE0101961C0124
:101FA00086E0F10111928A95E9F78FEF9FEFDC014E
:101FB0008F839887A987BA8780910603909107033A
:101FC0009C878B878CE1EB85FC8581871286138645
:101FD0001486BA01A901CF010D960E943F09B501EF
:101FE000A4010E943F09B301A201405F5F4F6F4F00
:101FF0007F4F0E943F09B701A6010E943F09FC01E3
:1020000010821182F101DC0112965E0127E0A20E1E
:10201000B11C21912D93EA15FB05D9F7FC013896E7
:10202000A2E9B1E0AD014259514060E070E04415D1
:102030005505660577051CF48D918193F3CFC11486
:10204000D104E104F10479F54CE14C0D440D6B85AC
:102050007C8581E090E00E942F09B50181E090E04D
:102060000E94DB096F81788589859A857093B30317
:102070006093B2032C960FB6F894DEBF0FBECDBFAF
:10208000DF91CF911F910F91FF90EF90DF90CF9054
:10209000BF90AF909F908F907F906F905F904F9088
:1020A0003F902F9008950115110571F2D801AD01EF
:1020B000401B510B60E070E04C155D056E057F051F
:1020C0001CF68D918193F3CF0F931F93CF93DF93E2
:1020D00000D000D0CDB7DEB7AB01BC018FEF9FEFD2
:1020E000DC0189839A83AB83BC8300910603109142
:1020F0000703F80111861286138614861586168644
:102100001786108AC80141960E943F094CE0B80129
:1021100084E090E00E942F09BE016F5F7F4F84E052
:1021200090E00E94DB0969817A818B819C810F900C
:102130000F900F900F90DF91CF911F910F91089505
:10214000FC018091FF02811103C08FEF9FEF089582
:102150009FB7F89482E08093E9002091F20030E08C
:102160001216130614F421E030E02115310559F060
:10217000289884E68093FE028091F100808380910C
:10218000F200882319F09FBFC90108958BE6809360
:10219000E800F9CF2FB7F89483E08093E90090919D
:1021A000E800892F807295FF04C09091F20080E4CE
:1021B000891B2FBF08958091880381110DC082E093
:1021C0008093840384E080938503109287031092A8
:1021D000860381E08093880384E893E0089540912A
:1021E000B0035091B1032091AE033091AF03421779
:1021F0005307B4F49091E8009570E1F39091E800F2
:1022000092FD19C08093F1008091B0039091B103C9
:1022100001968F739927892B19F48EEF8093E8002C
:102220008091B0039091B10301969093B103809394
:10223000B00381E0089580E00895DF92EF92FF926D
:102240000F931F93CF93DF93D82E8A017B01E40E67
:10225000F51EEB01CE15DF0571F0D7FE03C0FE01C0
:10226000849101C088810E94EF1021968111F2CFE4
:102270008FEF9FEF01C0C801DF91CF911F910F91A8
:10228000FF90EF90DF900895615030F02091F100C1
:10229000FC0120830196F8CF289884E68093FE0203
:1022A0000895CF92DF92EF92FF920F931F93CF93F7
:1022B000DF936C017A018B01C0E0D0E0CE15DF0521
:1022C00089F0D8016D918D01D601ED91FC910190BD
:1022D000F081E02DC6010995892B11F47E0102C021
:1022E0002196ECCFC701DF91CF911F910F91FF9005
:1022F000EF90DF90CF9008950F931F93CF93DF93CC
:102300001F92CDB7DEB782E0898342E450E06DE0F2
:1023100072E080E80E941D110E94DB10DC01129621
:102320000D911C9113970115110569F0D801ED91DC
:10233000FC910280F381E02DBE016F5F7F4FC801E9
:10234000099597FF07C089810F90DF91CF911F9169
:102350000F910895F80100851185E5CF1F920F9226
:102360000FB60F9211248F939F938091E10090916B
:10237000E100937F9093E10083FF0FC01092E9008A
:1023800091E09093EB001092EC0092E39093ED00BB
:102390001092FF0298E09093F00082FF20C093E03B
:1023A0009093E9009091F200992319F09AE39093A9
:1023B000E8009091AD03992339F09091AD039150CD
:1023C0009093AD03992389F19091FE02992339F0FE
:1023D0009091FE0291509093FE02992341F184FF67
:1023E00010C08091E2008E7E81608093E200809137
:1023F000E1008F7E8093E1008091AC038E7E80614E
:1024000011C080FF16C08091E2008E7E80618093B3
:10241000E2008091E1008E7E8093E1008091AC0328
:102420008E7E81608093AC0304C05D9ACDCF289AE4
:10243000D6CF9F918F910F900FBE0F901F90189540
:102440001F920F920FB60F921124CF92DF92EF924C
:10245000FF920F931F932F933F934F935F936F932D
:102460007F938F939F93AF93BF93EF93FF93CF93FC
:10247000DF93CDB7DEB76C97DEBFCDBF1092E9001A
:102480008091E80083FFEDC168E0CE0145960E948F
:10249000441182EF8093E8008D8987FF05C09091F9
:1024A000E80090FFFCCF03C09EEF9093E800982FC8
:1024B000907609F0C6C09E892F89188D91110CC0A5
:1024C000803829F48091AB038093F10002C0109210
:1024D000F1001092F10048C1422F50E0512B913091
:1024E00051F4811141C14130510509F03DC1809144
:1024F000AB038D7F0BC0933061F4811135C1413046
:10250000510509F031C18091AB0382608093AB0328
:102510002BC1953041F48091E80080FFFCCF20680A
:102520002093E30021C1963009F05FC0EB8CFC8C56
:102530001092E9001092B1031092B003123091F59D
:102540001092AF031092AE030E947C1199E0BE017D
:102550006F5F7F4FDB01E92F1D92EA95E9F79983C1
:102560001A8391E09E8390EA98879AEF9987209149
:10257000B0033091B103275F3F4F3C832B838D83A2
:102580001092E9001092B1031092B003F092AF03E1
:10259000E092AE0349E050E080E00E941D110E94ED
:1025A0007C11E2C0F092AF03E092AE030E94DB1018
:1025B000DC011296ED90FC901397E114F10409F4FC
:1025C000C0C0D701ED91FC910480F581E02DBE01E2
:1025D0006B5E7F4FC7010995009719F00CF0C4C0DE
:1025E000C7C0F701E084F184E8CF973009F4C0C098
:1025F000983021F481E08093F100B6C0993009F061
:10260000B3C0837009F0B4C0E3E7F1E081E021E0FA
:1026100036E39081992361F08093E9002093EB00E9
:1026200091919093EC003093ED008F5F873089F7A4
:102630008EE78093EA001092EA008F898093FF0270
:1026400093C08B8D9C8D1092E9001092B103109273
:10265000B0039093AF038093AE03898D811156C070
:102660008E899D89913A59F4813209F081C047E001
:1026700050E062E171E080E00E941D1175C091326E
:1026800009F076C0833289F4888D90E0982F8827EE
:102690002F89822BA0E0B0E080930E0190930F0170
:1026A000A0931001B09311015FC0803269F4809152
:1026B000E80082FFFCCF67E082E191E00E944411D4
:1026C0008BEF8093E80006C0823209F04DC08F89FD
:1026D000809319018091AA03882319F0EEEFFAE0A4
:1026E00002C0E0E0F8E08091120190911301A09106
:1026F0001401B0911501803B9440A105B10509F08A
:102700007BC08091190180FF93C076C00E94DB10CE
:10271000DC0112960D911C9113970115110541F1E1
:10272000D801ED91FC910190F081E02DBE016B5E2E
:102730007F4FC8010995811117C0F80100851185E7
:10274000ECCF113009F44EC0133091F48F898823F7
:1027500009F445C0823081F440E864E18DE692E0FE
:102760000E942719882321F08EEF8093E80079C01A
:1027700081E28093EB0075C0813029F440E867E086
:1027800085E692E0EDCF833099F70E94DB10DC0103
:102790001296ED90FC9013978E010F5F1F4F68010A
:1027A000E114F10479F0D701ED91FC910680F781F5
:1027B000E02DB801C7010995080F111DF701E0844C
:1027C000F184EECFD8011C92F60101900020E9F7C8
:1027D0003197BF016C197D0940E0C601C1CF6FE49C
:1027E00072E002C063E572E06115710509F2FB0158
:1027F000449150E080E840CF0FB6F894A8958091BE
:102800006000886180936000109260000FBEA89500
:10281000EE3F2AE0F20739F08091FE0A9091FF0A1C
:1028200091838083A1CF1092FF0A1092FE0A9CCF61
:10283000EE3F8AE0F80731F0808191819093FF0AA2
:102840008093FE0A87E797E7918380839BE088E186
:102850000FB6F894A895809360000FBE9093600027
:1028600083CF6C960FB6F894DEBF0FBECDBFDF915D
:10287000CF91FF91EF91BF91AF919F918F917F91F8
:102880006F915F914F913F912F911F910F91FF9009
:10289000EF90DF90CF900F900FBE0F901F90189584
:1028A0006115710579F0FB0101900020E9F731977E
:1028B000AF01461B570BDC01ED91FC910280F381C7
:1028C000E02D099480E090E008954F925F926F921E
:1028D0007F92EF92FF920F931F93CF93DF93CDB729
:1028E000DEB7A1970FB6F894DEBF0FBECDBF7C0157
:1028F000FA01CB0119A2223008F42AE08E010F5D03
:102900001F4F422E512C612C712CBF01A30192014B
:102910000E946419F901CA01015011096A3014F4C6
:10292000605D01C0695CD8016C93232B242B252B9F
:1029300061F7B801C7010E945014A1960FB6F89430
:10294000DEBF0FBECDBFDF91CF911F910F91FF90E2
:10295000EF907F906F905F904F900895CF93DF93AB
:10296000CDB7DEB7C254D1090FB6F894DEBF0FBEA3
:10297000CDBF789484B5826084BD84B5816084BD08
:1029800085B5826085BD85B5816085BD80916E000D
:10299000816080936E00109281008091810082603E
:1029A000809381008091810081608093810080917B
:1029B000800081608093800080919100826080938C
:1029C00091008091910081608093910080919000AE
:1029D0008160809390008091C10084608093C100E9
:1029E0008091C10082608093C1008091C1008160AC
:1029F0008093C1008091C30081608093C300809167
:102A0000C00082608093C0008091C200816080938A
:102A1000C20080917A00846080937A0080917A006D
:102A2000826080937A0080917A00816080937A003E
:102A300080917A00806880937A001092FF02109251
:102A4000AB031092AC038091D70081608093D700D4
:102A500080EA8093D80089B5806189BD89B582609C
:102A600089BD09B400FEFDCF61E070E080E090E038
:102A70000E94D2068091D8008F7C80618093D8001C
:102A80008091E000807F8093E0008091E1008E7E65
:102A90008093E1008DE08093E200559A209AEEEF5A
:102AA000FFE7859194918B3F9C4D19F481E08093D1
:102AB000AA038FEF9FEF9093400380933F03809191
:102AC000830381110AC280913103882351F0813040
:102AD00051F0823051F0833051F0873051F08FEF58
:102AE00009C082E007C083E005C081E003C080E048
:102AF00001C084E080932F0361E0809130030E9445
:102B0000960660E0809130030E94430564EF71E017
:102B100080E090E00E94D20661E0809132030E9442
:102B2000960662E0809131030E9496068CB58093F0
:102B3000E4018DB581708093E3011FB7F894809113
:102B40007602811127C0E3E4F1E08491E4E2F1E050
:102B50009491E82FF0E0EE0FFF1FEB5FFE4FA59181
:102B6000B491EC91E92321F461E081E10E944305F5
:102B700061E081E10E9496068CB580618CBD8CB5C8
:102B800080648CBD61E08FE00E94960661E080E188
:102B90000E949606809176028F5F809376021FBF17
:102BA0008CB5837F84608CBD8CB58F7D8CBD80910E
:102BB0002E039CB5282F23709C7F922B9CBD2DB596
:102BC00082FB992790F9822F8E7F892B8DBD8CB542
:102BD0008093E2018DB581708093E10180912F0394
:102BE0009FB7F894823069F030F4882399F08130EF
:102BF00061F482E010C0833031F0843031F480E43D
:102C00000AC084E008C088E006C082E08093E0014A
:102C100080E001C081E02091DF01822B8093DF0101
:102C20008091E001811103C081E08093E0019FBFAA
:102C300061E0809132030E9443058091E4018CBDE4
:102C40008091E301882319F08DB5816002C08DB5B4
:102C50008E7F8DBD8EE692E09093090380930803EA
:102C60008EE792E090930B0380930A0386E792E04D
:102C700090930D0380930C038FE892E090931103DF
:102C80008093100389E395E09093130380931203DC
:102C900086E892E090931503809314038DE896E004
:102CA00090931703809316038EEE92E090930F0398
:102CB00080930E0381E080932C03109224031092E2
:102CC00025031092260310922703109228031092D6
:102CD000290310922A0310922B03109201031092E1
:102CE000000310921D0310921C0310921F031092F8
:102CF0001E031092210310922003109223031092BE
:102D00002203109218031092190310921A031092C2
:102D10001B031092030310920203109205031092FA
:102D20000403A3EFB1E0B0930703A093060310924E
:102D3000EB011092EC011092ED011092EE0127E7E9
:102D400032E083E8F901982F11929A95E9F7FD0195
:102D500011928A95E9F783E195E09093E6018093DB
:102D6000E5011092E8011092E7011092F001109233
:102D7000EF013093F2012093F1011092EA011092D9
:102D8000E9018EED8093F90280937502E0911203C0
:102D9000F09113030995E0911003F0911103099547
:102DA0006B017C01E0911603F091170381E0099516
:102DB000CD28CE28CF2809F478C0E0911003F091F7
:102DC00011030995672B682B692BB9F760910603EE
:102DD00070910703DB0119961C9241E080E090E4BA
:102DE0000E942F0960E070E080E090E40E94DB091F
:102DF000609106037091070340E08BE090E40E942D
:102E00002F0960E070E08BE090E40E94DB0960E055
:102E100070E0CB010E946410E0910603F09107037B
:102E20008FEF8187128613861486CC24CA94DC2CFB
:102E30007601C982DA82EB82FC8244E0BF0186E03F
:102E400090E00E942F09BE016F5F7F4F86E090E007
:102E50000E94DB0911E010932C03C982DA82EB8215
:102E6000FC82E0900603F090070344E052E860E043
:102E700070E0C70109960E943F0944E0B70188E06D
:102E800090E00E942F09BE016F5F7F4F88E090E0C5
:102E90000E94DB0989819A81AB81BC81892B8A2BB5
:102EA0008B2BB1F41093830318C0E0911003F091C1
:102EB00011030995672B682B692BB9F3E091100377
:102EC000F09111030995672B682B692BB9F77ECF19
:102ED00088EE91E00E94930EFFCF8DEC91E00E946E
:102EE000720E62E971E083E393E00E9450146FE890
:102EF00071E083E393E00E94501480918303882360
:102F000009F43AC10E94460960EA7FE080E090E05F
:102F10000E941F0F64E971E180E090E00E94D206F8
:102F200060E070E0CB010E941F0F80918303882333
:102F3000A9F160E070E0CB010E946410672B682B60
:102F4000692B61F564EF71E080E090E00E94D206A9
:102F50002BE0C22ED12CE12CF12C09E711E027E067
:102F600030E040E050E063E070E080E090E00E94FC
:102F7000AF0F672B682B692B89F408EE13E0809163
:102F80002D0381FD0BC00E9446096AE070E080E0DD
:102F900090E00E94D2060150110989F780912D031B
:102FA00081FFB0CF8AEB91E00E94930E8DEA91E011
:102FB0000E94930ECC24CA94DC2C98E0F92E8091C8
:102FC0002D0382FF32C0D092B303C092B2030091AE
:102FD000060310910703F801F18612861386148602
:102FE00049E050E060E070E0C8010D960E943F09A2
:102FF000E5E8F1E02191DC012D93CD01B1E0EE385F
:10300000FB07C1F741E1B80180E190E10E942F097F
:10301000BE016F5F7F4F80E190E10E94DB098981F3
:103020009A819093B3038093B20380912D0382FD24
:1030300015C064E670E080E090E00E94D206BFCF49
:1030400080912D0381FD0FC088E891E00E94930ECE
:1030500068EE73E080E090E00E94D20680918303E6
:103060008111EECFF1CF80912D0382FFEDCF6091E2
:1030700006037091070340E085E090E20E942F096B
:10308000BE016F5F7F4F85E090E20E94DB098C817B
:103090008823D1F249815A816B817C814D805E8089
:1030A0006F80788489849A84AB84BC84CD84DE84E8
:1030B000EF84F88889899A89AB89BC898BAF9CAFEA
:1030C000ADAFBEAF8DE791E04FAF21965FAF2197D7
:1030D00022966FAF229723967FAF23970E94720E9E
:1030E0004FAD21965FAD219722966FAD2297239623
:1030F0007FAD2397CB01BA010E94210E82E791E0B8
:103100000E94720EC301B2010E94210E87E691E077
:103110000E94720EC501B4010E94210E8CE591E05F
:103120000E94720EC701B6010E94210E81E591E056
:103130000E94720E6BAD7CAD8DAD9EAD0E94210ED6
:103140006FE871E083E393E00E9450141092FA025A
:103150001092FB021092FC021092FD0260E070E0FF
:10316000CB010E94210E00E010E002C00E9400008E
:1031700001151105E9F3FACF85EC91E00E94930E59
:10318000FFCFE0E9F3E080E791E091838083128252
:10319000138214821582E3E3F3E01382128248EE75
:1031A00053E060E070E044835583668377832EE5C7
:1031B00031E0318320832FEF3FEF35872487A6E965
:1031C000B3E011969C938E9312961C9212971396CD
:1031D0001C92139714961C92149715961C92ACE9A6
:1031E000B3E011969C938E9312961C9212971396AD
:1031F0001C92139714961C92149715961C92A4EA8D
:10320000B3E011969C938E9312961C92129713968C
:103210001C92139714961C92149715961C92109258
:1032200083038AE08093320387E08093310385E053
:10323000809330038FEF80932F0384E080932E03DD
:1032400010922D03F093A303E093A2030895CF926D
:10325000DF92EF92FF920F931F93CF93DF931F9212
:10326000CDB7DEB7182F062FE42E862F880F8E5F7E
:1032700099830E94EF1083E00E94EF10F12EC12E7F
:103280009981D92E8C2D8F19801798F4F601E7FEBD
:1032900002C0849101C080810E94EF10182F80E04D
:1032A0000E94EF108123FFEFCF1ADF0A8111EACFCE
:1032B00001C081E00F90DF91CF911F910F91FF909E
:1032C000EF90DF90CF900895A1E21A2EAA1BBB1BAE
:1032D000FD010DC0AA1FBB1FEE1FFF1FA217B307E2
:1032E000E407F50720F0A21BB30BE40BF50B661FF8
:1032F000771F881F991F1A9469F7609570958095BC
:1033000090959B01AC01BD01CF010895EE0FFF1F09
:103310000590F491E02D099481E090E0F8940C94EC
:103320009A19FB01DC0102C001900D9241505040FE
:08333000D8F70895F894FFCFCF
:10333800FFFF000030023002300230023002FFFF8F
:10334800FFFF00E1000000000000D0070000D007E8
:103358000000D0070000D0070000D0070000D00709
:103368000000D0070000D0070000D0070000D007F9
:103378000000D0070000D0070000D0070000D007E9
:103388000000D0070000D007000000000000E80C93
:103398004E0DD30DFE0C6C01D70DF50D000000008D
:1033A800090D00C18081000000666C79696365625F
:1033B800616C6C21006C6F63616C686F7374000DD5
:0A33C8000A00697074696D657200F7
:107000005FC0000078C0000076C0000074C00000BF
:1070100072C0000070C000006EC000006CC00000B4
:107020006AC0000068C00000DAC4000064C000004C
:1070300062C0000060C000005EC000005CC00000D4
:107040005AC000009DC0000056C0000054C000009F
:1070500052C0000050C000004EC000004CC00000F4
:107060004AC0000048C0000046C0000044C0000004
:1070700042C0000040C000003EC000003CC0000014
:107080003AC0000038C0000036C0000034C0000024
:1070900032C0000030C000002EC000002CC0000034
:1070A0002AC0000028C0000026C00000583E713EE3
:1070B000153F713E153FA63EC83E153FE83EFA3EDD
:1070C00011241FBECFEFDAE0DEBFCDBF11E0A0E09C
:1070D000B1E0E4EBFEE702C005900D92A23BB107E0
:1070E000D9F721E0A2EBB1E001C01D92AB3CB207A1
:1070F000E1F720D3DDC684CF84E08093E90080915E
:10710000E80085FD0EC08091E8008B778093E80051
:107110008091E80082FDF3CF8EB38111F9CF80E03A
:1071200008958091F100089593E09093E900909183
:10713000E80095FF0AC08093F1005D9884E690E036
:107140009093B9018093B80108959091E8009E77DB
:107150009093E8009091E80090FDEDCF9EB39111DF
:10716000F9CF0895F89410926F001092810081E099
:1071700085BF15BE47985D9A289A0C940000089523
:107180001F920F920FB60F9211242F938F939F93FC
:10719000EF93FF9310928500109284008091B801C4
:1071A0009091B901009741F001979093B9018093B4
:1071B000B801892B09F45D9A8091B6019091B701CD
:1071C000009741F001979093B7018093B601892B06
:1071D00009F4289A8091B2019091B301019690939D
:1071E000B3018093B201E0E0F0E0859194910196C3
:1071F00049F08091B4019091B50101969093B50149
:107200008093B401FF91EF919F918F912F910F90F7
:107210000FBE0F901F90189542E061EC82E05AD3A8
:1072200042E161E883E056D342E160E884E052C382
:107230008091C301982F9F77913239F59091C401C5
:10724000903291F0913209F5813AF9F48091E80099
:10725000877F8093E80067E070E082E091E070D47F
:107260008091E8008B770FC0813279F48091E8003B
:10727000877F8093E80067E070E082E091E0B9D416
:107280008091E8008E778093E80008954F925F9296
:107290006F927F928F929F92AF92BF92CF92DF9226
:1072A000EF92FF92CF93DF9384E08093E900809187
:1072B000E80082FF30C2289884E690E09093B701FE
:1072C0008093B60119DFD82F853481F48CE49DE1D9
:1072D0009093B5018093B40107B600FCFDCFF999F6
:1072E000FECF81E180935700E89503C0843521F4F7
:1072F00003DF8DE019DFE6C18C34D9F38035C9F3A3
:10730000843721F484E410DF80E0F4CF813611F477
:1073100089E5F0CF813491F4EFDEC82FEDDE90E007
:10732000880F991F2C2F30E0322F2227330F822B0A
:10733000932BAA2797FDA095BA2F98C1803711F4F7
:1073400083E5D8CF833549F4C9EAD1E08991ECDEF1
:1073500021E0C03BD207D1F7B5C1863521F481E3E6
:10736000E3DE80E3C7CF833731F487E8DDDE85E9EC
:10737000DBDE8EE1BFCF8536B9F4E0E0F0E083E0FC
:1073800095E080935700E89507B600FCFDCF9093F9
:107390005700E89507B600FCFDCFE058FF4FE11518
:1073A00020E7F20771F7A5CF823719F4E1E0F0E0AA
:1073B0000EC0863419F4E0E0F0E009C08E3419F410
:1073C000E3E0F0E004C0813539F4E2E0F0E089E088
:1073D0008093570084918ECF823631F489E5A4DE04
:1073E00080E0A2DE80E886CF823419F0873609F08B
:1073F000D5C01092B5011092B4017EDED82E7CDE8D
:10740000E82E7ADEC82F8BEB8C0F823010F08FE3E2
:1074100071CFF12CFD2810926F00D73609F045C0CE
:1074200081E180935700E8955701912CD1E0A11498
:10743000B10409F4AFC0C090BB01D090BC01E09092
:10744000BD01F090BE01C634B9F4E92DF0E0EC299D
:10745000FD29849169DE992069F082E0C80ED11C73
:10746000E11CF11CC092BB01D092BC01E092BD01B5
:10747000F092BE019D2615C0D701C601B695A7950D
:1074800097958795FFD450DEE2E0CE0ED11CE11C2B
:10749000F11CC092BB01D092BC01E092BD01F09200
:1074A000BE01F1E0AF1AB108C2CF8090BB0190904D
:1074B000BC01A090BD01B090BE01C63421F0C12C2A
:1074C000D12CD1E030C083E0F40180935700E895DF
:1074D00007B600FCFDCFF3CFC63461F5DD2039F1EE
:1074E0004090BB015090BC016090BD017090BE0106
:1074F00003DE2C2D30E0382BF2010901D093570028
:10750000E8951124F2E04F0E511C611C711C409251
:10751000BB015092BC016092BD017092BE01DD269C
:1075200021E0E21AF108E114F104B1F627C0E4DD2C
:10753000C82EF5CFE1DD682F8091BB019091BC0191
:10754000A091BD01B091BE01B695A795979587957D
:10755000A1D44091BB015091BC016091BD017091DB
:10756000BE014E5F5F4F6F4F7F4F4093BB01509303
:10757000BC016093BD017093BE01D2CFC63441F40B
:1075800085E0F40180935700E89507B600FCFDCF35
:107590008DE0CADD82E080936F0094C0833471F483
:1075A000C091BB01D091BC01A7DD90E021E0FE01BC
:1075B0000C0120935700E89511249BCE833601F5EA
:1075C000C090BB01D090BC01E090BD01F090BE0125
:1075D00093DDF601E16090E021E00C01209357007B
:1075E000E8951124F2E0CF0ED11CE11CF11CC092F1
:1075F000BB01D092BC01E092BD01F092BE0179CEF8
:107600008D3661F4E091BB01F091BC0185E080937F
:107610005700E89507B600FCFDCF6BCE823551F4DC
:10762000E091BB01F091BC01C591D4918D2F7CDD1F
:107630008C2F60CE843419F55FDD682F8091BB01FB
:107640009091BC01A091BD01B091BE01B695A795E6
:10765000979587951FD48091BB019091BC01A09113
:10766000BD01B091BE010296A11DB11D8093BB0169
:107670009093BC01A093BD01B093BE013ACE843675
:10768000F1F4C090BB01D090BC01E090BD01F0903E
:10769000BE01D701C601B695A79597958795F2D3F8
:1076A00043DD22E0C20ED11CE11CF11CC092BB01E3
:1076B000D092BC01E092BD01F092BE0103C08B31BB
:1076C00009F0A5CE83E08093E9009091E8008091D5
:1076D000E8008E778093E80095FD11C08091E80066
:1076E00080FD04C08EB38111F9CF15C08091E800F0
:1076F0008E778093E80003C08EB3882361F0809179
:10770000E80080FFF9CF84E08093E9008091E800F1
:107710008B778093E800DF91CF91FF90EF90DF901F
:10772000CF90BF90AF909F908F907F906F905F9021
:107730004F900895CF93309100081092000824B71D
:1077400014BE88E10FB6F894809360001092600038
:107750000FBE90E080E80FB6F8948093610090939C
:1077600061000FBE81E085BF82E085BF3F9A209A0D
:10777000559A90E8909361001092610047985D9A45
:10778000289A109289009AEF9093880080936F0056
:1077900083E080938100E0E0F0E085919491019690
:1077A00019F081E08093BA0121FF20C0809100018F
:1077B0003817E1F0809300087894809101018823C4
:1077C00039F08091B2019091B30188379140C8F3AC
:1077D0001092010110920008F89481E08093010159
:1077E0008091BA01882371F0BDDC0CC020FF04C079
:1077F0008091BA018111F8CF23FF04C0809100016C
:107800003813EECFD4D078941092B5011092B40111
:10781000CEEF80910101882301F138DD1CD38091E6
:10782000B4019091B50181349F4110F01092010193
:107830008091BF019091C00101969093C001809307
:10784000BF01292F97FF02C02C2F291B220F2817B9
:1078500010F44798DECF479ADCCF8091E00081603A
:107860008093E0007FDC80E090E0CF910895292FA5
:1078700030E02230310539F02330310549F0213034
:10788000310561F410C08EE390E029E531E01EC0BF
:10789000882371F0813089F08230A1F080E090E09F
:1078A00020E030E013C082E190E027E931E00EC033
:1078B00084E090E025E531E009C08CE290E027E229
:1078C00031E004C08CE190E029E031E0FA0131833D
:1078D000208308958093E900EBEEF0E080818160E1
:1078E0008083EDEEF0E010826093EC0040838091A5
:1078F000EE00881F8827881F08958091C30187FDA7
:1079000005C08091E80080FF0DC010C08091E800A4
:1079100082FD04C08EB38111F9CF08958091E800F3
:107920008B7707C08EB38111ECCF08958091E8006A
:107930008E778093E80008950F931F93CF93DF9382
:1079400041D048D0C8EDD0E088818F778883888186
:107950008068888388818F7D888319BC1EBA1092C5
:10796000C10100EE10E0F80180818B7F8083888167
:107970008160888342E060E080E0ACDFE1EEF0E02F
:1079800080818E7F8083E2EEF0E080818160808361
:10799000808188608083F80180818E7F80838881E8
:1079A00080618883DF91CF911F910F910895E7ED5A
:1079B000F0E08081816080838AE482BF81E08093EF
:1079C000C201BACFE8EDF0E080818E7F8083109213
:1079D000E20008951092DA001092E10008951F92DB
:1079E0000F920FB60F9211242F933F934F935F93F3
:1079F0006F937F938F939F93AF93BF93EF93FF9377
:107A00008091DA0080FF1BC08091D80080FF17C0F2
:107A10008091DA008E7F8093DA008091D90080FF18
:107A20000BC080E189BD82E189BD09B400FEFDCFB4
:107A300081E08EBB0FD203C019BC1EBA0BD280915D
:107A4000E10080FF17C08091E20080FF13C08091A9
:107A5000E2008E7F8093E2008091E200806180935B
:107A6000E2008091D80080628093D80019BC85E044
:107A70008EBBF0D18091E10084FF2CC08091E200A8
:107A800084FF28C080E189BD82E189BD09B400FE80
:107A9000FDCF8091D8008F7D8093D8008091E10048
:107AA0008F7E8093E1008091E2008F7E8093E200E0
:107AB0008091E20081608093E2008091C101811198
:107AC00004C08091E30087FF02C084E001C081E030
:107AD0008EBBC0D18091E10083FF21C08091E20084
:107AE00083FF1DC08091E100877F8093E10082E0E9
:107AF0008EBB1092C1018091E1008E7F8093E100E6
:107B00008091E2008E7F8093E2008091E2008061AC
:107B10008093E20042E060E080E0DCDE9BD1FF91F8
:107B2000EF91BF91AF919F918F917F916F915F91F5
:107B30004F913F912F910F900FBE0F901F9018956E
:107B40002091C9013091CA012617370748F0611505
:107B5000710539F42091E8002E772093E80001C0E8
:107B6000B901FC0120E061157105A1F18EB38823F4
:107B7000E1F18530E1F18091E80083FD34C080912E
:107B8000E80082FF06C08091E80082FF26C080E006
:107B900008958091E80080FFE6CF2091F300809166
:107BA000F20090E0922B6115710551F0883091053B
:107BB00038F421912093F100615071090196F3CFBF
:107BC00021E0089709F020E08091E8008E7780930B
:107BD000E800C9CF2111CACFD6CF8EB3882329F0B0
:107BE000853089F604C081E0089582E0089583E03D
:107BF00008956115710529F42091E8002B772093F1
:107C0000E8006115710521F12EB3222351F12530D1
:107C100051F12091E80023FD20C02091E80022FFCF
:107C2000F3CFFC01CF014091F3002091F20030E04E
:107C3000342B232B09F38091F1008193CF01615004
:107C4000710981F7D9CF8EB3882359F0853059F067
:107C50008091E80080FFF7CF02C081E0089580E0C6
:107C6000089582E0089583E008950F931F93CF93C2
:107C7000DF9300D0CDB7DEB7E3ECF1E08091F10007
:107C8000819381E0EB3CF807C9F7D2DA8091E800F4
:107C900083FFCBC02091C3013091C401832F90E0BA
:107CA0008A30910508F0C1C0FC01EA5AF74CE4C0E3
:107CB000223809F0BAC08091C70187708093E9002B
:107CC0009091EB001092E9008091E800877F80930B
:107CD000E80095FB882780F98093F1001092F1006D
:107CE00082C0822F8D7F09F0A0C0223009F09DC094
:107CF0008091C501811124C02091C701277009F42A
:107D000094C02093E9008091EB0080FF19C080911E
:107D1000EB00333011F4806211C080618093EB007E
:107D200081E090E0022E01C0880F0A94EAF7809368
:107D3000EA001092EA008091EB0088608093EB00EB
:107D40001092E9008091E800877F50C021116DC03A
:107D50001091C5011F770FB7F8948091E800877FD5
:107D60008093E800CADD8091E80080FFFCCF80911D
:107D7000E3008078812B8093E30080688093E300A8
:107D8000112311F083E001C082E08EBB0FBF4DC014
:107D90002058223008F049C0AE014F5F5F4F60911C
:107DA000C7018091C5019091C60161DD009709F47A
:107DB0003CC02091E800277F2093E800BC01898126
:107DC0009A81BEDE8091E8008B778093E8002DC019
:107DD000203859F58091E800877F8093E8008091F2
:107DE000C1018093F1008091E8008E778093E800D4
:107DF00084DD1BC0211119C09091C5019230A8F4F7
:107E00008091E800877F8093E8009093C10175DD41
:107E10008091C101811104C08091E30087FF02C0FD
:107E200084E001C081E08EBBF7D98091E80083FF38
:107E30000AC08091EB0080628093EB008091E800A3
:107E4000877F8093E8000F900F90DF91CF911F9173
:107E50000F9108950895CF938EB3882359F0C09160
:107E6000E900C7701092E9008091E80083FDFDDE13
:107E7000C093E900CF910895EE0FFF1F0590F49194
:107E8000E02D0994F999FECF92BD81BDF89A99270A
:107E900080B50895262FF999FECF1FBA92BD81BDF6
:107EA00020BD0FB6F894FA9AF99A0FBE019608957C
:047EB000F894FFCF74
:107EB4007701000000000000081C03410072006408
:107EC40000750069006E006F002000730072006C82
:107ED400002000200000002C0341007200640075A3
:107EE4000069006E006F0020004C0065006F006E9A
:107EF400006100720064006F0020004500540048D7
:107F040000200000000403090409023E00020100ED
:107F1400803209040000010202010005240010015E
:107F2400042402040524060001070582030800FF57
:107F340009040100020A0000000705040210000100
:107F4400070583021000011201100102000008035A
:107F54002A40000100020100014341544552494EA8
:027F64004100DA
:040000030000700089
:00000001FF