:100000000C9443010C94D40C0C94AD0C0C94860C01
:100010000C945F0C0C946B010C946B010C94380CD9
:100020000C946B010C946B010C943B150C94AD1566
:100030000C946B010C946B010C946B010C946B0190
:100040000C946B010C946B010C946B010C946B0180
:100050000C946B010C946B010C946B010C94CF0B02
:100060000C946B010C946B010C946B010C946B0160
:100070000C946B010C946B010C946B010C946B0150
:100080000C946B010C946B010C946B010C946B0140
:100090000C946B010C946B010C946B010C946B0130
:1000A0000C946B010C946B010C946B01040B070B0B
:1000B000F60AFA0A000B280B280B280B0B0B0F0B68
:1000C000130B190B1D0B280B230B0A444E5373659E
:1000D00072763A20000A444843507372763A200000
:1000E0000A476174657761793A20000A4E65746D3C
:1000F00061736B3A20000A495020416464723A20CF
:1001000000556E61626C6520746F2072657472694F
:100110006576652074686520495020416464726585
:100120007373210D0A00526571756573742044481C
:10013000435000436F6E6E656374656421004661D1
:10014000696C656421000A417474656D7074696E30
:100150006720746F20636F6E6E65637420746F2008
:1001600000000000002300260029002C002F0000C2
:1001700000000200090F0000030401000C00000051
:10018000000000000000000000000000000000006F
:100190000000240027002A002D003000040802017E
:1001A00010408040102040804080080204018040C0
:1001B0002010020110801020404020040404040498
:1001C00003040502020202040302020202060606FA
:1001D00006060604040202020404436F756C646E92
:1001E000277420626567696E28292120436865634A
:1001F0006B20796F757220776972696E673F0000B6
:10020000000000250028002B002E003100080B0004
:10021000020202010009040000010202000005249C
:100220000010010524010101042402060524060032
:10023000010705810310004009040100020A0000C3
:100240000007050202400000070583024000000489
:1002500003090412010002EF02014041233680002D
:10026000010102030141726475696E6F204C4C43B9
:100270000041726475696E6F204C656F6E617264C7
:100280006F00A41B3B1811241FBECFEFDAE0DEBFC6
:10029000CDBF12E0A0E0B1E0E2EBFDE302C00590CB
:1002A0000D92A634B107D9F724E0A6E4B2E001C06C
:1002B0001D92AE39B207E1F711E0C2E4D1E004C00B
:1002C0002197FE010E94D81DC134D107C9F70E94B1
:1002D00047180C94CC1E0C940000FC011082118273
:1002E0001282138280E090E00895FC011082118256
:1002F0001282138280E090E00895FC011082118246
:100300001282138280E090E008952CB5237F246050
:100310002CBD680F791F23E08617970751F02EBD7B
:1003200000000DB407FEFDCF3EB5FC013193CF01B7
:10033000F3CF0895680F791F8617970751F0FC01D6
:100340002191CF012EBD00000DB407FEFDCF2EB5CB
:10035000F3CF089580918302882361F09FB7F894CA
:100360002091830280917F02213019F48DBB9FBFC1
:1003700008958FBF089520918302222399F04FB7EB
:10038000F89420918302213059F42DB320937F02F9
:100390003DB320918202209523232DBB4FBF02C085
:1003A00040937F028CBD9DBD0895089580E090E04C
:1003B000089580910B040E942F08BC01990F880BAF
:1003C000990B0895882311F061E001C060E08091ED
:1003D0000A040C94290B1092800280910904853044
:1003E00010F40C94190C089581E0809380028091A0
:1003F0000904853010F40C9471110895FA016038E5
:1004000030E873078105910521F4309107043160CC
:1004100009C0613030E873078105910531F43091EE
:10042000070432603093070421C0623030E873075C
:100430008105910531F420910704297F2093070459
:1004400027C0603130E873078105910521F4809160
:100450000704846008C0693971058105910531F48C
:10046000809107048860809307040895603430E821
:1004700073078105910561F480917E028F5F8093FF
:100480007E02422F50E0BF018AE692E00C94AD1E3E
:10049000611578488105910541F4E081E03228F446
:1004A000F0E0E65BFD4F81E0808308950F931F939A
:1004B000FC01E60FF71F438150E060E070E0342F4D
:1004C0002227112700279281492F50E060E070E039
:1004D000BA0155274427400F511F621F731F8081A7
:1004E000480F511D611D711D818190E0A0E0B0E0B9
:1004F000BA2FA92F982F88278A019B01080F191F4F
:100500002A1F3B1FC901B8011F910F910895FC01DB
:10051000E60FF71F9181892F90E0982F882720817F
:10052000820F911D08950F931F93CF93DF9381E066
:100530008093810280918E0290918F02A09190020F
:10054000B09191020097A105B10569F481E090E0B6
:10055000A0E0B0E080938E0290938F02A09390026F
:10056000B0939102F3C082309105A105B10509F065
:10057000BFC086E090E0A0E0B0E080938E02909350
:100580008F02A0939002B09391028CB58093870262
:100590008DB5817080938602809185028CBD80919B
:1005A0008402882319F08DB5816002C08DB58E7FDD
:1005B0008DBD84E591E00E94BB0160E080910C0458
:1005C0000E94290B6AE070E080919402909195025C
:1005D0000E94850188E090E0A0E0B0E080938E0268
:1005E00090938F02A0939002B0939102C0919402D5
:1005F000D09195028D81823019F08430E1F03EC0B7
:1006000063E070E0CE0105960E9487029C01BC0168
:1006100080E090E020FD05C06F5F7F4F8F4F9F4FC0
:1006200005C0611571058105910541F1CE010A965C
:100630000E94850123C0088510E020E030E0C90158
:10064000B801615071098109910960FF02C0C901B7
:10065000B801611571058105910521F0CE010A9659
:100660000E94850188E090E0A0E0B0E080938E02D7
:1006700090938F02A0939002B09391021092800207
:1006800080910904853010F40E94190C61E080917A
:100690000C040E94290B0E94AA01809187028CBD44
:1006A00080918602882319F08DB5816002C08DB5D6
:1006B0008E7F8DBD8091940290919502FC01EE5742
:1006C000FF4F20812E3D09F0FFCF42E050E060E077
:1006D00070E040938E0250938F026093900270936B
:1006E0009102E0918802F0918902059609952EC049
:1006F0000397A105B10551F560918A0270918B02B3
:1007000080919202909193020E949A0182E090E07F
:10071000A0E0B0E080938E0290938F02A0939002AD
:10072000B093910261E080910C040E94290B0E9419
:10073000AA01809187028CBD80918602882319F0DE
:100740008DB5816002C08DB58E7F8DBD1092810206
:10075000DF91CF911F910F910895FC014083518348
:10076000628373830496089580910B040E942F087E
:10077000892B49F480918102811105C0809180020A
:1007800081110C949302089581E0809380028091FE
:100790000904853010F40C94711108950F931F9380
:1007A000CF93DF93EC01CB018170992721E0822761
:1007B00021E028838C01060F171F19838170860F93
:1007C0008A831B821C8280914B038E3D09F0FFCFF0
:1007D00080918E0290918F02A0919002B09191022F
:1007E0000097A105B10509F4FFCF0197A105B10557
:1007F00009F056C08CB5809387028DB581708093C7
:100800008602809185028CBD80918402882319F034
:100810008DB5816002C08DB58E7F8DBD84E591E080
:100820000E94BB0160E080910C040E94290B61E0F2
:1008300070E080E090E00E94950B64E070E0CE01F3
:100840000E949A0161E070E080E090E00E94950BC8
:10085000B8016F5F7F4FCE0104960E949A0182E03B
:1008600090E0A0E0B0E080938E0290938F02A0937E
:100870009002B093910261E080910C040E94290BD8
:100880000E94AA01809187028CBD809186028823F4
:1008900019F08DB5816002C08DB58E7F8DBD7FC092
:1008A000E091EE03F091EF03099580918E02909113
:1008B0008F02A0919002B091910282309105A10522
:1008C000B105D9F783E090E0A0E0B0E080938E021C
:1008D00090938F02A0939002B0939102D0939302D1
:1008E000C09392020B5F1F4F10938B0200938A02FA
:1008F0008CB5809387028DB581708093860280913C
:1009000085028CBD80918402882319F08DB58160A9
:1009100002C08DB58E7F8DBD84E591E00E94BB0144
:1009200060E080910C040E94290BE091EC03F091AF
:10093000ED030995E091EA03F091EB030995672B2C
:10094000682B692B61F560918A0270918B0280910E
:100950009202909193020E949A0182E090E0A0E0BE
:10096000B0E080938E0290938F02A0939002B09398
:10097000910261E080910C040E94290B0E94AA015F
:10098000809187028CBD80918602882319F08DB5F5
:10099000816002C08DB58E7F8DBD0E94F401809173
:1009A0008E0290918F02A0919002B09191028230BC
:1009B0009105A105B105D9F760E070E0CB01DF91A9
:1009C000CF911F910F9108952F923F924F925F9276
:1009D0006F927F928F929F92AF92BF92CF92DF924F
:1009E000EF92FF920F931F93CF93DF93CDB7DEB7B4
:1009F000C654D1090FB6F894DEBF0FBECDBF86E452
:100A000091E00E944411E0911904F0911A04409180
:100A1000170450911804609113047091140402801B
:100A2000F381E02D89E194E009950E94E5100091A1
:100A3000170410911804C8010E94521C1C018091D7
:100A40001104909112040E94521C4C01A8014F5FA6
:100A50005F4FB10183E194E00E946F134091110454
:100A6000509112044F5F5F4FB4018DE094E00E94FB
:100A70006F1310916904112309F485C10E94B40316
:100A800060EA7FE080E090E00E94ED1164E971E1AE
:100A900080E090E00E94950B60E070E0CB010E9446
:100AA000ED11D4019C9180916904911130C088238B
:100AB00009F47CC060E070E0CB010E943313672B27
:100AC000682B692B09F072C064EF71E080E090E060
:100AD0000E94950BF10101900020E9F731978F01F9
:100AE0000219130920E030E0A12CB12C6501E12CA2
:100AF000F12CA10160E070E0CB010E947D12672B18
:100B0000682B692B09F052C008EE13E04BC0882314
:100B100009F44CC0F10101900020E9F73197E21986
:100B2000F309B19708F042C0F40101900020E9F701
:100B30003197E819F909B197C8F560E070E0CB0189
:100B40000E943313672B682B692B81F564EF71E0EA
:100B500080E090E00E94950BF40101900020E9F7FD
:100B600031975F01A818B908F10101900020E9F759
:100B700031978F0102191309C12CD12C20E030E0EC
:100B80007401A10163E070E080E090E0B6CF0E94C4
:100B9000B4036AE070E080E090E00E94950B0150A1
:100BA000110921F08091070481FFF1CF80910704A2
:100BB00081FF64CF83E391E00E94651186E291E0BA
:100BC0000E946511EE24EA94FE2C98E0D92E8091C3
:100BD000070482FF32C0F0929904E09298040091D9
:100BE000E0031091E103F801D18612861386148682
:100BF00049E050E060E070E0C8010D960E94AD034E
:100C0000E5E8F1E02191DC012D93CD01B1E0EE3872
:100C1000FB07C1F741E1B80180E190E10E94FB0CC4
:100C2000BE016F5F7F4F80E190E10E940B0D8981D3
:100C30009A8190939904809398048091070482FD8F
:100C400015C064E670E080E090E00E94950BBFCF95
:100C50008091070481FD0FC081E091E00E94651141
:100C600068EE73E080E090E00E94950B10916904BB
:100C70001111EECFF1CF8091070482FFEDCF60918B
:100C8000E0037091E10340E085E090E20E94FB0CFC
:100C9000BE016F5F7F4F85E090E20E940B0D8C815B
:100CA0008823D1F249815A816B817C814D805E809D
:100CB0006F80788489859A85AB85BC8523968CAFB7
:100CC0009DAFAEAFBFAF2397CD84DE84EF84F888AD
:100CD00089899A89AB89BC898BAF9CAFADAFBEAF18
:100CE00086EF90E024964FAF249725965FAF259727
:100CF00026966FAF269727967FAF27970E944411BD
:100D000024964FAD249725965FAD259726966FAD17
:100D1000269727967FAD2797CB01BA010E94F31043
:100D20008BEE90E00E944411C301B2010E94F310C7
:100D300080EE90E00E94441123966CAD7DAD8EADA7
:100D40009FAD23970E94F31085ED90E00E9444111F
:100D5000C701B6010E94F3108AEC90E00E94441192
:100D60006BAD7CAD8DAD9EAD0E94F3100E94E51081
:100D700061E08DE00E94290BC1010E94E71CC401C3
:100D80000E94E71C04C08EE391E00E946511812F50
:100D9000CA5BDF4F0FB6F894DEBF0FBECDBFDF9149
:100DA000CF911F910F91FF90EF90DF90CF90BF9068
:100DB000AF909F908F907F906F905F904F903F90FB
:100DC0002F900895CF93DF931F92CDB7DEB769833D
:100DD000DC01ED91FC910280F381E02D41E050E0D7
:100DE000BE016F5F7F4F09950F90DF91CF910895FE
:100DF00083E08093E9008091F200882319F08AE370
:100E00008093E8000895FC018485958597FD0BC0CB
:100E10009FB7F89482E08093E9008091F2009FBF31
:100E200090E0019608959FB7F89482E08093E900DE
:100E30008091F2009FBF90E008958F929F92AF92B1
:100E4000BF92CF92DF92EF92FF920F931F93CF93B7
:100E5000DF937C018B016C0182E0C80ED11C47013D
:100E6000E5E08E0E911CC0E0D0E0F60141916F01EB
:100E700050E060E070E02AE0C8010E94F2175C01D7
:100E8000C8010E94EB108A0D9B1DC80FD91FC81402
:100E9000D90459F7F701458150E060E070E02AE09D
:100EA000C8010E94F2178C0F9D1FDF91CF911F91F7
:100EB0000F91FF90EF90DF90CF90BF90AF909F90F9
:100EC0008F9008958F929F92AF92BF92CF92DF92B0
:100ED000EF92FF920F931F93CF93DF935C016B010F
:100EE0007A0180911901882309F45BC08091D903AC
:100EF000882309F456C08091920480FF05C0809138
:100F0000E00082608093E000E70110E00AEF83E0F8
:100F1000882E9AE3992E2097D9F10E94D11381113E
:100F20000AC0015009F43DC061E070E080E090E04B
:100F30000E94950BF0CF282F30E0C217D3070CF496
:100F40008C2F4FB7F8948092E9009091E80095FFBC
:100F50001DC0282F30E0C21BD30BF601982F9150F3
:100F600020F081918093F100FACFC20ED31E11239D
:100F700019F09092E80009C08091E80085FD06C054
:100F80009092E80011E0209709F010E04FBFC3CF26
:100F90001111C3CF5D9884E6809393041E141F043F
:100FA00044F081E090E0F5019383828380E090E05B
:100FB00001C0C701DF91CF911F910F91FF90EF907A
:100FC000DF90CF90BF90AF909F908F9008950E9438
:100FD000D11390E00895CF93DF931F92CDB7DEB782
:100FE000FC018485958597FD05C02FEF3FEF358780
:100FF00024870BC0CE0101960E94A713019719F414
:10100000898190E002C08FEF9FEF0F90DF91CF9129
:1010100008950F931F93CF93DF931F92CDB7DEB741
:101020008C01FC018485958597FF0EC0CE01019649
:101030000E94A713019719F4298130E002C02FEF15
:101040003FEFF80135872487F801848595850F9057
:10105000DF91CF911F910F9108950E94A81ECF9309
:10106000DF93282F30E0F901E159FE4F8491F90117
:10107000E456FE4FD491F901E554FE4FC491CC23C0
:1010800091F081110E94EC0AEC2FF0E0EE0FFF1FAF
:10109000EF59FE4FA591B491EC91ED2381E090E0E2
:1010A00021F480E002C080E090E0DF91CF910895CC
:1010B0003FB7F8948091D4039091D503A091D603C3
:1010C000B091D70326B5A89B05C02F3F19F0019614
:1010D000A11DB11D3FBFBA2FA92F982F8827820FBE
:1010E000911DA11DB11DBC01CD0142E0660F771F0E
:1010F000881F991F4A95D1F7089508958F929F925E
:10110000AF92BF92CF92DF92EF92FF920F931F9315
:10111000CF93DF938B01BA01E90123E0F801258326
:101120008683CE01029687839087C8010B96C93EBD
:10113000F3E0DF07C0F4F801C187D287AE010E9457
:10114000AD1EBE016A5F7F4FC801DF91CF911F9135
:101150000F91FF90EF90DF90CF90BF90AF909F9056
:101160008F900C94CE0338EEF8013187228728EE59
:1011700033E0FA01DC0101900D9221503040D9F7A3
:10118000C85ED3406A01F8E1CF1AFCEFDF0A6EEEC9
:1011900073E0C8010E94CE03480127E0820E911C33
:1011A000580135E0A30EB11C0E94B403C93E83E090
:1011B000D80738F0C85ED34088EEE82E83E0F82EDA
:1011C00003C07E01C0E0D0E0F801F682E582A7010D
:1011D000B601C4010E94AD1ECE0CDF1CB7016E5FCC
:1011E0007F4FC5010E94CE032097F1F6DF91CF918A
:1011F0001F910F91FF90EF90DF90CF90BF90AF9035
:101200009F908F9008958F929F92AF92BF92CF92AE
:10121000DF92EF92FF920F931F93CF93DF93CDB79F
:10122000DEB765970FB6F894DEBF0FBECDBF8C0159
:1012300061E070E00E9487026C01E12CF12C96FFC6
:1012400069C0811521E4920709F064C065E070E08F
:10125000C8010E9487024C01095F1F4FA12CB12CCD
:10126000C12CD12C7601A814B90479F062E070E0A9
:10127000C8010E948702C80ED91EE11CF11C0C5F38
:101280001F4F8FEFA81AB80AEECF8091F603909106
:10129000F7038C0D9D1D9093F7038093F6038091C7
:1012A000020490910304A0910404B0910504C80EB7
:1012B000D91EEA1EFB1EC0920204D0920304E092E3
:1012C0000404F092050440910204509103046091DB
:1012D0000404709105048091FE039091FF03A09196
:1012E0000004B0910104481759076A077B0709F009
:1012F00021C180910604882309F41CC1E091E80310
:10130000F091E90320E040E050E069E970E080E01E
:1013100090E0D3C097FFD3C08034E0E89E0709F483
:101320006DC0C0F4843020E8920709F4B6C030F4F0
:1013300081509048029708F013C1AFC080319048A7
:1013400009F00EC1D8011596FE013196CE01059621
:10135000AF011AC0811524E8920709F49EC050F429
:101360008038F0E89F0709F498C08115924809F485
:1013700094C0F6C08115E8E89E0709F47EC0811587
:10138000994809F48AC0ECC02D912193E817F90718
:10139000D9F7F80181858D8382858E8383858F833C
:1013A000848588873D96DE011996C8014196219172
:1013B0002D93E817F907D9F7DE011D96C801459668
:1013C00021912D93E817F907D9F7DE015196C8014D
:1013D000499621912D93E817F907D9F7F8018481EF
:1013E0008D8B8091E8039091E903892B09F4A2C0C9
:1013F000E091E803F091E90325E15DC00B5F1F4F29
:1014000060E070E0C8010E94560269837A838B8392
:101410009C8364E070E0C8010E9456026D837E8365
:101420008F83988768E070E0C8010E945602698740
:101430007A878B879C876CE070E0C8010E94560217
:101440006D877E878F87988B60E170E0C8010E946E
:101450005602698B7A8B8B8B9C8B8091E8039091E1
:10146000E903892B09F466C0E091E803F091E903F0
:1014700024E1AE014F5F5F4F1EC08091E803909161
:10148000E903892B09F456C0E091E803F091E903E0
:10149000A8014B5F5F4F21E00EC08091E80390915F
:1014A000E903892B09F446C0E091E803F091E903D0
:1014B00020E040E050E0C701B60109953BC0F3E0F1
:1014C000CF16F0E1DF06E104F10421F08E509041E7
:1014D0000297A8F5780125E0E20EF11C64E070E0C7
:1014E000C7010E945602673C7F4F8F4F9F4FC1F547
:1014F000F801848190E0A0E0B0E08093F203909343
:10150000F303A093F403B093F50360E070E0C70128
:101510000E9456024B015C0164E070E0C7010E942A
:101520005602673C7F4F8F4F9F4F21F4C501B40196
:101530000E94B01161E070E080E090E014C0809102
:10154000DA039091DB03A0E0B0E0C816D906EA0602
:10155000FB0631F0C11420E1D206E104F10451F799
:1015600060E070E0CB0165960FB6F894DEBF0FBE69
:10157000CDBFDF91CF911F910F91FF90EF90DF9042
:10158000CF90BF90AF909F908F90089521E030E072
:101590003093DD032093DC039093DF038093DE031D
:1015A0008091DC039091DD03892BA9F08091DE030B
:1015B0009091DF03FC012081243069F40E9403092B
:1015C000613071058105910531F41092DD031092AF
:1015D000DC030C94C403089590E0FC013197EF30D4
:1015E000F105B0F5EA5AFF4F0C94D81D80918000A8
:1015F0008F7703C0809180008F7D80938000089555
:1016000080918000877FF9CF84B58F7702C084B541
:101610008F7D84BD0895809190008F7707C0809161
:1016200090008F7D03C080919000877F8093900011
:1016300008958091C0008F7703C08091C0008F7D96
:101640008093C00008958091C200877F8093C2007C
:1016500008951F93CF93DF93282F30E0F901E159CC
:10166000FE4F8491F901E456FE4FD491F901E554FF
:10167000FE4FC491CC23C9F0162F81110E94EC0AB1
:10168000EC2FF0E0EE0FFF1FE150FE4FA591B4915B
:101690008FB7F894111105C09C91ED2FE095E923C7
:1016A00002C0EC91ED2BEC938FBFDF91CF911F9196
:1016B0000895CF93DF9390E0FC01E456FE4F249110
:1016C000FC01E554FE4F8491882361F190E0880F7E
:1016D000991FFC01E257FE4FC591D491FC01E150E6
:1016E000FE4FA591B491611109C09FB7F89488810C
:1016F000209582238883EC912E230BC0623061F405
:101700009FB7F8943881822F809583238883EC914A
:101710002E2B2C939FBF06C08FB7F894E8812E2BF9
:1017200028838FBFDF91CF9108958F929F92AF92C0
:10173000BF92CF92DF92EF92FF926B017C010E94E9
:1017400058084B015C01C114D104E104F104F1F02B
:101750000E945808DC01CB0188199909AA09BB0924
:10176000883E9340A105B10570F321E0C21AD1086B
:10177000E108F10888EE880E83E0981EA11CB11CD8
:10178000C114D104E104F10419F7DDCFFF90EF900B
:10179000DF90CF90BF90AF909F908F9008951F9251
:1017A0000F920FB60F9211242F933F938F939F9315
:1017B000AF93BF938091D0039091D103A091D203B6
:1017C000B091D3033091CF0323E0230F2D3720F4C2
:1017D0000196A11DB11D05C026E8230F0296A11D8B
:1017E000B11D2093CF038093D0039093D103A09396
:1017F000D203B093D3038091D4039091D503A091E9
:10180000D603B091D7030196A11DB11D8093D403D7
:101810009093D503A093D603B093D703BF91AF9114
:101820009F918F913F912F910F900FBE0F901F901E
:101830001895823079F030F4882351F0813069F4C2
:10184000E9980BC0833041F0843039F4EE9805C03C
:10185000E89803C0EA9801C0EB98E82FF0E0EE0F9B
:10186000FF1FEC5FFE4F8DE798E091838083089522
:101870001F920F920FB60F9211242F933F934F9305
:101880005F936F937F938F939F93AF93BF93EF93E8
:10189000FF93E0910C01F0910D010995FF91EF91FB
:1018A000BF91AF919F918F917F916F915F914F9178
:1018B0003F912F910F900FBE0F901F9018951F9280
:1018C0000F920FB60F9211242F933F934F935F9374
:1018D0006F937F938F939F93AF93BF93EF93FF93F8
:1018E000E0910A01F0910B010995FF91EF91BF91F1
:1018F000AF919F918F917F916F915F914F913F91A8
:101900002F910F900FBE0F901F9018951F920F925E
:101910000FB60F9211242F933F934F935F936F93C2
:101920007F938F939F93AF93BF93EF93FF93E09138
:101930000801F09109010995FF91EF91BF91AF91D5
:101940009F918F917F916F915F914F913F912F91D7
:101950000F900FBE0F901F9018951F920F920FB609
:101960000F9211242F933F934F935F936F937F9325
:101970008F939F93AF93BF93EF93FF93E0910601F3
:10198000F09107010995FF91EF91BF91AF919F9160
:101990008F917F916F915F914F913F912F910F9018
:1019A0000FBE0F901F9018951F920F920FB60F92B7
:1019B00011242F933F934F935F936F937F938F9354
:1019C0009F93AF93BF93EF93FF93E0910401F09146
:1019D00005010995FF91EF91BF91AF919F918F9173
:1019E0007F916F915F914F913F912F910F900FBE1B
:1019F0000F901F901895FB0121E025838683978324
:101A0000408750E0BA016C5F7F4FCF010E94CE0348
:101A100080E090E008956F927F928F929F92AF92B4
:101A2000BF92CF92DF92EF92FF920F931F93CF93CB
:101A3000DF9300D000D0CDB7DEB78B019093DB03EE
:101A40008093DA03E12CF12C80E1B82E96E2A92EE6
:101A50000E94B4038091DC039091DD03892BC1F3D4
:101A6000C090DE03D090DF03F6018081843009F05E
:101A700026C261E070E0C6010E9487027C01C601B7
:101A80000E940309672B682B692B09F00CC23601F1
:101A9000F5E06F0E711C48E0E41640E1F40608F032
:101AA00076C086E0E81680E1F80608F002C1E2E0C0
:101AB000EE16FE0609F4FDC000F54DE0E416F10453
:101AC00080F488E0E816F10408F0F3C0E1E0EE16D7
:101AD000F10408F4E8C1F7E0EF16F10408F068C17A
:101AE000E8C04DE0E416F10409F4DEC081E0E81638
:101AF00082E0F80609F4D8C0D6C1E3E0EE16E0E1D2
:101B0000FE0610F5F1E0EF16F0E1FF0608F0D1C097
:101B100045E0E41642E0F40608F4C6C087E0E816A3
:101B200082E0F80609F0BFC1F6018481F8018193D3
:101B30008F0160E070E0C3010E945602AB01BC015E
:101B4000C8010E94AD03AFC1E4E0EE16E0E1FE067D
:101B500009F4D9C008F406C160E070E0C3010E9436
:101B60005602F801608371838283938364E070E09E
:101B7000C3010E945602F8016483758386839783AC
:101B8000085F1F4FF6013D96D8018B2D43C141E1FF
:101B9000E41640E1F40609F487C008F04BC0EBE01E
:101BA000EE16E0E1FE0609F484C0A8F549E0E4166B
:101BB00040E1F40609F47DC008F0EBC060E070E09D
:101BC000C3010E945602F80160837183828393836C
:101BD00064E070E0C3010E945602F80164837583DB
:101BE0008683978368E070E0C3010E945602F80183
:101BF00060877187828793874801FCE08F0E911C74
:101C00006CE070E0C3010E945602F801648775879A
:101C10008687978747C1EFE0EE16E0E1FE0609F4FC
:101C2000A1C008F051C04DE0E41640E1F40609F40B
:101C30006AC039C185E0E81680E2F80609F4EFC011
:101C400060F4F2E1EF16F0E1FF0609F453C041E061
:101C5000E41640E2F40640F526C18AE0E81680E288
:101C6000F80658F4E8E0EE16E0E2FE06E8F4F6E0E6
:101C7000EF16F0E2FF06C1F016C14BE0E41640E4B7
:101C8000F40609F010C1F601858190E09093F70306
:101C90008093F60361E070E0C3010E948702909395
:101CA000F9038093F803FFC0F6018481F801808373
:101CB000FAC060E070E0C3010E945602F801608340
:101CC000718382839383EFC060E070E0C3010E9460
:101CD0005602F80161937193819391934F0164E0EF
:101CE00070E0C3010E945602F80164837583868305
:101CF0009783D8C060E070E0C3010E948702F801BA
:101D000091838083D0C060E070E0C3010E945602DE
:101D1000F801608371838283938364E070E0C30180
:101D20000E945602F8016483758386839783480175
:101D3000F8E08F0E911C68E070E0C3010E9456022B
:101D4000F8016087718782879387048515852685CA
:101D50003785073C1F4F2F4F3F4F09F0A3C00E940C
:101D6000B011A0C060E070E0C3010E945602F8010B
:101D7000608371838283938364E070E0C3010E9477
:101D80005602F8016483758386839783085F1F4F2B
:101D90008AC0F6018481F8018483F60185819681E9
:101DA000A781B085F80180839183A283B3837BC030
:101DB00060E070E0C3010E945602F8016083718305
:101DC0008283938364E070E0C3010E945602F801AD
:101DD000648375838683978368E070E0C3010E9403
:101DE0008702A0E0B0E0F80180879187A287B387DF
:101DF0006AE070E0C3010E948702A0E0B0E0F80151
:101E000082879387A487B587045F1F4FF601719679
:101E1000D8018A2D01900D928A95E1F744C0C8013E
:101E2000D8011496F30121913F01FC012193CF01C8
:101E3000EA17FB07B9F7F6013996C6010D9621910D
:101E40002D93E817F907D9F7D8011896C6014196DE
:101E500021912D93E817F907D9F7D8011C96C601EF
:101E6000459621912D93E817F907D9F7D801509697
:101E7000C601499621912D93E817F907D9F7D801A2
:101E80005496C6014F9621912D93E817F907D9F77B
:101E9000D8015A96C601CF9621912D93E817F907DC
:101EA000D9F701C084018091DA039091DB03E81631
:101EB000F906D9F41092DB031092DA0316C063E03E
:101EC00070E0C6010E948702F601628170E0AC01F9
:101ED000461B570B6B5F7F4F6C0D7D1DC8010E9429
:101EE000AD1E1092FD031092FC031092DD031092C0
:101EF000DC030E94C403F6018081843009F077C0BE
:101F0000E114F0E1FF0609F072C019821A821B8207
:101F10001C82F6018581823039F1833009F445C095
:101F2000813009F064C08091E4039091E503892B2E
:101F300089F0E091E403F091E503CE010196099563
:101F4000009741F06091E0037091E10329813A81AB
:101F5000AC0108C06091E0037091E10320E030E043
:101F600040E050E081E041C08091E2039091E303C2
:101F7000892B89F0E091E203F091E303CE01019611
:101F80000995009741F06091E0037091E103298188
:101F90003A81AC0108C06091E0037091E10320E058
:101FA00030E040E050E082E020C08091E603909174
:101FB000E703892B89F0E091E603F091E703CE0176
:101FC00001960995009741F06091E0037091E1035B
:101FD00029813A81AC0108C06091E0037091E1036E
:101FE00020E030E040E050E083E00E947E088091F5
:101FF000DA039091DB03892B09F02ACD8091FC0351
:102000009091FD03892B09F023CD0F900F900F9035
:102010000F90DF91CF911F910F91FF90EF90DF9084
:10202000CF90BF90AF909F908F907F906F900895CA
:10203000CF92DF92EF92FF92CF93DF93EC01109259
:10204000FE031092FF0310920004109201041092FC
:1020500002041092030410920404109205041092DA
:10206000DB031092DA031092F7031092F60310923A
:10207000F9031092F8031092FB031092FA031092E6
:10208000FD031092FC031092F2031092F3031092DE
:10209000F4031092F5031092DD031092DC0310920A
:1020A000DF031092DE03A9ECB2E0B093E103A0934A
:1020B000E00310928E0210928F0210929002109202
:1020C00091022CE433E093E8F901892F11928A956B
:1020D000E9F7FD0111929A95E9F786EC9AE0909361
:1020E00089028093880210928B0210928A021092C9
:1020F00093021092920230939502209394021092D0
:102100008D0210928C029EED9093CE0390934B0320
:10211000E091EC03F091ED030995E091EA03F09171
:10212000EB0309956B017C01E091F003F091F10361
:1021300081E00995CD28CE28CF2889F0E091EA03E7
:10214000F091EB030995672B682B692BB9F7609128
:10215000E0037091E103CD2BA9F480E014C0E0917D
:10216000EA03F091EB030995672B682B692BB9F310
:10217000E091EA03F091EB030995672B682B692B3B
:10218000B9F7E5CF82E0FB01818741E080E090E490
:102190000E94FB0C60E070E080E090E40E940B0D78
:1021A0006091E0037091E10340E08BE090E40E94D5
:1021B000FB0C60E070E08BE090E4DF91CF91FF904A
:1021C000EF90DF90CF900C940B0D62E472E089E108
:1021D00094E00C94DD17DC01ED91FC910190F0810D
:1021E000E02D6EE20994CF92DF92EF92FF926B01A5
:1021F0007C0180918E0490918F04009709F43FC078
:102200004F2D5527662777272AE00E94F2178091E5
:102210008E0490918F040E94EB104E2D50E060E0F0
:1022200070E02AE080918E0490918F040E94F21752
:1022300080918E0490918F040E94EB104D2D50E000
:1022400060E070E02AE080918E0490918F040E94FB
:10225000F21780918E0490918F040E94EB10B701C9
:10226000A6015527662777272AE080918E04909152
:102270008F04FF90EF90DF90CF900C94F217FF90B7
:10228000EF90DF90CF9008950F931F93CF93DF933C
:102290008C01C0E0D0E0F801EC0FFD1F64916623D3
:1022A00071F0E0911904F0911A040190F081E02D91
:1022B00089E194E00995892B11F02196ECCFCE01AC
:1022C000DF91CF911F910F910895CF93DF930E94DB
:1022D0004411EC010E94E5108C0F9D1FDF91CF91FE
:1022E0000895E82FF0E0EE0FFF1FEC5FFE4F23E9AB
:1022F00032E0318320838230D9F028F4882341F002
:10230000813071F008958330D9F0843009F1089557
:10231000809169008C7F826080936900E89A0895BB
:1023200080916900837F886080936900E99A0895AD
:10233000809169008F7C806280936900EA9A089599
:10234000809169008F73806880936900EB9A08958B
:1023500080916A008F7C806280936A00EE9A089573
:102360000F931F938B019C016830710581059105C6
:1023700088F581E090E0002E02C0880F991F0A9432
:10238000E2F780959095092E000CAA0BBB0B4091AB
:1023900000015091010160910201709103018423B9
:1023A0009523A623B72341E050E060E070E004C02D
:1023B000440F551F661F771F0A95D2F7842B952B64
:1023C000A62BB72B8093000190930101A0930201EB
:1023D000B09303011F910F910895EF92FF920F9315
:1023E0001F93CF93DF93CDB7DEB7C454D1090FB697
:1023F000F894DEBF0FBECDBF20E4E0E2F1E0DE01E5
:10240000119601900D922A95E1F7209169042223FB
:1024100009F464C0AB01BC01E090E003F090E1037B
:1024200084E2D70119968C9319971A961C921A97E1
:102430001B961C921B971C961C92C7010D960E941E
:10244000AD03FC0184E1808311821282138284E651
:10245000848315821682178285E080871186128612
:1024600013868FEF84878FE185871686178648E865
:102470005FEF6FEF7FEFCF0140960E94AD03FC014D
:1024800010821182128213828CE2848381E0858320
:10249000168217828E010F5F1F4F3896CE018F5B19
:1024A0009F4FD8012D918D012193A817B907C9F726
:1024B00044E6B70183E090E00E94FB0CB80183E0A2
:1024C00090E00E940B0DF80140815181628173817F
:1024D00021E0452B462B472B09F020E0822FCC5BD7
:1024E000DF4F0FB6F894DEBF0FBECDBFDF91CF91A7
:1024F0001F910F91FF90EF9008952F923F924F926E
:102500005F926F927F928F929F92AF92BF92CF9283
:10251000DF92EF92FF920F931F93CF93DF93CDB78C
:10252000DEB72E970FB6F894DEBF0FBECDBF6B8718
:102530007C878D879E874A0128013901CE0101964B
:102540001C0186E0F10111928A95E9F78FEF9FEF68
:10255000DC018F839887A987BA870091E0031091E7
:10256000E1038CE1F8018187128613861486B3019A
:10257000A201C8010D960E94AD034B855C856D8557
:102580007E850E94AD03B301A201405F5F4F6F4F94
:102590007F4F0E94AD03B601A5010E94AD03FC016F
:1025A00010821182F101DC0112961E0127E0220E39
:1025B000311C21912D93E215F305D9F7FC013896D2
:1025C000D401AD014819590960E070E04415550582
:1025D000660577051CF48D918193F3CFA114B104A6
:1025E000C104D10479F58CE18A0D482F440DB8015E
:1025F00081E090E00E94FB0CB10181E090E00E943C
:102600000B0D6F81788589859A8570939904609305
:1026100098042E960FB6F894DEBF0FBECDBFDF91A3
:10262000CF911F910F91FF90EF90DF90CF90BF90CF
:10263000AF909F908F907F906F905F904F903F9062
:102640002F900895E114F10471F2D701AD014E19F4
:102650005F0960E070E04A155B056C057D051CF6BE
:102660008D918193F3CF0F931F93CF93DF9300D07E
:1026700000D0CDB7DEB7AB01BC018FEF9FEFDC011F
:1026800089839A83AB83BC830091E0031091E103BB
:10269000F80111861286138614861586168617860B
:1026A000108AC80141960E94AD034CE0B80184E055
:1026B00090E00E94FB0CBE016F5F7F4F84E090E0D2
:1026C0000E940B0D69817A818B819C810F900F9004
:1026D0000F900F90DF91CF911F910F9108950F935D
:1026E0001F93CF93DF9341155105E9F061157105F3
:1026F000D1F0FC01248135812115310519F4FB014C
:10270000108211C0EA0121972C173D0708F4E90156
:102710008B01FC0160817181AE01C8010E94BD1E68
:10272000C00FD11F1882DF91CF911F910F91089593
:10273000CF93DF93BC0189E194E00E94DD17EC01A7
:102740000E94E5108C0F9D1FDF91CF910895FC0131
:102750008091D903811103C08FEF9FEF08959FB738
:10276000F89482E08093E9002091F20030E01216A4
:10277000130614F421E030E02115310559F02898B2
:1027800084E68093D8038091F10080838091F200E9
:10279000882319F09FBFC90108958BE68093E80054
:1027A000F9CF2FB7F89483E08093E9009091E80087
:1027B000892F807295FF04C09091F20080E4891BFC
:1027C0002FBF08958091740481110DC082E0809321
:1027D000700484E080937104109273041092720468
:1027E00081E08093740480E794E008950F931F9331
:1027F000CF93DF938C01EB01FC01808191810097E5
:10280000B1F0688179816115710579F04281538158
:102810002C813D814217530740F00E94B61E8C81E7
:102820009D81F8019583848313C00E94E71C8881F1
:102830009981F801918380838A819B81938382832C
:102840008C819D8195838483198218821B821A82D0
:102850001D821C82DF91CF911F910F910895EF92FD
:10286000FF920F931F93CF93DF93EC01198218828D
:102870001B821A821D821C8261157105A9F17B01E0
:10288000FB0101900020E9F731978F01061B170B20
:10289000B8016F5F7F4F80E090E00E94DE1D0097DF
:1028A00059F0998388831B830A832C813D81232BD4
:1028B00081F4FC0110820DC088819981009711F08C
:1028C0000E94E71C198218821D821C821B821A82B8
:1028D0000BC01D830C83B701DF91CF911F910F9126
:1028E000FF90EF900C94B61EDF91CF911F910F9146
:1028F000FF90EF90089508954091960450919704A9
:10290000209194043091950442175307B4F49091A8
:10291000E8009570E1F39091E80092FD19C0809372
:10292000F100809196049091970401968F739927F6
:10293000892B19F48EEF8093E80080919604909192
:1029400097040196909397048093960481E00895EC
:1029500080E00895DF92EF92FF920F931F93CF9341
:10296000DF93D82E8A017B01E40EF51EEB01CE1514
:10297000DF0571F0D7FE03C0FE01849101C088819C
:102980000E947C1421968111F2CF8FEF9FEF01C03E
:10299000C801DF91CF911F910F91FF90EF90DF90D1
:1029A0000895615030F02091F100FC0120830196E0
:1029B000F8CF289884E68093D8030895CF92DF92C9
:1029C000EF92FF920F931F93CF93DF936C017A01E5
:1029D0008B01C0E0D0E0CE15DF0589F0D8016D9104
:1029E0008D01D601ED91FC910190F081E02DC601A1
:1029F0000995892B11F47E0102C02196ECCFC70105
:102A0000DF91CF911F910F91FF90EF90DF90CF90CA
:102A100008950F931F93CF93DF931F92CDB7DEB727
:102A200082E0898342E450E06DE072E080E80E9439
:102A3000AA140E94E213DC0112960D911C911397C7
:102A40000115110569F0D801ED91FC910280F38127
:102A5000E02DBE016F5F7F4FC801099597FF07C04A
:102A600089810F90DF91CF911F910F910895F80107
:102A700000851185E5CF1F920F920FB60F9211249A
:102A80008F939F938091E1009091E100937F9093C9
:102A9000E10083FF0FC01092E90091E09093EB00FA
:102AA0001092EC0092E39093ED001092D90398E01D
:102AB0009093F00082FF20C093E09093E900909102
:102AC000F200992319F09AE39093E800909193040F
:102AD000992339F090919304915090939304992302
:102AE00089F19091D803992339F09091D8039150AE
:102AF0009093D803992341F184FF10C08091E200A4
:102B00008E7E81608093E2008091E1008F7E8093D1
:102B1000E100809192048E7E806111C080FF16C01A
:102B20008091E2008E7E80618093E2008091E100DE
:102B30008E7E8093E100809192048E7E81608093EE
:102B4000920404C05D9ACDCF289AD6CF9F918F91E1
:102B50000F900FBE0F901F9018951F920F920FB6F7
:102B60000F921124CF92DF92EF92FF920F931F9357
:102B70002F933F934F935F936F937F938F939F9385
:102B8000AF93BF93EF93FF93CF93DF93CDB7DEB7B0
:102B90006C97DEBFCDBF1092E9008091E80083FF03
:102BA000EDC168E0CE0145960E94D11482EF80937A
:102BB000E8008D8987FF05C09091E80090FFFCCF69
:102BC00003C09EEF9093E800982F907609F0C6C05E
:102BD0009E892F89188D91110CC0803829F480911D
:102BE00091048093F10002C01092F1001092F10064
:102BF00048C1422F50E0512B913051F4811141C115
:102C00004130510509F03DC1809191048D7F0BC089
:102C1000933061F4811135C14130510509F031C162
:102C2000809191048260809391042BC1953041F48E
:102C30008091E80080FFFCCF20682093E30021C151
:102C4000963009F05FC0EB8CFC8C1092E90010927A
:102C5000970410929604123091F5109295041092F8
:102C600094040E94091599E0BE016F5F7F4FDB015C
:102C7000E92F1D92EA95E9F799831A8391E09E83E3
:102C800090EA98879AEF998720919604309197045B
:102C9000275F3F4F3C832B838D831092E900109276
:102CA000970410929604F0929504E092940449E0FF
:102CB00050E080E00E94AA140E940915E2C0F09240
:102CC0009504E09294040E94E213DC011296ED90C8
:102CD000FC901397E114F10409F4C0C0D701ED9101
:102CE000FC910480F581E02DBE016B5E7F4FC70132
:102CF0000995009719F00CF0C4C0C7C0F701E08433
:102D0000F184E8CF973009F4C0C0983021F481E015
:102D10008093F100B6C0993009F0B3C0837009F018
:102D2000B4C0EFE7F1E081E021E036E39081992340
:102D300061F08093E9002093EB0091919093EC0077
:102D40003093ED008F5F873089F78EE78093EA003C
:102D50001092EA008F898093D90393C08B8D9C8D4C
:102D60001092E900109297041092960490939504A3
:102D700080939404898D811156C08E899D89913AE2
:102D800059F4813209F081C047E050E062E171E01E
:102D900080E00E94AA1475C0913209F076C0833297
:102DA00089F4888D90E0982F88272F89822BA0E0C6
:102DB000B0E080930E0190930F01A0931001B093A7
:102DC00011015FC0803269F48091E80082FFFCCF7E
:102DD00067E082E191E00E94D1148BEF8093E800DC
:102DE00006C0823209F04DC08F898093190180910D
:102DF0009004882319F0EEEFFAE002C0E0E0F8E07A
:102E00008091120190911301A0911401B0911501CC
:102E1000803B9440A105B10509F07BC08091190168
:102E200080FF93C076C00E94E213DC0112960D91E0
:102E30001C9113970115110541F1D801ED91FC91F9
:102E40000190F081E02DBE016B5E7F4FC8010995B6
:102E5000811117C0F80100851185ECCF113009F4FC
:102E60004EC0133091F48F89882309F445C0823015
:102E700081F440E860E181E792E00E94151C88231C
:102E800021F08EEF8093E80079C081E28093EB001F
:102E900075C0813029F440E86BE085E692E0EDCF23
:102EA000833099F70E94E213DC011296ED90FC90BA
:102EB00013978E010F5F1F4F6801E114F10479F041
:102EC000D701ED91FC910680F781E02DB801C70193
:102ED0000995080F111DF701E084F184EECFD801A8
:102EE0001C92F60101900020E9F73197BF016C199F
:102EF0007D0940E0C601C1CF6FE472E002C063E526
:102F000072E06115710509F2FB01449150E080E81F
:102F100040CF0FB6F894A8958091600088618093A7
:102F20006000109260000FBEA895EE3F2AE0F20705
:102F300039F08091FE0A9091FF0A91838083A1CF9E
:102F40001092FF0A1092FE0A9CCFEE3F8AE0F8072B
:102F500031F0808191819093FF0A8093FE0A87E788
:102F600097E7918380839BE088E10FB6F894A8955A
:102F7000809360000FBE9093600083CF6C960FB675
:102F8000F894DEBF0FBECDBFDF91CF91FF91EF91DF
:102F9000BF91AF919F918F917F916F915F914F9171
:102FA0003F912F911F910F91FF90EF90DF90CF9065
:102FB0000F900FBE0F901F9018956115710579F055
:102FC000FB0101900020E9F73197AF01461B570B39
:102FD000DC01ED91FC910280F381E02D099480E009
:102FE00090E008954F925F926F927F92EF92FF92DE
:102FF0000F931F93CF93DF93CDB7DEB7A1970FB693
:10300000F894DEBF0FBECDBF7C01FA01CB0119A23F
:10301000223008F42AE08E010F5D1F4F422E512C02
:10302000612C712CBF01A30192010E94B61DF90110
:10303000CA01015011096A3014F4605D01C0695C75
:10304000D8016C93232B242B252B61F7B801C701E2
:103050000E94DD17A1960FB6F894DEBF0FBECDBF5C
:10306000DF91CF911F910F91FF90EF907F906F9024
:103070005F904F90089580910D0490910E040E94EE
:10308000E71C80911304909114040C94E71CCF93D7
:10309000DF93CDB7DEB7A1970FB6F894DEBF0FBEB2
:1030A000CDBF789484B5826084BD84B5816084BDD1
:1030B00085B5826085BD85B5816085BD80916E00D6
:1030C000816080936E001092810080918100826007
:1030D0008093810080918100816080938100809144
:1030E0008000816080938000809191008260809355
:1030F0009100809191008160809391008091900077
:103100008160809390008091C10084608093C100B1
:103110008091C10082608093C1008091C100816074
:103120008093C1008091C30081608093C30080912F
:10313000C00082608093C0008091C2008160809353
:10314000C20080917A00846080937A0080917A0036
:10315000826080937A0080917A00816080937A0007
:1031600080917A00806880937A001092D90310923F
:103170009104109292048091D70081608093D700CF
:1031800080EA8093D80089B5806189BD89B5826065
:1031900089BD09B400FEFDCF61E070E080E090E001
:1031A0000E94950B8091D8008F7C80618093D8001D
:1031B0008091E000807F8093E0008091E1008E7E2E
:1031C0008093E1008DE08093E200559A209AEEEF23
:1031D000FFE7859194918B3F9C4D19F481E080939A
:1031E00090048FEF9FEF90932604809325046FE85F
:1031F00071E0CE0101960E942F14BE016F5F7F4FD8
:1032000083E194E00E94F61389819A810E94E71C71
:1032100067E971E0CE0101960E942F14BE016F5F35
:103220007F4F8DE094E00E94F61389819A810E947D
:10323000E71C61E08DE00E94590B809169048111C7
:1032400050C180910B04882351F0813051F08230BD
:1032500051F0833051F0873051F08FEF09C082E098
:1032600007C083E005C081E003C080E001C084E0C6
:103270008093090461E080910A040E94590B60E088
:1032800080910A040E94290B64EF71E080E090E0D5
:103290000E94950B61E080910C040E94590B62E042
:1032A00080910B040E94590B8CB5809387028DB5D9
:1032B0008170809386021FB7F894809196028111E5
:1032C00027C0ECECF1E08491EDEAF1E09491E82F75
:1032D000F0E0EE0FFF1FE257FE4FA591B491EC9185
:1032E000E92321F461E081E10E94290B61E081E1A1
:1032F0000E94590B8CB580618CBD8CB580648CBDEF
:1033000061E08FE00E94590B61E080E10E94590B5F
:10331000809196028F5F809396021FBF8CB5837F4A
:1033200084608CBD8CB58F7D8CBD809108049CB56C
:10333000282F23709C7F922B9CBD2DB582FB992753
:1033400090F9822F8E7F892B8DBD8CB5809385025D
:103350008DB5817080938402809109049FB7F894A1
:10336000823069F030F4882399F0813061F482E092
:1033700010C0833031F0843031F480E40AC084E03E
:1033800008C088E006C082E08093830280E001C02C
:1033900081E020918202822B8093820280918302BD
:1033A000811103C081E0809383029FBF61E080911F
:1033B0000C040E94290B809187028CBD80918602AB
:1033C000882319F08DB5816002C08DB58E7F8DBDCB
:1033D0008DE691E09093E3038093E2038DE791E023
:1033E0009093E5038093E40385E791E09093E703EE
:1033F0008093E60389ED91E09093EB038093EA03D9
:1034000084EF91E09093ED038093EC038BEE91E0D9
:103410009093EF038093EE0382EE91E09093F1039B
:103420008093F0038EEF91E09093E9038093E8039B
:1034300011E01093060480E090E00E94181060E014
:1034400070E0CB010E943313E091E003F091E103BF
:103450008FEF818712861386148688248A94982C8D
:10346000540189829A82AB82BC8244E0BF0186E02B
:1034700090E00E94FB0CBE016F5F7F4F86E090E002
:103480000E940B0D1093060489829A82AB82BC8243
:103490008090E0039090E10344E052E860E070E047
:1034A000C40109960E94AD0344E0B40188E090E0B5
:1034B0000E94FB0CBE016F5F7F4F88E090E00E948E
:1034C0000B0D89819A81AB81BC81892B8A2B8B2B37
:1034D00019F41093690405C08AED91E00E9465110A
:1034E000FFCF80916904882351F160EA7FE080E09A
:1034F00090E00E94ED11882311F164E971E180E010
:1035000090E00E94950BE091E003F091E1031186B9
:1035100012861386148644E0BF0187E090E00E9483
:10352000FB0C67E972E087E090E00E940B0DC09011
:103530009702D0909802E0909902F0909A0263EA84
:1035400071E089E194E00E94DD172AE0B701A6014D
:1035500089E194E00E94F2170E94E51085EB91E06A
:103560000E949813C114D104E104F10409F469C064
:1035700081E0C81AD108E108F10800919F0210E02B
:1035800015950795B090A0028B2C912C959487945B
:1035900095948794A40163EA72E0CE0101960E949B
:1035A000BD1EE1E0F0E0EC0FFD1FE80DF91D1082FB
:1035B000E091E003F091E1031186128613861486F0
:1035C00044E0BF0187E090E00E94FB0C67E972E0F5
:1035D00087E090E00E940B0D6FEF71E089E194E0CD
:1035E0000E94DD17BE016F5F7F4F89E194E00E946A
:1035F000DD170E94E5106CE072E089E194E00E9422
:10360000DD17A801110F660B770B2AE089E194E022
:103610000E94F2170E94E51064E172E089E194E0F3
:103620000E94DD174B2D437050E060E070E02AE00F
:1036300089E194E00E94F2170E94E5100E94E510D3
:1036400091CF85EB91E00E94981360E070E0CB0190
:103650000E94ED110E94E40400E010E0CC24CA9422
:10366000DC2C7601809169048823E9F0C982DA8232
:10367000EB82FC826091E0037091E10340E089E01D
:1036800090E00E94FB0CBE016F5F7F4F89E090E0ED
:103690000E940B0D89819A81AB81BC810397A105A2
:1036A000B10509F444C00E94E51085E292E00E9451
:1036B00098130E94E51060E08DE00E94290B809134
:1036C0006904882391F1E091F003F091F10380E027
:1036D0000995E091EA03F091EB030995672B682BBC
:1036E000692BB9F38091E0039091E103892B21F0DC
:1036F0001092E1031092E003809194029091950260
:10370000892B21F01092950210929402E091EE0321
:10371000F091EF03099568E873E180E090E00E9482
:10372000950B80E090E00E9418100E94E40468EE7F
:1037300073E080E090E00E94950B0115110509F4FB
:1037400091CF0E9400008ECFECE7F4E086E791E095
:10375000918380831282138214821582E9E1F4E05E
:103760001382128248EE53E060E070E04483558398
:103770006683778324E631E0318320832FEF3FEFA8
:1037800035872487A2E8B4E011969C938E93129615
:103790001C92129713961C92139714961C921497CE
:1037A00015961C92A8E8B4E011969C938E931296FD
:1037B0001C92129713961C92139714961C921497AE
:1037C00015961C92AAE6B4E011969C938E931296DD
:1037D0001C92129713961C92139714961C9214978E
:1037E00015961C92109269048AE080930C0487E07D
:1037F00080930B0485E080930A048FEF8093090483
:1038000084E08093080410920704F0938F04E093FF
:103810008E0464E472E083E194E00E942F1464E477
:1038200072E08DE094E00C942F14CF92DF92EF922F
:10383000FF920F931F93CF93DF931F92CDB7DEB705
:10384000182F062FE42E862F880F8E5F99830E94F3
:103850007C1483E00E947C14F12EC12E9981D92E14
:103860008C2D8F19801798F4F601E7FE02C0849121
:1038700001C080810E947C14182F80E00E947C147B
:103880008123FFEFCF1ADF0A8111EACF01C081E067
:103890000F90DF91CF911F910F91FF90EF90DF90EC
:1038A000CF900895CF93DF938230910510F482E09A
:1038B00090E0E0919C04F0919D0420E030E0C0E0B5
:1038C000D0E0309711F14081518148175907C0F07D
:1038D0004817590761F482819381209719F09B83DF
:1038E0008A832BC090939D0480939C0426C021154D
:1038F000310519F04217530718F49A01BE01DF0190
:10390000EF010280F381E02DDCCF2115310509F1B3
:10391000281B390B2430310590F412968D919C911F
:1039200013976115710521F0FB019383828304C015
:1039300090939D0480939C04FD01329644C0FD0148
:10394000E20FF31F81939193225031092D933C9301
:103950003AC020919A0430919B04232B41F420918A
:103960001C0130911D0130939B0420939A042091F7
:103970001A0130911B012115310541F42DB73EB7D5
:1039800040911E0150911F01241B350BE0919A04B8
:10399000F0919B04E217F307A0F42E1B3F0B2817AE
:1039A000390778F0AC014E5F5F4F2417350748F0B8
:1039B0004E0F5F1F50939B0440939A048193919301
:1039C00002C0E0E0F0E0CF01DF91CF9108950F93C6
:1039D0001F93CF93DF93009709F48CC0FC013297BB
:1039E0001382128200919C0410919D04011511050F
:1039F00081F420813181820F931F20919A043091AC
:103A00009B042817390779F5F0939B04E0939A04F7
:103A100071C0D80140E050E0AE17BF0750F41296D5
:103A20002D913C911397AD012115310509F1D90173
:103A3000F3CF9D01DA013383228360817181860F88
:103A4000971F8217930769F4EC0128813981260FAB
:103A5000371F2E5F3F4F318320838A819B81938361
:103A60008283452B29F4F0939D04E0939C0442C08B
:103A70001396FC93EE931297ED01499159919E0193
:103A8000240F351FE217F30771F480819181840FB1
:103A9000951F029611969C938E9382819381139623
:103AA0009C938E931297E0E0F0E0D80112968D91EE
:103AB0009C911397009719F0F8018C01F6CF8D9126
:103AC0009C9198012E5F3F4F820F931F20919A0483
:103AD00030919B042817390769F4309729F4109224
:103AE0009D0410929C0402C01382128210939B04C6
:103AF00000939A04DF91CF911F910F9108952F9217
:103B00003F924F925F926F927F928F929F92AF926D
:103B1000BF92CF92DF92EF92FF920F931F93CF93BA
:103B2000DF93CDB7DEB7CA1BDB0B0FB6F894DEBF51
:103B30000FBECDBF09942A88398848885F846E8477
:103B40007D848C849B84AA84B984C884DF80EE80C1
:103B5000FD800C811B81AA81B981CE0FD11D0FB6CA
:103B6000F894DEBF0FBECDBFED010895A1E21A2E7D
:103B7000AA1BBB1BFD010DC0AA1FBB1FEE1FFF1F11
:103B8000A217B307E407F50720F0A21BB30BE40B61
:103B9000F50B661F771F881F991F1A9469F76095A8
:103BA0007095809590959B01AC01BD01CF01089562
:103BB000EE0FFF1F0590F491E02D0994A0E0B0E016
:103BC000E4EEFDE10C94831DEC01009721F4CB01A0
:103BD0000E94521CB8C0FC01E60FF71F9C01225046
:103BE0003109E217F30708F4ACC0D9010D911C911B
:103BF000119706171707B0F00530110508F49FC09C
:103C0000C80104978617970708F499C00250110954
:103C1000061B170B019311936D937C93CF010E94A8
:103C2000E71C8DC05B01A01AB10A4C01800E911EE9
:103C3000A0919C04B0919D0440E050E0E12CF12C57
:103C4000109709F44AC0A815B905D1F56D907C907C
:103C50001197630182E0C80ED11CCA14DB0480F105
:103C6000A3014A195B096A0182E0C80ED11C1296B1
:103C7000BC9012971396AC91B5E0CB16D10440F0EE
:103C8000B282A38351834083D9016D937C930AC090
:103C90000E5F1F4FC301800F911FF9019183808335
:103CA000EB2DFA2FE114F10431F0D7011396FC93B8
:103CB000EE93129744C0F0939D04E0939C043FC0A0
:103CC0008D919C9111974817590708F4AC017D011B
:103CD00012960D90BC91A02DB3CF80919A04909133
:103CE0009B0488159905E1F446175707C8F480919D
:103CF0001A0190911B01009741F48DB79EB7409136
:103D00001E0150911F01841B950BE817F907C8F499
:103D1000F0939B04E0939A04F901718360830FC0D0
:103D2000CB010E94521C7C01009759F0A801BE01F2
:103D30000E94AD1ECE010E94E71CC70104C0CE0147
:103D400002C080E090E0CDB7DEB7EEE00C949F1D9E
:103D500081E090E0F8940C94CC1EFB01DC0102C0E1
:103D600001900D9241505040D8F70895FB01DC01BD
:103D700001900D920020E1F70895FB01DC01415014
:103D8000504048F001900D920020C9F701C01D92EB
:103D900041505040E0F7089511E0C2E4D1E004C082
:103DA000FE010E94D81D2196C334D107C9F7F894AB
:023DB000FFCF43
:103DB200FFFF00007D087D087D087D087D08FFFF6C
:103DC200FFFF00E100000000000000009E048000F0
:103DD200D0070000D0070000D0070000D007000085
:103DE200D0070000D0070000D0070000D007000075
:103DF200D0070000D0070000D0070000D007000065
:103E0200D0070000D0070000D0070000D007000054
:103E120000000000E2066207E707F8060307EB0767
:103E22000908000000001D07000000002D0800C165
:103E320080810000006C6F63616C686F737400694D
:103E42007074696D657200666C7969636562616C34
:103E52006C21004E6574776F726B7320666F756E9E
:103E620064203A2000203D3D203D3D203D3D203D47
:103E72003D203D3D203D3D203D3D203D3D203D3D01
:103E8200203D3D203D3D203D3D203D3D203D3D200E
:103E92003D3D203D3D203D3D203D3D203D3D203DE1
:103EA2003D203D3D203D3D203D3D203D3D200053F8
:103EB200534944204E616D65203A200052535349C4
:103EC200203A20005365637572697479204D6F64DE
:103ED20065203A20005769466920436F6E6E65631C
:103EE20074204C6F7374205265436F6E6E656374F9
:063EF20021000D0A000092
:00000001FF
